{
  "_format": "hh-sol-artifact-1",
  "contractName": "UserStorage",
  "sourceName": "contracts/Repository/UserStorage.sol",
  "abi": [
    {
      "inputs": [
        {
          "internalType": "address",
          "name": "key",
          "type": "address"
        }
      ],
      "stateMutability": "nonpayable",
      "type": "constructor"
    },
    {
      "inputs": [
        {
          "internalType": "address",
          "name": "userAddress",
          "type": "address"
        },
        {
          "internalType": "address",
          "name": "key",
          "type": "address"
        }
      ],
      "name": "AddReferal",
      "outputs": [],
      "stateMutability": "payable",
      "type": "function"
    },
    {
      "inputs": [
        {
          "internalType": "address",
          "name": "userAddress",
          "type": "address"
        },
        {
          "internalType": "address",
          "name": "ref",
          "type": "address"
        },
        {
          "internalType": "address",
          "name": "key",
          "type": "address"
        }
      ],
      "name": "AddUser",
      "outputs": [],
      "stateMutability": "payable",
      "type": "function"
    },
    {
      "inputs": [],
      "name": "GetMembersCount",
      "outputs": [
        {
          "internalType": "uint256",
          "name": "",
          "type": "uint256"
        }
      ],
      "stateMutability": "view",
      "type": "function"
    },
    {
      "inputs": [
        {
          "internalType": "address",
          "name": "userAddress",
          "type": "address"
        }
      ],
      "name": "GetReferrer",
      "outputs": [
        {
          "internalType": "address",
          "name": "",
          "type": "address"
        }
      ],
      "stateMutability": "view",
      "type": "function"
    },
    {
      "inputs": [
        {
          "internalType": "uint256",
          "name": "userId",
          "type": "uint256"
        }
      ],
      "name": "GetUserAddressById",
      "outputs": [
        {
          "internalType": "address",
          "name": "",
          "type": "address"
        }
      ],
      "stateMutability": "view",
      "type": "function"
    },
    {
      "inputs": [
        {
          "internalType": "address",
          "name": "userAddress",
          "type": "address"
        }
      ],
      "name": "GetUserByAddress",
      "outputs": [
        {
          "internalType": "uint256",
          "name": "",
          "type": "uint256"
        },
        {
          "internalType": "address",
          "name": "",
          "type": "address"
        },
        {
          "internalType": "uint256",
          "name": "",
          "type": "uint256"
        }
      ],
      "stateMutability": "view",
      "type": "function"
    },
    {
      "inputs": [
        {
          "internalType": "uint256",
          "name": "id",
          "type": "uint256"
        }
      ],
      "name": "GetUserById",
      "outputs": [
        {
          "internalType": "uint256",
          "name": "",
          "type": "uint256"
        },
        {
          "internalType": "address",
          "name": "",
          "type": "address"
        },
        {
          "internalType": "uint256",
          "name": "",
          "type": "uint256"
        }
      ],
      "stateMutability": "view",
      "type": "function"
    },
    {
      "inputs": [
        {
          "internalType": "address",
          "name": "adr",
          "type": "address"
        }
      ],
      "name": "GetUserIdByAddress",
      "outputs": [
        {
          "internalType": "uint256",
          "name": "",
          "type": "uint256"
        }
      ],
      "stateMutability": "view",
      "type": "function"
    },
    {
      "inputs": [
        {
          "internalType": "address",
          "name": "addr",
          "type": "address"
        }
      ],
      "name": "IsUserExist",
      "outputs": [
        {
          "internalType": "bool",
          "name": "",
          "type": "bool"
        }
      ],
      "stateMutability": "view",
      "type": "function"
    },
    {
      "inputs": [
        {
          "internalType": "uint256",
          "name": "id",
          "type": "uint256"
        }
      ],
      "name": "IsUserExistById",
      "outputs": [
        {
          "internalType": "bool",
          "name": "",
          "type": "bool"
        }
      ],
      "stateMutability": "view",
      "type": "function"
    }
  ],
  "bytecode": "0x608060405260016005553480156200001657600080fd5b506040516200114f3803806200114f83398181016040528101906200003c9190620002ec565b60018060008373ffffffffffffffffffffffffffffffffffffffff1673ffffffffffffffffffffffffffffffffffffffff16815260200190815260200160002060006101000a81548160ff021916908315150217905550336000806101000a81548173ffffffffffffffffffffffffffffffffffffffff021916908373ffffffffffffffffffffffffffffffffffffffff1602179055506000604051806060016040528060056000815480929190620000f59062000356565b919050558152602001600073ffffffffffffffffffffffffffffffffffffffff1681526020016000815250905080600360008060009054906101000a900473ffffffffffffffffffffffffffffffffffffffff1673ffffffffffffffffffffffffffffffffffffffff1673ffffffffffffffffffffffffffffffffffffffff1681526020019081526020016000206000820151816000015560208201518160010160006101000a81548173ffffffffffffffffffffffffffffffffffffffff021916908373ffffffffffffffffffffffffffffffffffffffff160217905550604082015181600201559050508060026000836000015181526020019081526020016000206000820151816000015560208201518160010160006101000a81548173ffffffffffffffffffffffffffffffffffffffff021916908373ffffffffffffffffffffffffffffffffffffffff1602179055506040820151816002015590505060008054906101000a900473ffffffffffffffffffffffffffffffffffffffff16600460008360000151815260200190815260200160002060006101000a81548173ffffffffffffffffffffffffffffffffffffffff021916908373ffffffffffffffffffffffffffffffffffffffff1602179055505050620003ed565b600081519050620002e681620003d3565b92915050565b600060208284031215620002ff57600080fd5b60006200030f84828501620002d5565b91505092915050565b600062000325826200032c565b9050919050565b600073ffffffffffffffffffffffffffffffffffffffff82169050919050565b6000819050919050565b600062000363826200034c565b91507fffffffffffffffffffffffffffffffffffffffffffffffffffffffffffffffff821415620003995762000398620003a4565b5b600182019050919050565b7f4e487b7100000000000000000000000000000000000000000000000000000000600052601160045260246000fd5b620003de8162000318565b8114620003ea57600080fd5b50565b610d5280620003fd6000396000f3fe6080604052600436106100915760003560e01c80635d206d4d116100595780635d206d4d146101a8578063ae15fbe9146101e5578063b22abbfb14610201578063df271a3a1461023e578063efd2699b1461027d57610091565b80631892fd78146100965780631de6337f146100d557806331a73991146100f15780634260b84c1461012e57806357766ce21461016b575b600080fd5b3480156100a257600080fd5b506100bd60048036038101906100b8919061097f565b6102a8565b6040516100cc93929190610b60565b60405180910390f35b6100ef60048036038101906100ea91906109e4565b610381565b005b3480156100fd57600080fd5b506101186004803603810190610113919061097f565b610643565b6040516101259190610b45565b60405180910390f35b34801561013a57600080fd5b506101556004803603810190610150919061097f565b61068f565b6040516101629190610acf565b60405180910390f35b34801561017757600080fd5b50610192600480360381019061018d9190610a33565b6106fb565b60405161019f9190610acf565b60405180910390f35b3480156101b457600080fd5b506101cf60048036038101906101ca9190610a33565b610738565b6040516101dc9190610aea565b60405180910390f35b6101ff60048036038101906101fa91906109a8565b61075b565b005b34801561020d57600080fd5b506102286004803603810190610223919061097f565b610843565b6040516102359190610aea565b60405180910390f35b34801561024a57600080fd5b5061026560048036038101906102609190610a33565b610892565b60405161027493929190610b60565b60405180910390f35b34801561028957600080fd5b5061029261093f565b60405161029f9190610b45565b60405180910390f35b600080600080600360008673ffffffffffffffffffffffffffffffffffffffff1673ffffffffffffffffffffffffffffffffffffffff168152602001908152602001600020604051806060016040529081600082015481526020016001820160009054906101000a900473ffffffffffffffffffffffffffffffffffffffff1673ffffffffffffffffffffffffffffffffffffffff1673ffffffffffffffffffffffffffffffffffffffff1681526020016002820154815250509050806000015181602001518260400151935093509350509193909250565b600160008273ffffffffffffffffffffffffffffffffffffffff1673ffffffffffffffffffffffffffffffffffffffff16815260200190815260200160002060009054906101000a900460ff1661040d576040517f08c379a000000000000000000000000000000000000000000000000000000000815260040161040490610b25565b60405180910390fd5b61041683610843565b15610456576040517f08c379a000000000000000000000000000000000000000000000000000000000815260040161044d90610b05565b60405180910390fd5b61045f82610843565b6104875760008054906101000a900473ffffffffffffffffffffffffffffffffffffffff1691505b60006040518060600160405280600560008154809291906104a790610c24565b9190505581526020018473ffffffffffffffffffffffffffffffffffffffff1681526020016000815250905080600360008673ffffffffffffffffffffffffffffffffffffffff1673ffffffffffffffffffffffffffffffffffffffff1681526020019081526020016000206000820151816000015560208201518160010160006101000a81548173ffffffffffffffffffffffffffffffffffffffff021916908373ffffffffffffffffffffffffffffffffffffffff160217905550604082015181600201559050508060026000836000015181526020019081526020016000206000820151816000015560208201518160010160006101000a81548173ffffffffffffffffffffffffffffffffffffffff021916908373ffffffffffffffffffffffffffffffffffffffff1602179055506040820151816002015590505083600460008360000151815260200190815260200160002060006101000a81548173ffffffffffffffffffffffffffffffffffffffff021916908373ffffffffffffffffffffffffffffffffffffffff16021790555050505050565b6000600360008373ffffffffffffffffffffffffffffffffffffffff1673ffffffffffffffffffffffffffffffffffffffff168152602001908152602001600020600001549050919050565b6000600360008373ffffffffffffffffffffffffffffffffffffffff1673ffffffffffffffffffffffffffffffffffffffff16815260200190815260200160002060010160009054906101000a900473ffffffffffffffffffffffffffffffffffffffff169050919050565b60006004600083815260200190815260200160002060009054906101000a900473ffffffffffffffffffffffffffffffffffffffff169050919050565b600080600260008481526020019081526020016000206000015414159050919050565b600160008273ffffffffffffffffffffffffffffffffffffffff1673ffffffffffffffffffffffffffffffffffffffff16815260200190815260200160002060009054906101000a900460ff166107e7576040517f08c379a00000000000000000000000000000000000000000000000000000000081526004016107de90610b25565b60405180910390fd5b600360008373ffffffffffffffffffffffffffffffffffffffff1673ffffffffffffffffffffffffffffffffffffffff168152602001908152602001600020600201600081548092919061083a90610c24565b91905055505050565b600080600360008473ffffffffffffffffffffffffffffffffffffffff1673ffffffffffffffffffffffffffffffffffffffff1681526020019081526020016000206000015414159050919050565b60008060008060026000868152602001908152602001600020604051806060016040529081600082015481526020016001820160009054906101000a900473ffffffffffffffffffffffffffffffffffffffff1673ffffffffffffffffffffffffffffffffffffffff1673ffffffffffffffffffffffffffffffffffffffff1681526020016002820154815250509050806000015181602001518260400151935093509350509193909250565b600060016005546109509190610ba8565b905090565b60008135905061096481610cee565b92915050565b60008135905061097981610d05565b92915050565b60006020828403121561099157600080fd5b600061099f84828501610955565b91505092915050565b600080604083850312156109bb57600080fd5b60006109c985828601610955565b92505060206109da85828601610955565b9150509250929050565b6000806000606084860312156109f957600080fd5b6000610a0786828701610955565b9350506020610a1886828701610955565b9250506040610a2986828701610955565b9150509250925092565b600060208284031215610a4557600080fd5b6000610a538482850161096a565b91505092915050565b610a6581610bdc565b82525050565b610a7481610bee565b82525050565b6000610a87601683610b97565b9150610a9282610c9c565b602082019050919050565b6000610aaa600183610b97565b9150610ab582610cc5565b602082019050919050565b610ac981610c1a565b82525050565b6000602082019050610ae46000830184610a5c565b92915050565b6000602082019050610aff6000830184610a6b565b92915050565b60006020820190508181036000830152610b1e81610a7a565b9050919050565b60006020820190508181036000830152610b3e81610a9d565b9050919050565b6000602082019050610b5a6000830184610ac0565b92915050565b6000606082019050610b756000830186610ac0565b610b826020830185610a5c565b610b8f6040830184610ac0565b949350505050565b600082825260208201905092915050565b6000610bb382610c1a565b9150610bbe83610c1a565b925082821015610bd157610bd0610c6d565b5b828203905092915050565b6000610be782610bfa565b9050919050565b60008115159050919050565b600073ffffffffffffffffffffffffffffffffffffffff82169050919050565b6000819050919050565b6000610c2f82610c1a565b91507fffffffffffffffffffffffffffffffffffffffffffffffffffffffffffffffff821415610c6257610c61610c6d565b5b600182019050919050565b7f4e487b7100000000000000000000000000000000000000000000000000000000600052601160045260246000fd5b7f557365722069732072656769737465726564206e6f7700000000000000000000600082015250565b7f3100000000000000000000000000000000000000000000000000000000000000600082015250565b610cf781610bdc565b8114610d0257600080fd5b50565b610d0e81610c1a565b8114610d1957600080fd5b5056fea2646970667358221220558acce9df3c8947b63282294627c3c0a53ecd7302a30d62d2082fb75ec26b1564736f6c63430008040033",
  "linkReferences": {},
  "deployedLinkReferences": {}
}