{
  "_format": "hh-sol-artifact-1",
  "contractName": "UserStorage",
  "sourceName": "contracts/Repository/UserStorage.sol",
  "abi": [
    {
      "inputs": [
        {
          "internalType": "address",
          "name": "key",
          "type": "address"
        }
      ],
      "stateMutability": "nonpayable",
      "type": "constructor"
    },
    {
      "inputs": [
        {
          "internalType": "address",
          "name": "userAddress",
          "type": "address"
        },
        {
          "internalType": "address",
          "name": "key",
          "type": "address"
        }
      ],
      "name": "AddReferal",
      "outputs": [],
      "stateMutability": "payable",
      "type": "function"
    },
    {
      "inputs": [
        {
          "internalType": "address",
          "name": "userAddress",
          "type": "address"
        },
        {
          "internalType": "address",
          "name": "ref",
          "type": "address"
        },
        {
          "internalType": "address",
          "name": "key",
          "type": "address"
        }
      ],
      "name": "AddUser",
      "outputs": [],
      "stateMutability": "payable",
      "type": "function"
    },
    {
      "inputs": [],
      "name": "GetMembersCount",
      "outputs": [
        {
          "internalType": "uint256",
          "name": "",
          "type": "uint256"
        }
      ],
      "stateMutability": "view",
      "type": "function"
    },
    {
      "inputs": [
        {
          "internalType": "address",
          "name": "userAddress",
          "type": "address"
        }
      ],
      "name": "GetReferrer",
      "outputs": [
        {
          "internalType": "address",
          "name": "",
          "type": "address"
        }
      ],
      "stateMutability": "view",
      "type": "function"
    },
    {
      "inputs": [
        {
          "internalType": "uint256",
          "name": "userId",
          "type": "uint256"
        }
      ],
      "name": "GetUserAddressById",
      "outputs": [
        {
          "internalType": "address",
          "name": "",
          "type": "address"
        }
      ],
      "stateMutability": "view",
      "type": "function"
    },
    {
      "inputs": [
        {
          "internalType": "address",
          "name": "userAddress",
          "type": "address"
        }
      ],
      "name": "GetUserByAddress",
      "outputs": [
        {
          "internalType": "uint256",
          "name": "",
          "type": "uint256"
        },
        {
          "internalType": "address",
          "name": "",
          "type": "address"
        },
        {
          "internalType": "uint256",
          "name": "",
          "type": "uint256"
        }
      ],
      "stateMutability": "view",
      "type": "function"
    },
    {
      "inputs": [
        {
          "internalType": "uint256",
          "name": "id",
          "type": "uint256"
        }
      ],
      "name": "GetUserById",
      "outputs": [
        {
          "internalType": "uint256",
          "name": "",
          "type": "uint256"
        },
        {
          "internalType": "address",
          "name": "",
          "type": "address"
        },
        {
          "internalType": "uint256",
          "name": "",
          "type": "uint256"
        }
      ],
      "stateMutability": "view",
      "type": "function"
    },
    {
      "inputs": [
        {
          "internalType": "address",
          "name": "adr",
          "type": "address"
        }
      ],
      "name": "GetUserIdByAddress",
      "outputs": [
        {
          "internalType": "uint256",
          "name": "",
          "type": "uint256"
        }
      ],
      "stateMutability": "view",
      "type": "function"
    },
    {
      "inputs": [
        {
          "internalType": "address",
          "name": "addr",
          "type": "address"
        }
      ],
      "name": "IsUserExist",
      "outputs": [
        {
          "internalType": "bool",
          "name": "",
          "type": "bool"
        }
      ],
      "stateMutability": "view",
      "type": "function"
    },
    {
      "inputs": [
        {
          "internalType": "uint256",
          "name": "id",
          "type": "uint256"
        }
      ],
      "name": "IsUserExistById",
      "outputs": [
        {
          "internalType": "bool",
          "name": "",
          "type": "bool"
        }
      ],
      "stateMutability": "view",
      "type": "function"
    }
  ],
  "bytecode": "0x608060405260016005553480156200001657600080fd5b506040516200111c3803806200111c83398181016040528101906200003c9190620002ec565b60018060008373ffffffffffffffffffffffffffffffffffffffff1673ffffffffffffffffffffffffffffffffffffffff16815260200190815260200160002060006101000a81548160ff021916908315150217905550336000806101000a81548173ffffffffffffffffffffffffffffffffffffffff021916908373ffffffffffffffffffffffffffffffffffffffff1602179055506000604051806060016040528060056000815480929190620000f59062000356565b919050558152602001600073ffffffffffffffffffffffffffffffffffffffff1681526020016000815250905080600360008060009054906101000a900473ffffffffffffffffffffffffffffffffffffffff1673ffffffffffffffffffffffffffffffffffffffff1673ffffffffffffffffffffffffffffffffffffffff1681526020019081526020016000206000820151816000015560208201518160010160006101000a81548173ffffffffffffffffffffffffffffffffffffffff021916908373ffffffffffffffffffffffffffffffffffffffff160217905550604082015181600201559050508060026000836000015181526020019081526020016000206000820151816000015560208201518160010160006101000a81548173ffffffffffffffffffffffffffffffffffffffff021916908373ffffffffffffffffffffffffffffffffffffffff1602179055506040820151816002015590505060008054906101000a900473ffffffffffffffffffffffffffffffffffffffff16600460008360000151815260200190815260200160002060006101000a81548173ffffffffffffffffffffffffffffffffffffffff021916908373ffffffffffffffffffffffffffffffffffffffff1602179055505050620003ed565b600081519050620002e681620003d3565b92915050565b600060208284031215620002ff57600080fd5b60006200030f84828501620002d5565b91505092915050565b600062000325826200032c565b9050919050565b600073ffffffffffffffffffffffffffffffffffffffff82169050919050565b6000819050919050565b600062000363826200034c565b91507fffffffffffffffffffffffffffffffffffffffffffffffffffffffffffffffff821415620003995762000398620003a4565b5b600182019050919050565b7f4e487b7100000000000000000000000000000000000000000000000000000000600052601160045260246000fd5b620003de8162000318565b8114620003ea57600080fd5b50565b610d1f80620003fd6000396000f3fe6080604052600436106100915760003560e01c80635d206d4d116100595780635d206d4d146101a8578063ae15fbe9146101e5578063b22abbfb14610201578063df271a3a1461023e578063efd2699b1461027d57610091565b80631892fd78146100965780631de6337f146100d557806331a73991146100f15780634260b84c1461012e57806357766ce21461016b575b600080fd5b3480156100a257600080fd5b506100bd60048036038101906100b891906109b8565b6102a8565b6040516100cc93929190610b56565b60405180910390f35b6100ef60048036038101906100ea9190610a1d565b610381565b005b3480156100fd57600080fd5b50610118600480360381019061011391906109b8565b610608565b6040516101259190610b3b565b60405180910390f35b34801561013a57600080fd5b50610155600480360381019061015091906109b8565b610654565b6040516101629190610ae5565b60405180910390f35b34801561017757600080fd5b50610192600480360381019061018d9190610a6c565b6106c0565b60405161019f9190610ae5565b60405180910390f35b3480156101b457600080fd5b506101cf60048036038101906101ca9190610a6c565b6106fd565b6040516101dc9190610b00565b60405180910390f35b6101ff60048036038101906101fa91906109e1565b610720565b005b34801561020d57600080fd5b50610228600480360381019061022391906109b8565b61087c565b6040516102359190610b00565b60405180910390f35b34801561024a57600080fd5b5061026560048036038101906102609190610a6c565b6108cb565b60405161027493929190610b56565b60405180910390f35b34801561028957600080fd5b50610292610978565b60405161029f9190610b3b565b60405180910390f35b600080600080600360008673ffffffffffffffffffffffffffffffffffffffff1673ffffffffffffffffffffffffffffffffffffffff168152602001908152602001600020604051806060016040529081600082015481526020016001820160009054906101000a900473ffffffffffffffffffffffffffffffffffffffff1673ffffffffffffffffffffffffffffffffffffffff1673ffffffffffffffffffffffffffffffffffffffff1681526020016002820154815250509050806000015181602001518260400151935093509350509193909250565b600160008273ffffffffffffffffffffffffffffffffffffffff1673ffffffffffffffffffffffffffffffffffffffff16815260200190815260200160002060009054906101000a900460ff1661040d576040517f08c379a000000000000000000000000000000000000000000000000000000000815260040161040490610b1b565b60405180910390fd5b6104168361087c565b610603576104238261087c565b61044b5760008054906101000a900473ffffffffffffffffffffffffffffffffffffffff1691505b600060405180606001604052806005600081548092919061046b90610c1a565b9190505581526020018473ffffffffffffffffffffffffffffffffffffffff1681526020016000815250905080600360008673ffffffffffffffffffffffffffffffffffffffff1673ffffffffffffffffffffffffffffffffffffffff1681526020019081526020016000206000820151816000015560208201518160010160006101000a81548173ffffffffffffffffffffffffffffffffffffffff021916908373ffffffffffffffffffffffffffffffffffffffff160217905550604082015181600201559050508060026000836000015181526020019081526020016000206000820151816000015560208201518160010160006101000a81548173ffffffffffffffffffffffffffffffffffffffff021916908373ffffffffffffffffffffffffffffffffffffffff1602179055506040820151816002015590505083600460008360000151815260200190815260200160002060006101000a81548173ffffffffffffffffffffffffffffffffffffffff021916908373ffffffffffffffffffffffffffffffffffffffff160217905550505b505050565b6000600360008373ffffffffffffffffffffffffffffffffffffffff1673ffffffffffffffffffffffffffffffffffffffff168152602001908152602001600020600001549050919050565b6000600360008373ffffffffffffffffffffffffffffffffffffffff1673ffffffffffffffffffffffffffffffffffffffff16815260200190815260200160002060010160009054906101000a900473ffffffffffffffffffffffffffffffffffffffff169050919050565b60006004600083815260200190815260200160002060009054906101000a900473ffffffffffffffffffffffffffffffffffffffff169050919050565b600080600260008481526020019081526020016000206000015414159050919050565b600160008273ffffffffffffffffffffffffffffffffffffffff1673ffffffffffffffffffffffffffffffffffffffff16815260200190815260200160002060009054906101000a900460ff166107ac576040517f08c379a00000000000000000000000000000000000000000000000000000000081526004016107a390610b1b565b60405180910390fd5b6000600360008473ffffffffffffffffffffffffffffffffffffffff1673ffffffffffffffffffffffffffffffffffffffff168152602001908152602001600020600001549050600360008473ffffffffffffffffffffffffffffffffffffffff1673ffffffffffffffffffffffffffffffffffffffff168152602001908152602001600020600201600081548092919061084690610c1a565b919050555060026000828152602001908152602001600020600201600081548092919061087290610c1a565b9190505550505050565b600080600360008473ffffffffffffffffffffffffffffffffffffffff1673ffffffffffffffffffffffffffffffffffffffff1681526020019081526020016000206000015414159050919050565b60008060008060026000868152602001908152602001600020604051806060016040529081600082015481526020016001820160009054906101000a900473ffffffffffffffffffffffffffffffffffffffff1673ffffffffffffffffffffffffffffffffffffffff1673ffffffffffffffffffffffffffffffffffffffff1681526020016002820154815250509050806000015181602001518260400151935093509350509193909250565b600060016005546109899190610b9e565b905090565b60008135905061099d81610cbb565b92915050565b6000813590506109b281610cd2565b92915050565b6000602082840312156109ca57600080fd5b60006109d88482850161098e565b91505092915050565b600080604083850312156109f457600080fd5b6000610a028582860161098e565b9250506020610a138582860161098e565b9150509250929050565b600080600060608486031215610a3257600080fd5b6000610a408682870161098e565b9350506020610a518682870161098e565b9250506040610a628682870161098e565b9150509250925092565b600060208284031215610a7e57600080fd5b6000610a8c848285016109a3565b91505092915050565b610a9e81610bd2565b82525050565b610aad81610be4565b82525050565b6000610ac0600183610b8d565b9150610acb82610c92565b602082019050919050565b610adf81610c10565b82525050565b6000602082019050610afa6000830184610a95565b92915050565b6000602082019050610b156000830184610aa4565b92915050565b60006020820190508181036000830152610b3481610ab3565b9050919050565b6000602082019050610b506000830184610ad6565b92915050565b6000606082019050610b6b6000830186610ad6565b610b786020830185610a95565b610b856040830184610ad6565b949350505050565b600082825260208201905092915050565b6000610ba982610c10565b9150610bb483610c10565b925082821015610bc757610bc6610c63565b5b828203905092915050565b6000610bdd82610bf0565b9050919050565b60008115159050919050565b600073ffffffffffffffffffffffffffffffffffffffff82169050919050565b6000819050919050565b6000610c2582610c10565b91507fffffffffffffffffffffffffffffffffffffffffffffffffffffffffffffffff821415610c5857610c57610c63565b5b600182019050919050565b7f4e487b7100000000000000000000000000000000000000000000000000000000600052601160045260246000fd5b7f3100000000000000000000000000000000000000000000000000000000000000600082015250565b610cc481610bd2565b8114610ccf57600080fd5b50565b610cdb81610c10565b8114610ce657600080fd5b5056fea264697066735822122040f1a6a014f424bee819b0bdbc9984c94710d66d0b47f8ad7ddd75f946c59f7664736f6c63430008040033",
  "linkReferences": {},
  "deployedLinkReferences": {}
}