{
  "_format": "hh-sol-artifact-1",
  "contractName": "PullController",
  "sourceName": "contracts/Controllers/PullController.sol",
  "abi": [
    {
      "inputs": [
        {
          "internalType": "address",
          "name": "key",
          "type": "address"
        },
        {
          "internalType": "address",
          "name": "pullStorageAddress",
          "type": "address"
        },
        {
          "internalType": "address",
          "name": "userStorageAddress",
          "type": "address"
        }
      ],
      "stateMutability": "nonpayable",
      "type": "constructor"
    },
    {
      "inputs": [
        {
          "internalType": "uint256",
          "name": "value",
          "type": "uint256"
        },
        {
          "internalType": "uint256",
          "name": "UserId",
          "type": "uint256"
        },
        {
          "internalType": "address",
          "name": "key",
          "type": "address"
        }
      ],
      "name": "AddMemberReferalRewards",
      "outputs": [],
      "stateMutability": "payable",
      "type": "function"
    },
    {
      "inputs": [
        {
          "internalType": "uint256",
          "name": "value",
          "type": "uint256"
        },
        {
          "internalType": "uint256",
          "name": "UserId",
          "type": "uint256"
        },
        {
          "internalType": "address",
          "name": "key",
          "type": "address"
        }
      ],
      "name": "AddMemberRewards",
      "outputs": [],
      "stateMutability": "payable",
      "type": "function"
    },
    {
      "inputs": [
        {
          "internalType": "address",
          "name": "userAddress",
          "type": "address"
        },
        {
          "internalType": "uint256",
          "name": "value",
          "type": "uint256"
        },
        {
          "internalType": "address",
          "name": "key",
          "type": "address"
        }
      ],
      "name": "BuyTicket",
      "outputs": [],
      "stateMutability": "payable",
      "type": "function"
    },
    {
      "inputs": [
        {
          "internalType": "address",
          "name": "newAddress",
          "type": "address"
        },
        {
          "internalType": "address",
          "name": "key",
          "type": "address"
        }
      ],
      "name": "ChangePullStorage",
      "outputs": [],
      "stateMutability": "payable",
      "type": "function"
    },
    {
      "inputs": [
        {
          "internalType": "address",
          "name": "newAddress",
          "type": "address"
        },
        {
          "internalType": "address",
          "name": "key",
          "type": "address"
        }
      ],
      "name": "ChangeUserStorage",
      "outputs": [],
      "stateMutability": "payable",
      "type": "function"
    },
    {
      "inputs": [
        {
          "internalType": "uint256",
          "name": "pullId",
          "type": "uint256"
        }
      ],
      "name": "GetPullCrondFindingSum",
      "outputs": [
        {
          "internalType": "uint256",
          "name": "",
          "type": "uint256"
        }
      ],
      "stateMutability": "view",
      "type": "function"
    },
    {
      "inputs": [],
      "name": "GetRewardableLines",
      "outputs": [
        {
          "internalType": "uint256[]",
          "name": "",
          "type": "uint256[]"
        }
      ],
      "stateMutability": "view",
      "type": "function"
    },
    {
      "inputs": [
        {
          "internalType": "uint256",
          "name": "pullId",
          "type": "uint256"
        }
      ],
      "name": "GetTicketCountOnPull",
      "outputs": [
        {
          "internalType": "uint256",
          "name": "",
          "type": "uint256"
        }
      ],
      "stateMutability": "view",
      "type": "function"
    },
    {
      "inputs": [
        {
          "internalType": "uint256",
          "name": "pullId",
          "type": "uint256"
        },
        {
          "internalType": "uint256",
          "name": "ticketNumber",
          "type": "uint256"
        }
      ],
      "name": "GetTicketInfo",
      "outputs": [
        {
          "internalType": "address",
          "name": "",
          "type": "address"
        },
        {
          "internalType": "uint256",
          "name": "",
          "type": "uint256"
        },
        {
          "internalType": "uint256",
          "name": "",
          "type": "uint256"
        }
      ],
      "stateMutability": "view",
      "type": "function"
    },
    {
      "inputs": [
        {
          "internalType": "uint256",
          "name": "id",
          "type": "uint256"
        }
      ],
      "name": "IsPullExist",
      "outputs": [
        {
          "internalType": "bool",
          "name": "",
          "type": "bool"
        }
      ],
      "stateMutability": "view",
      "type": "function"
    },
    {
      "inputs": [
        {
          "internalType": "uint256",
          "name": "",
          "type": "uint256"
        }
      ],
      "name": "referralRewardPercents",
      "outputs": [
        {
          "internalType": "uint256",
          "name": "",
          "type": "uint256"
        }
      ],
      "stateMutability": "view",
      "type": "function"
    },
    {
      "inputs": [],
      "name": "rewardableLinesCount",
      "outputs": [
        {
          "internalType": "uint256",
          "name": "",
          "type": "uint256"
        }
      ],
      "stateMutability": "view",
      "type": "function"
    }
  ],
  "bytecode": "0x6080604052604051806101000160405280600060ff168152602001600860ff168152602001600460ff168152602001600360ff168152602001600260ff168152602001600160ff168152602001600160ff168152602001600160ff16815250600490600862000070929190620001de565b506001600480549050620000859190620002c1565b6005553480156200009557600080fd5b5060405162001b0238038062001b028339818101604052810190620000bb91906200026b565b60016000808573ffffffffffffffffffffffffffffffffffffffff1673ffffffffffffffffffffffffffffffffffffffff16815260200190815260200160002060006101000a81548160ff02191690831515021790555033600160006101000a81548173ffffffffffffffffffffffffffffffffffffffff021916908373ffffffffffffffffffffffffffffffffffffffff16021790555081600260006101000a81548173ffffffffffffffffffffffffffffffffffffffff021916908373ffffffffffffffffffffffffffffffffffffffff16021790555080600360006101000a81548173ffffffffffffffffffffffffffffffffffffffff021916908373ffffffffffffffffffffffffffffffffffffffff16021790555050505062000383565b82805482825590600052602060002090810192821562000222579160200282015b8281111562000221578251829060ff16905591602001919060010190620001ff565b5b50905062000231919062000235565b5090565b5b808211156200025057600081600090555060010162000236565b5090565b600081519050620002658162000369565b92915050565b6000806000606084860312156200028157600080fd5b6000620002918682870162000254565b9350506020620002a48682870162000254565b9250506040620002b78682870162000254565b9150509250925092565b6000620002ce8262000330565b9150620002db8362000330565b925082821015620002f157620002f06200033a565b5b828203905092915050565b6000620003098262000310565b9050919050565b600073ffffffffffffffffffffffffffffffffffffffff82169050919050565b6000819050919050565b7f4e487b7100000000000000000000000000000000000000000000000000000000600052601160045260246000fd5b6200037481620002fc565b81146200038057600080fd5b50565b61176f80620003936000396000f3fe6080604052600436106100a75760003560e01c806388124e561161006457806388124e56146101b95780638fd06101146101d5578063a46ec42714610200578063ad145d461461022b578063bd4616f414610247578063de2a6d5814610284576100a7565b806303b4525f146100ac57806343b7063c146100e95780635500138b146101055780635bc8713a1461012157806366e8c5ef1461013d57806373c74e911461017c575b600080fd5b3480156100b857600080fd5b506100d360048036038101906100ce9190611220565b6102c1565b6040516100e091906114ae565b60405180910390f35b61010360048036038101906100fe91906112ae565b610375565b005b61011f600480360381019061011a919061111d565b610496565b005b61013b600480360381019061013691906112ae565b6105f6565b005b34801561014957600080fd5b50610164600480360381019061015f9190611272565b610717565b60405161017393929190611410565b60405180910390f35b34801561018857600080fd5b506101a3600480360381019061019e9190611220565b6107d6565b6040516101b09190611509565b60405180910390f35b6101d360048036038101906101ce9190611159565b61088a565b005b3480156101e157600080fd5b506101ea610e1e565b6040516101f7919061148c565b60405180910390f35b34801561020c57600080fd5b50610215610e76565b6040516102229190611509565b60405180910390f35b6102456004803603810190610240919061111d565b610e7c565b005b34801561025357600080fd5b5061026e60048036038101906102699190611220565b610fdc565b60405161027b9190611509565b60405180910390f35b34801561029057600080fd5b506102ab60048036038101906102a69190611220565b611000565b6040516102b89190611509565b60405180910390f35b6000600260009054906101000a900473ffffffffffffffffffffffffffffffffffffffff1673ffffffffffffffffffffffffffffffffffffffff166303b4525f836040518263ffffffff1660e01b815260040161031e9190611509565b60206040518083038186803b15801561033657600080fd5b505afa15801561034a573d6000803e3d6000fd5b505050506040513d601f19601f8201168201806040525081019061036e91906111f7565b9050919050565b6000808273ffffffffffffffffffffffffffffffffffffffff1673ffffffffffffffffffffffffffffffffffffffff16815260200190815260200160002060009054906101000a900460ff16610400576040517f08c379a00000000000000000000000000000000000000000000000000000000081526004016103f7906114e9565b60405180910390fd5b600260009054906101000a900473ffffffffffffffffffffffffffffffffffffffff1673ffffffffffffffffffffffffffffffffffffffff166343b7063c8484846040518463ffffffff1660e01b815260040161045f93929190611576565b600060405180830381600087803b15801561047957600080fd5b505af115801561048d573d6000803e3d6000fd5b50505050505050565b6000808273ffffffffffffffffffffffffffffffffffffffff1673ffffffffffffffffffffffffffffffffffffffff16815260200190815260200160002060009054906101000a900460ff16610521576040517f08c379a0000000000000000000000000000000000000000000000000000000008152600401610518906114e9565b60405180910390fd5b3373ffffffffffffffffffffffffffffffffffffffff16600160009054906101000a900473ffffffffffffffffffffffffffffffffffffffff1673ffffffffffffffffffffffffffffffffffffffff16146105b1576040517f08c379a00000000000000000000000000000000000000000000000000000000081526004016105a8906114c9565b60405180910390fd5b81600260006101000a81548173ffffffffffffffffffffffffffffffffffffffff021916908373ffffffffffffffffffffffffffffffffffffffff1602179055505050565b6000808273ffffffffffffffffffffffffffffffffffffffff1673ffffffffffffffffffffffffffffffffffffffff16815260200190815260200160002060009054906101000a900460ff16610681576040517f08c379a0000000000000000000000000000000000000000000000000000000008152600401610678906114e9565b60405180910390fd5b600260009054906101000a900473ffffffffffffffffffffffffffffffffffffffff1673ffffffffffffffffffffffffffffffffffffffff16635bc8713a8484846040518463ffffffff1660e01b81526004016106e093929190611576565b600060405180830381600087803b1580156106fa57600080fd5b505af115801561070e573d6000803e3d6000fd5b50505050505050565b6000806000600260009054906101000a900473ffffffffffffffffffffffffffffffffffffffff1673ffffffffffffffffffffffffffffffffffffffff166366e8c5ef86866040518363ffffffff1660e01b815260040161077992919061154d565b60606040518083038186803b15801561079157600080fd5b505afa1580156107a5573d6000803e3d6000fd5b505050506040513d601f19601f820116820180604052508101906107c991906111a8565b9250925092509250925092565b6000600260009054906101000a900473ffffffffffffffffffffffffffffffffffffffff1673ffffffffffffffffffffffffffffffffffffffff166373c74e91836040518263ffffffff1660e01b81526004016108339190611509565b60206040518083038186803b15801561084b57600080fd5b505afa15801561085f573d6000803e3d6000fd5b505050506040513d601f19601f820116820180604052508101906108839190611249565b9050919050565b6000808273ffffffffffffffffffffffffffffffffffffffff1673ffffffffffffffffffffffffffffffffffffffff16815260200190815260200160002060009054906101000a900460ff16610915576040517f08c379a000000000000000000000000000000000000000000000000000000000815260040161090c906114e9565b60405180910390fd5b6000600360009054906101000a900473ffffffffffffffffffffffffffffffffffffffff1673ffffffffffffffffffffffffffffffffffffffff166331a73991856040518263ffffffff1660e01b815260040161097291906113f5565b60206040518083038186803b15801561098a57600080fd5b505afa15801561099e573d6000803e3d6000fd5b505050506040513d601f19601f820116820180604052508101906109c29190611249565b9050600260009054906101000a900473ffffffffffffffffffffffffffffffffffffffff1673ffffffffffffffffffffffffffffffffffffffff1663516d9662826040518263ffffffff1660e01b8152600401610a1f9190611509565b60206040518083038186803b158015610a3757600080fd5b505afa158015610a4b573d6000803e3d6000fd5b505050506040513d601f19601f82011682018060405250810190610a6f91906111f7565b610b0357600260009054906101000a900473ffffffffffffffffffffffffffffffffffffffff1673ffffffffffffffffffffffffffffffffffffffff166392ec4b5a82846040518363ffffffff1660e01b8152600401610ad0929190611524565b600060405180830381600087803b158015610aea57600080fd5b505af1158015610afe573d6000803e3d6000fd5b505050505b6000600260009054906101000a900473ffffffffffffffffffffffffffffffffffffffff1673ffffffffffffffffffffffffffffffffffffffff1663f4a38ba36040518163ffffffff1660e01b815260040160206040518083038186803b158015610b6d57600080fd5b505afa158015610b81573d6000803e3d6000fd5b505050506040513d601f19601f82011682018060405250810190610ba59190611249565b905083811015610c4757600260009054906101000a900473ffffffffffffffffffffffffffffffffffffffff1673ffffffffffffffffffffffffffffffffffffffff1663a4b406f1868685876040518563ffffffff1660e01b8152600401610c109493929190611447565b600060405180830381600087803b158015610c2a57600080fd5b505af1158015610c3e573d6000803e3d6000fd5b50505050610e17565b60008185610c5591906115f7565b9050600260009054906101000a900473ffffffffffffffffffffffffffffffffffffffff1673ffffffffffffffffffffffffffffffffffffffff1663a4b406f1878786886040518563ffffffff1660e01b8152600401610cb89493929190611447565b600060405180830381600087803b158015610cd257600080fd5b505af1158015610ce6573d6000803e3d6000fd5b50505050600260009054906101000a900473ffffffffffffffffffffffffffffffffffffffff1673ffffffffffffffffffffffffffffffffffffffff166392c32a95856040518263ffffffff1660e01b8152600401610d4591906113f5565b600060405180830381600087803b158015610d5f57600080fd5b505af1158015610d73573d6000803e3d6000fd5b50505050600260009054906101000a900473ffffffffffffffffffffffffffffffffffffffff1673ffffffffffffffffffffffffffffffffffffffff1663a4b406f1878388610dc291906115f7565b86886040518563ffffffff1660e01b8152600401610de39493929190611447565b600060405180830381600087803b158015610dfd57600080fd5b505af1158015610e11573d6000803e3d6000fd5b50505050505b5050505050565b60606004805480602002602001604051908101604052809291908181526020018280548015610e6c57602002820191906000526020600020905b815481526020019060010190808311610e58575b5050505050905090565b60055481565b6000808273ffffffffffffffffffffffffffffffffffffffff1673ffffffffffffffffffffffffffffffffffffffff16815260200190815260200160002060009054906101000a900460ff16610f07576040517f08c379a0000000000000000000000000000000000000000000000000000000008152600401610efe906114e9565b60405180910390fd5b3373ffffffffffffffffffffffffffffffffffffffff16600160009054906101000a900473ffffffffffffffffffffffffffffffffffffffff1673ffffffffffffffffffffffffffffffffffffffff1614610f97576040517f08c379a0000000000000000000000000000000000000000000000000000000008152600401610f8e906114c9565b60405180910390fd5b81600360006101000a81548173ffffffffffffffffffffffffffffffffffffffff021916908373ffffffffffffffffffffffffffffffffffffffff1602179055505050565b60048181548110610fec57600080fd5b906000526020600020016000915090505481565b6000600260009054906101000a900473ffffffffffffffffffffffffffffffffffffffff1673ffffffffffffffffffffffffffffffffffffffff1663de2a6d58836040518263ffffffff1660e01b815260040161105d9190611509565b60206040518083038186803b15801561107557600080fd5b505afa158015611089573d6000803e3d6000fd5b505050506040513d601f19601f820116820180604052508101906110ad9190611249565b9050919050565b6000813590506110c3816116f4565b92915050565b6000815190506110d8816116f4565b92915050565b6000815190506110ed8161170b565b92915050565b60008135905061110281611722565b92915050565b60008151905061111781611722565b92915050565b6000806040838503121561113057600080fd5b600061113e858286016110b4565b925050602061114f858286016110b4565b9150509250929050565b60008060006060848603121561116e57600080fd5b600061117c868287016110b4565b935050602061118d868287016110f3565b925050604061119e868287016110b4565b9150509250925092565b6000806000606084860312156111bd57600080fd5b60006111cb868287016110c9565b93505060206111dc86828701611108565b92505060406111ed86828701611108565b9150509250925092565b60006020828403121561120957600080fd5b6000611217848285016110de565b91505092915050565b60006020828403121561123257600080fd5b6000611240848285016110f3565b91505092915050565b60006020828403121561125b57600080fd5b600061126984828501611108565b91505092915050565b6000806040838503121561128557600080fd5b6000611293858286016110f3565b92505060206112a4858286016110f3565b9150509250929050565b6000806000606084860312156112c357600080fd5b60006112d1868287016110f3565b93505060206112e2868287016110f3565b92505060406112f3868287016110b4565b9150509250925092565b600061130983836113d7565b60208301905092915050565b61131e8161162b565b82525050565b600061132f826115bd565b61133981856115d5565b9350611344836115ad565b8060005b8381101561137557815161135c88826112fd565b9750611367836115c8565b925050600181019050611348565b5085935050505092915050565b61138b8161163d565b82525050565b600061139e600a836115e6565b91506113a9826116a2565b602082019050919050565b60006113c16001836115e6565b91506113cc826116cb565b602082019050919050565b6113e081611669565b82525050565b6113ef81611669565b82525050565b600060208201905061140a6000830184611315565b92915050565b60006060820190506114256000830186611315565b61143260208301856113e6565b61143f60408301846113e6565b949350505050565b600060808201905061145c6000830187611315565b61146960208301866113e6565b61147660408301856113e6565b6114836060830184611315565b95945050505050565b600060208201905081810360008301526114a68184611324565b905092915050565b60006020820190506114c36000830184611382565b92915050565b600060208201905081810360008301526114e281611391565b9050919050565b60006020820190508181036000830152611502816113b4565b9050919050565b600060208201905061151e60008301846113e6565b92915050565b600060408201905061153960008301856113e6565b6115466020830184611315565b9392505050565b600060408201905061156260008301856113e6565b61156f60208301846113e6565b9392505050565b600060608201905061158b60008301866113e6565b61159860208301856113e6565b6115a56040830184611315565b949350505050565b6000819050602082019050919050565b600081519050919050565b6000602082019050919050565b600082825260208201905092915050565b600082825260208201905092915050565b600061160282611669565b915061160d83611669565b9250828210156116205761161f611673565b5b828203905092915050565b600061163682611649565b9050919050565b60008115159050919050565b600073ffffffffffffffffffffffffffffffffffffffff82169050919050565b6000819050919050565b7f4e487b7100000000000000000000000000000000000000000000000000000000600052601160045260246000fd5b7f6f6e6c79206f776e657200000000000000000000000000000000000000000000600082015250565b7f3100000000000000000000000000000000000000000000000000000000000000600082015250565b6116fd8161162b565b811461170857600080fd5b50565b6117148161163d565b811461171f57600080fd5b50565b61172b81611669565b811461173657600080fd5b5056fea2646970667358221220e6dd67d7fba19cef3b55b903445220ea4b8cbda80e8bc7ee600b774234cdf5d664736f6c63430008040033",
  "linkReferences": {},
  "deployedLinkReferences": {}
}