{
  "_format": "hh-sol-artifact-1",
  "contractName": "PullController",
  "sourceName": "contracts/Controllers/PullController.sol",
  "abi": [
    {
      "inputs": [
        {
          "internalType": "address",
          "name": "pullStorageAddress",
          "type": "address"
        },
        {
          "internalType": "address",
          "name": "userStorageAddress",
          "type": "address"
        }
      ],
      "stateMutability": "nonpayable",
      "type": "constructor"
    },
    {
      "inputs": [
        {
          "internalType": "uint256",
          "name": "value",
          "type": "uint256"
        },
        {
          "internalType": "uint256",
          "name": "UserId",
          "type": "uint256"
        }
      ],
      "name": "AddMemberReferalRewards",
      "outputs": [],
      "stateMutability": "payable",
      "type": "function"
    },
    {
      "inputs": [
        {
          "internalType": "uint256",
          "name": "value",
          "type": "uint256"
        },
        {
          "internalType": "uint256",
          "name": "UserId",
          "type": "uint256"
        }
      ],
      "name": "AddMemberRewards",
      "outputs": [],
      "stateMutability": "payable",
      "type": "function"
    },
    {
      "inputs": [
        {
          "internalType": "address",
          "name": "userAddress",
          "type": "address"
        },
        {
          "internalType": "uint256",
          "name": "value",
          "type": "uint256"
        }
      ],
      "name": "BuyTicket",
      "outputs": [],
      "stateMutability": "payable",
      "type": "function"
    },
    {
      "inputs": [
        {
          "internalType": "address",
          "name": "newAddress",
          "type": "address"
        }
      ],
      "name": "Change",
      "outputs": [],
      "stateMutability": "payable",
      "type": "function"
    },
    {
      "inputs": [
        {
          "internalType": "address",
          "name": "newAddress",
          "type": "address"
        }
      ],
      "name": "ChangePullStorage",
      "outputs": [],
      "stateMutability": "payable",
      "type": "function"
    },
    {
      "inputs": [
        {
          "internalType": "address",
          "name": "newAddress",
          "type": "address"
        }
      ],
      "name": "ChangeUserStorage",
      "outputs": [],
      "stateMutability": "payable",
      "type": "function"
    },
    {
      "inputs": [],
      "name": "GetCurrentPull",
      "outputs": [
        {
          "internalType": "uint256",
          "name": "",
          "type": "uint256"
        },
        {
          "internalType": "uint256",
          "name": "",
          "type": "uint256"
        },
        {
          "internalType": "uint256",
          "name": "",
          "type": "uint256"
        },
        {
          "internalType": "uint256",
          "name": "",
          "type": "uint256"
        }
      ],
      "stateMutability": "view",
      "type": "function"
    },
    {
      "inputs": [
        {
          "internalType": "uint256",
          "name": "userId",
          "type": "uint256"
        }
      ],
      "name": "GetMember",
      "outputs": [
        {
          "internalType": "uint256",
          "name": "",
          "type": "uint256"
        },
        {
          "internalType": "uint256",
          "name": "",
          "type": "uint256"
        },
        {
          "internalType": "uint256",
          "name": "",
          "type": "uint256"
        }
      ],
      "stateMutability": "view",
      "type": "function"
    },
    {
      "inputs": [
        {
          "internalType": "uint256",
          "name": "pullId",
          "type": "uint256"
        }
      ],
      "name": "GetPull",
      "outputs": [
        {
          "internalType": "uint256",
          "name": "",
          "type": "uint256"
        },
        {
          "internalType": "uint256",
          "name": "",
          "type": "uint256"
        },
        {
          "internalType": "uint256",
          "name": "",
          "type": "uint256"
        },
        {
          "internalType": "uint256",
          "name": "",
          "type": "uint256"
        }
      ],
      "stateMutability": "view",
      "type": "function"
    },
    {
      "inputs": [
        {
          "internalType": "uint256",
          "name": "pullId",
          "type": "uint256"
        }
      ],
      "name": "GetPullCollectedSum",
      "outputs": [
        {
          "internalType": "uint256",
          "name": "",
          "type": "uint256"
        }
      ],
      "stateMutability": "view",
      "type": "function"
    },
    {
      "inputs": [],
      "name": "GetRewardableLines",
      "outputs": [
        {
          "internalType": "uint256[]",
          "name": "",
          "type": "uint256[]"
        }
      ],
      "stateMutability": "view",
      "type": "function"
    },
    {
      "inputs": [
        {
          "internalType": "uint256",
          "name": "pullId",
          "type": "uint256"
        }
      ],
      "name": "GetTicketCountOnPull",
      "outputs": [
        {
          "internalType": "uint256",
          "name": "",
          "type": "uint256"
        }
      ],
      "stateMutability": "view",
      "type": "function"
    },
    {
      "inputs": [
        {
          "internalType": "uint256",
          "name": "pullId",
          "type": "uint256"
        },
        {
          "internalType": "uint256",
          "name": "ticketNumber",
          "type": "uint256"
        }
      ],
      "name": "GetTicketInfo",
      "outputs": [
        {
          "internalType": "address",
          "name": "",
          "type": "address"
        },
        {
          "internalType": "uint256",
          "name": "",
          "type": "uint256"
        },
        {
          "internalType": "uint256",
          "name": "",
          "type": "uint256"
        }
      ],
      "stateMutability": "view",
      "type": "function"
    },
    {
      "inputs": [
        {
          "internalType": "uint256",
          "name": "id",
          "type": "uint256"
        }
      ],
      "name": "IsPullExist",
      "outputs": [
        {
          "internalType": "bool",
          "name": "",
          "type": "bool"
        }
      ],
      "stateMutability": "view",
      "type": "function"
    },
    {
      "inputs": [
        {
          "internalType": "address",
          "name": "_addressKey",
          "type": "address"
        }
      ],
      "name": "Set",
      "outputs": [],
      "stateMutability": "payable",
      "type": "function"
    },
    {
      "inputs": [],
      "name": "SetKey",
      "outputs": [],
      "stateMutability": "payable",
      "type": "function"
    },
    {
      "inputs": [
        {
          "internalType": "uint256",
          "name": "",
          "type": "uint256"
        }
      ],
      "name": "referralRewardPercents",
      "outputs": [
        {
          "internalType": "uint256",
          "name": "",
          "type": "uint256"
        }
      ],
      "stateMutability": "view",
      "type": "function"
    },
    {
      "inputs": [],
      "name": "rewardableLinesCount",
      "outputs": [
        {
          "internalType": "uint256",
          "name": "",
          "type": "uint256"
        }
      ],
      "stateMutability": "view",
      "type": "function"
    }
  ],
  "bytecode": "0x6080604052604051806101000160405280600060ff168152602001600860ff168152602001600460ff168152602001600360ff168152602001600260ff168152602001600160ff168152602001600160ff168152602001600160ff16815250600590600862000070929190620002e5565b506001600580549050620000859190620003b3565b6006553480156200009557600080fd5b50604051620025e7380380620025e78339818101604052810190620000bb919062000372565b336000806101000a81548173ffffffffffffffffffffffffffffffffffffffff021916908373ffffffffffffffffffffffffffffffffffffffff1602179055506040518060400160405280600015158152602001600073ffffffffffffffffffffffffffffffffffffffff16815250600160008201518160000160006101000a81548160ff02191690831515021790555060208201518160000160016101000a81548173ffffffffffffffffffffffffffffffffffffffff021916908373ffffffffffffffffffffffffffffffffffffffff16021790555090505033600260006101000a81548173ffffffffffffffffffffffffffffffffffffffff021916908373ffffffffffffffffffffffffffffffffffffffff16021790555081600360006101000a81548173ffffffffffffffffffffffffffffffffffffffff021916908373ffffffffffffffffffffffffffffffffffffffff16021790555080600460006101000a81548173ffffffffffffffffffffffffffffffffffffffff021916908373ffffffffffffffffffffffffffffffffffffffff160217905550600360009054906101000a900473ffffffffffffffffffffffffffffffffffffffff1673ffffffffffffffffffffffffffffffffffffffff166341e6f7246040518163ffffffff1660e01b8152600401600060405180830381600087803b158015620002c457600080fd5b505af1158015620002d9573d6000803e3d6000fd5b50505050505062000475565b82805482825590600052602060002090810192821562000329579160200282015b8281111562000328578251829060ff1690559160200191906001019062000306565b5b5090506200033891906200033c565b5090565b5b80821115620003575760008160009055506001016200033d565b5090565b6000815190506200036c816200045b565b92915050565b600080604083850312156200038657600080fd5b600062000396858286016200035b565b9250506020620003a9858286016200035b565b9150509250929050565b6000620003c08262000422565b9150620003cd8362000422565b925082821015620003e357620003e26200042c565b5b828203905092915050565b6000620003fb8262000402565b9050919050565b600073ffffffffffffffffffffffffffffffffffffffff82169050919050565b6000819050919050565b7f4e487b7100000000000000000000000000000000000000000000000000000000600052601160045260246000fd5b6200046681620003ee565b81146200047257600080fd5b50565b61216280620004856000396000f3fe6080604052600436106101095760003560e01c806366e8c5ef11610095578063afc983fc11610064578063afc983fc14610330578063bd4616f41461034c578063bf47376814610389578063c7958cad146103a5578063ed6c4c88146103d357610109565b806366e8c5ef1461025e57806373c74e911461029d5780638fd06101146102da578063a46ec4271461030557610109565b80633c4dbb05116100dc5780633c4dbb051461019f5780633f2a65f5146101bb57806341cb1936146101d757806341e6f724146102175780636045f20a1461022157610109565b806302dc774d1461010e57806303b4525f1461012a578063190a853b146101675780632a31644214610183575b600080fd5b61012860048036038101906101239190611afc565b610412565b005b34801561013657600080fd5b50610151600480360381019061014c9190611bd9565b610459565b60405161015e9190611e85565b60405180910390f35b610181600480360381019061017c9190611c2b565b61050d565b005b61019d60048036038101906101989190611b25565b610633565b005b6101b960048036038101906101b49190611afc565b61110c565b005b6101d560048036038101906101d09190611c2b565b6111fc565b005b3480156101e357600080fd5b506101fe60048036038101906101f99190611bd9565b611322565b60405161020e9493929190611f5b565b60405180910390f35b61021f6113e2565b005b34801561022d57600080fd5b5061024860048036038101906102439190611bd9565b61144f565b6040516102559190611ee0565b60405180910390f35b34801561026a57600080fd5b5061028560048036038101906102809190611c2b565b611503565b60405161029493929190611e2c565b60405180910390f35b3480156102a957600080fd5b506102c460048036038101906102bf9190611bd9565b6115c2565b6040516102d19190611ee0565b60405180910390f35b3480156102e657600080fd5b506102ef611676565b6040516102fc9190611e63565b60405180910390f35b34801561031157600080fd5b5061031a6116ce565b6040516103279190611ee0565b60405180910390f35b61034a60048036038101906103459190611afc565b6116d4565b005b34801561035857600080fd5b50610373600480360381019061036e9190611bd9565b61182a565b6040516103809190611ee0565b60405180910390f35b6103a3600480360381019061039e9190611afc565b61184e565b005b3480156103b157600080fd5b506103ba611922565b6040516103ca9493929190611f5b565b60405180910390f35b3480156103df57600080fd5b506103fa60048036038101906103f59190611bd9565b6119d6565b60405161040993929190611f24565b60405180910390f35b80600160000160016101000a81548173ffffffffffffffffffffffffffffffffffffffff021916908373ffffffffffffffffffffffffffffffffffffffff16021790555050565b6000600360009054906101000a900473ffffffffffffffffffffffffffffffffffffffff1673ffffffffffffffffffffffffffffffffffffffff166303b4525f836040518263ffffffff1660e01b81526004016104b69190611ee0565b60206040518083038186803b1580156104ce57600080fd5b505afa1580156104e2573d6000803e3d6000fd5b505050506040513d601f19601f820116820180604052508101906105069190611bb0565b9050919050565b3373ffffffffffffffffffffffffffffffffffffffff16600160000160019054906101000a900473ffffffffffffffffffffffffffffffffffffffff1673ffffffffffffffffffffffffffffffffffffffff16146105a0576040517f08c379a000000000000000000000000000000000000000000000000000000000815260040161059790611ec0565b60405180910390fd5b600360009054906101000a900473ffffffffffffffffffffffffffffffffffffffff1673ffffffffffffffffffffffffffffffffffffffff1663190a853b83836040518363ffffffff1660e01b81526004016105fd929190611efb565b600060405180830381600087803b15801561061757600080fd5b505af115801561062b573d6000803e3d6000fd5b505050505050565b3373ffffffffffffffffffffffffffffffffffffffff16600160000160019054906101000a900473ffffffffffffffffffffffffffffffffffffffff1673ffffffffffffffffffffffffffffffffffffffff16146106c6576040517f08c379a00000000000000000000000000000000000000000000000000000000081526004016106bd90611ec0565b60405180910390fd5b6000600460009054906101000a900473ffffffffffffffffffffffffffffffffffffffff1673ffffffffffffffffffffffffffffffffffffffff166331a73991846040518263ffffffff1660e01b81526004016107239190611e11565b60206040518083038186803b15801561073b57600080fd5b505afa15801561074f573d6000803e3d6000fd5b505050506040513d601f19601f820116820180604052508101906107739190611c02565b9050600360009054906101000a900473ffffffffffffffffffffffffffffffffffffffff1673ffffffffffffffffffffffffffffffffffffffff1663516d9662826040518263ffffffff1660e01b81526004016107d09190611ee0565b60206040518083038186803b1580156107e857600080fd5b505afa1580156107fc573d6000803e3d6000fd5b505050506040513d601f19601f820116820180604052508101906108209190611bb0565b6108b257600360009054906101000a900473ffffffffffffffffffffffffffffffffffffffff1673ffffffffffffffffffffffffffffffffffffffff16632ea58650826040518263ffffffff1660e01b815260040161087f9190611ee0565b600060405180830381600087803b15801561089957600080fd5b505af11580156108ad573d6000803e3d6000fd5b505050505b6000600360009054906101000a900473ffffffffffffffffffffffffffffffffffffffff1673ffffffffffffffffffffffffffffffffffffffff1663f4a38ba36040518163ffffffff1660e01b815260040160206040518083038186803b15801561091c57600080fd5b505afa158015610930573d6000803e3d6000fd5b505050506040513d601f19601f820116820180604052508101906109549190611c02565b90506000600360009054906101000a900473ffffffffffffffffffffffffffffffffffffffff1673ffffffffffffffffffffffffffffffffffffffff166379c6fc296040518163ffffffff1660e01b815260040160206040518083038186803b1580156109c057600080fd5b505afa1580156109d4573d6000803e3d6000fd5b505050506040513d601f19601f820116820180604052508101906109f89190611c02565b90506000600360009054906101000a900473ffffffffffffffffffffffffffffffffffffffff1673ffffffffffffffffffffffffffffffffffffffff16635afd044085846040518363ffffffff1660e01b8152600401610a59929190611efb565b60206040518083038186803b158015610a7157600080fd5b505afa158015610a85573d6000803e3d6000fd5b505050506040513d601f19601f82011682018060405250810190610aa99190611bb0565b905084831115610d00578015610b4d57600360009054906101000a900473ffffffffffffffffffffffffffffffffffffffff1673ffffffffffffffffffffffffffffffffffffffff1663e5b244a685876040518363ffffffff1660e01b8152600401610b16929190611efb565b600060405180830381600087803b158015610b3057600080fd5b505af1158015610b44573d6000803e3d6000fd5b50505050610bdf565b600360009054906101000a900473ffffffffffffffffffffffffffffffffffffffff1673ffffffffffffffffffffffffffffffffffffffff16632d1c20218787876040518463ffffffff1660e01b8152600401610bac93929190611e2c565b600060405180830381600087803b158015610bc657600080fd5b505af1158015610bda573d6000803e3d6000fd5b505050505b600360009054906101000a900473ffffffffffffffffffffffffffffffffffffffff1673ffffffffffffffffffffffffffffffffffffffff16631b5c78ee85876040518363ffffffff1660e01b8152600401610c3c929190611efb565b600060405180830381600087803b158015610c5657600080fd5b505af1158015610c6a573d6000803e3d6000fd5b50505050600360009054906101000a900473ffffffffffffffffffffffffffffffffffffffff1673ffffffffffffffffffffffffffffffffffffffff16631252b48e866040518263ffffffff1660e01b8152600401610cc99190611ee0565b600060405180830381600087803b158015610ce357600080fd5b505af1158015610cf7573d6000803e3d6000fd5b50505050611104565b60008386610d0e9190611fea565b90508115610daa57600360009054906101000a900473ffffffffffffffffffffffffffffffffffffffff1673ffffffffffffffffffffffffffffffffffffffff1663e5b244a686886040518363ffffffff1660e01b8152600401610d73929190611efb565b600060405180830381600087803b158015610d8d57600080fd5b505af1158015610da1573d6000803e3d6000fd5b50505050610e3c565b600360009054906101000a900473ffffffffffffffffffffffffffffffffffffffff1673ffffffffffffffffffffffffffffffffffffffff16632d1c20218886886040518463ffffffff1660e01b8152600401610e0993929190611e2c565b600060405180830381600087803b158015610e2357600080fd5b505af1158015610e37573d6000803e3d6000fd5b505050505b600360009054906101000a900473ffffffffffffffffffffffffffffffffffffffff1673ffffffffffffffffffffffffffffffffffffffff16631252b48e856040518263ffffffff1660e01b8152600401610e979190611ee0565b600060405180830381600087803b158015610eb157600080fd5b505af1158015610ec5573d6000803e3d6000fd5b50505050600360009054906101000a900473ffffffffffffffffffffffffffffffffffffffff1673ffffffffffffffffffffffffffffffffffffffff166322a07ec26040518163ffffffff1660e01b8152600401600060405180830381600087803b158015610f3357600080fd5b505af1158015610f47573d6000803e3d6000fd5b50505050600081111561110257600360009054906101000a900473ffffffffffffffffffffffffffffffffffffffff1673ffffffffffffffffffffffffffffffffffffffff16632d1c20218883886040518463ffffffff1660e01b8152600401610fb393929190611e2c565b600060405180830381600087803b158015610fcd57600080fd5b505af1158015610fe1573d6000803e3d6000fd5b50505050600360009054906101000a900473ffffffffffffffffffffffffffffffffffffffff1673ffffffffffffffffffffffffffffffffffffffff16631252b48e826040518263ffffffff1660e01b81526004016110409190611ee0565b600060405180830381600087803b15801561105a57600080fd5b505af115801561106e573d6000803e3d6000fd5b50505050600360009054906101000a900473ffffffffffffffffffffffffffffffffffffffff1673ffffffffffffffffffffffffffffffffffffffff16631b5c78ee86886040518363ffffffff1660e01b81526004016110cf929190611efb565b600060405180830381600087803b1580156110e957600080fd5b505af11580156110fd573d6000803e3d6000fd5b505050505b505b505050505050565b600160000160009054906101000a900460ff161561115f576040517f08c379a000000000000000000000000000000000000000000000000000000000815260040161115690611ec0565b60405180910390fd5b60405180604001604052806001151581526020018273ffffffffffffffffffffffffffffffffffffffff16815250600160008201518160000160006101000a81548160ff02191690831515021790555060208201518160000160016101000a81548173ffffffffffffffffffffffffffffffffffffffff021916908373ffffffffffffffffffffffffffffffffffffffff16021790555090505050565b3373ffffffffffffffffffffffffffffffffffffffff16600160000160019054906101000a900473ffffffffffffffffffffffffffffffffffffffff1673ffffffffffffffffffffffffffffffffffffffff161461128f576040517f08c379a000000000000000000000000000000000000000000000000000000000815260040161128690611ec0565b60405180910390fd5b600360009054906101000a900473ffffffffffffffffffffffffffffffffffffffff1673ffffffffffffffffffffffffffffffffffffffff16633f2a65f583836040518363ffffffff1660e01b81526004016112ec929190611efb565b600060405180830381600087803b15801561130657600080fd5b505af115801561131a573d6000803e3d6000fd5b505050505050565b600080600080600360009054906101000a900473ffffffffffffffffffffffffffffffffffffffff1673ffffffffffffffffffffffffffffffffffffffff166341cb1936866040518263ffffffff1660e01b81526004016113839190611ee0565b60806040518083038186803b15801561139b57600080fd5b505afa1580156113af573d6000803e3d6000fd5b505050506040513d601f19601f820116820180604052508101906113d39190611cb6565b93509350935093509193509193565b3073ffffffffffffffffffffffffffffffffffffffff16633c4dbb05336040518263ffffffff1660e01b815260040161141b9190611e11565b600060405180830381600087803b15801561143557600080fd5b505af1158015611449573d6000803e3d6000fd5b50505050565b6000600360009054906101000a900473ffffffffffffffffffffffffffffffffffffffff1673ffffffffffffffffffffffffffffffffffffffff16636045f20a836040518263ffffffff1660e01b81526004016114ac9190611ee0565b60206040518083038186803b1580156114c457600080fd5b505afa1580156114d8573d6000803e3d6000fd5b505050506040513d601f19601f820116820180604052508101906114fc9190611c02565b9050919050565b6000806000600360009054906101000a900473ffffffffffffffffffffffffffffffffffffffff1673ffffffffffffffffffffffffffffffffffffffff166366e8c5ef86866040518363ffffffff1660e01b8152600401611565929190611efb565b60606040518083038186803b15801561157d57600080fd5b505afa158015611591573d6000803e3d6000fd5b505050506040513d601f19601f820116820180604052508101906115b59190611b61565b9250925092509250925092565b6000600360009054906101000a900473ffffffffffffffffffffffffffffffffffffffff1673ffffffffffffffffffffffffffffffffffffffff166373c74e91836040518263ffffffff1660e01b815260040161161f9190611ee0565b60206040518083038186803b15801561163757600080fd5b505afa15801561164b573d6000803e3d6000fd5b505050506040513d601f19601f8201168201806040525081019061166f9190611c02565b9050919050565b606060058054806020026020016040519081016040528092919081815260200182805480156116c457602002820191906000526020600020905b8154815260200190600101908083116116b0575b5050505050905090565b60065481565b3373ffffffffffffffffffffffffffffffffffffffff16600260009054906101000a900473ffffffffffffffffffffffffffffffffffffffff1673ffffffffffffffffffffffffffffffffffffffff1614611764576040517f08c379a000000000000000000000000000000000000000000000000000000000815260040161175b90611ea0565b60405180910390fd5b80600360006101000a81548173ffffffffffffffffffffffffffffffffffffffff021916908373ffffffffffffffffffffffffffffffffffffffff160217905550600360009054906101000a900473ffffffffffffffffffffffffffffffffffffffff1673ffffffffffffffffffffffffffffffffffffffff166341e6f7246040518163ffffffff1660e01b8152600401600060405180830381600087803b15801561180f57600080fd5b505af1158015611823573d6000803e3d6000fd5b5050505050565b6005818154811061183a57600080fd5b906000526020600020016000915090505481565b3373ffffffffffffffffffffffffffffffffffffffff16600260009054906101000a900473ffffffffffffffffffffffffffffffffffffffff1673ffffffffffffffffffffffffffffffffffffffff16146118de576040517f08c379a00000000000000000000000000000000000000000000000000000000081526004016118d590611ea0565b60405180910390fd5b80600460006101000a81548173ffffffffffffffffffffffffffffffffffffffff021916908373ffffffffffffffffffffffffffffffffffffffff16021790555050565b600080600080600360009054906101000a900473ffffffffffffffffffffffffffffffffffffffff1673ffffffffffffffffffffffffffffffffffffffff1663c7958cad6040518163ffffffff1660e01b815260040160806040518083038186803b15801561199057600080fd5b505afa1580156119a4573d6000803e3d6000fd5b505050506040513d601f19601f820116820180604052508101906119c89190611cb6565b935093509350935090919293565b6000806000600360009054906101000a900473ffffffffffffffffffffffffffffffffffffffff1673ffffffffffffffffffffffffffffffffffffffff1663ed6c4c88856040518263ffffffff1660e01b8152600401611a369190611ee0565b60606040518083038186803b158015611a4e57600080fd5b505afa158015611a62573d6000803e3d6000fd5b505050506040513d601f19601f82011682018060405250810190611a869190611c67565b9250925092509193909250565b600081359050611aa2816120e7565b92915050565b600081519050611ab7816120e7565b92915050565b600081519050611acc816120fe565b92915050565b600081359050611ae181612115565b92915050565b600081519050611af681612115565b92915050565b600060208284031215611b0e57600080fd5b6000611b1c84828501611a93565b91505092915050565b60008060408385031215611b3857600080fd5b6000611b4685828601611a93565b9250506020611b5785828601611ad2565b9150509250929050565b600080600060608486031215611b7657600080fd5b6000611b8486828701611aa8565b9350506020611b9586828701611ae7565b9250506040611ba686828701611ae7565b9150509250925092565b600060208284031215611bc257600080fd5b6000611bd084828501611abd565b91505092915050565b600060208284031215611beb57600080fd5b6000611bf984828501611ad2565b91505092915050565b600060208284031215611c1457600080fd5b6000611c2284828501611ae7565b91505092915050565b60008060408385031215611c3e57600080fd5b6000611c4c85828601611ad2565b9250506020611c5d85828601611ad2565b9150509250929050565b600080600060608486031215611c7c57600080fd5b6000611c8a86828701611ae7565b9350506020611c9b86828701611ae7565b9250506040611cac86828701611ae7565b9150509250925092565b60008060008060808587031215611ccc57600080fd5b6000611cda87828801611ae7565b9450506020611ceb87828801611ae7565b9350506040611cfc87828801611ae7565b9250506060611d0d87828801611ae7565b91505092959194509250565b6000611d258383611df3565b60208301905092915050565b611d3a8161201e565b82525050565b6000611d4b82611fb0565b611d558185611fc8565b9350611d6083611fa0565b8060005b83811015611d91578151611d788882611d19565b9750611d8383611fbb565b925050600181019050611d64565b5085935050505092915050565b611da781612030565b82525050565b6000611dba600a83611fd9565b9150611dc582612095565b602082019050919050565b6000611ddd600183611fd9565b9150611de8826120be565b602082019050919050565b611dfc8161205c565b82525050565b611e0b8161205c565b82525050565b6000602082019050611e266000830184611d31565b92915050565b6000606082019050611e416000830186611d31565b611e4e6020830185611e02565b611e5b6040830184611e02565b949350505050565b60006020820190508181036000830152611e7d8184611d40565b905092915050565b6000602082019050611e9a6000830184611d9e565b92915050565b60006020820190508181036000830152611eb981611dad565b9050919050565b60006020820190508181036000830152611ed981611dd0565b9050919050565b6000602082019050611ef56000830184611e02565b92915050565b6000604082019050611f106000830185611e02565b611f1d6020830184611e02565b9392505050565b6000606082019050611f396000830186611e02565b611f466020830185611e02565b611f536040830184611e02565b949350505050565b6000608082019050611f706000830187611e02565b611f7d6020830186611e02565b611f8a6040830185611e02565b611f976060830184611e02565b95945050505050565b6000819050602082019050919050565b600081519050919050565b6000602082019050919050565b600082825260208201905092915050565b600082825260208201905092915050565b6000611ff58261205c565b91506120008361205c565b92508282101561201357612012612066565b5b828203905092915050565b60006120298261203c565b9050919050565b60008115159050919050565b600073ffffffffffffffffffffffffffffffffffffffff82169050919050565b6000819050919050565b7f4e487b7100000000000000000000000000000000000000000000000000000000600052601160045260246000fd5b7f6f6e6c79206f776e657200000000000000000000000000000000000000000000600082015250565b7f3100000000000000000000000000000000000000000000000000000000000000600082015250565b6120f08161201e565b81146120fb57600080fd5b50565b61210781612030565b811461211257600080fd5b50565b61211e8161205c565b811461212957600080fd5b5056fea26469706673582212201e37938313f50d848100a63beacb42ce484c5a3113f48dcf49ea21f63b2cd76c64736f6c63430008040033",
  "linkReferences": {},
  "deployedLinkReferences": {}
}