{
  "_format": "hh-sol-artifact-1",
  "contractName": "PullController",
  "sourceName": "contracts/Controllers/PullController.sol",
  "abi": [
    {
      "inputs": [
        {
          "internalType": "address",
          "name": "pullStorageAddress",
          "type": "address"
        },
        {
          "internalType": "address",
          "name": "userStorageAddress",
          "type": "address"
        }
      ],
      "stateMutability": "nonpayable",
      "type": "constructor"
    },
    {
      "inputs": [
        {
          "internalType": "uint256",
          "name": "value",
          "type": "uint256"
        },
        {
          "internalType": "uint256",
          "name": "UserId",
          "type": "uint256"
        }
      ],
      "name": "AddMemberReferalRewards",
      "outputs": [],
      "stateMutability": "payable",
      "type": "function"
    },
    {
      "inputs": [
        {
          "internalType": "uint256",
          "name": "value",
          "type": "uint256"
        },
        {
          "internalType": "uint256",
          "name": "UserId",
          "type": "uint256"
        }
      ],
      "name": "AddMemberRewards",
      "outputs": [],
      "stateMutability": "payable",
      "type": "function"
    },
    {
      "inputs": [
        {
          "internalType": "uint256",
          "name": "userId",
          "type": "uint256"
        },
        {
          "internalType": "uint256",
          "name": "value",
          "type": "uint256"
        }
      ],
      "name": "BuyTicket",
      "outputs": [],
      "stateMutability": "payable",
      "type": "function"
    },
    {
      "inputs": [
        {
          "internalType": "address",
          "name": "newAddress",
          "type": "address"
        }
      ],
      "name": "Change",
      "outputs": [],
      "stateMutability": "payable",
      "type": "function"
    },
    {
      "inputs": [
        {
          "internalType": "address",
          "name": "newAddress",
          "type": "address"
        }
      ],
      "name": "ChangePullStorage",
      "outputs": [],
      "stateMutability": "payable",
      "type": "function"
    },
    {
      "inputs": [
        {
          "internalType": "address",
          "name": "newAddress",
          "type": "address"
        }
      ],
      "name": "ChangeUserStorage",
      "outputs": [],
      "stateMutability": "payable",
      "type": "function"
    },
    {
      "inputs": [],
      "name": "GetCurrentPull",
      "outputs": [
        {
          "internalType": "uint256",
          "name": "",
          "type": "uint256"
        },
        {
          "internalType": "uint256",
          "name": "",
          "type": "uint256"
        },
        {
          "internalType": "uint256",
          "name": "",
          "type": "uint256"
        }
      ],
      "stateMutability": "view",
      "type": "function"
    },
    {
      "inputs": [
        {
          "internalType": "uint256",
          "name": "userId",
          "type": "uint256"
        }
      ],
      "name": "GetMember",
      "outputs": [
        {
          "internalType": "uint256",
          "name": "",
          "type": "uint256"
        },
        {
          "internalType": "uint256",
          "name": "",
          "type": "uint256"
        }
      ],
      "stateMutability": "view",
      "type": "function"
    },
    {
      "inputs": [
        {
          "internalType": "uint256",
          "name": "pullId",
          "type": "uint256"
        }
      ],
      "name": "GetPull",
      "outputs": [
        {
          "internalType": "uint256",
          "name": "",
          "type": "uint256"
        },
        {
          "internalType": "uint256",
          "name": "",
          "type": "uint256"
        },
        {
          "internalType": "uint256",
          "name": "",
          "type": "uint256"
        }
      ],
      "stateMutability": "view",
      "type": "function"
    },
    {
      "inputs": [
        {
          "internalType": "uint256",
          "name": "pullId",
          "type": "uint256"
        }
      ],
      "name": "GetPullCollectedSum",
      "outputs": [
        {
          "internalType": "uint256",
          "name": "",
          "type": "uint256"
        }
      ],
      "stateMutability": "view",
      "type": "function"
    },
    {
      "inputs": [],
      "name": "GetPullCount",
      "outputs": [
        {
          "internalType": "uint256",
          "name": "",
          "type": "uint256"
        }
      ],
      "stateMutability": "view",
      "type": "function"
    },
    {
      "inputs": [],
      "name": "GetRewardableLines",
      "outputs": [
        {
          "internalType": "uint256[]",
          "name": "",
          "type": "uint256[]"
        }
      ],
      "stateMutability": "view",
      "type": "function"
    },
    {
      "inputs": [],
      "name": "GetRewardableLinesCount",
      "outputs": [
        {
          "internalType": "uint256",
          "name": "",
          "type": "uint256"
        }
      ],
      "stateMutability": "view",
      "type": "function"
    },
    {
      "inputs": [],
      "name": "GetStatistic",
      "outputs": [
        {
          "internalType": "uint256",
          "name": "",
          "type": "uint256"
        },
        {
          "internalType": "uint256",
          "name": "",
          "type": "uint256"
        },
        {
          "internalType": "uint256",
          "name": "",
          "type": "uint256"
        }
      ],
      "stateMutability": "view",
      "type": "function"
    },
    {
      "inputs": [
        {
          "internalType": "uint256",
          "name": "pullId",
          "type": "uint256"
        }
      ],
      "name": "GetStructure",
      "outputs": [
        {
          "internalType": "uint256",
          "name": "",
          "type": "uint256"
        },
        {
          "internalType": "uint256",
          "name": "",
          "type": "uint256"
        },
        {
          "internalType": "uint256",
          "name": "",
          "type": "uint256"
        },
        {
          "internalType": "uint256[]",
          "name": "",
          "type": "uint256[]"
        },
        {
          "internalType": "uint256[]",
          "name": "",
          "type": "uint256[]"
        }
      ],
      "stateMutability": "view",
      "type": "function"
    },
    {
      "inputs": [
        {
          "internalType": "uint256",
          "name": "pullId",
          "type": "uint256"
        }
      ],
      "name": "GetTicketCountOnPull",
      "outputs": [
        {
          "internalType": "uint256",
          "name": "",
          "type": "uint256"
        }
      ],
      "stateMutability": "view",
      "type": "function"
    },
    {
      "inputs": [
        {
          "internalType": "uint256",
          "name": "pullId",
          "type": "uint256"
        },
        {
          "internalType": "uint256",
          "name": "ticketNumber",
          "type": "uint256"
        }
      ],
      "name": "GetTicketInfo",
      "outputs": [
        {
          "internalType": "uint256",
          "name": "",
          "type": "uint256"
        },
        {
          "internalType": "uint256",
          "name": "",
          "type": "uint256"
        }
      ],
      "stateMutability": "view",
      "type": "function"
    },
    {
      "inputs": [
        {
          "internalType": "uint256",
          "name": "pullId",
          "type": "uint256"
        }
      ],
      "name": "GetTicketsByPullId",
      "outputs": [
        {
          "internalType": "uint256[]",
          "name": "",
          "type": "uint256[]"
        },
        {
          "internalType": "uint256[]",
          "name": "",
          "type": "uint256[]"
        }
      ],
      "stateMutability": "view",
      "type": "function"
    },
    {
      "inputs": [
        {
          "internalType": "uint256",
          "name": "id",
          "type": "uint256"
        }
      ],
      "name": "IsPullExist",
      "outputs": [
        {
          "internalType": "bool",
          "name": "",
          "type": "bool"
        }
      ],
      "stateMutability": "view",
      "type": "function"
    },
    {
      "inputs": [
        {
          "internalType": "address",
          "name": "_addressKey",
          "type": "address"
        }
      ],
      "name": "Set",
      "outputs": [],
      "stateMutability": "payable",
      "type": "function"
    },
    {
      "inputs": [],
      "name": "SetKey",
      "outputs": [],
      "stateMutability": "payable",
      "type": "function"
    },
    {
      "inputs": [
        {
          "internalType": "uint256",
          "name": "",
          "type": "uint256"
        }
      ],
      "name": "referralRewardPercents",
      "outputs": [
        {
          "internalType": "uint256",
          "name": "",
          "type": "uint256"
        }
      ],
      "stateMutability": "view",
      "type": "function"
    },
    {
      "inputs": [],
      "name": "rewardableLinesCount",
      "outputs": [
        {
          "internalType": "uint256",
          "name": "",
          "type": "uint256"
        }
      ],
      "stateMutability": "view",
      "type": "function"
    }
  ],
  "bytecode": "0x6080604052604051806101000160405280600060ff168152602001600860ff168152602001600460ff168152602001600360ff168152602001600260ff168152602001600160ff168152602001600160ff168152602001600160ff16815250600590600862000070929190620002e5565b506001600580549050620000859190620003b3565b6006553480156200009557600080fd5b50604051620029dd380380620029dd8339818101604052810190620000bb919062000372565b336000806101000a81548173ffffffffffffffffffffffffffffffffffffffff021916908373ffffffffffffffffffffffffffffffffffffffff1602179055506040518060400160405280600015158152602001600073ffffffffffffffffffffffffffffffffffffffff16815250600160008201518160000160006101000a81548160ff02191690831515021790555060208201518160000160016101000a81548173ffffffffffffffffffffffffffffffffffffffff021916908373ffffffffffffffffffffffffffffffffffffffff16021790555090505033600260006101000a81548173ffffffffffffffffffffffffffffffffffffffff021916908373ffffffffffffffffffffffffffffffffffffffff16021790555081600360006101000a81548173ffffffffffffffffffffffffffffffffffffffff021916908373ffffffffffffffffffffffffffffffffffffffff16021790555080600460006101000a81548173ffffffffffffffffffffffffffffffffffffffff021916908373ffffffffffffffffffffffffffffffffffffffff160217905550600360009054906101000a900473ffffffffffffffffffffffffffffffffffffffff1673ffffffffffffffffffffffffffffffffffffffff166341e6f7246040518163ffffffff1660e01b8152600401600060405180830381600087803b158015620002c457600080fd5b505af1158015620002d9573d6000803e3d6000fd5b50505050505062000475565b82805482825590600052602060002090810192821562000329579160200282015b8281111562000328578251829060ff1690559160200191906001019062000306565b5b5090506200033891906200033c565b5090565b5b80821115620003575760008160009055506001016200033d565b5090565b6000815190506200036c816200045b565b92915050565b600080604083850312156200038657600080fd5b600062000396858286016200035b565b9250506020620003a9858286016200035b565b9150509250929050565b6000620003c08262000422565b9150620003cd8362000422565b925082821015620003e357620003e26200042c565b5b828203905092915050565b6000620003fb8262000402565b9050919050565b600073ffffffffffffffffffffffffffffffffffffffff82169050919050565b6000819050919050565b7f4e487b7100000000000000000000000000000000000000000000000000000000600052601160045260246000fd5b6200046681620003ee565b81146200047257600080fd5b50565b61255880620004856000396000f3fe6080604052600436106101405760003560e01c806373c74e91116100b6578063afc983fc1161006f578063afc983fc14610426578063bd4616f414610442578063bf4737681461047f578063c7958cad1461049b578063ed6c4c88146104c8578063f961d7031461050657610140565b806373c74e911461031f5780637a7861791461035c5780638fd0610114610387578063a149aaca146103b2578063a46ec427146103df578063a8445a1e1461040a57610140565b80633f2a65f5116101085780633f2a65f51461020157806341cb19361461021d57806341e6f7241461025c578063463416e8146102665780636045f20a146102a457806366e8c5ef146102e157610140565b806302dc774d1461014557806303b4525f146101615780630a0656ec1461019e578063190a853b146101c95780633c4dbb05146101e5575b600080fd5b61015f600480360381019061015a9190611db3565b610547565b005b34801561016d57600080fd5b5061018860048036038101906101839190611e71565b61058e565b604051610195919061219d565b60405180910390f35b3480156101aa57600080fd5b506101b3610642565b6040516101c091906121f8565b60405180910390f35b6101e360048036038101906101de9190611ec3565b6106e9565b005b6101ff60048036038101906101fa9190611db3565b61080f565b005b61021b60048036038101906102169190611ec3565b6108ff565b005b34801561022957600080fd5b50610244600480360381019061023f9190611e71565b610a25565b6040516102539392919061223c565b60405180910390f35b610264610ae2565b005b34801561027257600080fd5b5061028d60048036038101906102889190611e71565b610b4f565b60405161029b929190612166565b60405180910390f35b3480156102b057600080fd5b506102cb60048036038101906102c69190611e71565b610c0b565b6040516102d891906121f8565b60405180910390f35b3480156102ed57600080fd5b5061030860048036038101906103039190611ec3565b610cbf565b604051610316929190612213565b60405180910390f35b34801561032b57600080fd5b5061034660048036038101906103419190611e71565b610d79565b60405161035391906121f8565b60405180910390f35b34801561036857600080fd5b50610371610e2d565b60405161037e91906121f8565b60405180910390f35b34801561039357600080fd5b5061039c610e37565b6040516103a99190612144565b60405180910390f35b3480156103be57600080fd5b506103c7610e8f565b6040516103d69392919061223c565b60405180910390f35b3480156103eb57600080fd5b506103f4610f3f565b60405161040191906121f8565b60405180910390f35b610424600480360381019061041f9190611ec3565b610f45565b005b610440600480360381019061043b9190611db3565b61184a565b005b34801561044e57600080fd5b5061046960048036038101906104649190611e71565b6119a0565b60405161047691906121f8565b60405180910390f35b61049960048036038101906104949190611db3565b6119c4565b005b3480156104a757600080fd5b506104b0611a98565b6040516104bf9392919061223c565b60405180910390f35b3480156104d457600080fd5b506104ef60048036038101906104ea9190611e71565b611b48565b6040516104fd929190612213565b60405180910390f35b34801561051257600080fd5b5061052d60048036038101906105289190611e71565b611bfe565b60405161053e959493929190612273565b60405180910390f35b80600160000160016101000a81548173ffffffffffffffffffffffffffffffffffffffff021916908373ffffffffffffffffffffffffffffffffffffffff16021790555050565b6000600360009054906101000a900473ffffffffffffffffffffffffffffffffffffffff1673ffffffffffffffffffffffffffffffffffffffff166303b4525f836040518263ffffffff1660e01b81526004016105eb91906121f8565b60206040518083038186803b15801561060357600080fd5b505afa158015610617573d6000803e3d6000fd5b505050506040513d601f19601f8201168201806040525081019061063b9190611e48565b9050919050565b6000600360009054906101000a900473ffffffffffffffffffffffffffffffffffffffff1673ffffffffffffffffffffffffffffffffffffffff166379c6fc296040518163ffffffff1660e01b815260040160206040518083038186803b1580156106ac57600080fd5b505afa1580156106c0573d6000803e3d6000fd5b505050506040513d601f19601f820116820180604052508101906106e49190611e9a565b905090565b3373ffffffffffffffffffffffffffffffffffffffff16600160000160019054906101000a900473ffffffffffffffffffffffffffffffffffffffff1673ffffffffffffffffffffffffffffffffffffffff161461077c576040517f08c379a0000000000000000000000000000000000000000000000000000000008152600401610773906121d8565b60405180910390fd5b600360009054906101000a900473ffffffffffffffffffffffffffffffffffffffff1673ffffffffffffffffffffffffffffffffffffffff1663190a853b83836040518363ffffffff1660e01b81526004016107d9929190612213565b600060405180830381600087803b1580156107f357600080fd5b505af1158015610807573d6000803e3d6000fd5b505050505050565b600160000160009054906101000a900460ff1615610862576040517f08c379a0000000000000000000000000000000000000000000000000000000008152600401610859906121d8565b60405180910390fd5b60405180604001604052806001151581526020018273ffffffffffffffffffffffffffffffffffffffff16815250600160008201518160000160006101000a81548160ff02191690831515021790555060208201518160000160016101000a81548173ffffffffffffffffffffffffffffffffffffffff021916908373ffffffffffffffffffffffffffffffffffffffff16021790555090505050565b3373ffffffffffffffffffffffffffffffffffffffff16600160000160019054906101000a900473ffffffffffffffffffffffffffffffffffffffff1673ffffffffffffffffffffffffffffffffffffffff1614610992576040517f08c379a0000000000000000000000000000000000000000000000000000000008152600401610989906121d8565b60405180910390fd5b600360009054906101000a900473ffffffffffffffffffffffffffffffffffffffff1673ffffffffffffffffffffffffffffffffffffffff16633f2a65f583836040518363ffffffff1660e01b81526004016109ef929190612213565b600060405180830381600087803b158015610a0957600080fd5b505af1158015610a1d573d6000803e3d6000fd5b505050505050565b6000806000600360009054906101000a900473ffffffffffffffffffffffffffffffffffffffff1673ffffffffffffffffffffffffffffffffffffffff166341cb1936856040518263ffffffff1660e01b8152600401610a8591906121f8565b60606040518083038186803b158015610a9d57600080fd5b505afa158015610ab1573d6000803e3d6000fd5b505050506040513d601f19601f82011682018060405250810190610ad59190611f3b565b9250925092509193909250565b3073ffffffffffffffffffffffffffffffffffffffff16633c4dbb05336040518263ffffffff1660e01b8152600401610b1b9190612129565b600060405180830381600087803b158015610b3557600080fd5b505af1158015610b49573d6000803e3d6000fd5b50505050565b606080600360009054906101000a900473ffffffffffffffffffffffffffffffffffffffff1673ffffffffffffffffffffffffffffffffffffffff1663463416e8846040518263ffffffff1660e01b8152600401610bad91906121f8565b60006040518083038186803b158015610bc557600080fd5b505afa158015610bd9573d6000803e3d6000fd5b505050506040513d6000823e3d601f19601f82011682018060405250810190610c029190611ddc565b91509150915091565b6000600360009054906101000a900473ffffffffffffffffffffffffffffffffffffffff1673ffffffffffffffffffffffffffffffffffffffff16636045f20a836040518263ffffffff1660e01b8152600401610c6891906121f8565b60206040518083038186803b158015610c8057600080fd5b505afa158015610c94573d6000803e3d6000fd5b505050506040513d601f19601f82011682018060405250810190610cb89190611e9a565b9050919050565b600080600360009054906101000a900473ffffffffffffffffffffffffffffffffffffffff1673ffffffffffffffffffffffffffffffffffffffff166366e8c5ef85856040518363ffffffff1660e01b8152600401610d1f929190612213565b604080518083038186803b158015610d3657600080fd5b505afa158015610d4a573d6000803e3d6000fd5b505050506040513d601f19601f82011682018060405250810190610d6e9190611eff565b915091509250929050565b6000600360009054906101000a900473ffffffffffffffffffffffffffffffffffffffff1673ffffffffffffffffffffffffffffffffffffffff166373c74e91836040518263ffffffff1660e01b8152600401610dd691906121f8565b60206040518083038186803b158015610dee57600080fd5b505afa158015610e02573d6000803e3d6000fd5b505050506040513d601f19601f82011682018060405250810190610e269190611e9a565b9050919050565b6000600654905090565b60606005805480602002602001604051908101604052809291908181526020018280548015610e8557602002820191906000526020600020905b815481526020019060010190808311610e71575b5050505050905090565b6000806000600360009054906101000a900473ffffffffffffffffffffffffffffffffffffffff1673ffffffffffffffffffffffffffffffffffffffff1663a149aaca6040518163ffffffff1660e01b815260040160606040518083038186803b158015610efc57600080fd5b505afa158015610f10573d6000803e3d6000fd5b505050506040513d601f19601f82011682018060405250810190610f349190611f3b565b925092509250909192565b60065481565b3373ffffffffffffffffffffffffffffffffffffffff16600160000160019054906101000a900473ffffffffffffffffffffffffffffffffffffffff1673ffffffffffffffffffffffffffffffffffffffff1614610fd8576040517f08c379a0000000000000000000000000000000000000000000000000000000008152600401610fcf906121d8565b60405180910390fd5b600360009054906101000a900473ffffffffffffffffffffffffffffffffffffffff1673ffffffffffffffffffffffffffffffffffffffff1663516d9662836040518263ffffffff1660e01b815260040161103391906121f8565b60206040518083038186803b15801561104b57600080fd5b505afa15801561105f573d6000803e3d6000fd5b505050506040513d601f19601f820116820180604052508101906110839190611e48565b61111557600360009054906101000a900473ffffffffffffffffffffffffffffffffffffffff1673ffffffffffffffffffffffffffffffffffffffff16632ea58650836040518263ffffffff1660e01b81526004016110e291906121f8565b600060405180830381600087803b1580156110fc57600080fd5b505af1158015611110573d6000803e3d6000fd5b505050505b6000600360009054906101000a900473ffffffffffffffffffffffffffffffffffffffff1673ffffffffffffffffffffffffffffffffffffffff1663f4a38ba36040518163ffffffff1660e01b815260040160206040518083038186803b15801561117f57600080fd5b505afa158015611193573d6000803e3d6000fd5b505050506040513d601f19601f820116820180604052508101906111b79190611e9a565b90506000600360009054906101000a900473ffffffffffffffffffffffffffffffffffffffff1673ffffffffffffffffffffffffffffffffffffffff166379c6fc296040518163ffffffff1660e01b815260040160206040518083038186803b15801561122357600080fd5b505afa158015611237573d6000803e3d6000fd5b505050506040513d601f19601f8201168201806040525081019061125b9190611e9a565b90506000600360009054906101000a900473ffffffffffffffffffffffffffffffffffffffff1673ffffffffffffffffffffffffffffffffffffffff16635afd044086846040518363ffffffff1660e01b81526004016112bc929190612213565b60206040518083038186803b1580156112d457600080fd5b505afa1580156112e8573d6000803e3d6000fd5b505050506040513d601f19601f8201168201806040525081019061130c9190611e48565b9050838311156114d25780156113b057600360009054906101000a900473ffffffffffffffffffffffffffffffffffffffff1673ffffffffffffffffffffffffffffffffffffffff1663e5b244a686866040518363ffffffff1660e01b8152600401611379929190612213565b600060405180830381600087803b15801561139357600080fd5b505af11580156113a7573d6000803e3d6000fd5b50505050611440565b600360009054906101000a900473ffffffffffffffffffffffffffffffffffffffff1673ffffffffffffffffffffffffffffffffffffffff166321ca0d0485876040518363ffffffff1660e01b815260040161140d929190612213565b600060405180830381600087803b15801561142757600080fd5b505af115801561143b573d6000803e3d6000fd5b505050505b600360009054906101000a900473ffffffffffffffffffffffffffffffffffffffff1673ffffffffffffffffffffffffffffffffffffffff16631252b48e856040518263ffffffff1660e01b815260040161149b91906121f8565b600060405180830381600087803b1580156114b557600080fd5b505af11580156114c9573d6000803e3d6000fd5b50505050611843565b600083856114e0919061236f565b9050811561157c57600360009054906101000a900473ffffffffffffffffffffffffffffffffffffffff1673ffffffffffffffffffffffffffffffffffffffff1663e5b244a687866040518363ffffffff1660e01b8152600401611545929190612213565b600060405180830381600087803b15801561155f57600080fd5b505af1158015611573573d6000803e3d6000fd5b5050505061160c565b600360009054906101000a900473ffffffffffffffffffffffffffffffffffffffff1673ffffffffffffffffffffffffffffffffffffffff166321ca0d0485886040518363ffffffff1660e01b81526004016115d9929190612213565b600060405180830381600087803b1580156115f357600080fd5b505af1158015611607573d6000803e3d6000fd5b505050505b600360009054906101000a900473ffffffffffffffffffffffffffffffffffffffff1673ffffffffffffffffffffffffffffffffffffffff16631252b48e856040518263ffffffff1660e01b815260040161166791906121f8565b600060405180830381600087803b15801561168157600080fd5b505af1158015611695573d6000803e3d6000fd5b50505050600360009054906101000a900473ffffffffffffffffffffffffffffffffffffffff1673ffffffffffffffffffffffffffffffffffffffff166322a07ec26040518163ffffffff1660e01b8152600401600060405180830381600087803b15801561170357600080fd5b505af1158015611717573d6000803e3d6000fd5b50505050600081111561184157600360009054906101000a900473ffffffffffffffffffffffffffffffffffffffff1673ffffffffffffffffffffffffffffffffffffffff166321ca0d0482886040518363ffffffff1660e01b8152600401611781929190612213565b600060405180830381600087803b15801561179b57600080fd5b505af11580156117af573d6000803e3d6000fd5b50505050600360009054906101000a900473ffffffffffffffffffffffffffffffffffffffff1673ffffffffffffffffffffffffffffffffffffffff16631252b48e826040518263ffffffff1660e01b815260040161180e91906121f8565b600060405180830381600087803b15801561182857600080fd5b505af115801561183c573d6000803e3d6000fd5b505050505b505b5050505050565b3373ffffffffffffffffffffffffffffffffffffffff16600260009054906101000a900473ffffffffffffffffffffffffffffffffffffffff1673ffffffffffffffffffffffffffffffffffffffff16146118da576040517f08c379a00000000000000000000000000000000000000000000000000000000081526004016118d1906121b8565b60405180910390fd5b80600360006101000a81548173ffffffffffffffffffffffffffffffffffffffff021916908373ffffffffffffffffffffffffffffffffffffffff160217905550600360009054906101000a900473ffffffffffffffffffffffffffffffffffffffff1673ffffffffffffffffffffffffffffffffffffffff166341e6f7246040518163ffffffff1660e01b8152600401600060405180830381600087803b15801561198557600080fd5b505af1158015611999573d6000803e3d6000fd5b5050505050565b600581815481106119b057600080fd5b906000526020600020016000915090505481565b3373ffffffffffffffffffffffffffffffffffffffff16600260009054906101000a900473ffffffffffffffffffffffffffffffffffffffff1673ffffffffffffffffffffffffffffffffffffffff1614611a54576040517f08c379a0000000000000000000000000000000000000000000000000000000008152600401611a4b906121b8565b60405180910390fd5b80600460006101000a81548173ffffffffffffffffffffffffffffffffffffffff021916908373ffffffffffffffffffffffffffffffffffffffff16021790555050565b6000806000600360009054906101000a900473ffffffffffffffffffffffffffffffffffffffff1673ffffffffffffffffffffffffffffffffffffffff1663c7958cad6040518163ffffffff1660e01b815260040160606040518083038186803b158015611b0557600080fd5b505afa158015611b19573d6000803e3d6000fd5b505050506040513d601f19601f82011682018060405250810190611b3d9190611f3b565b925092509250909192565b600080600360009054906101000a900473ffffffffffffffffffffffffffffffffffffffff1673ffffffffffffffffffffffffffffffffffffffff1663ed6c4c88846040518263ffffffff1660e01b8152600401611ba691906121f8565b604080518083038186803b158015611bbd57600080fd5b505afa158015611bd1573d6000803e3d6000fd5b505050506040513d601f19601f82011682018060405250810190611bf59190611eff565b91509150915091565b6000806000606080600360009054906101000a900473ffffffffffffffffffffffffffffffffffffffff1673ffffffffffffffffffffffffffffffffffffffff1663f961d703876040518263ffffffff1660e01b8152600401611c6191906121f8565b60006040518083038186803b158015611c7957600080fd5b505afa158015611c8d573d6000803e3d6000fd5b505050506040513d6000823e3d601f19601f82011682018060405250810190611cb69190611f8a565b9450945094509450945091939590929450565b6000611cdc611cd7846122f9565b6122d4565b90508083825260208201905082856020860282011115611cfb57600080fd5b60005b85811015611d2b5781611d118882611d9e565b845260208401935060208301925050600181019050611cfe565b5050509392505050565b600081359050611d44816124dd565b92915050565b600082601f830112611d5b57600080fd5b8151611d6b848260208601611cc9565b91505092915050565b600081519050611d83816124f4565b92915050565b600081359050611d988161250b565b92915050565b600081519050611dad8161250b565b92915050565b600060208284031215611dc557600080fd5b6000611dd384828501611d35565b91505092915050565b60008060408385031215611def57600080fd5b600083015167ffffffffffffffff811115611e0957600080fd5b611e1585828601611d4a565b925050602083015167ffffffffffffffff811115611e3257600080fd5b611e3e85828601611d4a565b9150509250929050565b600060208284031215611e5a57600080fd5b6000611e6884828501611d74565b91505092915050565b600060208284031215611e8357600080fd5b6000611e9184828501611d89565b91505092915050565b600060208284031215611eac57600080fd5b6000611eba84828501611d9e565b91505092915050565b60008060408385031215611ed657600080fd5b6000611ee485828601611d89565b9250506020611ef585828601611d89565b9150509250929050565b60008060408385031215611f1257600080fd5b6000611f2085828601611d9e565b9250506020611f3185828601611d9e565b9150509250929050565b600080600060608486031215611f5057600080fd5b6000611f5e86828701611d9e565b9350506020611f6f86828701611d9e565b9250506040611f8086828701611d9e565b9150509250925092565b600080600080600060a08688031215611fa257600080fd5b6000611fb088828901611d9e565b9550506020611fc188828901611d9e565b9450506040611fd288828901611d9e565b935050606086015167ffffffffffffffff811115611fef57600080fd5b611ffb88828901611d4a565b925050608086015167ffffffffffffffff81111561201857600080fd5b61202488828901611d4a565b9150509295509295909350565b600061203d838361210b565b60208301905092915050565b612052816123a3565b82525050565b600061206382612335565b61206d818561234d565b935061207883612325565b8060005b838110156120a95781516120908882612031565b975061209b83612340565b92505060018101905061207c565b5085935050505092915050565b6120bf816123b5565b82525050565b60006120d2600a8361235e565b91506120dd8261248b565b602082019050919050565b60006120f560018361235e565b9150612100826124b4565b602082019050919050565b612114816123e1565b82525050565b612123816123e1565b82525050565b600060208201905061213e6000830184612049565b92915050565b6000602082019050818103600083015261215e8184612058565b905092915050565b600060408201905081810360008301526121808185612058565b905081810360208301526121948184612058565b90509392505050565b60006020820190506121b260008301846120b6565b92915050565b600060208201905081810360008301526121d1816120c5565b9050919050565b600060208201905081810360008301526121f1816120e8565b9050919050565b600060208201905061220d600083018461211a565b92915050565b6000604082019050612228600083018561211a565b612235602083018461211a565b9392505050565b6000606082019050612251600083018661211a565b61225e602083018561211a565b61226b604083018461211a565b949350505050565b600060a082019050612288600083018861211a565b612295602083018761211a565b6122a2604083018661211a565b81810360608301526122b48185612058565b905081810360808301526122c88184612058565b90509695505050505050565b60006122de6122ef565b90506122ea82826123eb565b919050565b6000604051905090565b600067ffffffffffffffff8211156123145761231361244b565b5b602082029050602081019050919050565b6000819050602082019050919050565b600081519050919050565b6000602082019050919050565b600082825260208201905092915050565b600082825260208201905092915050565b600061237a826123e1565b9150612385836123e1565b9250828210156123985761239761241c565b5b828203905092915050565b60006123ae826123c1565b9050919050565b60008115159050919050565b600073ffffffffffffffffffffffffffffffffffffffff82169050919050565b6000819050919050565b6123f48261247a565b810181811067ffffffffffffffff821117156124135761241261244b565b5b80604052505050565b7f4e487b7100000000000000000000000000000000000000000000000000000000600052601160045260246000fd5b7f4e487b7100000000000000000000000000000000000000000000000000000000600052604160045260246000fd5b6000601f19601f8301169050919050565b7f6f6e6c79206f776e657200000000000000000000000000000000000000000000600082015250565b7f3100000000000000000000000000000000000000000000000000000000000000600082015250565b6124e6816123a3565b81146124f157600080fd5b50565b6124fd816123b5565b811461250857600080fd5b50565b612514816123e1565b811461251f57600080fd5b5056fea264697066735822122014a725a652e42fcebceae5ae113bd1a78752ece4c14fd5c8d819396c24e9948064736f6c63430008040033",
  "linkReferences": {},
  "deployedLinkReferences": {}
}