{
  "_format": "hh-sol-artifact-1",
  "contractName": "PullController",
  "sourceName": "contracts/Controllers/PullController.sol",
  "abi": [
    {
      "inputs": [
        {
          "internalType": "address",
          "name": "pullStorageAddress",
          "type": "address"
        },
        {
          "internalType": "address",
          "name": "userStorageAddress",
          "type": "address"
        }
      ],
      "stateMutability": "nonpayable",
      "type": "constructor"
    },
    {
      "inputs": [
        {
          "internalType": "uint256",
          "name": "value",
          "type": "uint256"
        },
        {
          "internalType": "uint256",
          "name": "UserId",
          "type": "uint256"
        }
      ],
      "name": "AddMemberReferalRewards",
      "outputs": [],
      "stateMutability": "payable",
      "type": "function"
    },
    {
      "inputs": [
        {
          "internalType": "uint256",
          "name": "value",
          "type": "uint256"
        },
        {
          "internalType": "uint256",
          "name": "UserId",
          "type": "uint256"
        }
      ],
      "name": "AddMemberRewards",
      "outputs": [],
      "stateMutability": "payable",
      "type": "function"
    },
    {
      "inputs": [
        {
          "internalType": "address",
          "name": "userAddress",
          "type": "address"
        },
        {
          "internalType": "uint256",
          "name": "value",
          "type": "uint256"
        }
      ],
      "name": "BuyTicket",
      "outputs": [],
      "stateMutability": "payable",
      "type": "function"
    },
    {
      "inputs": [
        {
          "internalType": "address",
          "name": "newAddress",
          "type": "address"
        }
      ],
      "name": "Change",
      "outputs": [],
      "stateMutability": "payable",
      "type": "function"
    },
    {
      "inputs": [
        {
          "internalType": "address",
          "name": "newAddress",
          "type": "address"
        }
      ],
      "name": "ChangePullStorage",
      "outputs": [],
      "stateMutability": "payable",
      "type": "function"
    },
    {
      "inputs": [
        {
          "internalType": "address",
          "name": "newAddress",
          "type": "address"
        }
      ],
      "name": "ChangeUserStorage",
      "outputs": [],
      "stateMutability": "payable",
      "type": "function"
    },
    {
      "inputs": [],
      "name": "GetCurrentPull",
      "outputs": [
        {
          "internalType": "uint256",
          "name": "",
          "type": "uint256"
        },
        {
          "internalType": "uint256",
          "name": "",
          "type": "uint256"
        },
        {
          "internalType": "uint256",
          "name": "",
          "type": "uint256"
        },
        {
          "internalType": "uint256",
          "name": "",
          "type": "uint256"
        }
      ],
      "stateMutability": "view",
      "type": "function"
    },
    {
      "inputs": [
        {
          "internalType": "uint256",
          "name": "pullId",
          "type": "uint256"
        }
      ],
      "name": "GetPull",
      "outputs": [
        {
          "internalType": "uint256",
          "name": "",
          "type": "uint256"
        },
        {
          "internalType": "uint256",
          "name": "",
          "type": "uint256"
        },
        {
          "internalType": "uint256",
          "name": "",
          "type": "uint256"
        },
        {
          "internalType": "uint256",
          "name": "",
          "type": "uint256"
        }
      ],
      "stateMutability": "view",
      "type": "function"
    },
    {
      "inputs": [
        {
          "internalType": "uint256",
          "name": "pullId",
          "type": "uint256"
        }
      ],
      "name": "GetPullCollectedSum",
      "outputs": [
        {
          "internalType": "uint256",
          "name": "",
          "type": "uint256"
        }
      ],
      "stateMutability": "view",
      "type": "function"
    },
    {
      "inputs": [],
      "name": "GetRewardableLines",
      "outputs": [
        {
          "internalType": "uint256[]",
          "name": "",
          "type": "uint256[]"
        }
      ],
      "stateMutability": "view",
      "type": "function"
    },
    {
      "inputs": [
        {
          "internalType": "uint256",
          "name": "pullId",
          "type": "uint256"
        }
      ],
      "name": "GetTicketCountOnPull",
      "outputs": [
        {
          "internalType": "uint256",
          "name": "",
          "type": "uint256"
        }
      ],
      "stateMutability": "view",
      "type": "function"
    },
    {
      "inputs": [
        {
          "internalType": "uint256",
          "name": "pullId",
          "type": "uint256"
        },
        {
          "internalType": "uint256",
          "name": "ticketNumber",
          "type": "uint256"
        }
      ],
      "name": "GetTicketInfo",
      "outputs": [
        {
          "internalType": "address",
          "name": "",
          "type": "address"
        },
        {
          "internalType": "uint256",
          "name": "",
          "type": "uint256"
        },
        {
          "internalType": "uint256",
          "name": "",
          "type": "uint256"
        }
      ],
      "stateMutability": "view",
      "type": "function"
    },
    {
      "inputs": [
        {
          "internalType": "uint256",
          "name": "id",
          "type": "uint256"
        }
      ],
      "name": "IsPullExist",
      "outputs": [
        {
          "internalType": "bool",
          "name": "",
          "type": "bool"
        }
      ],
      "stateMutability": "view",
      "type": "function"
    },
    {
      "inputs": [
        {
          "internalType": "address",
          "name": "_addressKey",
          "type": "address"
        }
      ],
      "name": "Set",
      "outputs": [],
      "stateMutability": "payable",
      "type": "function"
    },
    {
      "inputs": [],
      "name": "SetKey",
      "outputs": [],
      "stateMutability": "payable",
      "type": "function"
    },
    {
      "inputs": [
        {
          "internalType": "uint256",
          "name": "",
          "type": "uint256"
        }
      ],
      "name": "referralRewardPercents",
      "outputs": [
        {
          "internalType": "uint256",
          "name": "",
          "type": "uint256"
        }
      ],
      "stateMutability": "view",
      "type": "function"
    },
    {
      "inputs": [],
      "name": "rewardableLinesCount",
      "outputs": [
        {
          "internalType": "uint256",
          "name": "",
          "type": "uint256"
        }
      ],
      "stateMutability": "view",
      "type": "function"
    }
  ],
  "bytecode": "0x6080604052604051806101000160405280600060ff168152602001600860ff168152602001600460ff168152602001600360ff168152602001600260ff168152602001600160ff168152602001600160ff168152602001600160ff16815250600590600862000070929190620002e5565b506001600580549050620000859190620003b3565b6006553480156200009557600080fd5b50604051620021cd380380620021cd8339818101604052810190620000bb919062000372565b336000806101000a81548173ffffffffffffffffffffffffffffffffffffffff021916908373ffffffffffffffffffffffffffffffffffffffff1602179055506040518060400160405280600015158152602001600073ffffffffffffffffffffffffffffffffffffffff16815250600160008201518160000160006101000a81548160ff02191690831515021790555060208201518160000160016101000a81548173ffffffffffffffffffffffffffffffffffffffff021916908373ffffffffffffffffffffffffffffffffffffffff16021790555090505033600260006101000a81548173ffffffffffffffffffffffffffffffffffffffff021916908373ffffffffffffffffffffffffffffffffffffffff16021790555081600360006101000a81548173ffffffffffffffffffffffffffffffffffffffff021916908373ffffffffffffffffffffffffffffffffffffffff16021790555080600460006101000a81548173ffffffffffffffffffffffffffffffffffffffff021916908373ffffffffffffffffffffffffffffffffffffffff160217905550600360009054906101000a900473ffffffffffffffffffffffffffffffffffffffff1673ffffffffffffffffffffffffffffffffffffffff166341e6f7246040518163ffffffff1660e01b8152600401600060405180830381600087803b158015620002c457600080fd5b505af1158015620002d9573d6000803e3d6000fd5b50505050505062000475565b82805482825590600052602060002090810192821562000329579160200282015b8281111562000328578251829060ff1690559160200191906001019062000306565b5b5090506200033891906200033c565b5090565b5b80821115620003575760008160009055506001016200033d565b5090565b6000815190506200036c816200045b565b92915050565b600080604083850312156200038657600080fd5b600062000396858286016200035b565b9250506020620003a9858286016200035b565b9150509250929050565b6000620003c08262000422565b9150620003cd8362000422565b925082821015620003e357620003e26200042c565b5b828203905092915050565b6000620003fb8262000402565b9050919050565b600073ffffffffffffffffffffffffffffffffffffffff82169050919050565b6000819050919050565b7f4e487b7100000000000000000000000000000000000000000000000000000000600052601160045260246000fd5b6200046681620003ee565b81146200047257600080fd5b50565b611d4880620004856000396000f3fe6080604052600436106100fe5760003560e01c80636045f20a11610095578063a46ec42711610064578063a46ec427146102fa578063afc983fc14610325578063bd4616f414610341578063bf4737681461037e578063c7958cad1461039a576100fe565b80636045f20a1461021657806366e8c5ef1461025357806373c74e91146102925780638fd06101146102cf576100fe565b80633c4dbb05116100d15780633c4dbb05146101945780633f2a65f5146101b057806341cb1936146101cc57806341e6f7241461020c576100fe565b806302dc774d1461010357806303b4525f1461011f578063190a853b1461015c5780632a31644214610178575b600080fd5b61011d60048036038101906101189190611768565b6103c8565b005b34801561012b57600080fd5b5061014660048036038101906101419190611845565b61040f565b6040516101539190611aa2565b60405180910390f35b61017660048036038101906101719190611897565b6104c3565b005b610192600480360381019061018d9190611791565b6105e9565b005b6101ae60048036038101906101a99190611768565b610e35565b005b6101ca60048036038101906101c59190611897565b610f25565b005b3480156101d857600080fd5b506101f360048036038101906101ee9190611845565b61104b565b6040516102039493929190611b41565b60405180910390f35b61021461110b565b005b34801561022257600080fd5b5061023d60048036038101906102389190611845565b611178565b60405161024a9190611afd565b60405180910390f35b34801561025f57600080fd5b5061027a60048036038101906102759190611897565b61122c565b60405161028993929190611a49565b60405180910390f35b34801561029e57600080fd5b506102b960048036038101906102b49190611845565b6112eb565b6040516102c69190611afd565b60405180910390f35b3480156102db57600080fd5b506102e461139f565b6040516102f19190611a80565b60405180910390f35b34801561030657600080fd5b5061030f6113f7565b60405161031c9190611afd565b60405180910390f35b61033f600480360381019061033a9190611768565b6113fd565b005b34801561034d57600080fd5b5061036860048036038101906103639190611845565b611553565b6040516103759190611afd565b60405180910390f35b61039860048036038101906103939190611768565b611577565b005b3480156103a657600080fd5b506103af61164b565b6040516103bf9493929190611b41565b60405180910390f35b80600160000160016101000a81548173ffffffffffffffffffffffffffffffffffffffff021916908373ffffffffffffffffffffffffffffffffffffffff16021790555050565b6000600360009054906101000a900473ffffffffffffffffffffffffffffffffffffffff1673ffffffffffffffffffffffffffffffffffffffff166303b4525f836040518263ffffffff1660e01b815260040161046c9190611afd565b60206040518083038186803b15801561048457600080fd5b505afa158015610498573d6000803e3d6000fd5b505050506040513d601f19601f820116820180604052508101906104bc919061181c565b9050919050565b3373ffffffffffffffffffffffffffffffffffffffff16600160000160019054906101000a900473ffffffffffffffffffffffffffffffffffffffff1673ffffffffffffffffffffffffffffffffffffffff1614610556576040517f08c379a000000000000000000000000000000000000000000000000000000000815260040161054d90611add565b60405180910390fd5b600360009054906101000a900473ffffffffffffffffffffffffffffffffffffffff1673ffffffffffffffffffffffffffffffffffffffff1663190a853b83836040518363ffffffff1660e01b81526004016105b3929190611b18565b600060405180830381600087803b1580156105cd57600080fd5b505af11580156105e1573d6000803e3d6000fd5b505050505050565b3373ffffffffffffffffffffffffffffffffffffffff16600160000160019054906101000a900473ffffffffffffffffffffffffffffffffffffffff1673ffffffffffffffffffffffffffffffffffffffff161461067c576040517f08c379a000000000000000000000000000000000000000000000000000000000815260040161067390611add565b60405180910390fd5b6000600460009054906101000a900473ffffffffffffffffffffffffffffffffffffffff1673ffffffffffffffffffffffffffffffffffffffff166331a73991846040518263ffffffff1660e01b81526004016106d99190611a2e565b60206040518083038186803b1580156106f157600080fd5b505afa158015610705573d6000803e3d6000fd5b505050506040513d601f19601f82011682018060405250810190610729919061186e565b9050600360009054906101000a900473ffffffffffffffffffffffffffffffffffffffff1673ffffffffffffffffffffffffffffffffffffffff1663516d9662826040518263ffffffff1660e01b81526004016107869190611afd565b60206040518083038186803b15801561079e57600080fd5b505afa1580156107b2573d6000803e3d6000fd5b505050506040513d601f19601f820116820180604052508101906107d6919061181c565b61086857600360009054906101000a900473ffffffffffffffffffffffffffffffffffffffff1673ffffffffffffffffffffffffffffffffffffffff16632ea58650826040518263ffffffff1660e01b81526004016108359190611afd565b600060405180830381600087803b15801561084f57600080fd5b505af1158015610863573d6000803e3d6000fd5b505050505b6000600360009054906101000a900473ffffffffffffffffffffffffffffffffffffffff1673ffffffffffffffffffffffffffffffffffffffff1663f4a38ba36040518163ffffffff1660e01b815260040160206040518083038186803b1580156108d257600080fd5b505afa1580156108e6573d6000803e3d6000fd5b505050506040513d601f19601f8201168201806040525081019061090a919061186e565b905082811115610ac657600360009054906101000a900473ffffffffffffffffffffffffffffffffffffffff1673ffffffffffffffffffffffffffffffffffffffff16632d1c20218585856040518463ffffffff1660e01b815260040161097393929190611a49565b600060405180830381600087803b15801561098d57600080fd5b505af11580156109a1573d6000803e3d6000fd5b50505050600360009054906101000a900473ffffffffffffffffffffffffffffffffffffffff1673ffffffffffffffffffffffffffffffffffffffff16631b5c78ee83856040518363ffffffff1660e01b8152600401610a02929190611b18565b600060405180830381600087803b158015610a1c57600080fd5b505af1158015610a30573d6000803e3d6000fd5b50505050600360009054906101000a900473ffffffffffffffffffffffffffffffffffffffff1673ffffffffffffffffffffffffffffffffffffffff16631252b48e846040518263ffffffff1660e01b8152600401610a8f9190611afd565b600060405180830381600087803b158015610aa957600080fd5b505af1158015610abd573d6000803e3d6000fd5b50505050610e2f565b60008184610ad49190611bd0565b9050600360009054906101000a900473ffffffffffffffffffffffffffffffffffffffff1673ffffffffffffffffffffffffffffffffffffffff16632d1c20218684866040518463ffffffff1660e01b8152600401610b3593929190611a49565b600060405180830381600087803b158015610b4f57600080fd5b505af1158015610b63573d6000803e3d6000fd5b50505050600360009054906101000a900473ffffffffffffffffffffffffffffffffffffffff1673ffffffffffffffffffffffffffffffffffffffff16631252b48e836040518263ffffffff1660e01b8152600401610bc29190611afd565b600060405180830381600087803b158015610bdc57600080fd5b505af1158015610bf0573d6000803e3d6000fd5b50505050600360009054906101000a900473ffffffffffffffffffffffffffffffffffffffff1673ffffffffffffffffffffffffffffffffffffffff166322a07ec26040518163ffffffff1660e01b8152600401600060405180830381600087803b158015610c5e57600080fd5b505af1158015610c72573d6000803e3d6000fd5b505050506000811115610e2d57600360009054906101000a900473ffffffffffffffffffffffffffffffffffffffff1673ffffffffffffffffffffffffffffffffffffffff16632d1c20218683866040518463ffffffff1660e01b8152600401610cde93929190611a49565b600060405180830381600087803b158015610cf857600080fd5b505af1158015610d0c573d6000803e3d6000fd5b50505050600360009054906101000a900473ffffffffffffffffffffffffffffffffffffffff1673ffffffffffffffffffffffffffffffffffffffff16631252b48e826040518263ffffffff1660e01b8152600401610d6b9190611afd565b600060405180830381600087803b158015610d8557600080fd5b505af1158015610d99573d6000803e3d6000fd5b50505050600360009054906101000a900473ffffffffffffffffffffffffffffffffffffffff1673ffffffffffffffffffffffffffffffffffffffff16631b5c78ee84866040518363ffffffff1660e01b8152600401610dfa929190611b18565b600060405180830381600087803b158015610e1457600080fd5b505af1158015610e28573d6000803e3d6000fd5b505050505b505b50505050565b600160000160009054906101000a900460ff1615610e88576040517f08c379a0000000000000000000000000000000000000000000000000000000008152600401610e7f90611add565b60405180910390fd5b60405180604001604052806001151581526020018273ffffffffffffffffffffffffffffffffffffffff16815250600160008201518160000160006101000a81548160ff02191690831515021790555060208201518160000160016101000a81548173ffffffffffffffffffffffffffffffffffffffff021916908373ffffffffffffffffffffffffffffffffffffffff16021790555090505050565b3373ffffffffffffffffffffffffffffffffffffffff16600160000160019054906101000a900473ffffffffffffffffffffffffffffffffffffffff1673ffffffffffffffffffffffffffffffffffffffff1614610fb8576040517f08c379a0000000000000000000000000000000000000000000000000000000008152600401610faf90611add565b60405180910390fd5b600360009054906101000a900473ffffffffffffffffffffffffffffffffffffffff1673ffffffffffffffffffffffffffffffffffffffff16633f2a65f583836040518363ffffffff1660e01b8152600401611015929190611b18565b600060405180830381600087803b15801561102f57600080fd5b505af1158015611043573d6000803e3d6000fd5b505050505050565b600080600080600360009054906101000a900473ffffffffffffffffffffffffffffffffffffffff1673ffffffffffffffffffffffffffffffffffffffff166341cb1936866040518263ffffffff1660e01b81526004016110ac9190611afd565b60806040518083038186803b1580156110c457600080fd5b505afa1580156110d8573d6000803e3d6000fd5b505050506040513d601f19601f820116820180604052508101906110fc91906118d3565b93509350935093509193509193565b3073ffffffffffffffffffffffffffffffffffffffff16633c4dbb05336040518263ffffffff1660e01b81526004016111449190611a2e565b600060405180830381600087803b15801561115e57600080fd5b505af1158015611172573d6000803e3d6000fd5b50505050565b6000600360009054906101000a900473ffffffffffffffffffffffffffffffffffffffff1673ffffffffffffffffffffffffffffffffffffffff16636045f20a836040518263ffffffff1660e01b81526004016111d59190611afd565b60206040518083038186803b1580156111ed57600080fd5b505afa158015611201573d6000803e3d6000fd5b505050506040513d601f19601f82011682018060405250810190611225919061186e565b9050919050565b6000806000600360009054906101000a900473ffffffffffffffffffffffffffffffffffffffff1673ffffffffffffffffffffffffffffffffffffffff166366e8c5ef86866040518363ffffffff1660e01b815260040161128e929190611b18565b60606040518083038186803b1580156112a657600080fd5b505afa1580156112ba573d6000803e3d6000fd5b505050506040513d601f19601f820116820180604052508101906112de91906117cd565b9250925092509250925092565b6000600360009054906101000a900473ffffffffffffffffffffffffffffffffffffffff1673ffffffffffffffffffffffffffffffffffffffff166373c74e91836040518263ffffffff1660e01b81526004016113489190611afd565b60206040518083038186803b15801561136057600080fd5b505afa158015611374573d6000803e3d6000fd5b505050506040513d601f19601f82011682018060405250810190611398919061186e565b9050919050565b606060058054806020026020016040519081016040528092919081815260200182805480156113ed57602002820191906000526020600020905b8154815260200190600101908083116113d9575b5050505050905090565b60065481565b3373ffffffffffffffffffffffffffffffffffffffff16600260009054906101000a900473ffffffffffffffffffffffffffffffffffffffff1673ffffffffffffffffffffffffffffffffffffffff161461148d576040517f08c379a000000000000000000000000000000000000000000000000000000000815260040161148490611abd565b60405180910390fd5b80600360006101000a81548173ffffffffffffffffffffffffffffffffffffffff021916908373ffffffffffffffffffffffffffffffffffffffff160217905550600360009054906101000a900473ffffffffffffffffffffffffffffffffffffffff1673ffffffffffffffffffffffffffffffffffffffff166341e6f7246040518163ffffffff1660e01b8152600401600060405180830381600087803b15801561153857600080fd5b505af115801561154c573d6000803e3d6000fd5b5050505050565b6005818154811061156357600080fd5b906000526020600020016000915090505481565b3373ffffffffffffffffffffffffffffffffffffffff16600260009054906101000a900473ffffffffffffffffffffffffffffffffffffffff1673ffffffffffffffffffffffffffffffffffffffff1614611607576040517f08c379a00000000000000000000000000000000000000000000000000000000081526004016115fe90611abd565b60405180910390fd5b80600460006101000a81548173ffffffffffffffffffffffffffffffffffffffff021916908373ffffffffffffffffffffffffffffffffffffffff16021790555050565b600080600080600360009054906101000a900473ffffffffffffffffffffffffffffffffffffffff1673ffffffffffffffffffffffffffffffffffffffff1663c7958cad6040518163ffffffff1660e01b815260040160806040518083038186803b1580156116b957600080fd5b505afa1580156116cd573d6000803e3d6000fd5b505050506040513d601f19601f820116820180604052508101906116f191906118d3565b935093509350935090919293565b60008135905061170e81611ccd565b92915050565b60008151905061172381611ccd565b92915050565b60008151905061173881611ce4565b92915050565b60008135905061174d81611cfb565b92915050565b60008151905061176281611cfb565b92915050565b60006020828403121561177a57600080fd5b6000611788848285016116ff565b91505092915050565b600080604083850312156117a457600080fd5b60006117b2858286016116ff565b92505060206117c38582860161173e565b9150509250929050565b6000806000606084860312156117e257600080fd5b60006117f086828701611714565b935050602061180186828701611753565b925050604061181286828701611753565b9150509250925092565b60006020828403121561182e57600080fd5b600061183c84828501611729565b91505092915050565b60006020828403121561185757600080fd5b60006118658482850161173e565b91505092915050565b60006020828403121561188057600080fd5b600061188e84828501611753565b91505092915050565b600080604083850312156118aa57600080fd5b60006118b88582860161173e565b92505060206118c98582860161173e565b9150509250929050565b600080600080608085870312156118e957600080fd5b60006118f787828801611753565b945050602061190887828801611753565b935050604061191987828801611753565b925050606061192a87828801611753565b91505092959194509250565b60006119428383611a10565b60208301905092915050565b61195781611c04565b82525050565b600061196882611b96565b6119728185611bae565b935061197d83611b86565b8060005b838110156119ae5781516119958882611936565b97506119a083611ba1565b925050600181019050611981565b5085935050505092915050565b6119c481611c16565b82525050565b60006119d7600a83611bbf565b91506119e282611c7b565b602082019050919050565b60006119fa600183611bbf565b9150611a0582611ca4565b602082019050919050565b611a1981611c42565b82525050565b611a2881611c42565b82525050565b6000602082019050611a43600083018461194e565b92915050565b6000606082019050611a5e600083018661194e565b611a6b6020830185611a1f565b611a786040830184611a1f565b949350505050565b60006020820190508181036000830152611a9a818461195d565b905092915050565b6000602082019050611ab760008301846119bb565b92915050565b60006020820190508181036000830152611ad6816119ca565b9050919050565b60006020820190508181036000830152611af6816119ed565b9050919050565b6000602082019050611b126000830184611a1f565b92915050565b6000604082019050611b2d6000830185611a1f565b611b3a6020830184611a1f565b9392505050565b6000608082019050611b566000830187611a1f565b611b636020830186611a1f565b611b706040830185611a1f565b611b7d6060830184611a1f565b95945050505050565b6000819050602082019050919050565b600081519050919050565b6000602082019050919050565b600082825260208201905092915050565b600082825260208201905092915050565b6000611bdb82611c42565b9150611be683611c42565b925082821015611bf957611bf8611c4c565b5b828203905092915050565b6000611c0f82611c22565b9050919050565b60008115159050919050565b600073ffffffffffffffffffffffffffffffffffffffff82169050919050565b6000819050919050565b7f4e487b7100000000000000000000000000000000000000000000000000000000600052601160045260246000fd5b7f6f6e6c79206f776e657200000000000000000000000000000000000000000000600082015250565b7f3100000000000000000000000000000000000000000000000000000000000000600082015250565b611cd681611c04565b8114611ce157600080fd5b50565b611ced81611c16565b8114611cf857600080fd5b50565b611d0481611c42565b8114611d0f57600080fd5b5056fea2646970667358221220ce7caf6f2f58e9f69af128ce82d47d8f6f17afb42942ecc83095ae0718014ca864736f6c63430008040033",
  "linkReferences": {},
  "deployedLinkReferences": {}
}