{
  "_format": "hh-sol-artifact-1",
  "contractName": "PullController",
  "sourceName": "contracts/Controllers/PullController.sol",
  "abi": [
    {
      "inputs": [
        {
          "internalType": "address",
          "name": "key",
          "type": "address"
        },
        {
          "internalType": "address",
          "name": "pullStorageAddress",
          "type": "address"
        },
        {
          "internalType": "address",
          "name": "userStorageAddress",
          "type": "address"
        }
      ],
      "stateMutability": "nonpayable",
      "type": "constructor"
    },
    {
      "inputs": [
        {
          "internalType": "uint256",
          "name": "value",
          "type": "uint256"
        },
        {
          "internalType": "uint256",
          "name": "UserId",
          "type": "uint256"
        },
        {
          "internalType": "address",
          "name": "key",
          "type": "address"
        }
      ],
      "name": "AddMemberReferalRewards",
      "outputs": [],
      "stateMutability": "payable",
      "type": "function"
    },
    {
      "inputs": [
        {
          "internalType": "uint256",
          "name": "value",
          "type": "uint256"
        },
        {
          "internalType": "uint256",
          "name": "UserId",
          "type": "uint256"
        },
        {
          "internalType": "address",
          "name": "key",
          "type": "address"
        }
      ],
      "name": "AddMemberRewards",
      "outputs": [],
      "stateMutability": "payable",
      "type": "function"
    },
    {
      "inputs": [
        {
          "internalType": "address",
          "name": "userAddress",
          "type": "address"
        },
        {
          "internalType": "uint256",
          "name": "value",
          "type": "uint256"
        },
        {
          "internalType": "address",
          "name": "key",
          "type": "address"
        }
      ],
      "name": "BuyTicket",
      "outputs": [],
      "stateMutability": "payable",
      "type": "function"
    },
    {
      "inputs": [
        {
          "internalType": "address",
          "name": "newAddress",
          "type": "address"
        },
        {
          "internalType": "address",
          "name": "key",
          "type": "address"
        }
      ],
      "name": "ChangePullStorage",
      "outputs": [],
      "stateMutability": "payable",
      "type": "function"
    },
    {
      "inputs": [
        {
          "internalType": "address",
          "name": "newAddress",
          "type": "address"
        },
        {
          "internalType": "address",
          "name": "key",
          "type": "address"
        }
      ],
      "name": "ChangeUserStorage",
      "outputs": [],
      "stateMutability": "payable",
      "type": "function"
    },
    {
      "inputs": [],
      "name": "GetCurrentPull",
      "outputs": [
        {
          "internalType": "uint256",
          "name": "",
          "type": "uint256"
        },
        {
          "internalType": "uint256",
          "name": "",
          "type": "uint256"
        },
        {
          "internalType": "uint256",
          "name": "",
          "type": "uint256"
        },
        {
          "internalType": "uint256",
          "name": "",
          "type": "uint256"
        }
      ],
      "stateMutability": "view",
      "type": "function"
    },
    {
      "inputs": [
        {
          "internalType": "uint256",
          "name": "pullId",
          "type": "uint256"
        }
      ],
      "name": "GetPull",
      "outputs": [
        {
          "internalType": "uint256",
          "name": "",
          "type": "uint256"
        },
        {
          "internalType": "uint256",
          "name": "",
          "type": "uint256"
        },
        {
          "internalType": "uint256",
          "name": "",
          "type": "uint256"
        },
        {
          "internalType": "uint256",
          "name": "",
          "type": "uint256"
        }
      ],
      "stateMutability": "view",
      "type": "function"
    },
    {
      "inputs": [
        {
          "internalType": "uint256",
          "name": "pullId",
          "type": "uint256"
        }
      ],
      "name": "GetPullCollectedSum",
      "outputs": [
        {
          "internalType": "uint256",
          "name": "",
          "type": "uint256"
        }
      ],
      "stateMutability": "view",
      "type": "function"
    },
    {
      "inputs": [],
      "name": "GetRewardableLines",
      "outputs": [
        {
          "internalType": "uint256[]",
          "name": "",
          "type": "uint256[]"
        }
      ],
      "stateMutability": "view",
      "type": "function"
    },
    {
      "inputs": [
        {
          "internalType": "uint256",
          "name": "pullId",
          "type": "uint256"
        }
      ],
      "name": "GetTicketCountOnPull",
      "outputs": [
        {
          "internalType": "uint256",
          "name": "",
          "type": "uint256"
        }
      ],
      "stateMutability": "view",
      "type": "function"
    },
    {
      "inputs": [
        {
          "internalType": "uint256",
          "name": "pullId",
          "type": "uint256"
        },
        {
          "internalType": "uint256",
          "name": "ticketNumber",
          "type": "uint256"
        }
      ],
      "name": "GetTicketInfo",
      "outputs": [
        {
          "internalType": "address",
          "name": "",
          "type": "address"
        },
        {
          "internalType": "uint256",
          "name": "",
          "type": "uint256"
        },
        {
          "internalType": "uint256",
          "name": "",
          "type": "uint256"
        }
      ],
      "stateMutability": "view",
      "type": "function"
    },
    {
      "inputs": [
        {
          "internalType": "uint256",
          "name": "id",
          "type": "uint256"
        }
      ],
      "name": "IsPullExist",
      "outputs": [
        {
          "internalType": "bool",
          "name": "",
          "type": "bool"
        }
      ],
      "stateMutability": "view",
      "type": "function"
    },
    {
      "inputs": [
        {
          "internalType": "uint256",
          "name": "",
          "type": "uint256"
        }
      ],
      "name": "referralRewardPercents",
      "outputs": [
        {
          "internalType": "uint256",
          "name": "",
          "type": "uint256"
        }
      ],
      "stateMutability": "view",
      "type": "function"
    },
    {
      "inputs": [],
      "name": "rewardableLinesCount",
      "outputs": [
        {
          "internalType": "uint256",
          "name": "",
          "type": "uint256"
        }
      ],
      "stateMutability": "view",
      "type": "function"
    }
  ],
  "bytecode": "0x6080604052604051806101000160405280600060ff168152602001600860ff168152602001600460ff168152602001600360ff168152602001600260ff168152602001600160ff168152602001600160ff168152602001600160ff16815250600490600862000070929190620001de565b506001600480549050620000859190620002c1565b6005553480156200009557600080fd5b5060405162002090380380620020908339818101604052810190620000bb91906200026b565b60016000808573ffffffffffffffffffffffffffffffffffffffff1673ffffffffffffffffffffffffffffffffffffffff16815260200190815260200160002060006101000a81548160ff02191690831515021790555033600160006101000a81548173ffffffffffffffffffffffffffffffffffffffff021916908373ffffffffffffffffffffffffffffffffffffffff16021790555081600260006101000a81548173ffffffffffffffffffffffffffffffffffffffff021916908373ffffffffffffffffffffffffffffffffffffffff16021790555080600360006101000a81548173ffffffffffffffffffffffffffffffffffffffff021916908373ffffffffffffffffffffffffffffffffffffffff16021790555050505062000383565b82805482825590600052602060002090810192821562000222579160200282015b8281111562000221578251829060ff16905591602001919060010190620001ff565b5b50905062000231919062000235565b5090565b5b808211156200025057600081600090555060010162000236565b5090565b600081519050620002658162000369565b92915050565b6000806000606084860312156200028157600080fd5b6000620002918682870162000254565b9350506020620002a48682870162000254565b9250506040620002b78682870162000254565b9150509250925092565b6000620002ce8262000330565b9150620002db8362000330565b925082821015620002f157620002f06200033a565b5b828203905092915050565b6000620003098262000310565b9050919050565b600073ffffffffffffffffffffffffffffffffffffffff82169050919050565b6000819050919050565b7f4e487b7100000000000000000000000000000000000000000000000000000000600052601160045260246000fd5b6200037481620002fc565b81146200038057600080fd5b50565b611cfd80620003936000396000f3fe6080604052600436106100dd5760003560e01c806373c74e911161007f578063a46ec42711610059578063a46ec427146102b3578063ad145d46146102de578063bd4616f4146102fa578063c7958cad14610337576100dd565b806373c74e911461022f57806388124e561461026c5780638fd0610114610288576100dd565b80635500138b116100bb5780635500138b1461017b5780635bc8713a146101975780636045f20a146101b357806366e8c5ef146101f0576100dd565b806303b4525f146100e257806341cb19361461011f57806343b7063c1461015f575b600080fd5b3480156100ee57600080fd5b5061010960048036038101906101049190611706565b610365565b60405161011691906119f7565b60405180910390f35b34801561012b57600080fd5b5061014660048036038101906101419190611706565b610419565b6040516101569493929190611af6565b60405180910390f35b61017960048036038101906101749190611794565b6104d9565b005b61019560048036038101906101909190611603565b6105fa565b005b6101b160048036038101906101ac9190611794565b61075a565b005b3480156101bf57600080fd5b506101da60048036038101906101d59190611706565b61087b565b6040516101e79190611a52565b60405180910390f35b3480156101fc57600080fd5b5061021760048036038101906102129190611758565b61092f565b60405161022693929190611959565b60405180910390f35b34801561023b57600080fd5b5061025660048036038101906102519190611706565b6109ee565b6040516102639190611a52565b60405180910390f35b6102866004803603810190610281919061163f565b610aa2565b005b34801561029457600080fd5b5061029d611304565b6040516102aa91906119d5565b60405180910390f35b3480156102bf57600080fd5b506102c861135c565b6040516102d59190611a52565b60405180910390f35b6102f860048036038101906102f39190611603565b611362565b005b34801561030657600080fd5b50610321600480360381019061031c9190611706565b6114c2565b60405161032e9190611a52565b60405180910390f35b34801561034357600080fd5b5061034c6114e6565b60405161035c9493929190611af6565b60405180910390f35b6000600260009054906101000a900473ffffffffffffffffffffffffffffffffffffffff1673ffffffffffffffffffffffffffffffffffffffff166303b4525f836040518263ffffffff1660e01b81526004016103c29190611a52565b60206040518083038186803b1580156103da57600080fd5b505afa1580156103ee573d6000803e3d6000fd5b505050506040513d601f19601f8201168201806040525081019061041291906116dd565b9050919050565b600080600080600260009054906101000a900473ffffffffffffffffffffffffffffffffffffffff1673ffffffffffffffffffffffffffffffffffffffff166341cb1936866040518263ffffffff1660e01b815260040161047a9190611a52565b60806040518083038186803b15801561049257600080fd5b505afa1580156104a6573d6000803e3d6000fd5b505050506040513d601f19601f820116820180604052508101906104ca91906117e3565b93509350935093509193509193565b6000808273ffffffffffffffffffffffffffffffffffffffff1673ffffffffffffffffffffffffffffffffffffffff16815260200190815260200160002060009054906101000a900460ff16610564576040517f08c379a000000000000000000000000000000000000000000000000000000000815260040161055b90611a32565b60405180910390fd5b600260009054906101000a900473ffffffffffffffffffffffffffffffffffffffff1673ffffffffffffffffffffffffffffffffffffffff166343b7063c8484846040518463ffffffff1660e01b81526004016105c393929190611abf565b600060405180830381600087803b1580156105dd57600080fd5b505af11580156105f1573d6000803e3d6000fd5b50505050505050565b6000808273ffffffffffffffffffffffffffffffffffffffff1673ffffffffffffffffffffffffffffffffffffffff16815260200190815260200160002060009054906101000a900460ff16610685576040517f08c379a000000000000000000000000000000000000000000000000000000000815260040161067c90611a32565b60405180910390fd5b3373ffffffffffffffffffffffffffffffffffffffff16600160009054906101000a900473ffffffffffffffffffffffffffffffffffffffff1673ffffffffffffffffffffffffffffffffffffffff1614610715576040517f08c379a000000000000000000000000000000000000000000000000000000000815260040161070c90611a12565b60405180910390fd5b81600260006101000a81548173ffffffffffffffffffffffffffffffffffffffff021916908373ffffffffffffffffffffffffffffffffffffffff1602179055505050565b6000808273ffffffffffffffffffffffffffffffffffffffff1673ffffffffffffffffffffffffffffffffffffffff16815260200190815260200160002060009054906101000a900460ff166107e5576040517f08c379a00000000000000000000000000000000000000000000000000000000081526004016107dc90611a32565b60405180910390fd5b600260009054906101000a900473ffffffffffffffffffffffffffffffffffffffff1673ffffffffffffffffffffffffffffffffffffffff16635bc8713a8484846040518463ffffffff1660e01b815260040161084493929190611abf565b600060405180830381600087803b15801561085e57600080fd5b505af1158015610872573d6000803e3d6000fd5b50505050505050565b6000600260009054906101000a900473ffffffffffffffffffffffffffffffffffffffff1673ffffffffffffffffffffffffffffffffffffffff16636045f20a836040518263ffffffff1660e01b81526004016108d89190611a52565b60206040518083038186803b1580156108f057600080fd5b505afa158015610904573d6000803e3d6000fd5b505050506040513d601f19601f82011682018060405250810190610928919061172f565b9050919050565b6000806000600260009054906101000a900473ffffffffffffffffffffffffffffffffffffffff1673ffffffffffffffffffffffffffffffffffffffff166366e8c5ef86866040518363ffffffff1660e01b8152600401610991929190611a96565b60606040518083038186803b1580156109a957600080fd5b505afa1580156109bd573d6000803e3d6000fd5b505050506040513d601f19601f820116820180604052508101906109e1919061168e565b9250925092509250925092565b6000600260009054906101000a900473ffffffffffffffffffffffffffffffffffffffff1673ffffffffffffffffffffffffffffffffffffffff166373c74e91836040518263ffffffff1660e01b8152600401610a4b9190611a52565b60206040518083038186803b158015610a6357600080fd5b505afa158015610a77573d6000803e3d6000fd5b505050506040513d601f19601f82011682018060405250810190610a9b919061172f565b9050919050565b6000808273ffffffffffffffffffffffffffffffffffffffff1673ffffffffffffffffffffffffffffffffffffffff16815260200190815260200160002060009054906101000a900460ff16610b2d576040517f08c379a0000000000000000000000000000000000000000000000000000000008152600401610b2490611a32565b60405180910390fd5b6000600360009054906101000a900473ffffffffffffffffffffffffffffffffffffffff1673ffffffffffffffffffffffffffffffffffffffff166331a73991856040518263ffffffff1660e01b8152600401610b8a919061193e565b60206040518083038186803b158015610ba257600080fd5b505afa158015610bb6573d6000803e3d6000fd5b505050506040513d601f19601f82011682018060405250810190610bda919061172f565b9050600260009054906101000a900473ffffffffffffffffffffffffffffffffffffffff1673ffffffffffffffffffffffffffffffffffffffff1663516d9662826040518263ffffffff1660e01b8152600401610c379190611a52565b60206040518083038186803b158015610c4f57600080fd5b505afa158015610c63573d6000803e3d6000fd5b505050506040513d601f19601f82011682018060405250810190610c8791906116dd565b610d1b57600260009054906101000a900473ffffffffffffffffffffffffffffffffffffffff1673ffffffffffffffffffffffffffffffffffffffff166392ec4b5a82846040518363ffffffff1660e01b8152600401610ce8929190611a6d565b600060405180830381600087803b158015610d0257600080fd5b505af1158015610d16573d6000803e3d6000fd5b505050505b6000600260009054906101000a900473ffffffffffffffffffffffffffffffffffffffff1673ffffffffffffffffffffffffffffffffffffffff1663f4a38ba36040518163ffffffff1660e01b815260040160206040518083038186803b158015610d8557600080fd5b505afa158015610d99573d6000803e3d6000fd5b505050506040513d601f19601f82011682018060405250810190610dbd919061172f565b905083811115610f7f57600260009054906101000a900473ffffffffffffffffffffffffffffffffffffffff1673ffffffffffffffffffffffffffffffffffffffff1663a4b406f1868685876040518563ffffffff1660e01b8152600401610e289493929190611990565b600060405180830381600087803b158015610e4257600080fd5b505af1158015610e56573d6000803e3d6000fd5b50505050600260009054906101000a900473ffffffffffffffffffffffffffffffffffffffff1673ffffffffffffffffffffffffffffffffffffffff1663fe2c913f8386866040518463ffffffff1660e01b8152600401610eb993929190611abf565b600060405180830381600087803b158015610ed357600080fd5b505af1158015610ee7573d6000803e3d6000fd5b50505050600260009054906101000a900473ffffffffffffffffffffffffffffffffffffffff1673ffffffffffffffffffffffffffffffffffffffff16639dde88c085856040518363ffffffff1660e01b8152600401610f48929190611a6d565b600060405180830381600087803b158015610f6257600080fd5b505af1158015610f76573d6000803e3d6000fd5b505050506112fd565b60008185610f8d9190611b85565b9050600260009054906101000a900473ffffffffffffffffffffffffffffffffffffffff1673ffffffffffffffffffffffffffffffffffffffff1663a4b406f1878486886040518563ffffffff1660e01b8152600401610ff09493929190611990565b600060405180830381600087803b15801561100a57600080fd5b505af115801561101e573d6000803e3d6000fd5b50505050600260009054906101000a900473ffffffffffffffffffffffffffffffffffffffff1673ffffffffffffffffffffffffffffffffffffffff16639dde88c083866040518363ffffffff1660e01b815260040161107f929190611a6d565b600060405180830381600087803b15801561109957600080fd5b505af11580156110ad573d6000803e3d6000fd5b50505050600260009054906101000a900473ffffffffffffffffffffffffffffffffffffffff1673ffffffffffffffffffffffffffffffffffffffff166392c32a95856040518263ffffffff1660e01b815260040161110c919061193e565b600060405180830381600087803b15801561112657600080fd5b505af115801561113a573d6000803e3d6000fd5b5050505060008111156112fb57600260009054906101000a900473ffffffffffffffffffffffffffffffffffffffff1673ffffffffffffffffffffffffffffffffffffffff1663a4b406f1878386886040518563ffffffff1660e01b81526004016111a89493929190611990565b600060405180830381600087803b1580156111c257600080fd5b505af11580156111d6573d6000803e3d6000fd5b50505050600260009054906101000a900473ffffffffffffffffffffffffffffffffffffffff1673ffffffffffffffffffffffffffffffffffffffff16639dde88c082866040518363ffffffff1660e01b8152600401611237929190611a6d565b600060405180830381600087803b15801561125157600080fd5b505af1158015611265573d6000803e3d6000fd5b50505050600260009054906101000a900473ffffffffffffffffffffffffffffffffffffffff1673ffffffffffffffffffffffffffffffffffffffff1663fe2c913f8487876040518463ffffffff1660e01b81526004016112c893929190611abf565b600060405180830381600087803b1580156112e257600080fd5b505af11580156112f6573d6000803e3d6000fd5b505050505b505b5050505050565b6060600480548060200260200160405190810160405280929190818152602001828054801561135257602002820191906000526020600020905b81548152602001906001019080831161133e575b5050505050905090565b60055481565b6000808273ffffffffffffffffffffffffffffffffffffffff1673ffffffffffffffffffffffffffffffffffffffff16815260200190815260200160002060009054906101000a900460ff166113ed576040517f08c379a00000000000000000000000000000000000000000000000000000000081526004016113e490611a32565b60405180910390fd5b3373ffffffffffffffffffffffffffffffffffffffff16600160009054906101000a900473ffffffffffffffffffffffffffffffffffffffff1673ffffffffffffffffffffffffffffffffffffffff161461147d576040517f08c379a000000000000000000000000000000000000000000000000000000000815260040161147490611a12565b60405180910390fd5b81600360006101000a81548173ffffffffffffffffffffffffffffffffffffffff021916908373ffffffffffffffffffffffffffffffffffffffff1602179055505050565b600481815481106114d257600080fd5b906000526020600020016000915090505481565b600080600080600260009054906101000a900473ffffffffffffffffffffffffffffffffffffffff1673ffffffffffffffffffffffffffffffffffffffff1663c7958cad6040518163ffffffff1660e01b815260040160806040518083038186803b15801561155457600080fd5b505afa158015611568573d6000803e3d6000fd5b505050506040513d601f19601f8201168201806040525081019061158c91906117e3565b935093509350935090919293565b6000813590506115a981611c82565b92915050565b6000815190506115be81611c82565b92915050565b6000815190506115d381611c99565b92915050565b6000813590506115e881611cb0565b92915050565b6000815190506115fd81611cb0565b92915050565b6000806040838503121561161657600080fd5b60006116248582860161159a565b92505060206116358582860161159a565b9150509250929050565b60008060006060848603121561165457600080fd5b60006116628682870161159a565b9350506020611673868287016115d9565b92505060406116848682870161159a565b9150509250925092565b6000806000606084860312156116a357600080fd5b60006116b1868287016115af565b93505060206116c2868287016115ee565b92505060406116d3868287016115ee565b9150509250925092565b6000602082840312156116ef57600080fd5b60006116fd848285016115c4565b91505092915050565b60006020828403121561171857600080fd5b6000611726848285016115d9565b91505092915050565b60006020828403121561174157600080fd5b600061174f848285016115ee565b91505092915050565b6000806040838503121561176b57600080fd5b6000611779858286016115d9565b925050602061178a858286016115d9565b9150509250929050565b6000806000606084860312156117a957600080fd5b60006117b7868287016115d9565b93505060206117c8868287016115d9565b92505060406117d98682870161159a565b9150509250925092565b600080600080608085870312156117f957600080fd5b6000611807878288016115ee565b9450506020611818878288016115ee565b9350506040611829878288016115ee565b925050606061183a878288016115ee565b91505092959194509250565b60006118528383611920565b60208301905092915050565b61186781611bb9565b82525050565b600061187882611b4b565b6118828185611b63565b935061188d83611b3b565b8060005b838110156118be5781516118a58882611846565b97506118b083611b56565b925050600181019050611891565b5085935050505092915050565b6118d481611bcb565b82525050565b60006118e7600a83611b74565b91506118f282611c30565b602082019050919050565b600061190a600183611b74565b915061191582611c59565b602082019050919050565b61192981611bf7565b82525050565b61193881611bf7565b82525050565b6000602082019050611953600083018461185e565b92915050565b600060608201905061196e600083018661185e565b61197b602083018561192f565b611988604083018461192f565b949350505050565b60006080820190506119a5600083018761185e565b6119b2602083018661192f565b6119bf604083018561192f565b6119cc606083018461185e565b95945050505050565b600060208201905081810360008301526119ef818461186d565b905092915050565b6000602082019050611a0c60008301846118cb565b92915050565b60006020820190508181036000830152611a2b816118da565b9050919050565b60006020820190508181036000830152611a4b816118fd565b9050919050565b6000602082019050611a67600083018461192f565b92915050565b6000604082019050611a82600083018561192f565b611a8f602083018461185e565b9392505050565b6000604082019050611aab600083018561192f565b611ab8602083018461192f565b9392505050565b6000606082019050611ad4600083018661192f565b611ae1602083018561192f565b611aee604083018461185e565b949350505050565b6000608082019050611b0b600083018761192f565b611b18602083018661192f565b611b25604083018561192f565b611b32606083018461192f565b95945050505050565b6000819050602082019050919050565b600081519050919050565b6000602082019050919050565b600082825260208201905092915050565b600082825260208201905092915050565b6000611b9082611bf7565b9150611b9b83611bf7565b925082821015611bae57611bad611c01565b5b828203905092915050565b6000611bc482611bd7565b9050919050565b60008115159050919050565b600073ffffffffffffffffffffffffffffffffffffffff82169050919050565b6000819050919050565b7f4e487b7100000000000000000000000000000000000000000000000000000000600052601160045260246000fd5b7f6f6e6c79206f776e657200000000000000000000000000000000000000000000600082015250565b7f3100000000000000000000000000000000000000000000000000000000000000600082015250565b611c8b81611bb9565b8114611c9657600080fd5b50565b611ca281611bcb565b8114611cad57600080fd5b50565b611cb981611bf7565b8114611cc457600080fd5b5056fea2646970667358221220c6da1f016697cd66d2553864c2fa223544396f9f63aadf7ae1f99837ea00479864736f6c63430008040033",
  "linkReferences": {},
  "deployedLinkReferences": {}
}