{
  "_format": "hh-sol-artifact-1",
  "contractName": "DepositeController",
  "sourceName": "contracts/Controllers/DepositeController.sol",
  "abi": [
    {
      "inputs": [
        {
          "internalType": "address",
          "name": "key",
          "type": "address"
        },
        {
          "internalType": "address",
          "name": "depositeStorageAddress",
          "type": "address"
        }
      ],
      "stateMutability": "nonpayable",
      "type": "constructor"
    },
    {
      "inputs": [
        {
          "internalType": "address",
          "name": "newAddress",
          "type": "address"
        },
        {
          "internalType": "address",
          "name": "key",
          "type": "address"
        }
      ],
      "name": "ChangeDeposteStorage",
      "outputs": [],
      "stateMutability": "payable",
      "type": "function"
    },
    {
      "inputs": [],
      "name": "GetTotalState",
      "outputs": [
        {
          "internalType": "uint256",
          "name": "",
          "type": "uint256"
        },
        {
          "internalType": "uint256",
          "name": "",
          "type": "uint256"
        }
      ],
      "stateMutability": "view",
      "type": "function"
    },
    {
      "inputs": [
        {
          "internalType": "uint256",
          "name": "userId",
          "type": "uint256"
        }
      ],
      "name": "GetUserDeposite",
      "outputs": [
        {
          "internalType": "uint256",
          "name": "",
          "type": "uint256"
        }
      ],
      "stateMutability": "view",
      "type": "function"
    },
    {
      "inputs": [
        {
          "internalType": "uint256",
          "name": "value",
          "type": "uint256"
        },
        {
          "internalType": "uint256",
          "name": "userId",
          "type": "uint256"
        },
        {
          "internalType": "address",
          "name": "key",
          "type": "address"
        }
      ],
      "name": "ReduceUserDeposite",
      "outputs": [],
      "stateMutability": "payable",
      "type": "function"
    },
    {
      "inputs": [
        {
          "internalType": "uint256",
          "name": "userId",
          "type": "uint256"
        },
        {
          "internalType": "uint256",
          "name": "value",
          "type": "uint256"
        },
        {
          "internalType": "address",
          "name": "key",
          "type": "address"
        }
      ],
      "name": "SetReinvestCell",
      "outputs": [],
      "stateMutability": "payable",
      "type": "function"
    }
  ],
  "bytecode": "0x608060405234801561001057600080fd5b50604051610b41380380610b4183398181016040528101906100329190610126565b336000806101000a81548173ffffffffffffffffffffffffffffffffffffffff021916908373ffffffffffffffffffffffffffffffffffffffff16021790555060018060008473ffffffffffffffffffffffffffffffffffffffff1673ffffffffffffffffffffffffffffffffffffffff16815260200190815260200160002060006101000a81548160ff02191690831515021790555080600260006101000a81548173ffffffffffffffffffffffffffffffffffffffff021916908373ffffffffffffffffffffffffffffffffffffffff16021790555050506101ab565b60008151905061012081610194565b92915050565b6000806040838503121561013957600080fd5b600061014785828601610111565b925050602061015885828601610111565b9150509250929050565b600061016d82610174565b9050919050565b600073ffffffffffffffffffffffffffffffffffffffff82169050919050565b61019d81610162565b81146101a857600080fd5b50565b610987806101ba6000396000f3fe60806040526004361061004a5760003560e01c80630b82279c1461004f57806314d6c1751461006b578063538c8c3a14610087578063953fe932146100b3578063ce68d8af146100f0575b600080fd5b6100696004803603810190610064919061064c565b61010c565b005b61008560048036038101906100809190610716565b61026b565b005b34801561009357600080fd5b5061009c61038d565b6040516100aa929190610824565b60405180910390f35b3480156100bf57600080fd5b506100da60048036038101906100d59190610688565b610437565b6040516100e79190610809565b60405180910390f35b61010a60048036038101906101059190610716565b6104eb565b005b600160008273ffffffffffffffffffffffffffffffffffffffff1673ffffffffffffffffffffffffffffffffffffffff16815260200190815260200160002060009054906101000a900460ff16610198576040517f08c379a000000000000000000000000000000000000000000000000000000000815260040161018f906107e9565b60405180910390fd5b3373ffffffffffffffffffffffffffffffffffffffff1660008054906101000a900473ffffffffffffffffffffffffffffffffffffffff1673ffffffffffffffffffffffffffffffffffffffff1614610226576040517f08c379a000000000000000000000000000000000000000000000000000000000815260040161021d906107c9565b60405180910390fd5b81600260006101000a81548173ffffffffffffffffffffffffffffffffffffffff021916908373ffffffffffffffffffffffffffffffffffffffff1602179055505050565b600160008273ffffffffffffffffffffffffffffffffffffffff1673ffffffffffffffffffffffffffffffffffffffff16815260200190815260200160002060009054906101000a900460ff166102f7576040517f08c379a00000000000000000000000000000000000000000000000000000000081526004016102ee906107e9565b60405180910390fd5b600260009054906101000a900473ffffffffffffffffffffffffffffffffffffffff1673ffffffffffffffffffffffffffffffffffffffff166314d6c1758484846040518463ffffffff1660e01b81526004016103569392919061084d565b600060405180830381600087803b15801561037057600080fd5b505af1158015610384573d6000803e3d6000fd5b50505050505050565b600080600260009054906101000a900473ffffffffffffffffffffffffffffffffffffffff1673ffffffffffffffffffffffffffffffffffffffff1663538c8c3a6040518163ffffffff1660e01b8152600401604080518083038186803b1580156103f757600080fd5b505afa15801561040b573d6000803e3d6000fd5b505050506040513d601f19601f8201168201806040525081019061042f91906106da565b915091509091565b6000600260009054906101000a900473ffffffffffffffffffffffffffffffffffffffff1673ffffffffffffffffffffffffffffffffffffffff1663953fe932836040518263ffffffff1660e01b81526004016104949190610809565b60206040518083038186803b1580156104ac57600080fd5b505afa1580156104c0573d6000803e3d6000fd5b505050506040513d601f19601f820116820180604052508101906104e491906106b1565b9050919050565b600160008273ffffffffffffffffffffffffffffffffffffffff1673ffffffffffffffffffffffffffffffffffffffff16815260200190815260200160002060009054906101000a900460ff16610577576040517f08c379a000000000000000000000000000000000000000000000000000000000815260040161056e906107e9565b60405180910390fd5b600260009054906101000a900473ffffffffffffffffffffffffffffffffffffffff1673ffffffffffffffffffffffffffffffffffffffff1663ce68d8af8484846040518463ffffffff1660e01b81526004016105d69392919061084d565b600060405180830381600087803b1580156105f057600080fd5b505af1158015610604573d6000803e3d6000fd5b50505050505050565b60008135905061061c81610923565b92915050565b6000813590506106318161093a565b92915050565b6000815190506106468161093a565b92915050565b6000806040838503121561065f57600080fd5b600061066d8582860161060d565b925050602061067e8582860161060d565b9150509250929050565b60006020828403121561069a57600080fd5b60006106a884828501610622565b91505092915050565b6000602082840312156106c357600080fd5b60006106d184828501610637565b91505092915050565b600080604083850312156106ed57600080fd5b60006106fb85828601610637565b925050602061070c85828601610637565b9150509250929050565b60008060006060848603121561072b57600080fd5b600061073986828701610622565b935050602061074a86828701610622565b925050604061075b8682870161060d565b9150509250925092565b61076e81610895565b82525050565b6000610781600a83610884565b915061078c826108d1565b602082019050919050565b60006107a4600183610884565b91506107af826108fa565b602082019050919050565b6107c3816108c7565b82525050565b600060208201905081810360008301526107e281610774565b9050919050565b6000602082019050818103600083015261080281610797565b9050919050565b600060208201905061081e60008301846107ba565b92915050565b600060408201905061083960008301856107ba565b61084660208301846107ba565b9392505050565b600060608201905061086260008301866107ba565b61086f60208301856107ba565b61087c6040830184610765565b949350505050565b600082825260208201905092915050565b60006108a0826108a7565b9050919050565b600073ffffffffffffffffffffffffffffffffffffffff82169050919050565b6000819050919050565b7f6f6e6c79206f776e657200000000000000000000000000000000000000000000600082015250565b7f3100000000000000000000000000000000000000000000000000000000000000600082015250565b61092c81610895565b811461093757600080fd5b50565b610943816108c7565b811461094e57600080fd5b5056fea264697066735822122062f0ff9a674569ca09721ebdd6e9a9d734365326f0c645aefdc3a7feb8f87f1764736f6c63430008040033",
  "linkReferences": {},
  "deployedLinkReferences": {}
}