{
  "_format": "hh-sol-artifact-1",
  "contractName": "DepositeController",
  "sourceName": "contracts/Controllers/DepositeController.sol",
  "abi": [
    {
      "inputs": [
        {
          "internalType": "address",
          "name": "depositeStorageAddress",
          "type": "address"
        }
      ],
      "stateMutability": "nonpayable",
      "type": "constructor"
    },
    {
      "inputs": [
        {
          "internalType": "address",
          "name": "newAddress",
          "type": "address"
        }
      ],
      "name": "Change",
      "outputs": [],
      "stateMutability": "payable",
      "type": "function"
    },
    {
      "inputs": [
        {
          "internalType": "address",
          "name": "newAddress",
          "type": "address"
        }
      ],
      "name": "ChangeDeposteStorage",
      "outputs": [],
      "stateMutability": "payable",
      "type": "function"
    },
    {
      "inputs": [],
      "name": "GetTotalState",
      "outputs": [
        {
          "internalType": "uint256",
          "name": "",
          "type": "uint256"
        },
        {
          "internalType": "uint256",
          "name": "",
          "type": "uint256"
        }
      ],
      "stateMutability": "view",
      "type": "function"
    },
    {
      "inputs": [
        {
          "internalType": "uint256",
          "name": "userId",
          "type": "uint256"
        }
      ],
      "name": "GetUserDeposite",
      "outputs": [
        {
          "internalType": "uint256",
          "name": "",
          "type": "uint256"
        }
      ],
      "stateMutability": "view",
      "type": "function"
    },
    {
      "inputs": [
        {
          "internalType": "uint256",
          "name": "value",
          "type": "uint256"
        },
        {
          "internalType": "uint256",
          "name": "userId",
          "type": "uint256"
        }
      ],
      "name": "ReduceUserDeposite",
      "outputs": [],
      "stateMutability": "payable",
      "type": "function"
    },
    {
      "inputs": [
        {
          "internalType": "address",
          "name": "_addressKey",
          "type": "address"
        }
      ],
      "name": "Set",
      "outputs": [],
      "stateMutability": "payable",
      "type": "function"
    },
    {
      "inputs": [],
      "name": "SetKey",
      "outputs": [],
      "stateMutability": "payable",
      "type": "function"
    },
    {
      "inputs": [
        {
          "internalType": "uint256",
          "name": "userId",
          "type": "uint256"
        },
        {
          "internalType": "uint256",
          "name": "value",
          "type": "uint256"
        }
      ],
      "name": "SetReinvestCell",
      "outputs": [],
      "stateMutability": "payable",
      "type": "function"
    }
  ],
  "bytecode": "0x608060405234801561001057600080fd5b50604051610d86380380610d868339818101604052810190610032919061022c565b336000806101000a81548173ffffffffffffffffffffffffffffffffffffffff021916908373ffffffffffffffffffffffffffffffffffffffff1602179055506040518060400160405280600015158152602001600073ffffffffffffffffffffffffffffffffffffffff16815250600160008201518160000160006101000a81548160ff02191690831515021790555060208201518160000160016101000a81548173ffffffffffffffffffffffffffffffffffffffff021916908373ffffffffffffffffffffffffffffffffffffffff16021790555090505033600260006101000a81548173ffffffffffffffffffffffffffffffffffffffff021916908373ffffffffffffffffffffffffffffffffffffffff16021790555080600360006101000a81548173ffffffffffffffffffffffffffffffffffffffff021916908373ffffffffffffffffffffffffffffffffffffffff160217905550600360009054906101000a900473ffffffffffffffffffffffffffffffffffffffff1673ffffffffffffffffffffffffffffffffffffffff166341e6f7246040518163ffffffff1660e01b8152600401600060405180830381600087803b1580156101f957600080fd5b505af115801561020d573d6000803e3d6000fd5b505050505061029e565b60008151905061022681610287565b92915050565b60006020828403121561023e57600080fd5b600061024c84828501610217565b91505092915050565b600061026082610267565b9050919050565b600073ffffffffffffffffffffffffffffffffffffffff82169050919050565b61029081610255565b811461029b57600080fd5b50565b610ad9806102ad6000396000f3fe60806040526004361061007b5760003560e01c80635c7273141161004e5780635c727314146100ee578063953fe9321461010a578063a64b47ce14610147578063eb7f4975146101635761007b565b806302dc774d146100805780633c4dbb051461009c57806341e6f724146100b8578063538c8c3a146100c2575b600080fd5b61009a600480360381019061009591906107e0565b61017f565b005b6100b660048036038101906100b191906107e0565b6101c6565b005b6100c06102b6565b005b3480156100ce57600080fd5b506100d7610323565b6040516100e59291906109ad565b60405180910390f35b6101086004803603810190610103919061085b565b6103cd565b005b34801561011657600080fd5b50610131600480360381019061012c9190610809565b6104f3565b60405161013e9190610992565b60405180910390f35b610161600480360381019061015c919061085b565b6105a7565b005b61017d600480360381019061017891906107e0565b6106cd565b005b80600160000160016101000a81548173ffffffffffffffffffffffffffffffffffffffff021916908373ffffffffffffffffffffffffffffffffffffffff16021790555050565b600160000160009054906101000a900460ff1615610219576040517f08c379a000000000000000000000000000000000000000000000000000000000815260040161021090610972565b60405180910390fd5b60405180604001604052806001151581526020018273ffffffffffffffffffffffffffffffffffffffff16815250600160008201518160000160006101000a81548160ff02191690831515021790555060208201518160000160016101000a81548173ffffffffffffffffffffffffffffffffffffffff021916908373ffffffffffffffffffffffffffffffffffffffff16021790555090505050565b3073ffffffffffffffffffffffffffffffffffffffff16633c4dbb05336040518263ffffffff1660e01b81526004016102ef9190610937565b600060405180830381600087803b15801561030957600080fd5b505af115801561031d573d6000803e3d6000fd5b50505050565b600080600360009054906101000a900473ffffffffffffffffffffffffffffffffffffffff1673ffffffffffffffffffffffffffffffffffffffff1663538c8c3a6040518163ffffffff1660e01b8152600401604080518083038186803b15801561038d57600080fd5b505afa1580156103a1573d6000803e3d6000fd5b505050506040513d601f19601f820116820180604052508101906103c59190610897565b915091509091565b3373ffffffffffffffffffffffffffffffffffffffff16600160000160019054906101000a900473ffffffffffffffffffffffffffffffffffffffff1673ffffffffffffffffffffffffffffffffffffffff1614610460576040517f08c379a000000000000000000000000000000000000000000000000000000000815260040161045790610972565b60405180910390fd5b600360009054906101000a900473ffffffffffffffffffffffffffffffffffffffff1673ffffffffffffffffffffffffffffffffffffffff16635c72731483836040518363ffffffff1660e01b81526004016104bd9291906109ad565b600060405180830381600087803b1580156104d757600080fd5b505af11580156104eb573d6000803e3d6000fd5b505050505050565b6000600360009054906101000a900473ffffffffffffffffffffffffffffffffffffffff1673ffffffffffffffffffffffffffffffffffffffff1663953fe932836040518263ffffffff1660e01b81526004016105509190610992565b60206040518083038186803b15801561056857600080fd5b505afa15801561057c573d6000803e3d6000fd5b505050506040513d601f19601f820116820180604052508101906105a09190610832565b9050919050565b3373ffffffffffffffffffffffffffffffffffffffff16600160000160019054906101000a900473ffffffffffffffffffffffffffffffffffffffff1673ffffffffffffffffffffffffffffffffffffffff161461063a576040517f08c379a000000000000000000000000000000000000000000000000000000000815260040161063190610972565b60405180910390fd5b600360009054906101000a900473ffffffffffffffffffffffffffffffffffffffff1673ffffffffffffffffffffffffffffffffffffffff1663a64b47ce83836040518363ffffffff1660e01b81526004016106979291906109ad565b600060405180830381600087803b1580156106b157600080fd5b505af11580156106c5573d6000803e3d6000fd5b505050505050565b3373ffffffffffffffffffffffffffffffffffffffff16600260009054906101000a900473ffffffffffffffffffffffffffffffffffffffff1673ffffffffffffffffffffffffffffffffffffffff161461075d576040517f08c379a000000000000000000000000000000000000000000000000000000000815260040161075490610952565b60405180910390fd5b80600360006101000a81548173ffffffffffffffffffffffffffffffffffffffff021916908373ffffffffffffffffffffffffffffffffffffffff16021790555050565b6000813590506107b081610a75565b92915050565b6000813590506107c581610a8c565b92915050565b6000815190506107da81610a8c565b92915050565b6000602082840312156107f257600080fd5b6000610800848285016107a1565b91505092915050565b60006020828403121561081b57600080fd5b6000610829848285016107b6565b91505092915050565b60006020828403121561084457600080fd5b6000610852848285016107cb565b91505092915050565b6000806040838503121561086e57600080fd5b600061087c858286016107b6565b925050602061088d858286016107b6565b9150509250929050565b600080604083850312156108aa57600080fd5b60006108b8858286016107cb565b92505060206108c9858286016107cb565b9150509250929050565b6108dc816109e7565b82525050565b60006108ef600a836109d6565b91506108fa82610a23565b602082019050919050565b60006109126001836109d6565b915061091d82610a4c565b602082019050919050565b61093181610a19565b82525050565b600060208201905061094c60008301846108d3565b92915050565b6000602082019050818103600083015261096b816108e2565b9050919050565b6000602082019050818103600083015261098b81610905565b9050919050565b60006020820190506109a76000830184610928565b92915050565b60006040820190506109c26000830185610928565b6109cf6020830184610928565b9392505050565b600082825260208201905092915050565b60006109f2826109f9565b9050919050565b600073ffffffffffffffffffffffffffffffffffffffff82169050919050565b6000819050919050565b7f6f6e6c79206f776e657200000000000000000000000000000000000000000000600082015250565b7f3100000000000000000000000000000000000000000000000000000000000000600082015250565b610a7e816109e7565b8114610a8957600080fd5b50565b610a9581610a19565b8114610aa057600080fd5b5056fea2646970667358221220f3df62033895b982c3a0fef52e2874a388340d0c6f4ab37626733ba880de590364736f6c63430008040033",
  "linkReferences": {},
  "deployedLinkReferences": {}
}