{
  "_format": "hh-sol-artifact-1",
  "contractName": "PullStorage",
  "sourceName": "contracts/Repository/PullStorage.sol",
  "abi": [
    {
      "inputs": [
        {
          "internalType": "address",
          "name": "key",
          "type": "address"
        },
        {
          "internalType": "uint256",
          "name": "Sum",
          "type": "uint256"
        }
      ],
      "stateMutability": "nonpayable",
      "type": "constructor"
    },
    {
      "inputs": [
        {
          "internalType": "uint256",
          "name": "userId",
          "type": "uint256"
        },
        {
          "internalType": "uint256",
          "name": "value",
          "type": "uint256"
        },
        {
          "internalType": "address",
          "name": "key",
          "type": "address"
        }
      ],
      "name": "AddMemberDeposite",
      "outputs": [],
      "stateMutability": "payable",
      "type": "function"
    },
    {
      "inputs": [
        {
          "internalType": "uint256",
          "name": "value",
          "type": "uint256"
        },
        {
          "internalType": "uint256",
          "name": "UserId",
          "type": "uint256"
        },
        {
          "internalType": "address",
          "name": "key",
          "type": "address"
        }
      ],
      "name": "AddMemberReferalRewards",
      "outputs": [],
      "stateMutability": "payable",
      "type": "function"
    },
    {
      "inputs": [
        {
          "internalType": "uint256",
          "name": "value",
          "type": "uint256"
        },
        {
          "internalType": "uint256",
          "name": "UserId",
          "type": "uint256"
        },
        {
          "internalType": "address",
          "name": "key",
          "type": "address"
        }
      ],
      "name": "AddMemberRewards",
      "outputs": [],
      "stateMutability": "payable",
      "type": "function"
    },
    {
      "inputs": [
        {
          "internalType": "address",
          "name": "key",
          "type": "address"
        }
      ],
      "name": "AddNewPull",
      "outputs": [],
      "stateMutability": "payable",
      "type": "function"
    },
    {
      "inputs": [],
      "name": "GetCurrentPull",
      "outputs": [
        {
          "internalType": "uint256",
          "name": "",
          "type": "uint256"
        },
        {
          "internalType": "uint256",
          "name": "",
          "type": "uint256"
        },
        {
          "internalType": "uint256",
          "name": "",
          "type": "uint256"
        },
        {
          "internalType": "uint256",
          "name": "",
          "type": "uint256"
        }
      ],
      "stateMutability": "view",
      "type": "function"
    },
    {
      "inputs": [],
      "name": "GetLastCurrentPullSum",
      "outputs": [
        {
          "internalType": "uint256",
          "name": "",
          "type": "uint256"
        }
      ],
      "stateMutability": "view",
      "type": "function"
    },
    {
      "inputs": [
        {
          "internalType": "uint256",
          "name": "id",
          "type": "uint256"
        }
      ],
      "name": "GetMember",
      "outputs": [
        {
          "internalType": "uint256",
          "name": "",
          "type": "uint256"
        },
        {
          "internalType": "uint256",
          "name": "",
          "type": "uint256"
        },
        {
          "internalType": "uint256",
          "name": "",
          "type": "uint256"
        }
      ],
      "stateMutability": "view",
      "type": "function"
    },
    {
      "inputs": [
        {
          "internalType": "uint256",
          "name": "pullId",
          "type": "uint256"
        }
      ],
      "name": "GetPull",
      "outputs": [
        {
          "internalType": "uint256",
          "name": "",
          "type": "uint256"
        },
        {
          "internalType": "uint256",
          "name": "",
          "type": "uint256"
        },
        {
          "internalType": "uint256",
          "name": "",
          "type": "uint256"
        },
        {
          "internalType": "uint256",
          "name": "",
          "type": "uint256"
        }
      ],
      "stateMutability": "view",
      "type": "function"
    },
    {
      "inputs": [
        {
          "internalType": "uint256",
          "name": "pullId",
          "type": "uint256"
        }
      ],
      "name": "GetPullCollectedSum",
      "outputs": [
        {
          "internalType": "uint256",
          "name": "",
          "type": "uint256"
        }
      ],
      "stateMutability": "view",
      "type": "function"
    },
    {
      "inputs": [],
      "name": "GetStatistic",
      "outputs": [
        {
          "internalType": "uint256",
          "name": "",
          "type": "uint256"
        },
        {
          "internalType": "uint256",
          "name": "",
          "type": "uint256"
        },
        {
          "internalType": "uint256",
          "name": "",
          "type": "uint256"
        }
      ],
      "stateMutability": "view",
      "type": "function"
    },
    {
      "inputs": [
        {
          "internalType": "uint256",
          "name": "pullId",
          "type": "uint256"
        }
      ],
      "name": "GetTicketByPullId",
      "outputs": [
        {
          "internalType": "address[]",
          "name": "",
          "type": "address[]"
        },
        {
          "internalType": "uint256[]",
          "name": "",
          "type": "uint256[]"
        },
        {
          "internalType": "uint256[]",
          "name": "",
          "type": "uint256[]"
        }
      ],
      "stateMutability": "view",
      "type": "function"
    },
    {
      "inputs": [
        {
          "internalType": "uint256",
          "name": "pullId",
          "type": "uint256"
        }
      ],
      "name": "GetTicketCountOnPull",
      "outputs": [
        {
          "internalType": "uint256",
          "name": "",
          "type": "uint256"
        }
      ],
      "stateMutability": "view",
      "type": "function"
    },
    {
      "inputs": [
        {
          "internalType": "uint256",
          "name": "pullId",
          "type": "uint256"
        },
        {
          "internalType": "uint256",
          "name": "ticketNumber",
          "type": "uint256"
        }
      ],
      "name": "GetTicketInfo",
      "outputs": [
        {
          "internalType": "address",
          "name": "",
          "type": "address"
        },
        {
          "internalType": "uint256",
          "name": "",
          "type": "uint256"
        },
        {
          "internalType": "uint256",
          "name": "",
          "type": "uint256"
        }
      ],
      "stateMutability": "view",
      "type": "function"
    },
    {
      "inputs": [
        {
          "internalType": "uint256",
          "name": "id",
          "type": "uint256"
        }
      ],
      "name": "IsMemberExist",
      "outputs": [
        {
          "internalType": "bool",
          "name": "",
          "type": "bool"
        }
      ],
      "stateMutability": "view",
      "type": "function"
    },
    {
      "inputs": [
        {
          "internalType": "uint256",
          "name": "id",
          "type": "uint256"
        }
      ],
      "name": "IsPullExist",
      "outputs": [
        {
          "internalType": "bool",
          "name": "",
          "type": "bool"
        }
      ],
      "stateMutability": "view",
      "type": "function"
    },
    {
      "inputs": [
        {
          "internalType": "uint256",
          "name": "value",
          "type": "uint256"
        },
        {
          "internalType": "address",
          "name": "key",
          "type": "address"
        }
      ],
      "name": "SetCurrentPullValue",
      "outputs": [],
      "stateMutability": "payable",
      "type": "function"
    },
    {
      "inputs": [
        {
          "internalType": "uint256",
          "name": "UserId",
          "type": "uint256"
        },
        {
          "internalType": "address",
          "name": "key",
          "type": "address"
        }
      ],
      "name": "SetMember",
      "outputs": [],
      "stateMutability": "payable",
      "type": "function"
    },
    {
      "inputs": [
        {
          "internalType": "address",
          "name": "userAdr",
          "type": "address"
        },
        {
          "internalType": "uint256",
          "name": "value",
          "type": "uint256"
        },
        {
          "internalType": "uint256",
          "name": "userId",
          "type": "uint256"
        },
        {
          "internalType": "address",
          "name": "key",
          "type": "address"
        }
      ],
      "name": "SetTicket",
      "outputs": [],
      "stateMutability": "payable",
      "type": "function"
    }
  ],
  "bytecode": "0x608060405260016005553480156200001657600080fd5b5060405162001b3638038062001b3683398181016040528101906200003c919062000181565b60016000808473ffffffffffffffffffffffffffffffffffffffff1673ffffffffffffffffffffffffffffffffffffffff16815260200190815260200160002060006101000a81548160ff02191690831515021790555033600160006101000a81548173ffffffffffffffffffffffffffffffffffffffff021916908373ffffffffffffffffffffffffffffffffffffffff1602179055508060068190555060006040518060800160405280600554815260200160065481526020016000815260200160065481525090508060036000836000015181526020019081526020016000206000820151816000015560208201518160010155604082015181600201556060820151816003015590505050505062000234565b600081519050620001648162000200565b92915050565b6000815190506200017b816200021a565b92915050565b600080604083850312156200019557600080fd5b6000620001a58582860162000153565b9250506020620001b8858286016200016a565b9150509250929050565b6000620001cf82620001d6565b9050919050565b600073ffffffffffffffffffffffffffffffffffffffff82169050919050565b6000819050919050565b6200020b81620001c2565b81146200021757600080fd5b50565b6200022581620001f6565b81146200023157600080fd5b50565b6118f280620002446000396000f3fe6080604052600436106101095760003560e01c806392ec4b5a11610095578063bc879a9111610064578063bc879a9114610356578063c7958cad14610395578063ed6c4c88146103c3578063f4a38ba314610402578063fe2c913f1461042d57610109565b806392ec4b5a146102d55780639dde88c0146102f1578063a149aaca1461030d578063a4b406f11461033a57610109565b80635bc8713a116100dc5780635bc8713a146101e45780636045f20a1461020057806366e8c5ef1461023d57806373c74e911461027c57806392c32a95146102b957610109565b806303b4525f1461010e57806341cb19361461014b57806343b7063c1461018b578063516d9662146101a7575b600080fd5b34801561011a57600080fd5b50610135600480360381019061013091906112f9565b610449565b60405161014291906115c6565b60405180910390f35b34801561015757600080fd5b50610172600480360381019061016d91906112f9565b61046c565b6040516101829493929190611653565b60405180910390f35b6101a560048036038101906101a0919061139a565b6104e0565b005b3480156101b357600080fd5b506101ce60048036038101906101c991906112f9565b6105ac565b6040516101db91906115c6565b60405180910390f35b6101fe60048036038101906101f9919061139a565b6105cf565b005b34801561020c57600080fd5b50610227600480360381019061022291906112f9565b61069b565b6040516102349190611601565b60405180910390f35b34801561024957600080fd5b50610264600480360381019061025f919061135e565b6106bb565b60405161027393929190611543565b60405180910390f35b34801561028857600080fd5b506102a3600480360381019061029e91906112f9565b610805565b6040516102b09190611601565b60405180910390f35b6102d360048036038101906102ce919061126d565b6108e7565b005b6102ef60048036038101906102ea9190611322565b610a12565b005b61030b60048036038101906103069190611322565b610af3565b005b34801561031957600080fd5b50610322610c02565b6040516103319392919061161c565b60405180910390f35b610354600480360381019061034f9190611296565b610c24565b005b34801561036257600080fd5b5061037d600480360381019061037891906112f9565b610db9565b60405161038c9392919061157a565b60405180910390f35b3480156103a157600080fd5b506103aa61109a565b6040516103ba9493929190611653565b60405180910390f35b3480156103cf57600080fd5b506103ea60048036038101906103e591906112f9565b61110f565b6040516103f99392919061161c565b60405180910390f35b34801561040e57600080fd5b50610417611166565b6040516104249190611601565b60405180910390f35b6104476004803603810190610442919061139a565b611186565b005b600080600360008481526020019081526020016000206000015414159050919050565b600080600080600060036000878152602001908152602001600020604051806080016040529081600082015481526020016001820154815260200160028201548152602001600382015481525050905080600001518160200151826040015183606001519450945094509450509193509193565b6000808273ffffffffffffffffffffffffffffffffffffffff1673ffffffffffffffffffffffffffffffffffffffff16815260200190815260200160002060009054906101000a900460ff1661056b576040517f08c379a0000000000000000000000000000000000000000000000000000000008152600401610562906115e1565b60405180910390fd5b82600260008481526020019081526020016000206001015461058d919061171b565b6002600084815260200190815260200160002060010181905550505050565b600080600260008481526020019081526020016000206000015414159050919050565b6000808273ffffffffffffffffffffffffffffffffffffffff1673ffffffffffffffffffffffffffffffffffffffff16815260200190815260200160002060009054906101000a900460ff1661065a576040517f08c379a0000000000000000000000000000000000000000000000000000000008152600401610651906115e1565b60405180910390fd5b82600260008481526020019081526020016000206002015461067c919061171b565b6002600084815260200190815260200160002060020181905550505050565b600060036000838152602001908152602001600020600101549050919050565b60008060008060046000878152602001908152602001600020805480602002602001604051908101604052809291908181526020016000905b8282101561079057838290600052602060002090600302016040518060600160405290816000820160009054906101000a900473ffffffffffffffffffffffffffffffffffffffff1673ffffffffffffffffffffffffffffffffffffffff1673ffffffffffffffffffffffffffffffffffffffff16815260200160018201548152602001600282015481525050815260200190600101906106f4565b5050505090506000816001876107a69190611771565b815181106107dd577f4e487b7100000000000000000000000000000000000000000000000000000000600052603260045260246000fd5b6020026020010151905080600001518160200151826040015194509450945050509250925092565b60008060046000848152602001908152602001600020805480602002602001604051908101604052809291908181526020016000905b828210156108d757838290600052602060002090600302016040518060600160405290816000820160009054906101000a900473ffffffffffffffffffffffffffffffffffffffff1673ffffffffffffffffffffffffffffffffffffffff1673ffffffffffffffffffffffffffffffffffffffff168152602001600182015481526020016002820154815250508152602001906001019061083b565b5050505090508051915050919050565b6000808273ffffffffffffffffffffffffffffffffffffffff1673ffffffffffffffffffffffffffffffffffffffff16815260200190815260200160002060009054906101000a900460ff16610972576040517f08c379a0000000000000000000000000000000000000000000000000000000008152600401610969906115e1565b60405180910390fd5b6000604051806080016040528060056000815461098e906117ed565b919050819055815260200160065481526020016000815260200160065481525090508060036000836000015181526020019081526020016000206000820151816000015560208201518160010155604082015181600201556060820151816003015590505060076000016000815480929190610a09906117ed565b91905055505050565b6000808273ffffffffffffffffffffffffffffffffffffffff1673ffffffffffffffffffffffffffffffffffffffff16815260200190815260200160002060009054906101000a900460ff16610a9d576040517f08c379a0000000000000000000000000000000000000000000000000000000008152600401610a94906115e1565b60405180910390fd5b604051806060016040528060008152602001600081526020016000815250600260008481526020019081526020016000206000820151816000015560208201518160010155604082015181600201559050505050565b6000808273ffffffffffffffffffffffffffffffffffffffff1673ffffffffffffffffffffffffffffffffffffffff16815260200190815260200160002060009054906101000a900460ff16610b7e576040517f08c379a0000000000000000000000000000000000000000000000000000000008152600401610b75906115e1565b60405180910390fd5b8160036000600554815260200190815260200160002060020154610ba2919061171b565b600360006005548152602001908152602001600020600201819055508160036000600554815260200190815260200160002060030154610be29190611771565b600360006005548152602001908152602001600020600301819055505050565b6000806000600760000154600760010154600760020154925092509250909192565b6000808273ffffffffffffffffffffffffffffffffffffffff1673ffffffffffffffffffffffffffffffffffffffff16815260200190815260200160002060009054906101000a900460ff16610caf576040517f08c379a0000000000000000000000000000000000000000000000000000000008152600401610ca6906115e1565b60405180910390fd5b8260076001016000828254610cc4919061171b565b92505081905550600060405180606001604052808673ffffffffffffffffffffffffffffffffffffffff1681526020018581526020018481525090506004600060036000600554815260200190815260200160002060000154815260200190815260200160002081908060018154018082558091505060019003906000526020600020906003020160009091909190915060008201518160000160006101000a81548173ffffffffffffffffffffffffffffffffffffffff021916908373ffffffffffffffffffffffffffffffffffffffff160217905550602082015181600101556040820151816002015550505050505050565b6060806060600060046000868152602001908152602001600020805480602002602001604051908101604052809291908181526020016000905b82821015610e8f57838290600052602060002090600302016040518060600160405290816000820160009054906101000a900473ffffffffffffffffffffffffffffffffffffffff1673ffffffffffffffffffffffffffffffffffffffff1673ffffffffffffffffffffffffffffffffffffffff1681526020016001820154815260200160028201548152505081526020019060010190610df3565b505050509050606080606060005b845181101561108557848181518110610edf577f4e487b7100000000000000000000000000000000000000000000000000000000600052603260045260246000fd5b602002602001015160000151848281518110610f24577f4e487b7100000000000000000000000000000000000000000000000000000000600052603260045260246000fd5b602002602001019073ffffffffffffffffffffffffffffffffffffffff16908173ffffffffffffffffffffffffffffffffffffffff1681525050848181518110610f97577f4e487b7100000000000000000000000000000000000000000000000000000000600052603260045260246000fd5b602002602001015160200151838281518110610fdc577f4e487b7100000000000000000000000000000000000000000000000000000000600052603260045260246000fd5b602002602001018181525050848181518110611021577f4e487b7100000000000000000000000000000000000000000000000000000000600052603260045260246000fd5b602002602001015160400151828281518110611066577f4e487b7100000000000000000000000000000000000000000000000000000000600052603260045260246000fd5b602002602001018181525050808061107d906117ed565b915050610e9d565b50828282965096509650505050509193909250565b60008060008060006003600060055481526020019081526020016000206040518060800160405290816000820154815260200160018201548152602001600282015481526020016003820154815250509050806000015181602001518260400151836060015194509450945094505090919293565b60008060006002600085815260200190815260200160002060000154600260008681526020019081526020016000206001015460026000878152602001908152602001600020600201549250925092509193909250565b600060036000600554815260200190815260200160002060030154905090565b6000808273ffffffffffffffffffffffffffffffffffffffff1673ffffffffffffffffffffffffffffffffffffffff16815260200190815260200160002060009054906101000a900460ff16611211576040517f08c379a0000000000000000000000000000000000000000000000000000000008152600401611208906115e1565b60405180910390fd5b81600260008581526020019081526020016000206000016000828254611237919061171b565b92505081905550505050565b6000813590506112528161188e565b92915050565b600081359050611267816118a5565b92915050565b60006020828403121561127f57600080fd5b600061128d84828501611243565b91505092915050565b600080600080608085870312156112ac57600080fd5b60006112ba87828801611243565b94505060206112cb87828801611258565b93505060406112dc87828801611258565b92505060606112ed87828801611243565b91505092959194509250565b60006020828403121561130b57600080fd5b600061131984828501611258565b91505092915050565b6000806040838503121561133557600080fd5b600061134385828601611258565b925050602061135485828601611243565b9150509250929050565b6000806040838503121561137157600080fd5b600061137f85828601611258565b925050602061139085828601611258565b9150509250929050565b6000806000606084860312156113af57600080fd5b60006113bd86828701611258565b93505060206113ce86828701611258565b92505060406113df86828701611243565b9150509250925092565b60006113f58383611419565b60208301905092915050565b600061140d8383611525565b60208301905092915050565b611422816117a5565b82525050565b611431816117a5565b82525050565b6000611442826116b8565b61144c81856116e8565b935061145783611698565b8060005b8381101561148857815161146f88826113e9565b975061147a836116ce565b92505060018101905061145b565b5085935050505092915050565b60006114a0826116c3565b6114aa81856116f9565b93506114b5836116a8565b8060005b838110156114e65781516114cd8882611401565b97506114d8836116db565b9250506001810190506114b9565b5085935050505092915050565b6114fc816117b7565b82525050565b600061150f60018361170a565b915061151a82611865565b602082019050919050565b61152e816117e3565b82525050565b61153d816117e3565b82525050565b60006060820190506115586000830186611428565b6115656020830185611534565b6115726040830184611534565b949350505050565b600060608201905081810360008301526115948186611437565b905081810360208301526115a88185611495565b905081810360408301526115bc8184611495565b9050949350505050565b60006020820190506115db60008301846114f3565b92915050565b600060208201905081810360008301526115fa81611502565b9050919050565b60006020820190506116166000830184611534565b92915050565b60006060820190506116316000830186611534565b61163e6020830185611534565b61164b6040830184611534565b949350505050565b60006080820190506116686000830187611534565b6116756020830186611534565b6116826040830185611534565b61168f6060830184611534565b95945050505050565b6000819050602082019050919050565b6000819050602082019050919050565b600081519050919050565b600081519050919050565b6000602082019050919050565b6000602082019050919050565b600082825260208201905092915050565b600082825260208201905092915050565b600082825260208201905092915050565b6000611726826117e3565b9150611731836117e3565b9250827fffffffffffffffffffffffffffffffffffffffffffffffffffffffffffffffff0382111561176657611765611836565b5b828201905092915050565b600061177c826117e3565b9150611787836117e3565b92508282101561179a57611799611836565b5b828203905092915050565b60006117b0826117c3565b9050919050565b60008115159050919050565b600073ffffffffffffffffffffffffffffffffffffffff82169050919050565b6000819050919050565b60006117f8826117e3565b91507fffffffffffffffffffffffffffffffffffffffffffffffffffffffffffffffff82141561182b5761182a611836565b5b600182019050919050565b7f4e487b7100000000000000000000000000000000000000000000000000000000600052601160045260246000fd5b7f3100000000000000000000000000000000000000000000000000000000000000600082015250565b611897816117a5565b81146118a257600080fd5b50565b6118ae816117e3565b81146118b957600080fd5b5056fea2646970667358221220786507ed079367913cfc80c56eb3487eee432f4ac1b5d6c4ff122dc1be987c6c64736f6c63430008040033",
  "linkReferences": {},
  "deployedLinkReferences": {}
}