{
  "_format": "hh-sol-artifact-1",
  "contractName": "PullStorage",
  "sourceName": "contracts/Repository/PullStorage.sol",
  "abi": [
    {
      "inputs": [
        {
          "internalType": "uint256",
          "name": "Sum",
          "type": "uint256"
        }
      ],
      "stateMutability": "nonpayable",
      "type": "constructor"
    },
    {
      "inputs": [
        {
          "internalType": "uint256",
          "name": "userId",
          "type": "uint256"
        },
        {
          "internalType": "uint256",
          "name": "value",
          "type": "uint256"
        }
      ],
      "name": "AddMemberDeposite",
      "outputs": [],
      "stateMutability": "payable",
      "type": "function"
    },
    {
      "inputs": [
        {
          "internalType": "uint256",
          "name": "value",
          "type": "uint256"
        },
        {
          "internalType": "uint256",
          "name": "UserId",
          "type": "uint256"
        }
      ],
      "name": "AddMemberReferalRewards",
      "outputs": [],
      "stateMutability": "payable",
      "type": "function"
    },
    {
      "inputs": [
        {
          "internalType": "uint256",
          "name": "value",
          "type": "uint256"
        },
        {
          "internalType": "uint256",
          "name": "UserId",
          "type": "uint256"
        }
      ],
      "name": "AddMemberRewards",
      "outputs": [],
      "stateMutability": "payable",
      "type": "function"
    },
    {
      "inputs": [],
      "name": "AddNewPull",
      "outputs": [],
      "stateMutability": "payable",
      "type": "function"
    },
    {
      "inputs": [
        {
          "internalType": "address",
          "name": "newAddress",
          "type": "address"
        }
      ],
      "name": "Change",
      "outputs": [],
      "stateMutability": "payable",
      "type": "function"
    },
    {
      "inputs": [
        {
          "internalType": "address",
          "name": "newKey",
          "type": "address"
        }
      ],
      "name": "ChangeKey",
      "outputs": [],
      "stateMutability": "payable",
      "type": "function"
    },
    {
      "inputs": [],
      "name": "GetCurrentPull",
      "outputs": [
        {
          "internalType": "uint256",
          "name": "",
          "type": "uint256"
        },
        {
          "internalType": "uint256",
          "name": "",
          "type": "uint256"
        },
        {
          "internalType": "uint256",
          "name": "",
          "type": "uint256"
        },
        {
          "internalType": "uint256",
          "name": "",
          "type": "uint256"
        }
      ],
      "stateMutability": "view",
      "type": "function"
    },
    {
      "inputs": [],
      "name": "GetLastCurrentPullSum",
      "outputs": [
        {
          "internalType": "uint256",
          "name": "",
          "type": "uint256"
        }
      ],
      "stateMutability": "view",
      "type": "function"
    },
    {
      "inputs": [
        {
          "internalType": "uint256",
          "name": "id",
          "type": "uint256"
        }
      ],
      "name": "GetMember",
      "outputs": [
        {
          "internalType": "uint256",
          "name": "",
          "type": "uint256"
        },
        {
          "internalType": "uint256",
          "name": "",
          "type": "uint256"
        },
        {
          "internalType": "uint256",
          "name": "",
          "type": "uint256"
        }
      ],
      "stateMutability": "view",
      "type": "function"
    },
    {
      "inputs": [
        {
          "internalType": "uint256",
          "name": "pullId",
          "type": "uint256"
        }
      ],
      "name": "GetPull",
      "outputs": [
        {
          "internalType": "uint256",
          "name": "",
          "type": "uint256"
        },
        {
          "internalType": "uint256",
          "name": "",
          "type": "uint256"
        },
        {
          "internalType": "uint256",
          "name": "",
          "type": "uint256"
        },
        {
          "internalType": "uint256",
          "name": "",
          "type": "uint256"
        }
      ],
      "stateMutability": "view",
      "type": "function"
    },
    {
      "inputs": [
        {
          "internalType": "uint256",
          "name": "pullId",
          "type": "uint256"
        }
      ],
      "name": "GetPullCollectedSum",
      "outputs": [
        {
          "internalType": "uint256",
          "name": "",
          "type": "uint256"
        }
      ],
      "stateMutability": "view",
      "type": "function"
    },
    {
      "inputs": [],
      "name": "GetStatistic",
      "outputs": [
        {
          "internalType": "uint256",
          "name": "",
          "type": "uint256"
        },
        {
          "internalType": "uint256",
          "name": "",
          "type": "uint256"
        },
        {
          "internalType": "uint256",
          "name": "",
          "type": "uint256"
        }
      ],
      "stateMutability": "view",
      "type": "function"
    },
    {
      "inputs": [
        {
          "internalType": "uint256",
          "name": "pullId",
          "type": "uint256"
        }
      ],
      "name": "GetTicketByPullId",
      "outputs": [
        {
          "internalType": "address[]",
          "name": "",
          "type": "address[]"
        },
        {
          "internalType": "uint256[]",
          "name": "",
          "type": "uint256[]"
        },
        {
          "internalType": "uint256[]",
          "name": "",
          "type": "uint256[]"
        }
      ],
      "stateMutability": "view",
      "type": "function"
    },
    {
      "inputs": [
        {
          "internalType": "uint256",
          "name": "pullId",
          "type": "uint256"
        }
      ],
      "name": "GetTicketCountOnPull",
      "outputs": [
        {
          "internalType": "uint256",
          "name": "",
          "type": "uint256"
        }
      ],
      "stateMutability": "view",
      "type": "function"
    },
    {
      "inputs": [
        {
          "internalType": "uint256",
          "name": "pullId",
          "type": "uint256"
        },
        {
          "internalType": "uint256",
          "name": "ticketNumber",
          "type": "uint256"
        }
      ],
      "name": "GetTicketInfo",
      "outputs": [
        {
          "internalType": "address",
          "name": "",
          "type": "address"
        },
        {
          "internalType": "uint256",
          "name": "",
          "type": "uint256"
        },
        {
          "internalType": "uint256",
          "name": "",
          "type": "uint256"
        }
      ],
      "stateMutability": "view",
      "type": "function"
    },
    {
      "inputs": [
        {
          "internalType": "uint256",
          "name": "id",
          "type": "uint256"
        }
      ],
      "name": "IsMemberExist",
      "outputs": [
        {
          "internalType": "bool",
          "name": "",
          "type": "bool"
        }
      ],
      "stateMutability": "view",
      "type": "function"
    },
    {
      "inputs": [
        {
          "internalType": "uint256",
          "name": "id",
          "type": "uint256"
        }
      ],
      "name": "IsPullExist",
      "outputs": [
        {
          "internalType": "bool",
          "name": "",
          "type": "bool"
        }
      ],
      "stateMutability": "view",
      "type": "function"
    },
    {
      "inputs": [
        {
          "internalType": "address",
          "name": "_addressKey",
          "type": "address"
        }
      ],
      "name": "Set",
      "outputs": [],
      "stateMutability": "payable",
      "type": "function"
    },
    {
      "inputs": [
        {
          "internalType": "uint256",
          "name": "value",
          "type": "uint256"
        }
      ],
      "name": "SetCurrentPullValue",
      "outputs": [],
      "stateMutability": "payable",
      "type": "function"
    },
    {
      "inputs": [],
      "name": "SetKey",
      "outputs": [],
      "stateMutability": "payable",
      "type": "function"
    },
    {
      "inputs": [
        {
          "internalType": "uint256",
          "name": "UserId",
          "type": "uint256"
        }
      ],
      "name": "SetMember",
      "outputs": [],
      "stateMutability": "payable",
      "type": "function"
    },
    {
      "inputs": [
        {
          "internalType": "address",
          "name": "userAdr",
          "type": "address"
        },
        {
          "internalType": "uint256",
          "name": "value",
          "type": "uint256"
        },
        {
          "internalType": "uint256",
          "name": "userId",
          "type": "uint256"
        }
      ],
      "name": "SetTicket",
      "outputs": [],
      "stateMutability": "payable",
      "type": "function"
    }
  ],
  "bytecode": "0x608060405260016006553480156200001657600080fd5b5060405162001e7238038062001e7283398181016040528101906200003c9190620001ed565b336000806101000a81548173ffffffffffffffffffffffffffffffffffffffff021916908373ffffffffffffffffffffffffffffffffffffffff1602179055506040518060400160405280600015158152602001600073ffffffffffffffffffffffffffffffffffffffff16815250600160008201518160000160006101000a81548160ff02191690831515021790555060208201518160000160016101000a81548173ffffffffffffffffffffffffffffffffffffffff021916908373ffffffffffffffffffffffffffffffffffffffff16021790555090505033600260006101000a81548173ffffffffffffffffffffffffffffffffffffffff021916908373ffffffffffffffffffffffffffffffffffffffff1602179055508060078190555060006040518060800160405280600654815260200160075481526020016000815260200160075481525090508060046000836000015181526020019081526020016000206000820151816000015560208201518160010155604082015181600201556060820151816003015590505050506200023d565b600081519050620001e78162000223565b92915050565b6000602082840312156200020057600080fd5b60006200021084828501620001d6565b91505092915050565b6000819050919050565b6200022e8162000219565b81146200023a57600080fd5b50565b611c25806200024d6000396000f3fe6080604052600436106101355760003560e01c806341e6f724116100ab5780638a1422fc1161006f5780638a1422fc146103a1578063a149aaca146103bd578063bc879a91146103ea578063c7958cad14610429578063ed6c4c8814610457578063f4a38ba31461049657610135565b806341e6f724146102a1578063516d9662146102ab5780636045f20a146102e857806366e8c5ef1461032557806373c74e911461036457610135565b806322a07ec2116100fd57806322a07ec2146101e75780632d1c2021146101f15780632ea586501461020d5780633c4dbb05146102295780633f2a65f51461024557806341cb19361461026157610135565b806302dc774d1461013a57806303b4525f146101565780631252b48e14610193578063190a853b146101af5780631b5c78ee146101cb575b600080fd5b610154600480360381019061014f91906115b8565b6104c1565b005b34801561016257600080fd5b5061017d60048036038101906101789190611630565b610508565b60405161018a91906118b0565b60405180910390f35b6101ad60048036038101906101a89190611630565b61052b565b005b6101c960048036038101906101c49190611659565b610641565b005b6101e560048036038101906101e09190611659565b610714565b005b6101ef6107d8565b005b61020b600480360381019061020691906115e1565b61090a565b005b61022760048036038101906102229190611630565b610aa6565b005b610243600480360381019061023e91906115b8565b610b8e565b005b61025f600480360381019061025a9190611659565b610c7e565b005b34801561026d57600080fd5b5061028860048036038101906102839190611630565b610d51565b604051610298949392919061195d565b60405180910390f35b6102a9610dc5565b005b3480156102b757600080fd5b506102d260048036038101906102cd9190611630565b610e32565b6040516102df91906118b0565b60405180910390f35b3480156102f457600080fd5b5061030f600480360381019061030a9190611630565b610e55565b60405161031c919061190b565b60405180910390f35b34801561033157600080fd5b5061034c60048036038101906103479190611659565b610e75565b60405161035b9392919061182d565b60405180910390f35b34801561037057600080fd5b5061038b60048036038101906103869190611630565b610fbf565b604051610398919061190b565b60405180910390f35b6103bb60048036038101906103b691906115b8565b6110a1565b005b3480156103c957600080fd5b506103d261119f565b6040516103e193929190611926565b60405180910390f35b3480156103f657600080fd5b50610411600480360381019061040c9190611630565b6111c1565b60405161042093929190611864565b60405180910390f35b34801561043557600080fd5b5061043e6114a2565b60405161044e949392919061195d565b60405180910390f35b34801561046357600080fd5b5061047e60048036038101906104799190611630565b611517565b60405161048d93929190611926565b60405180910390f35b3480156104a257600080fd5b506104ab61156e565b6040516104b8919061190b565b60405180910390f35b80600160000160016101000a81548173ffffffffffffffffffffffffffffffffffffffff021916908373ffffffffffffffffffffffffffffffffffffffff16021790555050565b600080600460008481526020019081526020016000206000015414159050919050565b3373ffffffffffffffffffffffffffffffffffffffff16600160000160019054906101000a900473ffffffffffffffffffffffffffffffffffffffff1673ffffffffffffffffffffffffffffffffffffffff16146105be576040517f08c379a00000000000000000000000000000000000000000000000000000000081526004016105b5906118eb565b60405180910390fd5b80600460006006548152602001908152602001600020600201546105e29190611a25565b6004600060065481526020019081526020016000206002018190555080600460006006548152602001908152602001600020600301546106229190611a7b565b6004600060065481526020019081526020016000206003018190555050565b3373ffffffffffffffffffffffffffffffffffffffff16600160000160019054906101000a900473ffffffffffffffffffffffffffffffffffffffff1673ffffffffffffffffffffffffffffffffffffffff16146106d4576040517f08c379a00000000000000000000000000000000000000000000000000000000081526004016106cb906118eb565b60405180910390fd5b8160036000838152602001908152602001600020600101546106f69190611a25565b60036000838152602001908152602001600020600101819055505050565b3373ffffffffffffffffffffffffffffffffffffffff16600160000160019054906101000a900473ffffffffffffffffffffffffffffffffffffffff1673ffffffffffffffffffffffffffffffffffffffff16146107a7576040517f08c379a000000000000000000000000000000000000000000000000000000000815260040161079e906118eb565b60405180910390fd5b806003600084815260200190815260200160002060000160008282546107cd9190611a25565b925050819055505050565b3373ffffffffffffffffffffffffffffffffffffffff16600160000160019054906101000a900473ffffffffffffffffffffffffffffffffffffffff1673ffffffffffffffffffffffffffffffffffffffff161461086b576040517f08c379a0000000000000000000000000000000000000000000000000000000008152600401610862906118eb565b60405180910390fd5b6000604051806080016040528060066000815461088790611af7565b91905081905581526020016007548152602001600081526020016007548152509050806004600083600001518152602001908152602001600020600082015181600001556020820151816001015560408201518160020155606082015181600301559050506008600001600081548092919061090290611af7565b919050555050565b3373ffffffffffffffffffffffffffffffffffffffff16600160000160019054906101000a900473ffffffffffffffffffffffffffffffffffffffff1673ffffffffffffffffffffffffffffffffffffffff161461099d576040517f08c379a0000000000000000000000000000000000000000000000000000000008152600401610994906118eb565b60405180910390fd5b81600860010160008282546109b29190611a25565b92505081905550600060405180606001604052808573ffffffffffffffffffffffffffffffffffffffff1681526020018481526020018381525090506005600060046000600654815260200190815260200160002060000154815260200190815260200160002081908060018154018082558091505060019003906000526020600020906003020160009091909190915060008201518160000160006101000a81548173ffffffffffffffffffffffffffffffffffffffff021916908373ffffffffffffffffffffffffffffffffffffffff1602179055506020820151816001015560408201518160020155505050505050565b3373ffffffffffffffffffffffffffffffffffffffff16600160000160019054906101000a900473ffffffffffffffffffffffffffffffffffffffff1673ffffffffffffffffffffffffffffffffffffffff1614610b39576040517f08c379a0000000000000000000000000000000000000000000000000000000008152600401610b30906118eb565b60405180910390fd5b6040518060600160405280600081526020016000815260200160008152506003600083815260200190815260200160002060008201518160000155602082015181600101556040820151816002015590505050565b600160000160009054906101000a900460ff1615610be1576040517f08c379a0000000000000000000000000000000000000000000000000000000008152600401610bd8906118eb565b60405180910390fd5b60405180604001604052806001151581526020018273ffffffffffffffffffffffffffffffffffffffff16815250600160008201518160000160006101000a81548160ff02191690831515021790555060208201518160000160016101000a81548173ffffffffffffffffffffffffffffffffffffffff021916908373ffffffffffffffffffffffffffffffffffffffff16021790555090505050565b3373ffffffffffffffffffffffffffffffffffffffff16600160000160019054906101000a900473ffffffffffffffffffffffffffffffffffffffff1673ffffffffffffffffffffffffffffffffffffffff1614610d11576040517f08c379a0000000000000000000000000000000000000000000000000000000008152600401610d08906118eb565b60405180910390fd5b816003600083815260200190815260200160002060020154610d339190611a25565b60036000838152602001908152602001600020600201819055505050565b600080600080600060046000878152602001908152602001600020604051806080016040529081600082015481526020016001820154815260200160028201548152602001600382015481525050905080600001518160200151826040015183606001519450945094509450509193509193565b3073ffffffffffffffffffffffffffffffffffffffff16633c4dbb05336040518263ffffffff1660e01b8152600401610dfe9190611812565b600060405180830381600087803b158015610e1857600080fd5b505af1158015610e2c573d6000803e3d6000fd5b50505050565b600080600360008481526020019081526020016000206000015414159050919050565b600060046000838152602001908152602001600020600101549050919050565b60008060008060056000878152602001908152602001600020805480602002602001604051908101604052809291908181526020016000905b82821015610f4a57838290600052602060002090600302016040518060600160405290816000820160009054906101000a900473ffffffffffffffffffffffffffffffffffffffff1673ffffffffffffffffffffffffffffffffffffffff1673ffffffffffffffffffffffffffffffffffffffff1681526020016001820154815260200160028201548152505081526020019060010190610eae565b505050509050600081600187610f609190611a7b565b81518110610f97577f4e487b7100000000000000000000000000000000000000000000000000000000600052603260045260246000fd5b6020026020010151905080600001518160200151826040015194509450945050509250925092565b60008060056000848152602001908152602001600020805480602002602001604051908101604052809291908181526020016000905b8282101561109157838290600052602060002090600302016040518060600160405290816000820160009054906101000a900473ffffffffffffffffffffffffffffffffffffffff1673ffffffffffffffffffffffffffffffffffffffff1673ffffffffffffffffffffffffffffffffffffffff1681526020016001820154815260200160028201548152505081526020019060010190610ff5565b5050505090508051915050919050565b600260009054906101000a900473ffffffffffffffffffffffffffffffffffffffff1673ffffffffffffffffffffffffffffffffffffffff163373ffffffffffffffffffffffffffffffffffffffff1614611131576040517f08c379a0000000000000000000000000000000000000000000000000000000008152600401611128906118cb565b60405180910390fd5b3073ffffffffffffffffffffffffffffffffffffffff166302dc774d826040518263ffffffff1660e01b815260040161116a9190611812565b600060405180830381600087803b15801561118457600080fd5b505af1158015611198573d6000803e3d6000fd5b5050505050565b6000806000600860000154600860010154600860020154925092509250909192565b6060806060600060056000868152602001908152602001600020805480602002602001604051908101604052809291908181526020016000905b8282101561129757838290600052602060002090600302016040518060600160405290816000820160009054906101000a900473ffffffffffffffffffffffffffffffffffffffff1673ffffffffffffffffffffffffffffffffffffffff1673ffffffffffffffffffffffffffffffffffffffff16815260200160018201548152602001600282015481525050815260200190600101906111fb565b505050509050606080606060005b845181101561148d578481815181106112e7577f4e487b7100000000000000000000000000000000000000000000000000000000600052603260045260246000fd5b60200260200101516000015184828151811061132c577f4e487b7100000000000000000000000000000000000000000000000000000000600052603260045260246000fd5b602002602001019073ffffffffffffffffffffffffffffffffffffffff16908173ffffffffffffffffffffffffffffffffffffffff168152505084818151811061139f577f4e487b7100000000000000000000000000000000000000000000000000000000600052603260045260246000fd5b6020026020010151602001518382815181106113e4577f4e487b7100000000000000000000000000000000000000000000000000000000600052603260045260246000fd5b602002602001018181525050848181518110611429577f4e487b7100000000000000000000000000000000000000000000000000000000600052603260045260246000fd5b60200260200101516040015182828151811061146e577f4e487b7100000000000000000000000000000000000000000000000000000000600052603260045260246000fd5b602002602001018181525050808061148590611af7565b9150506112a5565b50828282965096509650505050509193909250565b60008060008060006004600060065481526020019081526020016000206040518060800160405290816000820154815260200160018201548152602001600282015481526020016003820154815250509050806000015181602001518260400151836060015194509450945094505090919293565b60008060006003600085815260200190815260200160002060000154600360008681526020019081526020016000206001015460036000878152602001908152602001600020600201549250925092509193909250565b600060046000600654815260200190815260200160002060030154905090565b60008135905061159d81611bc1565b92915050565b6000813590506115b281611bd8565b92915050565b6000602082840312156115ca57600080fd5b60006115d88482850161158e565b91505092915050565b6000806000606084860312156115f657600080fd5b60006116048682870161158e565b9350506020611615868287016115a3565b9250506040611626868287016115a3565b9150509250925092565b60006020828403121561164257600080fd5b6000611650848285016115a3565b91505092915050565b6000806040838503121561166c57600080fd5b600061167a858286016115a3565b925050602061168b858286016115a3565b9150509250929050565b60006116a183836116c5565b60208301905092915050565b60006116b983836117f4565b60208301905092915050565b6116ce81611aaf565b82525050565b6116dd81611aaf565b82525050565b60006116ee826119c2565b6116f881856119f2565b9350611703836119a2565b8060005b8381101561173457815161171b8882611695565b9750611726836119d8565b925050600181019050611707565b5085935050505092915050565b600061174c826119cd565b6117568185611a03565b9350611761836119b2565b8060005b8381101561179257815161177988826116ad565b9750611784836119e5565b925050600181019050611765565b5085935050505092915050565b6117a881611ac1565b82525050565b60006117bb600183611a14565b91506117c682611b6f565b602082019050919050565b60006117de600183611a14565b91506117e982611b98565b602082019050919050565b6117fd81611aed565b82525050565b61180c81611aed565b82525050565b600060208201905061182760008301846116d4565b92915050565b600060608201905061184260008301866116d4565b61184f6020830185611803565b61185c6040830184611803565b949350505050565b6000606082019050818103600083015261187e81866116e3565b905081810360208301526118928185611741565b905081810360408301526118a68184611741565b9050949350505050565b60006020820190506118c5600083018461179f565b92915050565b600060208201905081810360008301526118e4816117ae565b9050919050565b60006020820190508181036000830152611904816117d1565b9050919050565b60006020820190506119206000830184611803565b92915050565b600060608201905061193b6000830186611803565b6119486020830185611803565b6119556040830184611803565b949350505050565b60006080820190506119726000830187611803565b61197f6020830186611803565b61198c6040830185611803565b6119996060830184611803565b95945050505050565b6000819050602082019050919050565b6000819050602082019050919050565b600081519050919050565b600081519050919050565b6000602082019050919050565b6000602082019050919050565b600082825260208201905092915050565b600082825260208201905092915050565b600082825260208201905092915050565b6000611a3082611aed565b9150611a3b83611aed565b9250827fffffffffffffffffffffffffffffffffffffffffffffffffffffffffffffffff03821115611a7057611a6f611b40565b5b828201905092915050565b6000611a8682611aed565b9150611a9183611aed565b925082821015611aa457611aa3611b40565b5b828203905092915050565b6000611aba82611acd565b9050919050565b60008115159050919050565b600073ffffffffffffffffffffffffffffffffffffffff82169050919050565b6000819050919050565b6000611b0282611aed565b91507fffffffffffffffffffffffffffffffffffffffffffffffffffffffffffffffff821415611b3557611b34611b40565b5b600182019050919050565b7f4e487b7100000000000000000000000000000000000000000000000000000000600052601160045260246000fd5b7f3200000000000000000000000000000000000000000000000000000000000000600082015250565b7f3100000000000000000000000000000000000000000000000000000000000000600082015250565b611bca81611aaf565b8114611bd557600080fd5b50565b611be181611aed565b8114611bec57600080fd5b5056fea2646970667358221220f45bf4ca2ec78e0b8bcb8bb3f31539e6b5b9dd41e69da928c65f3527a8d21e3a64736f6c63430008040033",
  "linkReferences": {},
  "deployedLinkReferences": {}
}