{
  "_format": "hh-sol-artifact-1",
  "contractName": "PullStorage",
  "sourceName": "contracts/Repository/PullStorage.sol",
  "abi": [
    {
      "inputs": [
        {
          "internalType": "address",
          "name": "key",
          "type": "address"
        },
        {
          "internalType": "uint256",
          "name": "Sum",
          "type": "uint256"
        }
      ],
      "stateMutability": "nonpayable",
      "type": "constructor"
    },
    {
      "inputs": [
        {
          "internalType": "uint256",
          "name": "value",
          "type": "uint256"
        },
        {
          "internalType": "uint256",
          "name": "UserId",
          "type": "uint256"
        },
        {
          "internalType": "address",
          "name": "key",
          "type": "address"
        }
      ],
      "name": "AddMemberReferalRewards",
      "outputs": [],
      "stateMutability": "payable",
      "type": "function"
    },
    {
      "inputs": [
        {
          "internalType": "uint256",
          "name": "value",
          "type": "uint256"
        },
        {
          "internalType": "uint256",
          "name": "UserId",
          "type": "uint256"
        },
        {
          "internalType": "address",
          "name": "key",
          "type": "address"
        }
      ],
      "name": "AddMemberRewards",
      "outputs": [],
      "stateMutability": "payable",
      "type": "function"
    },
    {
      "inputs": [
        {
          "internalType": "address",
          "name": "key",
          "type": "address"
        }
      ],
      "name": "AddNewPull",
      "outputs": [],
      "stateMutability": "payable",
      "type": "function"
    },
    {
      "inputs": [],
      "name": "GetCurrentPull",
      "outputs": [
        {
          "internalType": "uint256",
          "name": "",
          "type": "uint256"
        },
        {
          "internalType": "uint256",
          "name": "",
          "type": "uint256"
        },
        {
          "internalType": "uint256",
          "name": "",
          "type": "uint256"
        },
        {
          "internalType": "uint256",
          "name": "",
          "type": "uint256"
        }
      ],
      "stateMutability": "view",
      "type": "function"
    },
    {
      "inputs": [],
      "name": "GetLastCurrentPullSum",
      "outputs": [
        {
          "internalType": "uint256",
          "name": "",
          "type": "uint256"
        }
      ],
      "stateMutability": "view",
      "type": "function"
    },
    {
      "inputs": [
        {
          "internalType": "uint256",
          "name": "id",
          "type": "uint256"
        }
      ],
      "name": "GetMember",
      "outputs": [
        {
          "internalType": "uint256",
          "name": "",
          "type": "uint256"
        },
        {
          "internalType": "uint256",
          "name": "",
          "type": "uint256"
        },
        {
          "internalType": "uint256",
          "name": "",
          "type": "uint256"
        }
      ],
      "stateMutability": "view",
      "type": "function"
    },
    {
      "inputs": [
        {
          "internalType": "uint256",
          "name": "pullId",
          "type": "uint256"
        }
      ],
      "name": "GetPullCrondFindingSum",
      "outputs": [
        {
          "internalType": "uint256",
          "name": "",
          "type": "uint256"
        }
      ],
      "stateMutability": "view",
      "type": "function"
    },
    {
      "inputs": [],
      "name": "GetStatistic",
      "outputs": [
        {
          "internalType": "uint256",
          "name": "",
          "type": "uint256"
        },
        {
          "internalType": "uint256",
          "name": "",
          "type": "uint256"
        },
        {
          "internalType": "uint256",
          "name": "",
          "type": "uint256"
        }
      ],
      "stateMutability": "view",
      "type": "function"
    },
    {
      "inputs": [
        {
          "internalType": "uint256",
          "name": "pullId",
          "type": "uint256"
        }
      ],
      "name": "GetTicketByPullId",
      "outputs": [
        {
          "internalType": "address[]",
          "name": "",
          "type": "address[]"
        },
        {
          "internalType": "uint256[]",
          "name": "",
          "type": "uint256[]"
        },
        {
          "internalType": "uint256[]",
          "name": "",
          "type": "uint256[]"
        }
      ],
      "stateMutability": "view",
      "type": "function"
    },
    {
      "inputs": [
        {
          "internalType": "uint256",
          "name": "pullId",
          "type": "uint256"
        }
      ],
      "name": "GetTicketCountOnPull",
      "outputs": [
        {
          "internalType": "uint256",
          "name": "",
          "type": "uint256"
        }
      ],
      "stateMutability": "view",
      "type": "function"
    },
    {
      "inputs": [
        {
          "internalType": "uint256",
          "name": "pullId",
          "type": "uint256"
        },
        {
          "internalType": "uint256",
          "name": "ticketNumber",
          "type": "uint256"
        }
      ],
      "name": "GetTicketInfo",
      "outputs": [
        {
          "internalType": "address",
          "name": "",
          "type": "address"
        },
        {
          "internalType": "uint256",
          "name": "",
          "type": "uint256"
        },
        {
          "internalType": "uint256",
          "name": "",
          "type": "uint256"
        }
      ],
      "stateMutability": "view",
      "type": "function"
    },
    {
      "inputs": [
        {
          "internalType": "uint256",
          "name": "id",
          "type": "uint256"
        }
      ],
      "name": "IsMemberExist",
      "outputs": [
        {
          "internalType": "bool",
          "name": "",
          "type": "bool"
        }
      ],
      "stateMutability": "view",
      "type": "function"
    },
    {
      "inputs": [
        {
          "internalType": "uint256",
          "name": "id",
          "type": "uint256"
        }
      ],
      "name": "IsPullExist",
      "outputs": [
        {
          "internalType": "bool",
          "name": "",
          "type": "bool"
        }
      ],
      "stateMutability": "view",
      "type": "function"
    },
    {
      "inputs": [
        {
          "internalType": "uint256",
          "name": "value",
          "type": "uint256"
        },
        {
          "internalType": "address",
          "name": "key",
          "type": "address"
        }
      ],
      "name": "SetCurrentPullValue",
      "outputs": [],
      "stateMutability": "payable",
      "type": "function"
    },
    {
      "inputs": [
        {
          "internalType": "uint256",
          "name": "UserId",
          "type": "uint256"
        },
        {
          "internalType": "address",
          "name": "key",
          "type": "address"
        }
      ],
      "name": "SetMember",
      "outputs": [],
      "stateMutability": "payable",
      "type": "function"
    },
    {
      "inputs": [
        {
          "internalType": "address",
          "name": "userAdr",
          "type": "address"
        },
        {
          "internalType": "uint256",
          "name": "value",
          "type": "uint256"
        },
        {
          "internalType": "uint256",
          "name": "userId",
          "type": "uint256"
        },
        {
          "internalType": "address",
          "name": "key",
          "type": "address"
        }
      ],
      "name": "SetTicket",
      "outputs": [],
      "stateMutability": "payable",
      "type": "function"
    }
  ],
  "bytecode": "0x608060405260016005553480156200001657600080fd5b5060405162001a0038038062001a0083398181016040528101906200003c9190620001eb565b60016000808473ffffffffffffffffffffffffffffffffffffffff1673ffffffffffffffffffffffffffffffffffffffff16815260200190815260200160002060006101000a81548160ff02191690831515021790555033600160006101000a81548173ffffffffffffffffffffffffffffffffffffffff021916908373ffffffffffffffffffffffffffffffffffffffff16021790555080600681905550604051806080016040528060056000815480929190620000fb906200026a565b9190505581526020016006548152602001600081526020016006548152506003600060055481526020019081526020016000206000820151816000015560208201518160010155604082015181600201556060820151816003015590505060036000600554815260200190815260200160002060076000820154816000015560018201548160010155600282015481600201556003820154816003015590505060056000815480929190620001b0906200026a565b919050555050506200031b565b600081519050620001ce81620002e7565b92915050565b600081519050620001e58162000301565b92915050565b60008060408385031215620001ff57600080fd5b60006200020f85828601620001bd565b92505060206200022285828601620001d4565b9150509250929050565b6000620002398262000240565b9050919050565b600073ffffffffffffffffffffffffffffffffffffffff82169050919050565b6000819050919050565b6000620002778262000260565b91507fffffffffffffffffffffffffffffffffffffffffffffffffffffffffffffffff821415620002ad57620002ac620002b8565b5b600182019050919050565b7f4e487b7100000000000000000000000000000000000000000000000000000000600052601160045260246000fd5b620002f2816200022c565b8114620002fe57600080fd5b50565b6200030c8162000260565b81146200031857600080fd5b50565b6116d5806200032b6000396000f3fe6080604052600436106100f35760003560e01c80639dde88c01161008a578063c7958cad11610059578063c7958cad14610302578063de2a6d5814610330578063ed6c4c881461036d578063f4a38ba3146103ac576100f3565b80639dde88c01461025e578063a149aaca1461027a578063a4b406f1146102a7578063bc879a91146102c3576100f3565b806366e8c5ef116100c657806366e8c5ef146101aa57806373c74e91146101e957806392c32a951461022657806392ec4b5a14610242576100f3565b806303b4525f146100f857806343b7063c14610135578063516d9662146101515780635bc8713a1461018e575b600080fd5b34801561010457600080fd5b5061011f600480360381019061011a91906110dc565b6103d7565b60405161012c91906113a9565b60405180910390f35b61014f600480360381019061014a919061117d565b6103fa565b005b34801561015d57600080fd5b50610178600480360381019061017391906110dc565b6104b7565b60405161018591906113a9565b60405180910390f35b6101a860048036038101906101a3919061117d565b6104da565b005b3480156101b657600080fd5b506101d160048036038101906101cc9190611141565b610597565b6040516101e093929190611326565b60405180910390f35b3480156101f557600080fd5b50610210600480360381019061020b91906110dc565b6106e1565b60405161021d91906113e4565b60405180910390f35b610240600480360381019061023b9190611050565b6107c3565b005b61025c60048036038101906102579190611105565b61091c565b005b61027860048036038101906102739190611105565b6109fd565b005b34801561028657600080fd5b5061028f610ac4565b60405161029e939291906113ff565b60405180910390f35b6102c160048036038101906102bc9190611079565b610ae6565b005b3480156102cf57600080fd5b506102ea60048036038101906102e591906110dc565b610c95565b6040516102f99392919061135d565b60405180910390f35b34801561030e57600080fd5b50610317610f76565b6040516103279493929190611436565b60405180910390f35b34801561033c57600080fd5b50610357600480360381019061035291906110dc565b610fa2565b60405161036491906113e4565b60405180910390f35b34801561037957600080fd5b50610394600480360381019061038f91906110dc565b610fc2565b6040516103a3939291906113ff565b60405180910390f35b3480156103b857600080fd5b506103c1611019565b6040516103ce91906113e4565b60405180910390f35b600080600360008481526020019081526020016000206000015414159050919050565b6000808273ffffffffffffffffffffffffffffffffffffffff1673ffffffffffffffffffffffffffffffffffffffff16815260200190815260200160002060009054906101000a900460ff16610485576040517f08c379a000000000000000000000000000000000000000000000000000000000815260040161047c906113c4565b60405180910390fd5b826002600084815260200190815260200160002060010160008282546104ab91906114fe565b92505081905550505050565b600080600260008481526020019081526020016000206000015414159050919050565b6000808273ffffffffffffffffffffffffffffffffffffffff1673ffffffffffffffffffffffffffffffffffffffff16815260200190815260200160002060009054906101000a900460ff16610565576040517f08c379a000000000000000000000000000000000000000000000000000000000815260040161055c906113c4565b60405180910390fd5b8260026000848152602001908152602001600020600201600082825461058b91906114fe565b92505081905550505050565b60008060008060046000878152602001908152602001600020805480602002602001604051908101604052809291908181526020016000905b8282101561066c57838290600052602060002090600302016040518060600160405290816000820160009054906101000a900473ffffffffffffffffffffffffffffffffffffffff1673ffffffffffffffffffffffffffffffffffffffff1673ffffffffffffffffffffffffffffffffffffffff16815260200160018201548152602001600282015481525050815260200190600101906105d0565b5050505090506000816001876106829190611554565b815181106106b9577f4e487b7100000000000000000000000000000000000000000000000000000000600052603260045260246000fd5b6020026020010151905080600001518160200151826040015194509450945050509250925092565b60008060046000848152602001908152602001600020805480602002602001604051908101604052809291908181526020016000905b828210156107b357838290600052602060002090600302016040518060600160405290816000820160009054906101000a900473ffffffffffffffffffffffffffffffffffffffff1673ffffffffffffffffffffffffffffffffffffffff1673ffffffffffffffffffffffffffffffffffffffff1681526020016001820154815260200160028201548152505081526020019060010190610717565b5050505090508051915050919050565b6000808273ffffffffffffffffffffffffffffffffffffffff1673ffffffffffffffffffffffffffffffffffffffff16815260200190815260200160002060009054906101000a900460ff1661084e576040517f08c379a0000000000000000000000000000000000000000000000000000000008152600401610845906113c4565b60405180910390fd5b600060405180608001604052806005600081548092919061086e906115d0565b9190505581526020016006548152602001600081526020016006548152509050806003600060055481526020019081526020016000206000820151816000015560208201518160010155604082015181600201556060820151816003015590505080600760008201518160000155602082015181600101556040820151816002015560608201518160030155905050600b6000016000815480929190610913906115d0565b91905055505050565b6000808273ffffffffffffffffffffffffffffffffffffffff1673ffffffffffffffffffffffffffffffffffffffff16815260200190815260200160002060009054906101000a900460ff166109a7576040517f08c379a000000000000000000000000000000000000000000000000000000000815260040161099e906113c4565b60405180910390fd5b604051806060016040528060008152602001600081526020016000815250600260008481526020019081526020016000206000820151816000015560208201518160010155604082015181600201559050505050565b6000808273ffffffffffffffffffffffffffffffffffffffff1673ffffffffffffffffffffffffffffffffffffffff16815260200190815260200160002060009054906101000a900460ff16610a88576040517f08c379a0000000000000000000000000000000000000000000000000000000008152600401610a7f906113c4565b60405180910390fd5b8160076002016000828254610a9d91906114fe565b925050819055508160076003016000828254610ab99190611554565b925050819055505050565b6000806000600b60000154600b60010154600b60020154925092509250909192565b6000808273ffffffffffffffffffffffffffffffffffffffff1673ffffffffffffffffffffffffffffffffffffffff16815260200190815260200160002060009054906101000a900460ff16610b71576040517f08c379a0000000000000000000000000000000000000000000000000000000008152600401610b68906113c4565b60405180910390fd5b82600b6001016000828254610b8691906114fe565b92505081905550600060405180606001604052808673ffffffffffffffffffffffffffffffffffffffff16815260200185815260200184815250905060046000600760000154815260200190815260200160002081908060018154018082558091505060019003906000526020600020906003020160009091909190915060008201518160000160006101000a81548173ffffffffffffffffffffffffffffffffffffffff021916908373ffffffffffffffffffffffffffffffffffffffff1602179055506020820151816001015560408201518160020155505083600260008581526020019081526020016000206000016000828254610c8791906114fe565b925050819055505050505050565b6060806060600060046000868152602001908152602001600020805480602002602001604051908101604052809291908181526020016000905b82821015610d6b57838290600052602060002090600302016040518060600160405290816000820160009054906101000a900473ffffffffffffffffffffffffffffffffffffffff1673ffffffffffffffffffffffffffffffffffffffff1673ffffffffffffffffffffffffffffffffffffffff1681526020016001820154815260200160028201548152505081526020019060010190610ccf565b505050509050606080606060005b8451811015610f6157848181518110610dbb577f4e487b7100000000000000000000000000000000000000000000000000000000600052603260045260246000fd5b602002602001015160000151848281518110610e00577f4e487b7100000000000000000000000000000000000000000000000000000000600052603260045260246000fd5b602002602001019073ffffffffffffffffffffffffffffffffffffffff16908173ffffffffffffffffffffffffffffffffffffffff1681525050848181518110610e73577f4e487b7100000000000000000000000000000000000000000000000000000000600052603260045260246000fd5b602002602001015160200151838281518110610eb8577f4e487b7100000000000000000000000000000000000000000000000000000000600052603260045260246000fd5b602002602001018181525050848181518110610efd577f4e487b7100000000000000000000000000000000000000000000000000000000600052603260045260246000fd5b602002602001015160400151828281518110610f42577f4e487b7100000000000000000000000000000000000000000000000000000000600052603260045260246000fd5b6020026020010181815250508080610f59906115d0565b915050610d79565b50828282965096509650505050509193909250565b600080600080600760000154600760010154600760020154600760030154935093509350935090919293565b600060036000838152602001908152602001600020600101549050919050565b60008060006002600085815260200190815260200160002060000154600260008681526020019081526020016000206001015460026000878152602001908152602001600020600201549250925092509193909250565b6000600760030154905090565b60008135905061103581611671565b92915050565b60008135905061104a81611688565b92915050565b60006020828403121561106257600080fd5b600061107084828501611026565b91505092915050565b6000806000806080858703121561108f57600080fd5b600061109d87828801611026565b94505060206110ae8782880161103b565b93505060406110bf8782880161103b565b92505060606110d087828801611026565b91505092959194509250565b6000602082840312156110ee57600080fd5b60006110fc8482850161103b565b91505092915050565b6000806040838503121561111857600080fd5b60006111268582860161103b565b925050602061113785828601611026565b9150509250929050565b6000806040838503121561115457600080fd5b60006111628582860161103b565b92505060206111738582860161103b565b9150509250929050565b60008060006060848603121561119257600080fd5b60006111a08682870161103b565b93505060206111b18682870161103b565b92505060406111c286828701611026565b9150509250925092565b60006111d883836111fc565b60208301905092915050565b60006111f08383611308565b60208301905092915050565b61120581611588565b82525050565b61121481611588565b82525050565b60006112258261149b565b61122f81856114cb565b935061123a8361147b565b8060005b8381101561126b57815161125288826111cc565b975061125d836114b1565b92505060018101905061123e565b5085935050505092915050565b6000611283826114a6565b61128d81856114dc565b93506112988361148b565b8060005b838110156112c95781516112b088826111e4565b97506112bb836114be565b92505060018101905061129c565b5085935050505092915050565b6112df8161159a565b82525050565b60006112f26001836114ed565b91506112fd82611648565b602082019050919050565b611311816115c6565b82525050565b611320816115c6565b82525050565b600060608201905061133b600083018661120b565b6113486020830185611317565b6113556040830184611317565b949350505050565b60006060820190508181036000830152611377818661121a565b9050818103602083015261138b8185611278565b9050818103604083015261139f8184611278565b9050949350505050565b60006020820190506113be60008301846112d6565b92915050565b600060208201905081810360008301526113dd816112e5565b9050919050565b60006020820190506113f96000830184611317565b92915050565b60006060820190506114146000830186611317565b6114216020830185611317565b61142e6040830184611317565b949350505050565b600060808201905061144b6000830187611317565b6114586020830186611317565b6114656040830185611317565b6114726060830184611317565b95945050505050565b6000819050602082019050919050565b6000819050602082019050919050565b600081519050919050565b600081519050919050565b6000602082019050919050565b6000602082019050919050565b600082825260208201905092915050565b600082825260208201905092915050565b600082825260208201905092915050565b6000611509826115c6565b9150611514836115c6565b9250827fffffffffffffffffffffffffffffffffffffffffffffffffffffffffffffffff0382111561154957611548611619565b5b828201905092915050565b600061155f826115c6565b915061156a836115c6565b92508282101561157d5761157c611619565b5b828203905092915050565b6000611593826115a6565b9050919050565b60008115159050919050565b600073ffffffffffffffffffffffffffffffffffffffff82169050919050565b6000819050919050565b60006115db826115c6565b91507fffffffffffffffffffffffffffffffffffffffffffffffffffffffffffffffff82141561160e5761160d611619565b5b600182019050919050565b7f4e487b7100000000000000000000000000000000000000000000000000000000600052601160045260246000fd5b7f3100000000000000000000000000000000000000000000000000000000000000600082015250565b61167a81611588565b811461168557600080fd5b50565b611691816115c6565b811461169c57600080fd5b5056fea26469706673582212200f14936f8a5d794f97ac3855944253e3e3a7978e4d4d39ee883699b917aac12e64736f6c63430008040033",
  "linkReferences": {},
  "deployedLinkReferences": {}
}