{
  "_format": "hh-sol-artifact-1",
  "contractName": "PullStorage",
  "sourceName": "contracts/Repository/PullStorage.sol",
  "abi": [
    {
      "inputs": [
        {
          "internalType": "uint256",
          "name": "Sum",
          "type": "uint256"
        }
      ],
      "stateMutability": "nonpayable",
      "type": "constructor"
    },
    {
      "inputs": [
        {
          "internalType": "uint256",
          "name": "userId",
          "type": "uint256"
        },
        {
          "internalType": "uint256",
          "name": "value",
          "type": "uint256"
        }
      ],
      "name": "AddMemberDeposite",
      "outputs": [],
      "stateMutability": "payable",
      "type": "function"
    },
    {
      "inputs": [
        {
          "internalType": "uint256",
          "name": "value",
          "type": "uint256"
        },
        {
          "internalType": "uint256",
          "name": "UserId",
          "type": "uint256"
        }
      ],
      "name": "AddMemberReferalRewards",
      "outputs": [],
      "stateMutability": "payable",
      "type": "function"
    },
    {
      "inputs": [
        {
          "internalType": "uint256",
          "name": "value",
          "type": "uint256"
        },
        {
          "internalType": "uint256",
          "name": "UserId",
          "type": "uint256"
        }
      ],
      "name": "AddMemberRewards",
      "outputs": [],
      "stateMutability": "payable",
      "type": "function"
    },
    {
      "inputs": [],
      "name": "AddNewPull",
      "outputs": [],
      "stateMutability": "payable",
      "type": "function"
    },
    {
      "inputs": [
        {
          "internalType": "uint256",
          "name": "userId",
          "type": "uint256"
        },
        {
          "internalType": "uint256",
          "name": "value",
          "type": "uint256"
        }
      ],
      "name": "AddToTicket",
      "outputs": [],
      "stateMutability": "payable",
      "type": "function"
    },
    {
      "inputs": [
        {
          "internalType": "address",
          "name": "newAddress",
          "type": "address"
        }
      ],
      "name": "Change",
      "outputs": [],
      "stateMutability": "payable",
      "type": "function"
    },
    {
      "inputs": [
        {
          "internalType": "address",
          "name": "newKey",
          "type": "address"
        }
      ],
      "name": "ChangeKey",
      "outputs": [],
      "stateMutability": "payable",
      "type": "function"
    },
    {
      "inputs": [],
      "name": "GetCurrentPull",
      "outputs": [
        {
          "internalType": "uint256",
          "name": "",
          "type": "uint256"
        },
        {
          "internalType": "uint256",
          "name": "",
          "type": "uint256"
        },
        {
          "internalType": "uint256",
          "name": "",
          "type": "uint256"
        },
        {
          "internalType": "uint256",
          "name": "",
          "type": "uint256"
        }
      ],
      "stateMutability": "view",
      "type": "function"
    },
    {
      "inputs": [],
      "name": "GetLastCurrentPullSum",
      "outputs": [
        {
          "internalType": "uint256",
          "name": "",
          "type": "uint256"
        }
      ],
      "stateMutability": "view",
      "type": "function"
    },
    {
      "inputs": [
        {
          "internalType": "uint256",
          "name": "id",
          "type": "uint256"
        }
      ],
      "name": "GetMember",
      "outputs": [
        {
          "internalType": "uint256",
          "name": "",
          "type": "uint256"
        },
        {
          "internalType": "uint256",
          "name": "",
          "type": "uint256"
        },
        {
          "internalType": "uint256",
          "name": "",
          "type": "uint256"
        }
      ],
      "stateMutability": "view",
      "type": "function"
    },
    {
      "inputs": [
        {
          "internalType": "uint256",
          "name": "pullId",
          "type": "uint256"
        }
      ],
      "name": "GetPull",
      "outputs": [
        {
          "internalType": "uint256",
          "name": "",
          "type": "uint256"
        },
        {
          "internalType": "uint256",
          "name": "",
          "type": "uint256"
        },
        {
          "internalType": "uint256",
          "name": "",
          "type": "uint256"
        },
        {
          "internalType": "uint256",
          "name": "",
          "type": "uint256"
        }
      ],
      "stateMutability": "view",
      "type": "function"
    },
    {
      "inputs": [
        {
          "internalType": "uint256",
          "name": "pullId",
          "type": "uint256"
        }
      ],
      "name": "GetPullCollectedSum",
      "outputs": [
        {
          "internalType": "uint256",
          "name": "",
          "type": "uint256"
        }
      ],
      "stateMutability": "view",
      "type": "function"
    },
    {
      "inputs": [],
      "name": "GetPullsCount",
      "outputs": [
        {
          "internalType": "uint256",
          "name": "",
          "type": "uint256"
        }
      ],
      "stateMutability": "view",
      "type": "function"
    },
    {
      "inputs": [],
      "name": "GetStatistic",
      "outputs": [
        {
          "internalType": "uint256",
          "name": "",
          "type": "uint256"
        },
        {
          "internalType": "uint256",
          "name": "",
          "type": "uint256"
        },
        {
          "internalType": "uint256",
          "name": "",
          "type": "uint256"
        }
      ],
      "stateMutability": "view",
      "type": "function"
    },
    {
      "inputs": [
        {
          "internalType": "uint256",
          "name": "pullId",
          "type": "uint256"
        }
      ],
      "name": "GetTicketByPullId",
      "outputs": [
        {
          "internalType": "address[]",
          "name": "",
          "type": "address[]"
        },
        {
          "internalType": "uint256[]",
          "name": "",
          "type": "uint256[]"
        },
        {
          "internalType": "uint256[]",
          "name": "",
          "type": "uint256[]"
        }
      ],
      "stateMutability": "view",
      "type": "function"
    },
    {
      "inputs": [
        {
          "internalType": "uint256",
          "name": "pullId",
          "type": "uint256"
        }
      ],
      "name": "GetTicketCountOnPull",
      "outputs": [
        {
          "internalType": "uint256",
          "name": "",
          "type": "uint256"
        }
      ],
      "stateMutability": "view",
      "type": "function"
    },
    {
      "inputs": [
        {
          "internalType": "uint256",
          "name": "pullId",
          "type": "uint256"
        },
        {
          "internalType": "uint256",
          "name": "ticketNumber",
          "type": "uint256"
        }
      ],
      "name": "GetTicketInfo",
      "outputs": [
        {
          "internalType": "address",
          "name": "",
          "type": "address"
        },
        {
          "internalType": "uint256",
          "name": "",
          "type": "uint256"
        },
        {
          "internalType": "uint256",
          "name": "",
          "type": "uint256"
        }
      ],
      "stateMutability": "view",
      "type": "function"
    },
    {
      "inputs": [
        {
          "internalType": "uint256",
          "name": "id",
          "type": "uint256"
        }
      ],
      "name": "IsMemberExist",
      "outputs": [
        {
          "internalType": "bool",
          "name": "",
          "type": "bool"
        }
      ],
      "stateMutability": "view",
      "type": "function"
    },
    {
      "inputs": [
        {
          "internalType": "uint256",
          "name": "id",
          "type": "uint256"
        }
      ],
      "name": "IsPullExist",
      "outputs": [
        {
          "internalType": "bool",
          "name": "",
          "type": "bool"
        }
      ],
      "stateMutability": "view",
      "type": "function"
    },
    {
      "inputs": [
        {
          "internalType": "address",
          "name": "_addressKey",
          "type": "address"
        }
      ],
      "name": "Set",
      "outputs": [],
      "stateMutability": "payable",
      "type": "function"
    },
    {
      "inputs": [
        {
          "internalType": "uint256",
          "name": "value",
          "type": "uint256"
        }
      ],
      "name": "SetCurrentPullValue",
      "outputs": [],
      "stateMutability": "payable",
      "type": "function"
    },
    {
      "inputs": [],
      "name": "SetKey",
      "outputs": [],
      "stateMutability": "payable",
      "type": "function"
    },
    {
      "inputs": [
        {
          "internalType": "uint256",
          "name": "UserId",
          "type": "uint256"
        }
      ],
      "name": "SetMember",
      "outputs": [],
      "stateMutability": "payable",
      "type": "function"
    },
    {
      "inputs": [
        {
          "internalType": "address",
          "name": "userAdr",
          "type": "address"
        },
        {
          "internalType": "uint256",
          "name": "value",
          "type": "uint256"
        },
        {
          "internalType": "uint256",
          "name": "userId",
          "type": "uint256"
        }
      ],
      "name": "SetTicket",
      "outputs": [],
      "stateMutability": "payable",
      "type": "function"
    },
    {
      "inputs": [
        {
          "internalType": "uint256",
          "name": "userId",
          "type": "uint256"
        },
        {
          "internalType": "uint256",
          "name": "pullId",
          "type": "uint256"
        }
      ],
      "name": "TicketExistOnPull",
      "outputs": [
        {
          "internalType": "bool",
          "name": "",
          "type": "bool"
        }
      ],
      "stateMutability": "view",
      "type": "function"
    }
  ],
  "bytecode": "0x608060405260016006553480156200001657600080fd5b50604051620022c1380380620022c183398181016040528101906200003c9190620001ed565b336000806101000a81548173ffffffffffffffffffffffffffffffffffffffff021916908373ffffffffffffffffffffffffffffffffffffffff1602179055506040518060400160405280600015158152602001600073ffffffffffffffffffffffffffffffffffffffff16815250600160008201518160000160006101000a81548160ff02191690831515021790555060208201518160000160016101000a81548173ffffffffffffffffffffffffffffffffffffffff021916908373ffffffffffffffffffffffffffffffffffffffff16021790555090505033600260006101000a81548173ffffffffffffffffffffffffffffffffffffffff021916908373ffffffffffffffffffffffffffffffffffffffff1602179055508060078190555060006040518060800160405280600654815260200160075481526020016000815260200160075481525090508060046000836000015181526020019081526020016000206000820151816000015560208201518160010155604082015181600201556060820151816003015590505050506200023d565b600081519050620001e78162000223565b92915050565b6000602082840312156200020057600080fd5b60006200021084828501620001d6565b91505092915050565b6000819050919050565b6200022e8162000219565b81146200023a57600080fd5b50565b612074806200024d6000396000f3fe6080604052600436106101665760003560e01c8063516d9662116100d15780638a1422fc1161008a578063c7958cad11610064578063c7958cad146104c2578063e5b244a6146104f0578063ed6c4c881461050c578063f4a38ba31461054b57610166565b80638a1422fc1461043a578063a149aaca14610456578063bc879a911461048357610166565b8063516d9662146102dc5780635afd0440146103195780636045f20a1461035657806366e8c5ef1461039357806373c74e91146103d257806379c6fc291461040f57610166565b80632d1c2021116101235780632d1c2021146102225780632ea586501461023e5780633c4dbb051461025a5780633f2a65f51461027657806341cb19361461029257806341e6f724146102d257610166565b806302dc774d1461016b57806303b4525f146101875780631252b48e146101c4578063190a853b146101e05780631b5c78ee146101fc57806322a07ec214610218575b600080fd5b61018560048036038101906101809190611a07565b610576565b005b34801561019357600080fd5b506101ae60048036038101906101a99190611a7f565b6105bd565b6040516101bb9190611cff565b60405180910390f35b6101de60048036038101906101d99190611a7f565b6105e0565b005b6101fa60048036038101906101f59190611aa8565b6106f6565b005b61021660048036038101906102119190611aa8565b6107ba565b005b61022061087e565b005b61023c60048036038101906102379190611a30565b6109b0565b005b61025860048036038101906102539190611a7f565b610b4c565b005b610274600480360381019061026f9190611a07565b610c34565b005b610290600480360381019061028b9190611aa8565b610d24565b005b34801561029e57600080fd5b506102b960048036038101906102b49190611a7f565b610de8565b6040516102c99493929190611dac565b60405180910390f35b6102da610e5c565b005b3480156102e857600080fd5b5061030360048036038101906102fe9190611a7f565b610ec9565b6040516103109190611cff565b60405180910390f35b34801561032557600080fd5b50610340600480360381019061033b9190611aa8565b610eec565b60405161034d9190611cff565b60405180910390f35b34801561036257600080fd5b5061037d60048036038101906103789190611a7f565b611047565b60405161038a9190611d5a565b60405180910390f35b34801561039f57600080fd5b506103ba60048036038101906103b59190611aa8565b611067565b6040516103c993929190611c7c565b60405180910390f35b3480156103de57600080fd5b506103f960048036038101906103f49190611a7f565b6111b1565b6040516104069190611d5a565b60405180910390f35b34801561041b57600080fd5b50610424611293565b6040516104319190611d5a565b60405180910390f35b610454600480360381019061044f9190611a07565b61129d565b005b34801561046257600080fd5b5061046b61139b565b60405161047a93929190611d75565b60405180910390f35b34801561048f57600080fd5b506104aa60048036038101906104a59190611a7f565b6113bd565b6040516104b993929190611cb3565b60405180910390f35b3480156104ce57600080fd5b506104d761169e565b6040516104e79493929190611dac565b60405180910390f35b61050a60048036038101906105059190611aa8565b611713565b005b34801561051857600080fd5b50610533600480360381019061052e9190611a7f565b611966565b60405161054293929190611d75565b60405180910390f35b34801561055757600080fd5b506105606119bd565b60405161056d9190611d5a565b60405180910390f35b80600160000160016101000a81548173ffffffffffffffffffffffffffffffffffffffff021916908373ffffffffffffffffffffffffffffffffffffffff16021790555050565b600080600460008481526020019081526020016000206000015414159050919050565b3373ffffffffffffffffffffffffffffffffffffffff16600160000160019054906101000a900473ffffffffffffffffffffffffffffffffffffffff1673ffffffffffffffffffffffffffffffffffffffff1614610673576040517f08c379a000000000000000000000000000000000000000000000000000000000815260040161066a90611d3a565b60405180910390fd5b80600460006006548152602001908152602001600020600201546106979190611e74565b6004600060065481526020019081526020016000206002018190555080600460006006548152602001908152602001600020600301546106d79190611eca565b6004600060065481526020019081526020016000206003018190555050565b3373ffffffffffffffffffffffffffffffffffffffff16600160000160019054906101000a900473ffffffffffffffffffffffffffffffffffffffff1673ffffffffffffffffffffffffffffffffffffffff1614610789576040517f08c379a000000000000000000000000000000000000000000000000000000000815260040161078090611d3a565b60405180910390fd5b816003600083815260200190815260200160002060010160008282546107af9190611e74565b925050819055505050565b3373ffffffffffffffffffffffffffffffffffffffff16600160000160019054906101000a900473ffffffffffffffffffffffffffffffffffffffff1673ffffffffffffffffffffffffffffffffffffffff161461084d576040517f08c379a000000000000000000000000000000000000000000000000000000000815260040161084490611d3a565b60405180910390fd5b806003600084815260200190815260200160002060000160008282546108739190611e74565b925050819055505050565b3373ffffffffffffffffffffffffffffffffffffffff16600160000160019054906101000a900473ffffffffffffffffffffffffffffffffffffffff1673ffffffffffffffffffffffffffffffffffffffff1614610911576040517f08c379a000000000000000000000000000000000000000000000000000000000815260040161090890611d3a565b60405180910390fd5b6000604051806080016040528060066000815461092d90611f46565b9190508190558152602001600754815260200160008152602001600754815250905080600460008360000151815260200190815260200160002060008201518160000155602082015181600101556040820151816002015560608201518160030155905050600860000160008154809291906109a890611f46565b919050555050565b3373ffffffffffffffffffffffffffffffffffffffff16600160000160019054906101000a900473ffffffffffffffffffffffffffffffffffffffff1673ffffffffffffffffffffffffffffffffffffffff1614610a43576040517f08c379a0000000000000000000000000000000000000000000000000000000008152600401610a3a90611d3a565b60405180910390fd5b8160086001016000828254610a589190611e74565b92505081905550600060405180606001604052808573ffffffffffffffffffffffffffffffffffffffff1681526020018481526020018381525090506005600060046000600654815260200190815260200160002060000154815260200190815260200160002081908060018154018082558091505060019003906000526020600020906003020160009091909190915060008201518160000160006101000a81548173ffffffffffffffffffffffffffffffffffffffff021916908373ffffffffffffffffffffffffffffffffffffffff1602179055506020820151816001015560408201518160020155505050505050565b3373ffffffffffffffffffffffffffffffffffffffff16600160000160019054906101000a900473ffffffffffffffffffffffffffffffffffffffff1673ffffffffffffffffffffffffffffffffffffffff1614610bdf576040517f08c379a0000000000000000000000000000000000000000000000000000000008152600401610bd690611d3a565b60405180910390fd5b6040518060600160405280600081526020016000815260200160008152506003600083815260200190815260200160002060008201518160000155602082015181600101556040820151816002015590505050565b600160000160009054906101000a900460ff1615610c87576040517f08c379a0000000000000000000000000000000000000000000000000000000008152600401610c7e90611d3a565b60405180910390fd5b60405180604001604052806001151581526020018273ffffffffffffffffffffffffffffffffffffffff16815250600160008201518160000160006101000a81548160ff02191690831515021790555060208201518160000160016101000a81548173ffffffffffffffffffffffffffffffffffffffff021916908373ffffffffffffffffffffffffffffffffffffffff16021790555090505050565b3373ffffffffffffffffffffffffffffffffffffffff16600160000160019054906101000a900473ffffffffffffffffffffffffffffffffffffffff1673ffffffffffffffffffffffffffffffffffffffff1614610db7576040517f08c379a0000000000000000000000000000000000000000000000000000000008152600401610dae90611d3a565b60405180910390fd5b81600360008381526020019081526020016000206002016000828254610ddd9190611e74565b925050819055505050565b600080600080600060046000878152602001908152602001600020604051806080016040529081600082015481526020016001820154815260200160028201548152602001600382015481525050905080600001518160200151826040015183606001519450945094509450509193509193565b3073ffffffffffffffffffffffffffffffffffffffff16633c4dbb05336040518263ffffffff1660e01b8152600401610e959190611c61565b600060405180830381600087803b158015610eaf57600080fd5b505af1158015610ec3573d6000803e3d6000fd5b50505050565b600080600360008481526020019081526020016000206000015414159050919050565b60008060056000848152602001908152602001600020805480602002602001604051908101604052809291908181526020016000905b82821015610fbe57838290600052602060002090600302016040518060600160405290816000820160009054906101000a900473ffffffffffffffffffffffffffffffffffffffff1673ffffffffffffffffffffffffffffffffffffffff1673ffffffffffffffffffffffffffffffffffffffff1681526020016001820154815260200160028201548152505081526020019060010190610f22565b50505050905060005b815181101561103a578482828151811061100a577f4e487b7100000000000000000000000000000000000000000000000000000000600052603260045260246000fd5b602002602001015160400151141561102757600192505050611041565b808061103290611f46565b915050610fc7565b5060009150505b92915050565b600060046000838152602001908152602001600020600101549050919050565b60008060008060056000878152602001908152602001600020805480602002602001604051908101604052809291908181526020016000905b8282101561113c57838290600052602060002090600302016040518060600160405290816000820160009054906101000a900473ffffffffffffffffffffffffffffffffffffffff1673ffffffffffffffffffffffffffffffffffffffff1673ffffffffffffffffffffffffffffffffffffffff16815260200160018201548152602001600282015481525050815260200190600101906110a0565b5050505090506000816001876111529190611eca565b81518110611189577f4e487b7100000000000000000000000000000000000000000000000000000000600052603260045260246000fd5b6020026020010151905080600001518160200151826040015194509450945050509250925092565b60008060056000848152602001908152602001600020805480602002602001604051908101604052809291908181526020016000905b8282101561128357838290600052602060002090600302016040518060600160405290816000820160009054906101000a900473ffffffffffffffffffffffffffffffffffffffff1673ffffffffffffffffffffffffffffffffffffffff1673ffffffffffffffffffffffffffffffffffffffff16815260200160018201548152602001600282015481525050815260200190600101906111e7565b5050505090508051915050919050565b6000600654905090565b600260009054906101000a900473ffffffffffffffffffffffffffffffffffffffff1673ffffffffffffffffffffffffffffffffffffffff163373ffffffffffffffffffffffffffffffffffffffff161461132d576040517f08c379a000000000000000000000000000000000000000000000000000000000815260040161132490611d1a565b60405180910390fd5b3073ffffffffffffffffffffffffffffffffffffffff166302dc774d826040518263ffffffff1660e01b81526004016113669190611c61565b600060405180830381600087803b15801561138057600080fd5b505af1158015611394573d6000803e3d6000fd5b5050505050565b6000806000600860000154600860010154600860020154925092509250909192565b6060806060600060056000868152602001908152602001600020805480602002602001604051908101604052809291908181526020016000905b8282101561149357838290600052602060002090600302016040518060600160405290816000820160009054906101000a900473ffffffffffffffffffffffffffffffffffffffff1673ffffffffffffffffffffffffffffffffffffffff1673ffffffffffffffffffffffffffffffffffffffff16815260200160018201548152602001600282015481525050815260200190600101906113f7565b505050509050606080606060005b8451811015611689578481815181106114e3577f4e487b7100000000000000000000000000000000000000000000000000000000600052603260045260246000fd5b602002602001015160000151848281518110611528577f4e487b7100000000000000000000000000000000000000000000000000000000600052603260045260246000fd5b602002602001019073ffffffffffffffffffffffffffffffffffffffff16908173ffffffffffffffffffffffffffffffffffffffff168152505084818151811061159b577f4e487b7100000000000000000000000000000000000000000000000000000000600052603260045260246000fd5b6020026020010151602001518382815181106115e0577f4e487b7100000000000000000000000000000000000000000000000000000000600052603260045260246000fd5b602002602001018181525050848181518110611625577f4e487b7100000000000000000000000000000000000000000000000000000000600052603260045260246000fd5b60200260200101516040015182828151811061166a577f4e487b7100000000000000000000000000000000000000000000000000000000600052603260045260246000fd5b602002602001018181525050808061168190611f46565b9150506114a1565b50828282965096509650505050509193909250565b60008060008060006004600060065481526020019081526020016000206040518060800160405290816000820154815260200160018201548152602001600282015481526020016003820154815250509050806000015181602001518260400151836060015194509450945094505090919293565b3373ffffffffffffffffffffffffffffffffffffffff16600160000160019054906101000a900473ffffffffffffffffffffffffffffffffffffffff1673ffffffffffffffffffffffffffffffffffffffff16146117a6576040517f08c379a000000000000000000000000000000000000000000000000000000000815260040161179d90611d3a565b60405180910390fd5b6000600560006006548152602001908152602001600020805480602002602001604051908101604052809291908181526020016000905b8282101561187957838290600052602060002090600302016040518060600160405290816000820160009054906101000a900473ffffffffffffffffffffffffffffffffffffffff1673ffffffffffffffffffffffffffffffffffffffff1673ffffffffffffffffffffffffffffffffffffffff16815260200160018201548152602001600282015481525050815260200190600101906117dd565b50505050905060005b815181101561196057838282815181106118c5577f4e487b7100000000000000000000000000000000000000000000000000000000600052603260045260246000fd5b602002602001015160400151141561194d57826005600060065481526020019081526020016000208281548110611925577f4e487b7100000000000000000000000000000000000000000000000000000000600052603260045260246000fd5b906000526020600020906003020160010160008282546119459190611e74565b925050819055505b808061195890611f46565b915050611882565b50505050565b60008060006003600085815260200190815260200160002060000154600360008681526020019081526020016000206001015460036000878152602001908152602001600020600201549250925092509193909250565b600060046000600654815260200190815260200160002060030154905090565b6000813590506119ec81612010565b92915050565b600081359050611a0181612027565b92915050565b600060208284031215611a1957600080fd5b6000611a27848285016119dd565b91505092915050565b600080600060608486031215611a4557600080fd5b6000611a53868287016119dd565b9350506020611a64868287016119f2565b9250506040611a75868287016119f2565b9150509250925092565b600060208284031215611a9157600080fd5b6000611a9f848285016119f2565b91505092915050565b60008060408385031215611abb57600080fd5b6000611ac9858286016119f2565b9250506020611ada858286016119f2565b9150509250929050565b6000611af08383611b14565b60208301905092915050565b6000611b088383611c43565b60208301905092915050565b611b1d81611efe565b82525050565b611b2c81611efe565b82525050565b6000611b3d82611e11565b611b478185611e41565b9350611b5283611df1565b8060005b83811015611b83578151611b6a8882611ae4565b9750611b7583611e27565b925050600181019050611b56565b5085935050505092915050565b6000611b9b82611e1c565b611ba58185611e52565b9350611bb083611e01565b8060005b83811015611be1578151611bc88882611afc565b9750611bd383611e34565b925050600181019050611bb4565b5085935050505092915050565b611bf781611f10565b82525050565b6000611c0a600183611e63565b9150611c1582611fbe565b602082019050919050565b6000611c2d600183611e63565b9150611c3882611fe7565b602082019050919050565b611c4c81611f3c565b82525050565b611c5b81611f3c565b82525050565b6000602082019050611c766000830184611b23565b92915050565b6000606082019050611c916000830186611b23565b611c9e6020830185611c52565b611cab6040830184611c52565b949350505050565b60006060820190508181036000830152611ccd8186611b32565b90508181036020830152611ce18185611b90565b90508181036040830152611cf58184611b90565b9050949350505050565b6000602082019050611d146000830184611bee565b92915050565b60006020820190508181036000830152611d3381611bfd565b9050919050565b60006020820190508181036000830152611d5381611c20565b9050919050565b6000602082019050611d6f6000830184611c52565b92915050565b6000606082019050611d8a6000830186611c52565b611d976020830185611c52565b611da46040830184611c52565b949350505050565b6000608082019050611dc16000830187611c52565b611dce6020830186611c52565b611ddb6040830185611c52565b611de86060830184611c52565b95945050505050565b6000819050602082019050919050565b6000819050602082019050919050565b600081519050919050565b600081519050919050565b6000602082019050919050565b6000602082019050919050565b600082825260208201905092915050565b600082825260208201905092915050565b600082825260208201905092915050565b6000611e7f82611f3c565b9150611e8a83611f3c565b9250827fffffffffffffffffffffffffffffffffffffffffffffffffffffffffffffffff03821115611ebf57611ebe611f8f565b5b828201905092915050565b6000611ed582611f3c565b9150611ee083611f3c565b925082821015611ef357611ef2611f8f565b5b828203905092915050565b6000611f0982611f1c565b9050919050565b60008115159050919050565b600073ffffffffffffffffffffffffffffffffffffffff82169050919050565b6000819050919050565b6000611f5182611f3c565b91507fffffffffffffffffffffffffffffffffffffffffffffffffffffffffffffffff821415611f8457611f83611f8f565b5b600182019050919050565b7f4e487b7100000000000000000000000000000000000000000000000000000000600052601160045260246000fd5b7f3200000000000000000000000000000000000000000000000000000000000000600082015250565b7f3100000000000000000000000000000000000000000000000000000000000000600082015250565b61201981611efe565b811461202457600080fd5b50565b61203081611f3c565b811461203b57600080fd5b5056fea2646970667358221220c3615edeb2f76337c3ac70b705e6f4c7f459859772a3d320448cf9123735452b64736f6c63430008040033",
  "linkReferences": {},
  "deployedLinkReferences": {}
}