{
  "_format": "hh-sol-artifact-1",
  "contractName": "PullStorage",
  "sourceName": "contracts/Repository/PullStorage.sol",
  "abi": [
    {
      "inputs": [
        {
          "internalType": "uint256",
          "name": "sum",
          "type": "uint256"
        }
      ],
      "stateMutability": "nonpayable",
      "type": "constructor"
    },
    {
      "inputs": [
        {
          "internalType": "uint256",
          "name": "value",
          "type": "uint256"
        },
        {
          "internalType": "uint256",
          "name": "UserId",
          "type": "uint256"
        }
      ],
      "name": "AddMemberReferalRewards",
      "outputs": [],
      "stateMutability": "payable",
      "type": "function"
    },
    {
      "inputs": [
        {
          "internalType": "uint256",
          "name": "value",
          "type": "uint256"
        },
        {
          "internalType": "uint256",
          "name": "UserId",
          "type": "uint256"
        }
      ],
      "name": "AddMemberRewards",
      "outputs": [],
      "stateMutability": "payable",
      "type": "function"
    },
    {
      "inputs": [],
      "name": "AddNewPull",
      "outputs": [],
      "stateMutability": "payable",
      "type": "function"
    },
    {
      "inputs": [
        {
          "internalType": "uint256",
          "name": "userId",
          "type": "uint256"
        },
        {
          "internalType": "uint256",
          "name": "value",
          "type": "uint256"
        }
      ],
      "name": "AddToTicket",
      "outputs": [],
      "stateMutability": "payable",
      "type": "function"
    },
    {
      "inputs": [
        {
          "internalType": "address",
          "name": "newAddress",
          "type": "address"
        }
      ],
      "name": "Change",
      "outputs": [],
      "stateMutability": "payable",
      "type": "function"
    },
    {
      "inputs": [
        {
          "internalType": "address",
          "name": "newKey",
          "type": "address"
        }
      ],
      "name": "ChangeKey",
      "outputs": [],
      "stateMutability": "payable",
      "type": "function"
    },
    {
      "inputs": [],
      "name": "GetCurrentPull",
      "outputs": [
        {
          "internalType": "uint256",
          "name": "",
          "type": "uint256"
        },
        {
          "internalType": "uint256",
          "name": "",
          "type": "uint256"
        },
        {
          "internalType": "uint256",
          "name": "",
          "type": "uint256"
        }
      ],
      "stateMutability": "view",
      "type": "function"
    },
    {
      "inputs": [],
      "name": "GetLastCurrentPullSum",
      "outputs": [
        {
          "internalType": "uint256",
          "name": "",
          "type": "uint256"
        }
      ],
      "stateMutability": "view",
      "type": "function"
    },
    {
      "inputs": [
        {
          "internalType": "uint256",
          "name": "id",
          "type": "uint256"
        }
      ],
      "name": "GetMember",
      "outputs": [
        {
          "internalType": "uint256",
          "name": "",
          "type": "uint256"
        },
        {
          "internalType": "uint256",
          "name": "",
          "type": "uint256"
        }
      ],
      "stateMutability": "view",
      "type": "function"
    },
    {
      "inputs": [
        {
          "internalType": "uint256",
          "name": "pullId",
          "type": "uint256"
        }
      ],
      "name": "GetPull",
      "outputs": [
        {
          "internalType": "uint256",
          "name": "",
          "type": "uint256"
        },
        {
          "internalType": "uint256",
          "name": "",
          "type": "uint256"
        },
        {
          "internalType": "uint256",
          "name": "",
          "type": "uint256"
        }
      ],
      "stateMutability": "view",
      "type": "function"
    },
    {
      "inputs": [
        {
          "internalType": "uint256",
          "name": "pullId",
          "type": "uint256"
        }
      ],
      "name": "GetPullCollectedSum",
      "outputs": [
        {
          "internalType": "uint256",
          "name": "",
          "type": "uint256"
        }
      ],
      "stateMutability": "view",
      "type": "function"
    },
    {
      "inputs": [],
      "name": "GetPullsCount",
      "outputs": [
        {
          "internalType": "uint256",
          "name": "",
          "type": "uint256"
        }
      ],
      "stateMutability": "view",
      "type": "function"
    },
    {
      "inputs": [],
      "name": "GetStatistic",
      "outputs": [
        {
          "internalType": "uint256",
          "name": "",
          "type": "uint256"
        },
        {
          "internalType": "uint256",
          "name": "",
          "type": "uint256"
        },
        {
          "internalType": "uint256",
          "name": "",
          "type": "uint256"
        }
      ],
      "stateMutability": "view",
      "type": "function"
    },
    {
      "inputs": [
        {
          "internalType": "uint256",
          "name": "pullId",
          "type": "uint256"
        }
      ],
      "name": "GetStructure",
      "outputs": [
        {
          "internalType": "uint256",
          "name": "",
          "type": "uint256"
        },
        {
          "internalType": "uint256",
          "name": "",
          "type": "uint256"
        },
        {
          "internalType": "uint256",
          "name": "",
          "type": "uint256"
        },
        {
          "internalType": "uint256[]",
          "name": "",
          "type": "uint256[]"
        },
        {
          "internalType": "uint256[]",
          "name": "",
          "type": "uint256[]"
        }
      ],
      "stateMutability": "view",
      "type": "function"
    },
    {
      "inputs": [
        {
          "internalType": "uint256",
          "name": "pullId",
          "type": "uint256"
        }
      ],
      "name": "GetTicketCountOnPull",
      "outputs": [
        {
          "internalType": "uint256",
          "name": "",
          "type": "uint256"
        }
      ],
      "stateMutability": "view",
      "type": "function"
    },
    {
      "inputs": [
        {
          "internalType": "uint256",
          "name": "pullId",
          "type": "uint256"
        },
        {
          "internalType": "uint256",
          "name": "ticketNumber",
          "type": "uint256"
        }
      ],
      "name": "GetTicketInfo",
      "outputs": [
        {
          "internalType": "uint256",
          "name": "",
          "type": "uint256"
        },
        {
          "internalType": "uint256",
          "name": "",
          "type": "uint256"
        }
      ],
      "stateMutability": "view",
      "type": "function"
    },
    {
      "inputs": [
        {
          "internalType": "uint256",
          "name": "pullId",
          "type": "uint256"
        }
      ],
      "name": "GetTicketsByPullId",
      "outputs": [
        {
          "internalType": "uint256[]",
          "name": "",
          "type": "uint256[]"
        },
        {
          "internalType": "uint256[]",
          "name": "",
          "type": "uint256[]"
        }
      ],
      "stateMutability": "view",
      "type": "function"
    },
    {
      "inputs": [
        {
          "internalType": "uint256",
          "name": "id",
          "type": "uint256"
        }
      ],
      "name": "IsMemberExist",
      "outputs": [
        {
          "internalType": "bool",
          "name": "",
          "type": "bool"
        }
      ],
      "stateMutability": "view",
      "type": "function"
    },
    {
      "inputs": [
        {
          "internalType": "uint256",
          "name": "id",
          "type": "uint256"
        }
      ],
      "name": "IsPullExist",
      "outputs": [
        {
          "internalType": "bool",
          "name": "",
          "type": "bool"
        }
      ],
      "stateMutability": "view",
      "type": "function"
    },
    {
      "inputs": [
        {
          "internalType": "address",
          "name": "_addressKey",
          "type": "address"
        }
      ],
      "name": "Set",
      "outputs": [],
      "stateMutability": "payable",
      "type": "function"
    },
    {
      "inputs": [
        {
          "internalType": "uint256",
          "name": "value",
          "type": "uint256"
        }
      ],
      "name": "SetCurrentPullValue",
      "outputs": [],
      "stateMutability": "payable",
      "type": "function"
    },
    {
      "inputs": [],
      "name": "SetKey",
      "outputs": [],
      "stateMutability": "payable",
      "type": "function"
    },
    {
      "inputs": [
        {
          "internalType": "uint256",
          "name": "UserId",
          "type": "uint256"
        }
      ],
      "name": "SetMember",
      "outputs": [],
      "stateMutability": "payable",
      "type": "function"
    },
    {
      "inputs": [
        {
          "internalType": "uint256",
          "name": "value",
          "type": "uint256"
        },
        {
          "internalType": "uint256",
          "name": "userId",
          "type": "uint256"
        }
      ],
      "name": "SetTicket",
      "outputs": [],
      "stateMutability": "payable",
      "type": "function"
    },
    {
      "inputs": [
        {
          "internalType": "uint256",
          "name": "userId",
          "type": "uint256"
        },
        {
          "internalType": "uint256",
          "name": "pullId",
          "type": "uint256"
        }
      ],
      "name": "TicketExistOnPull",
      "outputs": [
        {
          "internalType": "bool",
          "name": "",
          "type": "bool"
        }
      ],
      "stateMutability": "view",
      "type": "function"
    }
  ],
  "bytecode": "0x608060405260016007553480156200001657600080fd5b5060405162001db738038062001db783398181016040528101906200003c9190620001d0565b336000806101000a81548173ffffffffffffffffffffffffffffffffffffffff021916908373ffffffffffffffffffffffffffffffffffffffff1602179055506040518060400160405280600015158152602001600073ffffffffffffffffffffffffffffffffffffffff16815250600160008201518160000160006101000a81548160ff02191690831515021790555060208201518160000160016101000a81548173ffffffffffffffffffffffffffffffffffffffff021916908373ffffffffffffffffffffffffffffffffffffffff16021790555090505033600260006101000a81548173ffffffffffffffffffffffffffffffffffffffff021916908373ffffffffffffffffffffffffffffffffffffffff1602179055508060088190555060405180606001604052808281526020016000815260200160008152506003600060075481526020019081526020016000206000820151816000015560208201518160010155604082015181600201559050505062000220565b600081519050620001ca8162000206565b92915050565b600060208284031215620001e357600080fd5b6000620001f384828501620001b9565b91505092915050565b6000819050919050565b6200021181620001fc565b81146200021d57600080fd5b50565b611b8780620002306000396000f3fe6080604052600436106101665760003560e01c8063516d9662116100d15780638a1422fc1161008a578063e5b244a611610064578063e5b244a6146104d0578063ed6c4c88146104ec578063f4a38ba31461052a578063f961d7031461055557610166565b80638a1422fc1461045a578063a149aaca14610476578063c7958cad146104a357610166565b8063516d9662146102fd5780635afd04401461033a5780636045f20a1461037757806366e8c5ef146103b457806373c74e91146103f257806379c6fc291461042f57610166565b80632ea58650116101235780632ea58650146102225780633c4dbb051461023e5780633f2a65f51461025a57806341cb19361461027657806341e6f724146102b5578063463416e8146102bf57610166565b806302dc774d1461016b57806303b4525f146101875780631252b48e146101c4578063190a853b146101e057806321ca0d04146101fc57806322a07ec214610218575b600080fd5b6101856004803603810190610180919061162e565b610596565b005b34801561019357600080fd5b506101ae60048036038101906101a99190611657565b6105dd565b6040516101bb9190611806565b60405180910390f35b6101de60048036038101906101d99190611657565b6105ec565b005b6101fa60048036038101906101f59190611680565b6106b1565b005b61021660048036038101906102119190611680565b610791565b005b6102206108e0565b005b61023c60048036038101906102379190611657565b6109fd565b005b6102586004803603810190610253919061162e565b610afd565b005b610274600480360381019061026f9190611680565b610bed565b005b34801561028257600080fd5b5061029d60048036038101906102989190611657565b610ccd565b6040516102ac939291906118a5565b60405180910390f35b6102bd610d24565b005b3480156102cb57600080fd5b506102e660048036038101906102e19190611657565b610d91565b6040516102f49291906117cf565b60405180910390f35b34801561030957600080fd5b50610324600480360381019061031f9190611657565b610fb7565b6040516103319190611806565b60405180910390f35b34801561034657600080fd5b50610361600480360381019061035c9190611680565b610fe4565b60405161036e9190611806565b60405180910390f35b34801561038357600080fd5b5061039e60048036038101906103999190611657565b611016565b6040516103ab9190611861565b60405180910390f35b3480156103c057600080fd5b506103db60048036038101906103d69190611680565b611036565b6040516103e992919061187c565b60405180910390f35b3480156103fe57600080fd5b5061041960048036038101906104149190611657565b611094565b6040516104269190611861565b60405180910390f35b34801561043b57600080fd5b506104446110b4565b6040516104519190611861565b60405180910390f35b610474600480360381019061046f919061162e565b6110be565b005b34801561048257600080fd5b5061048b6111bc565b60405161049a939291906118a5565b60405180910390f35b3480156104af57600080fd5b506104b86111de565b6040516104c7939291906118a5565b60405180910390f35b6104ea60048036038101906104e59190611680565b611239565b005b3480156104f857600080fd5b50610513600480360381019061050e9190611657565b61130d565b60405161052192919061187c565b60405180910390f35b34801561053657600080fd5b5061053f611347565b60405161054c9190611861565b60405180910390f35b34801561056157600080fd5b5061057c60048036038101906105779190611657565b61138a565b60405161058d9594939291906118dc565b60405180910390f35b80600160000160016101000a81548173ffffffffffffffffffffffffffffffffffffffff021916908373ffffffffffffffffffffffffffffffffffffffff16021790555050565b60006007548211159050919050565b3373ffffffffffffffffffffffffffffffffffffffff16600160000160019054906101000a900473ffffffffffffffffffffffffffffffffffffffff1673ffffffffffffffffffffffffffffffffffffffff161461067f576040517f08c379a000000000000000000000000000000000000000000000000000000000815260040161067690611841565b60405180910390fd5b8060036000600754815260200190815260200160002060010160008282546106a79190611987565b9250508190555050565b3373ffffffffffffffffffffffffffffffffffffffff16600160000160019054906101000a900473ffffffffffffffffffffffffffffffffffffffff1673ffffffffffffffffffffffffffffffffffffffff1614610744576040517f08c379a000000000000000000000000000000000000000000000000000000000815260040161073b90611841565b60405180910390fd5b81600960020160008282546107599190611987565b92505081905550816004600083815260200190815260200160002060000160008282546107869190611987565b925050819055505050565b3373ffffffffffffffffffffffffffffffffffffffff16600160000160019054906101000a900473ffffffffffffffffffffffffffffffffffffffff1673ffffffffffffffffffffffffffffffffffffffff1614610824576040517f08c379a000000000000000000000000000000000000000000000000000000000815260040161081b90611841565b60405180910390fd5b81600960010160008282546108399190611987565b92505081905550600360006007548152602001908152602001600020600201600081548092919061086990611a59565b919050555080600660006007548152602001908152602001600020600060036000600754815260200190815260200160002060020154815260200190815260200160002081905550816005600060075481526020019081526020016000206000838152602001908152602001600020819055505050565b3373ffffffffffffffffffffffffffffffffffffffff16600160000160019054906101000a900473ffffffffffffffffffffffffffffffffffffffff1673ffffffffffffffffffffffffffffffffffffffff1614610973576040517f08c379a000000000000000000000000000000000000000000000000000000000815260040161096a90611841565b60405180910390fd5b6007600081548092919061098690611a59565b919050555060405180606001604052806008548152602001600081526020016000815250600360006007548152602001908152602001600020600082015181600001556020820151816001015560408201518160020155905050600960000160008154809291906109f690611a59565b9190505550565b3373ffffffffffffffffffffffffffffffffffffffff16600160000160019054906101000a900473ffffffffffffffffffffffffffffffffffffffff1673ffffffffffffffffffffffffffffffffffffffff1614610a90576040517f08c379a0000000000000000000000000000000000000000000000000000000008152600401610a8790611841565b60405180910390fd5b604051806060016040528060008152602001600081526020016001151581525060046000838152602001908152602001600020600082015181600001556020820151816001015560408201518160020160006101000a81548160ff02191690831515021790555090505050565b600160000160009054906101000a900460ff1615610b50576040517f08c379a0000000000000000000000000000000000000000000000000000000008152600401610b4790611841565b60405180910390fd5b60405180604001604052806001151581526020018273ffffffffffffffffffffffffffffffffffffffff16815250600160008201518160000160006101000a81548160ff02191690831515021790555060208201518160000160016101000a81548173ffffffffffffffffffffffffffffffffffffffff021916908373ffffffffffffffffffffffffffffffffffffffff16021790555090505050565b3373ffffffffffffffffffffffffffffffffffffffff16600160000160019054906101000a900473ffffffffffffffffffffffffffffffffffffffff1673ffffffffffffffffffffffffffffffffffffffff1614610c80576040517f08c379a0000000000000000000000000000000000000000000000000000000008152600401610c7790611841565b60405180910390fd5b8160096002016000828254610c959190611987565b9250508190555081600460008381526020019081526020016000206001016000828254610cc29190611987565b925050819055505050565b60008060006003600085815260200190815260200160002060000154600360008681526020019081526020016000206001015460036000878152602001908152602001600020600201549250925092509193909250565b3073ffffffffffffffffffffffffffffffffffffffff16633c4dbb05336040518263ffffffff1660e01b8152600401610d5d91906117b4565b600060405180830381600087803b158015610d7757600080fd5b505af1158015610d8b573d6000803e3d6000fd5b50505050565b60608060006003600085815260200190815260200160002060020154905060008167ffffffffffffffff811115610df1577f4e487b7100000000000000000000000000000000000000000000000000000000600052604160045260246000fd5b604051908082528060200260200182016040528015610e1f5781602001602082028036833780820191505090505b50905060008267ffffffffffffffff811115610e64577f4e487b7100000000000000000000000000000000000000000000000000000000600052604160045260246000fd5b604051908082528060200260200182016040528015610e925781602001602082028036833780820191505090505b5090506000600190505b838111610fa85760006006600089815260200190815260200160002060008381526020019081526020016000205490506005600089815260200190815260200160002060008281526020019081526020016000205484600184610eff91906119dd565b81518110610f36577f4e487b7100000000000000000000000000000000000000000000000000000000600052603260045260246000fd5b6020026020010181815250508083600184610f5191906119dd565b81518110610f88577f4e487b7100000000000000000000000000000000000000000000000000000000600052603260045260246000fd5b602002602001018181525050508080610fa090611a59565b915050610e9c565b50818194509450505050915091565b60006004600083815260200190815260200160002060020160009054906101000a900460ff169050919050565b600080600560008481526020019081526020016000206000858152602001908152602001600020541415905092915050565b600060036000838152602001908152602001600020600101549050919050565b6000806000600660008681526020019081526020016000206000858152602001908152602001600020549050806005600087815260200190815260200160002060008381526020019081526020016000205492509250509250929050565b600060036000838152602001908152602001600020600201549050919050565b6000600754905090565b600260009054906101000a900473ffffffffffffffffffffffffffffffffffffffff1673ffffffffffffffffffffffffffffffffffffffff163373ffffffffffffffffffffffffffffffffffffffff161461114e576040517f08c379a000000000000000000000000000000000000000000000000000000000815260040161114590611821565b60405180910390fd5b3073ffffffffffffffffffffffffffffffffffffffff166302dc774d826040518263ffffffff1660e01b815260040161118791906117b4565b600060405180830381600087803b1580156111a157600080fd5b505af11580156111b5573d6000803e3d6000fd5b5050505050565b6000806000600960000154600960010154600960020154925092509250909192565b6000806000600360006007548152602001908152602001600020600001546003600060075481526020019081526020016000206001015460036000600754815260200190815260200160002060020154925092509250909192565b3373ffffffffffffffffffffffffffffffffffffffff16600160000160019054906101000a900473ffffffffffffffffffffffffffffffffffffffff1673ffffffffffffffffffffffffffffffffffffffff16146112cc576040517f08c379a00000000000000000000000000000000000000000000000000000000081526004016112c390611841565b60405180910390fd5b80600560006007548152602001908152602001600020600084815260200190815260200160002060008282546113029190611987565b925050819055505050565b6000806004600084815260200190815260200160002060000154600460008581526020019081526020016000206001015491509150915091565b6000600360006007548152602001908152602001600020600101546003600060075481526020019081526020016000206000015461138591906119dd565b905090565b600080600060608060006003600088815260200190815260200160002060020154905060008167ffffffffffffffff8111156113ef577f4e487b7100000000000000000000000000000000000000000000000000000000600052604160045260246000fd5b60405190808252806020026020018201604052801561141d5781602001602082028036833780820191505090505b50905060008267ffffffffffffffff811115611462577f4e487b7100000000000000000000000000000000000000000000000000000000600052604160045260246000fd5b6040519080825280602002602001820160405280156114905781602001602082028036833780820191505090505b5090506000600190505b8381116115a6576000600660008c8152602001908152602001600020600083815260200190815260200160002054905080846001846114d991906119dd565b81518110611510577f4e487b7100000000000000000000000000000000000000000000000000000000600052603260045260246000fd5b602002602001018181525050600560008c81526020019081526020016000206000828152602001908152602001600020548360018461154f91906119dd565b81518110611586577f4e487b7100000000000000000000000000000000000000000000000000000000600052603260045260246000fd5b60200260200101818152505050808061159e90611a59565b91505061149a565b50600360008a815260200190815260200160002060000154600360008b815260200190815260200160002060010154600360008c81526020019081526020016000206002015484849750975097509750975050505091939590929450565b60008135905061161381611b23565b92915050565b60008135905061162881611b3a565b92915050565b60006020828403121561164057600080fd5b600061164e84828501611604565b91505092915050565b60006020828403121561166957600080fd5b600061167784828501611619565b91505092915050565b6000806040838503121561169357600080fd5b60006116a185828601611619565b92505060206116b285828601611619565b9150509250929050565b60006116c88383611796565b60208301905092915050565b6116dd81611a11565b82525050565b60006116ee8261194d565b6116f88185611965565b93506117038361193d565b8060005b8381101561173457815161171b88826116bc565b975061172683611958565b925050600181019050611707565b5085935050505092915050565b61174a81611a23565b82525050565b600061175d600183611976565b915061176882611ad1565b602082019050919050565b6000611780600183611976565b915061178b82611afa565b602082019050919050565b61179f81611a4f565b82525050565b6117ae81611a4f565b82525050565b60006020820190506117c960008301846116d4565b92915050565b600060408201905081810360008301526117e981856116e3565b905081810360208301526117fd81846116e3565b90509392505050565b600060208201905061181b6000830184611741565b92915050565b6000602082019050818103600083015261183a81611750565b9050919050565b6000602082019050818103600083015261185a81611773565b9050919050565b600060208201905061187660008301846117a5565b92915050565b600060408201905061189160008301856117a5565b61189e60208301846117a5565b9392505050565b60006060820190506118ba60008301866117a5565b6118c760208301856117a5565b6118d460408301846117a5565b949350505050565b600060a0820190506118f160008301886117a5565b6118fe60208301876117a5565b61190b60408301866117a5565b818103606083015261191d81856116e3565b9050818103608083015261193181846116e3565b90509695505050505050565b6000819050602082019050919050565b600081519050919050565b6000602082019050919050565b600082825260208201905092915050565b600082825260208201905092915050565b600061199282611a4f565b915061199d83611a4f565b9250827fffffffffffffffffffffffffffffffffffffffffffffffffffffffffffffffff038211156119d2576119d1611aa2565b5b828201905092915050565b60006119e882611a4f565b91506119f383611a4f565b925082821015611a0657611a05611aa2565b5b828203905092915050565b6000611a1c82611a2f565b9050919050565b60008115159050919050565b600073ffffffffffffffffffffffffffffffffffffffff82169050919050565b6000819050919050565b6000611a6482611a4f565b91507fffffffffffffffffffffffffffffffffffffffffffffffffffffffffffffffff821415611a9757611a96611aa2565b5b600182019050919050565b7f4e487b7100000000000000000000000000000000000000000000000000000000600052601160045260246000fd5b7f3200000000000000000000000000000000000000000000000000000000000000600082015250565b7f3100000000000000000000000000000000000000000000000000000000000000600082015250565b611b2c81611a11565b8114611b3757600080fd5b50565b611b4381611a4f565b8114611b4e57600080fd5b5056fea2646970667358221220c8d1b7ce5ccaee2ba0be9f09edcf80930a2fc9bde9beb55f9e5e5347eb8ed5dd64736f6c63430008040033",
  "linkReferences": {},
  "deployedLinkReferences": {}
}