{
  "_format": "hh-sol-artifact-1",
  "contractName": "TableController",
  "sourceName": "contracts/Controllers/TableController.sol",
  "abi": [
    {
      "inputs": [
        {
          "internalType": "address",
          "name": "key",
          "type": "address"
        },
        {
          "internalType": "address",
          "name": "tableStorageAddress",
          "type": "address"
        },
        {
          "internalType": "address",
          "name": "userStorageAddress",
          "type": "address"
        }
      ],
      "stateMutability": "nonpayable",
      "type": "constructor"
    },
    {
      "inputs": [
        {
          "internalType": "uint256",
          "name": "userId",
          "type": "uint256"
        },
        {
          "internalType": "uint256",
          "name": "rewardValue",
          "type": "uint256"
        },
        {
          "internalType": "address",
          "name": "key",
          "type": "address"
        }
      ],
      "name": "AddReferalPayout",
      "outputs": [],
      "stateMutability": "payable",
      "type": "function"
    },
    {
      "inputs": [
        {
          "internalType": "uint256",
          "name": "userId",
          "type": "uint256"
        },
        {
          "internalType": "uint8",
          "name": "table",
          "type": "uint8"
        },
        {
          "internalType": "uint256",
          "name": "reward",
          "type": "uint256"
        },
        {
          "internalType": "address",
          "name": "key",
          "type": "address"
        }
      ],
      "name": "AddRewardSum",
      "outputs": [],
      "stateMutability": "payable",
      "type": "function"
    },
    {
      "inputs": [
        {
          "internalType": "uint256",
          "name": "userId",
          "type": "uint256"
        },
        {
          "internalType": "uint16",
          "name": "payouts",
          "type": "uint16"
        },
        {
          "internalType": "address",
          "name": "key",
          "type": "address"
        },
        {
          "internalType": "address",
          "name": "userAddress",
          "type": "address"
        }
      ],
      "name": "AddWhite",
      "outputs": [],
      "stateMutability": "payable",
      "type": "function"
    },
    {
      "inputs": [
        {
          "internalType": "address",
          "name": "key",
          "type": "address"
        },
        {
          "internalType": "uint256",
          "name": "userId",
          "type": "uint256"
        },
        {
          "internalType": "address",
          "name": "userAddress",
          "type": "address"
        },
        {
          "internalType": "uint16",
          "name": "payouts",
          "type": "uint16"
        }
      ],
      "name": "AddWhiteTable",
      "outputs": [],
      "stateMutability": "payable",
      "type": "function"
    },
    {
      "inputs": [
        {
          "internalType": "uint8",
          "name": "table",
          "type": "uint8"
        },
        {
          "internalType": "address",
          "name": "userAddress",
          "type": "address"
        },
        {
          "internalType": "uint256",
          "name": "userId",
          "type": "uint256"
        },
        {
          "internalType": "address",
          "name": "key",
          "type": "address"
        }
      ],
      "name": "BuyTable",
      "outputs": [],
      "stateMutability": "payable",
      "type": "function"
    },
    {
      "inputs": [
        {
          "internalType": "address",
          "name": "newAddress",
          "type": "address"
        },
        {
          "internalType": "address",
          "name": "key",
          "type": "address"
        }
      ],
      "name": "ChangeTableStorage",
      "outputs": [],
      "stateMutability": "payable",
      "type": "function"
    },
    {
      "inputs": [
        {
          "internalType": "address",
          "name": "newAddress",
          "type": "address"
        },
        {
          "internalType": "address",
          "name": "key",
          "type": "address"
        }
      ],
      "name": "ChangeUserStorage",
      "outputs": [],
      "stateMutability": "payable",
      "type": "function"
    },
    {
      "inputs": [
        {
          "internalType": "uint8",
          "name": "table",
          "type": "uint8"
        }
      ],
      "name": "CloseTable",
      "outputs": [],
      "stateMutability": "payable",
      "type": "function"
    },
    {
      "inputs": [
        {
          "internalType": "uint8",
          "name": "table",
          "type": "uint8"
        }
      ],
      "name": "GetFirstTableAddress",
      "outputs": [
        {
          "internalType": "address",
          "name": "",
          "type": "address"
        }
      ],
      "stateMutability": "view",
      "type": "function"
    },
    {
      "inputs": [],
      "name": "GetGlobalStatistic",
      "outputs": [
        {
          "internalType": "uint256",
          "name": "",
          "type": "uint256"
        }
      ],
      "stateMutability": "view",
      "type": "function"
    },
    {
      "inputs": [
        {
          "internalType": "uint256",
          "name": "userId",
          "type": "uint256"
        },
        {
          "internalType": "address",
          "name": "userAddress",
          "type": "address"
        },
        {
          "internalType": "uint8",
          "name": "table",
          "type": "uint8"
        }
      ],
      "name": "GetPlaceInQueue",
      "outputs": [
        {
          "internalType": "uint256",
          "name": "",
          "type": "uint256"
        },
        {
          "internalType": "uint256",
          "name": "",
          "type": "uint256"
        }
      ],
      "stateMutability": "view",
      "type": "function"
    },
    {
      "inputs": [
        {
          "internalType": "uint256",
          "name": "value",
          "type": "uint256"
        }
      ],
      "name": "GetTableNumberByValue",
      "outputs": [
        {
          "internalType": "uint8",
          "name": "",
          "type": "uint8"
        }
      ],
      "stateMutability": "view",
      "type": "function"
    },
    {
      "inputs": [
        {
          "internalType": "uint8",
          "name": "table",
          "type": "uint8"
        }
      ],
      "name": "GetTablePrice",
      "outputs": [
        {
          "internalType": "uint256",
          "name": "",
          "type": "uint256"
        }
      ],
      "stateMutability": "view",
      "type": "function"
    },
    {
      "inputs": [],
      "name": "GetTablesCount",
      "outputs": [
        {
          "internalType": "uint256[]",
          "name": "",
          "type": "uint256[]"
        }
      ],
      "stateMutability": "view",
      "type": "function"
    },
    {
      "inputs": [],
      "name": "GetTablesPrice",
      "outputs": [
        {
          "internalType": "uint256[]",
          "name": "",
          "type": "uint256[]"
        }
      ],
      "stateMutability": "view",
      "type": "function"
    },
    {
      "inputs": [
        {
          "internalType": "uint256",
          "name": "userId",
          "type": "uint256"
        }
      ],
      "name": "GetUserLevels",
      "outputs": [
        {
          "internalType": "bool[]",
          "name": "",
          "type": "bool[]"
        },
        {
          "internalType": "uint16[]",
          "name": "",
          "type": "uint16[]"
        },
        {
          "internalType": "uint16[]",
          "name": "",
          "type": "uint16[]"
        },
        {
          "internalType": "uint256[]",
          "name": "",
          "type": "uint256[]"
        }
      ],
      "stateMutability": "view",
      "type": "function"
    },
    {
      "inputs": [
        {
          "internalType": "uint256",
          "name": "userId",
          "type": "uint256"
        }
      ],
      "name": "GetUserRewards",
      "outputs": [
        {
          "internalType": "uint256",
          "name": "",
          "type": "uint256"
        },
        {
          "internalType": "uint256",
          "name": "",
          "type": "uint256"
        }
      ],
      "stateMutability": "view",
      "type": "function"
    },
    {
      "inputs": [
        {
          "internalType": "uint256",
          "name": "userId",
          "type": "uint256"
        },
        {
          "internalType": "uint8",
          "name": "table",
          "type": "uint8"
        }
      ],
      "name": "IsTableActive",
      "outputs": [
        {
          "internalType": "bool",
          "name": "",
          "type": "bool"
        }
      ],
      "stateMutability": "view",
      "type": "function"
    },
    {
      "inputs": [
        {
          "internalType": "uint256",
          "name": "userId",
          "type": "uint256"
        },
        {
          "internalType": "uint8",
          "name": "table",
          "type": "uint8"
        }
      ],
      "name": "IsTableActiveOver",
      "outputs": [
        {
          "internalType": "bool",
          "name": "",
          "type": "bool"
        }
      ],
      "stateMutability": "view",
      "type": "function"
    },
    {
      "inputs": [
        {
          "internalType": "uint8",
          "name": "table",
          "type": "uint8"
        }
      ],
      "name": "IsTableOpen",
      "outputs": [
        {
          "internalType": "bool",
          "name": "",
          "type": "bool"
        }
      ],
      "stateMutability": "view",
      "type": "function"
    },
    {
      "inputs": [
        {
          "internalType": "uint8",
          "name": "table",
          "type": "uint8"
        }
      ],
      "name": "OpenTable",
      "outputs": [],
      "stateMutability": "payable",
      "type": "function"
    },
    {
      "inputs": [
        {
          "internalType": "uint8",
          "name": "table",
          "type": "uint8"
        }
      ],
      "name": "TableNumberIsValid",
      "outputs": [
        {
          "internalType": "bool",
          "name": "",
          "type": "bool"
        }
      ],
      "stateMutability": "view",
      "type": "function"
    },
    {
      "inputs": [
        {
          "internalType": "uint256",
          "name": "",
          "type": "uint256"
        }
      ],
      "name": "TablePrice",
      "outputs": [
        {
          "internalType": "uint256",
          "name": "",
          "type": "uint256"
        }
      ],
      "stateMutability": "view",
      "type": "function"
    }
  ],
  "bytecode": "0x6080604052604051806102200160405280600068ffffffffffffffffff168152602001668e1bc9bf04000068ffffffffffffffffff16815260200166f8b0a10e47000068ffffffffffffffffff1681526020016701aa535d3d0c000068ffffffffffffffffff1681526020016702c68af0bb14000068ffffffffffffffffff1681526020016704db73254763000068ffffffffffffffffff168152602001670853a0d2313c000068ffffffffffffffffff16815260200167120a871cc002000068ffffffffffffffffff168152602001671d24b2dfac52000068ffffffffffffffffff168152602001672dcbf4840eca000068ffffffffffffffffff168152602001674139c1192c56000068ffffffffffffffffff1681526020016753444835ec58000068ffffffffffffffffff168152602001676f05b59d3b20000068ffffffffffffffffff1681526020016798a7d9b8314c000068ffffffffffffffffff16815260200167c249fdd32778000068ffffffffffffffffff16815260200167de0b6b3a7640000068ffffffffffffffffff1681526020016801158e460913d0000068ffffffffffffffffff168152506004906011620001c1929190620003ee565b506001600480549050620001d69190620004d9565b600555348015620001e657600080fd5b5060405162002fdc38038062002fdc83398181016040528101906200020c919062000483565b336000806101000a81548173ffffffffffffffffffffffffffffffffffffffff021916908373ffffffffffffffffffffffffffffffffffffffff16021790555060018060008573ffffffffffffffffffffffffffffffffffffffff1673ffffffffffffffffffffffffffffffffffffffff16815260200190815260200160002060006101000a81548160ff02191690831515021790555081600260006101000a81548173ffffffffffffffffffffffffffffffffffffffff021916908373ffffffffffffffffffffffffffffffffffffffff16021790555080600360006101000a81548173ffffffffffffffffffffffffffffffffffffffff021916908373ffffffffffffffffffffffffffffffffffffffff160217905550600160066000600160ff16815260200190815260200160002060006101000a81548160ff021916908315150217905550600160066000600260ff16815260200190815260200160002060006101000a81548160ff021916908315150217905550600160066000600360ff16815260200190815260200160002060006101000a81548160ff021916908315150217905550600160066000600460ff16815260200190815260200160002060006101000a81548160ff0219169083151502179055505050506200059b565b8280548282559060005260206000209081019282156200043a579160200282015b8281111562000439578251829068ffffffffffffffffff169055916020019190600101906200040f565b5b5090506200044991906200044d565b5090565b5b80821115620004685760008160009055506001016200044e565b5090565b6000815190506200047d8162000581565b92915050565b6000806000606084860312156200049957600080fd5b6000620004a9868287016200046c565b9350506020620004bc868287016200046c565b9250506040620004cf868287016200046c565b9150509250925092565b6000620004e68262000548565b9150620004f38362000548565b92508282101562000509576200050862000552565b5b828203905092915050565b6000620005218262000528565b9050919050565b600073ffffffffffffffffffffffffffffffffffffffff82169050919050565b6000819050919050565b7f4e487b7100000000000000000000000000000000000000000000000000000000600052601160045260246000fd5b6200058c8162000514565b81146200059857600080fd5b50565b612a3180620005ab6000396000f3fe6080604052600436106101405760003560e01c8063b5a3c8b7116100b6578063e29e04111161006f578063e29e04111461046c578063e6179de1146104a9578063ed433735146104d4578063ede07427146104f0578063efde8a171461050c578063f342fd151461054a57610140565b8063b5a3c8b71461034f578063bae3a5381461038c578063cebd6351146103cc578063cf09dd2a146103e8578063cf2ef69b14610404578063dd0411d11461042f57610140565b80636661cd63116101085780636661cd63146102565780638745dd78146102935780638a2a526a146102d057806395d7d005146102fb578063a798e9fd14610317578063ad145d461461033357610140565b806316385f4414610145578063300e27971461018357806339a24593146101c05780635437af49146101fd57806360465d961461023a575b600080fd5b34801561015157600080fd5b5061016c60048036038101906101679190611e7c565b610566565b60405161017a9291906124a3565b60405180910390f35b34801561018f57600080fd5b506101aa60048036038101906101a59190612058565b610627565b6040516101b791906123e8565b60405180910390f35b3480156101cc57600080fd5b506101e760048036038101906101e29190611e2a565b610657565b6040516101f491906125a8565b60405180910390f35b34801561020957600080fd5b50610224600480360381019061021f9190612058565b6106e1565b6040516102319190612313565b60405180910390f35b610254600480360381019061024f9190612058565b610795565b005b34801561026257600080fd5b5061027d60048036038101906102789190611e2a565b6107ca565b60405161028a9190612443565b60405180910390f35b34801561029f57600080fd5b506102ba60048036038101906102b59190612058565b6107ee565b6040516102c791906123e8565b60405180910390f35b3480156102dc57600080fd5b506102e561080e565b6040516102f29190612443565b60405180910390f35b61031560048036038101906103109190611ff5565b6108b5565b005b610331600480360381019061032c9190612081565b61094e565b005b61034d60048036038101906103489190611c5e565b610e3e565b005b34801561035b57600080fd5b5061037660048036038101906103719190611fb9565b610f9d565b60405161038391906123e8565b60405180910390f35b34801561039857600080fd5b506103b360048036038101906103ae9190611e2a565b611054565b6040516103c39493929190612365565b60405180910390f35b6103e660048036038101906103e19190611f6a565b61111d565b005b61040260048036038101906103fd9190612058565b6111b3565b005b34801561041057600080fd5b506104196111e8565b60405161042691906123c6565b60405180910390f35b34801561043b57600080fd5b5061045660048036038101906104519190611fb9565b611240565b60405161046391906123e8565b60405180910390f35b34801561047857600080fd5b50610493600480360381019061048e9190612058565b6112f7565b6040516104a09190612443565b60405180910390f35b3480156104b557600080fd5b506104be611348565b6040516104cb91906123c6565b60405180910390f35b6104ee60048036038101906104e99190611ecb565b611401565b005b61050a60048036038101906105059190611c9a565b6115da565b005b34801561051857600080fd5b50610533600480360381019061052e9190611e2a565b6117b6565b6040516105419291906124a3565b60405180910390f35b610564600480360381019061055f9190611c5e565b61186c565b005b600080600260009054906101000a900473ffffffffffffffffffffffffffffffffffffffff1673ffffffffffffffffffffffffffffffffffffffff1663fefa519d8686866005546040518563ffffffff1660e01b81526004016105cc949392919061245e565b604080518083038186803b1580156105e357600080fd5b505afa1580156105f7573d6000803e3d6000fd5b505050506040513d601f19601f8201168201806040525081019061061b9190611f2e565b91509150935093915050565b6000600660008360ff1660ff16815260200190815260200160002060009054906101000a900460ff169050919050565b600080600190505b6005548160ff16116106d6578260048260ff16815481106106a9577f4e487b7100000000000000000000000000000000000000000000000000000000600052603260045260246000fd5b906000526020600020015414156106c357809150506106dc565b80806106ce9061289d565b91505061065f565b50600090505b919050565b6000600260009054906101000a900473ffffffffffffffffffffffffffffffffffffffff1673ffffffffffffffffffffffffffffffffffffffff16635437af49836040518263ffffffff1660e01b815260040161073e91906125a8565b60206040518083038186803b15801561075657600080fd5b505afa15801561076a573d6000803e3d6000fd5b505050506040513d601f19601f8201168201806040525081019061078e9190611c35565b9050919050565b6000600660008360ff1660ff16815260200190815260200160002060006101000a81548160ff02191690831515021790555050565b600481815481106107da57600080fd5b906000526020600020016000915090505481565b6000808260ff1611801561080757506005548260ff1611155b9050919050565b6000600260009054906101000a900473ffffffffffffffffffffffffffffffffffffffff1673ffffffffffffffffffffffffffffffffffffffff16638a2a526a6040518163ffffffff1660e01b815260040160206040518083038186803b15801561087857600080fd5b505afa15801561088c573d6000803e3d6000fd5b505050506040513d601f19601f820116820180604052508101906108b09190611e53565b905090565b600260009054906101000a900473ffffffffffffffffffffffffffffffffffffffff1673ffffffffffffffffffffffffffffffffffffffff166395d7d005858585856040518563ffffffff1660e01b81526004016109169493929190612563565b600060405180830381600087803b15801561093057600080fd5b505af1158015610944573d6000803e3d6000fd5b5050505050505050565b600160008273ffffffffffffffffffffffffffffffffffffffff1673ffffffffffffffffffffffffffffffffffffffff16815260200190815260200160002060009054906101000a900460ff166109da576040517f08c379a00000000000000000000000000000000000000000000000000000000081526004016109d190612423565b60405180910390fd5b600260009054906101000a900473ffffffffffffffffffffffffffffffffffffffff1673ffffffffffffffffffffffffffffffffffffffff166343938a278560038686866040518663ffffffff1660e01b8152600401610a3e9594939291906125ec565b600060405180830381600087803b158015610a5857600080fd5b505af1158015610a6c573d6000803e3d6000fd5b505050506000600260009054906101000a900473ffffffffffffffffffffffffffffffffffffffff1673ffffffffffffffffffffffffffffffffffffffff16635437af49866040518263ffffffff1660e01b8152600401610acd91906125a8565b60206040518083038186803b158015610ae557600080fd5b505afa158015610af9573d6000803e3d6000fd5b505050506040513d601f19601f82011682018060405250810190610b1d9190611c35565b90506000600360009054906101000a900473ffffffffffffffffffffffffffffffffffffffff1673ffffffffffffffffffffffffffffffffffffffff166331a73991836040518263ffffffff1660e01b8152600401610b7c9190612313565b60206040518083038186803b158015610b9457600080fd5b505afa158015610ba8573d6000803e3d6000fd5b505050506040513d601f19601f82011682018060405250810190610bcc9190611e53565b9050600260009054906101000a900473ffffffffffffffffffffffffffffffffffffffff1673ffffffffffffffffffffffffffffffffffffffff1663dd0411d182886040518363ffffffff1660e01b8152600401610c2b929190612503565b60206040518083038186803b158015610c4357600080fd5b505afa158015610c57573d6000803e3d6000fd5b505050506040513d601f19601f82011682018060405250810190610c7b9190611e01565b610d1557600260009054906101000a900473ffffffffffffffffffffffffffffffffffffffff1673ffffffffffffffffffffffffffffffffffffffff1663c981d22f8488856040518463ffffffff1660e01b8152600401610cde9392919061232e565b600060405180830381600087803b158015610cf857600080fd5b505af1158015610d0c573d6000803e3d6000fd5b50505050610da7565b600260009054906101000a900473ffffffffffffffffffffffffffffffffffffffff1673ffffffffffffffffffffffffffffffffffffffff166376630fa18288866040518463ffffffff1660e01b8152600401610d749392919061252c565b600060405180830381600087803b158015610d8e57600080fd5b505af1158015610da2573d6000803e3d6000fd5b505050505b600260009054906101000a900473ffffffffffffffffffffffffffffffffffffffff1673ffffffffffffffffffffffffffffffffffffffff1663d4e9a8ef87856040518363ffffffff1660e01b8152600401610e049291906125c3565b600060405180830381600087803b158015610e1e57600080fd5b505af1158015610e32573d6000803e3d6000fd5b50505050505050505050565b600160008273ffffffffffffffffffffffffffffffffffffffff1673ffffffffffffffffffffffffffffffffffffffff16815260200190815260200160002060009054906101000a900460ff16610eca576040517f08c379a0000000000000000000000000000000000000000000000000000000008152600401610ec190612423565b60405180910390fd5b3373ffffffffffffffffffffffffffffffffffffffff1660008054906101000a900473ffffffffffffffffffffffffffffffffffffffff1673ffffffffffffffffffffffffffffffffffffffff1614610f58576040517f08c379a0000000000000000000000000000000000000000000000000000000008152600401610f4f90612403565b60405180910390fd5b81600360006101000a81548173ffffffffffffffffffffffffffffffffffffffff021916908373ffffffffffffffffffffffffffffffffffffffff1602179055505050565b6000600260009054906101000a900473ffffffffffffffffffffffffffffffffffffffff1673ffffffffffffffffffffffffffffffffffffffff1663b5a3c8b784846040518363ffffffff1660e01b8152600401610ffc929190612503565b60206040518083038186803b15801561101457600080fd5b505afa158015611028573d6000803e3d6000fd5b505050506040513d601f19601f8201168201806040525081019061104c9190611e01565b905092915050565b606080606080600260009054906101000a900473ffffffffffffffffffffffffffffffffffffffff1673ffffffffffffffffffffffffffffffffffffffff16636abf4fc5866005546040518363ffffffff1660e01b81526004016110b99291906124a3565b60006040518083038186803b1580156110d157600080fd5b505afa1580156110e5573d6000803e3d6000fd5b505050506040513d6000823e3d601f19601f8201168201806040525081019061110e9190611cfd565b93509350935093509193509193565b600260009054906101000a900473ffffffffffffffffffffffffffffffffffffffff1673ffffffffffffffffffffffffffffffffffffffff1663cebd63518484846040518463ffffffff1660e01b815260040161117c939291906124cc565b600060405180830381600087803b15801561119657600080fd5b505af11580156111aa573d6000803e3d6000fd5b50505050505050565b6001600660008360ff1660ff16815260200190815260200160002060006101000a81548160ff02191690831515021790555050565b6060600480548060200260200160405190810160405280929190818152602001828054801561123657602002820191906000526020600020905b815481526020019060010190808311611222575b5050505050905090565b6000600260009054906101000a900473ffffffffffffffffffffffffffffffffffffffff1673ffffffffffffffffffffffffffffffffffffffff1663dd0411d184846040518363ffffffff1660e01b815260040161129f929190612503565b60206040518083038186803b1580156112b757600080fd5b505afa1580156112cb573d6000803e3d6000fd5b505050506040513d601f19601f820116820180604052508101906112ef9190611e01565b905092915050565b600060048260ff1681548110611336577f4e487b7100000000000000000000000000000000000000000000000000000000600052603260045260246000fd5b90600052602060002001549050919050565b6060600260009054906101000a900473ffffffffffffffffffffffffffffffffffffffff1673ffffffffffffffffffffffffffffffffffffffff1663ec030b246005546040518263ffffffff1660e01b81526004016113a79190612443565b60006040518083038186803b1580156113bf57600080fd5b505afa1580156113d3573d6000803e3d6000fd5b505050506040513d6000823e3d601f19601f820116820180604052508101906113fc9190611dc0565b905090565b600160008373ffffffffffffffffffffffffffffffffffffffff1673ffffffffffffffffffffffffffffffffffffffff16815260200190815260200160002060009054906101000a900460ff1661148d576040517f08c379a000000000000000000000000000000000000000000000000000000000815260040161148490612423565b60405180910390fd5b3373ffffffffffffffffffffffffffffffffffffffff1660008054906101000a900473ffffffffffffffffffffffffffffffffffffffff1673ffffffffffffffffffffffffffffffffffffffff161461151b576040517f08c379a000000000000000000000000000000000000000000000000000000000815260040161151290612403565b60405180910390fd5b60005b6005548160ff1610156115d357600260009054906101000a900473ffffffffffffffffffffffffffffffffffffffff1673ffffffffffffffffffffffffffffffffffffffff166343938a2782868589886040518663ffffffff1660e01b815260040161158e95949392919061263f565b600060405180830381600087803b1580156115a857600080fd5b505af11580156115bc573d6000803e3d6000fd5b5050505080806115cb9061289d565b91505061151e565b5050505050565b3373ffffffffffffffffffffffffffffffffffffffff1660008054906101000a900473ffffffffffffffffffffffffffffffffffffffff1673ffffffffffffffffffffffffffffffffffffffff1614611668576040517f08c379a000000000000000000000000000000000000000000000000000000000815260040161165f90612403565b60405180910390fd5b600160008573ffffffffffffffffffffffffffffffffffffffff1673ffffffffffffffffffffffffffffffffffffffff16815260200190815260200160002060009054906101000a900460ff166116f4576040517f08c379a00000000000000000000000000000000000000000000000000000000081526004016116eb90612423565b60405180910390fd5b6000600190505b6005548160ff16116117af57600260009054906101000a900473ffffffffffffffffffffffffffffffffffffffff1673ffffffffffffffffffffffffffffffffffffffff166343938a27828486888a6040518663ffffffff1660e01b815260040161176a95949392919061263f565b600060405180830381600087803b15801561178457600080fd5b505af1158015611798573d6000803e3d6000fd5b5050505080806117a79061289d565b9150506116fb565b5050505050565b600080600260009054906101000a900473ffffffffffffffffffffffffffffffffffffffff1673ffffffffffffffffffffffffffffffffffffffff1663efde8a17846040518263ffffffff1660e01b81526004016118149190612443565b604080518083038186803b15801561182b57600080fd5b505afa15801561183f573d6000803e3d6000fd5b505050506040513d601f19601f820116820180604052508101906118639190611f2e565b91509150915091565b600160008273ffffffffffffffffffffffffffffffffffffffff1673ffffffffffffffffffffffffffffffffffffffff16815260200190815260200160002060009054906101000a900460ff166118f8576040517f08c379a00000000000000000000000000000000000000000000000000000000081526004016118ef90612423565b60405180910390fd5b3373ffffffffffffffffffffffffffffffffffffffff1660008054906101000a900473ffffffffffffffffffffffffffffffffffffffff1673ffffffffffffffffffffffffffffffffffffffff1614611986576040517f08c379a000000000000000000000000000000000000000000000000000000000815260040161197d90612403565b60405180910390fd5b81600260006101000a81548173ffffffffffffffffffffffffffffffffffffffff021916908373ffffffffffffffffffffffffffffffffffffffff1602179055505050565b60006119de6119d9846126b7565b612692565b905080838252602082019050828560208602820111156119fd57600080fd5b60005b85811015611a2d5781611a138882611bb7565b845260208401935060208301925050600181019050611a00565b5050509392505050565b6000611a4a611a45846126e3565b612692565b90508083825260208201905082856020860282011115611a6957600080fd5b60005b85811015611a995781611a7f8882611be1565b845260208401935060208301925050600181019050611a6c565b5050509392505050565b6000611ab6611ab18461270f565b612692565b90508083825260208201905082856020860282011115611ad557600080fd5b60005b85811015611b055781611aeb8882611c0b565b845260208401935060208301925050600181019050611ad8565b5050509392505050565b600081359050611b1e81612988565b92915050565b600081519050611b3381612988565b92915050565b600082601f830112611b4a57600080fd5b8151611b5a8482602086016119cb565b91505092915050565b600082601f830112611b7457600080fd5b8151611b84848260208601611a37565b91505092915050565b600082601f830112611b9e57600080fd5b8151611bae848260208601611aa3565b91505092915050565b600081519050611bc68161299f565b92915050565b600081359050611bdb816129b6565b92915050565b600081519050611bf0816129b6565b92915050565b600081359050611c05816129cd565b92915050565b600081519050611c1a816129cd565b92915050565b600081359050611c2f816129e4565b92915050565b600060208284031215611c4757600080fd5b6000611c5584828501611b24565b91505092915050565b60008060408385031215611c7157600080fd5b6000611c7f85828601611b0f565b9250506020611c9085828601611b0f565b9150509250929050565b60008060008060808587031215611cb057600080fd5b6000611cbe87828801611b0f565b9450506020611ccf87828801611bf6565b9350506040611ce087828801611b0f565b9250506060611cf187828801611bcc565b91505092959194509250565b60008060008060808587031215611d1357600080fd5b600085015167ffffffffffffffff811115611d2d57600080fd5b611d3987828801611b39565b945050602085015167ffffffffffffffff811115611d5657600080fd5b611d6287828801611b63565b935050604085015167ffffffffffffffff811115611d7f57600080fd5b611d8b87828801611b63565b925050606085015167ffffffffffffffff811115611da857600080fd5b611db487828801611b8d565b91505092959194509250565b600060208284031215611dd257600080fd5b600082015167ffffffffffffffff811115611dec57600080fd5b611df884828501611b8d565b91505092915050565b600060208284031215611e1357600080fd5b6000611e2184828501611bb7565b91505092915050565b600060208284031215611e3c57600080fd5b6000611e4a84828501611bf6565b91505092915050565b600060208284031215611e6557600080fd5b6000611e7384828501611c0b565b91505092915050565b600080600060608486031215611e9157600080fd5b6000611e9f86828701611bf6565b9350506020611eb086828701611b0f565b9250506040611ec186828701611c20565b9150509250925092565b60008060008060808587031215611ee157600080fd5b6000611eef87828801611bf6565b9450506020611f0087828801611bcc565b9350506040611f1187828801611b0f565b9250506060611f2287828801611b0f565b91505092959194509250565b60008060408385031215611f4157600080fd5b6000611f4f85828601611c0b565b9250506020611f6085828601611c0b565b9150509250929050565b600080600060608486031215611f7f57600080fd5b6000611f8d86828701611bf6565b9350506020611f9e86828701611bf6565b9250506040611faf86828701611b0f565b9150509250925092565b60008060408385031215611fcc57600080fd5b6000611fda85828601611bf6565b9250506020611feb85828601611c20565b9150509250929050565b6000806000806080858703121561200b57600080fd5b600061201987828801611bf6565b945050602061202a87828801611c20565b935050604061203b87828801611bf6565b925050606061204c87828801611b0f565b91505092959194509250565b60006020828403121561206a57600080fd5b600061207884828501611c20565b91505092915050565b6000806000806080858703121561209757600080fd5b60006120a587828801611c20565b94505060206120b687828801611b0f565b93505060406120c787828801611bf6565b92505060606120d887828801611b0f565b91505092959194509250565b60006120f08383612255565b60208301905092915050565b600061210883836122c8565b60208301905092915050565b600061212083836122e6565b60208301905092915050565b612135816127f7565b82525050565b60006121468261276b565b61215081856127b3565b935061215b8361273b565b8060005b8381101561218c57815161217388826120e4565b975061217e8361278c565b92505060018101905061215f565b5085935050505092915050565b60006121a482612776565b6121ae81856127c4565b93506121b98361274b565b8060005b838110156121ea5781516121d188826120fc565b97506121dc83612799565b9250506001810190506121bd565b5085935050505092915050565b600061220282612781565b61220c81856127d5565b93506122178361275b565b8060005b8381101561224857815161222f8882612114565b975061223a836127a6565b92505060018101905061221b565b5085935050505092915050565b61225e81612809565b82525050565b61226d81612809565b82525050565b61227c8161285a565b82525050565b600061228f600a836127e6565b915061229a82612936565b602082019050919050565b60006122b26001836127e6565b91506122bd8261295f565b602082019050919050565b6122d181612815565b82525050565b6122e081612815565b82525050565b6122ef81612843565b82525050565b6122fe81612843565b82525050565b61230d8161284d565b82525050565b6000602082019050612328600083018461212c565b92915050565b6000606082019050612343600083018661212c565b6123506020830185612304565b61235d604083018461212c565b949350505050565b6000608082019050818103600083015261237f818761213b565b905081810360208301526123938186612199565b905081810360408301526123a78185612199565b905081810360608301526123bb81846121f7565b905095945050505050565b600060208201905081810360008301526123e081846121f7565b905092915050565b60006020820190506123fd6000830184612264565b92915050565b6000602082019050818103600083015261241c81612282565b9050919050565b6000602082019050818103600083015261243c816122a5565b9050919050565b600060208201905061245860008301846122f5565b92915050565b600060808201905061247360008301876122f5565b612480602083018661212c565b61248d6040830185612304565b61249a60608301846122f5565b95945050505050565b60006040820190506124b860008301856122f5565b6124c560208301846122f5565b9392505050565b60006060820190506124e160008301866122f5565b6124ee60208301856122f5565b6124fb604083018461212c565b949350505050565b600060408201905061251860008301856122f5565b6125256020830184612304565b9392505050565b600060608201905061254160008301866122f5565b61254e6020830185612304565b61255b604083018461212c565b949350505050565b600060808201905061257860008301876122f5565b6125856020830186612304565b61259260408301856122f5565b61259f606083018461212c565b95945050505050565b60006020820190506125bd6000830184612304565b92915050565b60006040820190506125d86000830185612304565b6125e5602083018461212c565b9392505050565b600060a0820190506126016000830188612304565b61260e6020830187612273565b61261b604083018661212c565b61262860608301856122f5565b612635608083018461212c565b9695505050505050565b600060a0820190506126546000830188612304565b61266160208301876122d7565b61266e604083018661212c565b61267b60608301856122f5565b612688608083018461212c565b9695505050505050565b600061269c6126ad565b90506126a8828261286c565b919050565b6000604051905090565b600067ffffffffffffffff8211156126d2576126d16128f6565b5b602082029050602081019050919050565b600067ffffffffffffffff8211156126fe576126fd6128f6565b5b602082029050602081019050919050565b600067ffffffffffffffff82111561272a576127296128f6565b5b602082029050602081019050919050565b6000819050602082019050919050565b6000819050602082019050919050565b6000819050602082019050919050565b600081519050919050565b600081519050919050565b600081519050919050565b6000602082019050919050565b6000602082019050919050565b6000602082019050919050565b600082825260208201905092915050565b600082825260208201905092915050565b600082825260208201905092915050565b600082825260208201905092915050565b600061280282612823565b9050919050565b60008115159050919050565b600061ffff82169050919050565b600073ffffffffffffffffffffffffffffffffffffffff82169050919050565b6000819050919050565b600060ff82169050919050565b600061286582612815565b9050919050565b61287582612925565b810181811067ffffffffffffffff82111715612894576128936128f6565b5b80604052505050565b60006128a88261284d565b915060ff8214156128bc576128bb6128c7565b5b600182019050919050565b7f4e487b7100000000000000000000000000000000000000000000000000000000600052601160045260246000fd5b7f4e487b7100000000000000000000000000000000000000000000000000000000600052604160045260246000fd5b6000601f19601f8301169050919050565b7f6f6e6c79206f776e657200000000000000000000000000000000000000000000600082015250565b7f3100000000000000000000000000000000000000000000000000000000000000600082015250565b612991816127f7565b811461299c57600080fd5b50565b6129a881612809565b81146129b357600080fd5b50565b6129bf81612815565b81146129ca57600080fd5b50565b6129d681612843565b81146129e157600080fd5b50565b6129ed8161284d565b81146129f857600080fd5b5056fea26469706673582212201c9c5c9571adf3f8c2a5df1056a5ef28a57ae43437aed4da3c92a967f68b311d64736f6c63430008040033",
  "linkReferences": {},
  "deployedLinkReferences": {}
}