{
  "_format": "hh-sol-artifact-1",
  "contractName": "TableController",
  "sourceName": "contracts/Controllers/TableController.sol",
  "abi": [
    {
      "inputs": [
        {
          "internalType": "address",
          "name": "tableStorageAddress",
          "type": "address"
        },
        {
          "internalType": "address",
          "name": "userStorageAddress",
          "type": "address"
        }
      ],
      "stateMutability": "nonpayable",
      "type": "constructor"
    },
    {
      "inputs": [
        {
          "internalType": "uint256",
          "name": "userId",
          "type": "uint256"
        },
        {
          "internalType": "uint256",
          "name": "rewardValue",
          "type": "uint256"
        }
      ],
      "name": "AddReferalPayout",
      "outputs": [],
      "stateMutability": "payable",
      "type": "function"
    },
    {
      "inputs": [
        {
          "internalType": "uint256",
          "name": "userId",
          "type": "uint256"
        },
        {
          "internalType": "uint8",
          "name": "table",
          "type": "uint8"
        },
        {
          "internalType": "uint256",
          "name": "reward",
          "type": "uint256"
        }
      ],
      "name": "AddRewardSum",
      "outputs": [],
      "stateMutability": "payable",
      "type": "function"
    },
    {
      "inputs": [
        {
          "internalType": "uint256",
          "name": "value",
          "type": "uint256"
        }
      ],
      "name": "AddTotalValue",
      "outputs": [],
      "stateMutability": "payable",
      "type": "function"
    },
    {
      "inputs": [
        {
          "internalType": "uint256",
          "name": "userId",
          "type": "uint256"
        },
        {
          "internalType": "uint16",
          "name": "payouts",
          "type": "uint16"
        },
        {
          "internalType": "address",
          "name": "userAddress",
          "type": "address"
        }
      ],
      "name": "AddWhite",
      "outputs": [],
      "stateMutability": "payable",
      "type": "function"
    },
    {
      "inputs": [
        {
          "internalType": "uint8",
          "name": "table",
          "type": "uint8"
        },
        {
          "internalType": "address",
          "name": "userAddress",
          "type": "address"
        }
      ],
      "name": "BuyTable",
      "outputs": [],
      "stateMutability": "payable",
      "type": "function"
    },
    {
      "inputs": [
        {
          "internalType": "address",
          "name": "newAddress",
          "type": "address"
        }
      ],
      "name": "Change",
      "outputs": [],
      "stateMutability": "payable",
      "type": "function"
    },
    {
      "inputs": [
        {
          "internalType": "address",
          "name": "newAddress",
          "type": "address"
        }
      ],
      "name": "ChangeTableStorage",
      "outputs": [],
      "stateMutability": "payable",
      "type": "function"
    },
    {
      "inputs": [
        {
          "internalType": "address",
          "name": "newAddress",
          "type": "address"
        }
      ],
      "name": "ChangeUserStorage",
      "outputs": [],
      "stateMutability": "payable",
      "type": "function"
    },
    {
      "inputs": [
        {
          "internalType": "uint8",
          "name": "table",
          "type": "uint8"
        }
      ],
      "name": "GetFirstTableAddress",
      "outputs": [
        {
          "internalType": "address",
          "name": "",
          "type": "address"
        }
      ],
      "stateMutability": "view",
      "type": "function"
    },
    {
      "inputs": [],
      "name": "GetGlobalStatistic",
      "outputs": [
        {
          "internalType": "uint256",
          "name": "",
          "type": "uint256"
        },
        {
          "internalType": "uint256",
          "name": "",
          "type": "uint256"
        }
      ],
      "stateMutability": "view",
      "type": "function"
    },
    {
      "inputs": [
        {
          "internalType": "uint8",
          "name": "table",
          "type": "uint8"
        }
      ],
      "name": "GetHeadIndex",
      "outputs": [
        {
          "internalType": "uint256",
          "name": "",
          "type": "uint256"
        }
      ],
      "stateMutability": "view",
      "type": "function"
    },
    {
      "inputs": [
        {
          "internalType": "uint256",
          "name": "userId",
          "type": "uint256"
        },
        {
          "internalType": "address",
          "name": "userAddress",
          "type": "address"
        },
        {
          "internalType": "uint8",
          "name": "table",
          "type": "uint8"
        }
      ],
      "name": "GetPlaceInQueue",
      "outputs": [
        {
          "internalType": "uint256",
          "name": "",
          "type": "uint256"
        },
        {
          "internalType": "uint256",
          "name": "",
          "type": "uint256"
        }
      ],
      "stateMutability": "view",
      "type": "function"
    },
    {
      "inputs": [
        {
          "internalType": "uint256",
          "name": "value",
          "type": "uint256"
        }
      ],
      "name": "GetTableNumberByValue",
      "outputs": [
        {
          "internalType": "uint8",
          "name": "",
          "type": "uint8"
        }
      ],
      "stateMutability": "view",
      "type": "function"
    },
    {
      "inputs": [
        {
          "internalType": "uint8",
          "name": "table",
          "type": "uint8"
        }
      ],
      "name": "GetTablePrice",
      "outputs": [
        {
          "internalType": "uint256",
          "name": "",
          "type": "uint256"
        }
      ],
      "stateMutability": "view",
      "type": "function"
    },
    {
      "inputs": [],
      "name": "GetTablesCount",
      "outputs": [
        {
          "internalType": "uint256[]",
          "name": "",
          "type": "uint256[]"
        }
      ],
      "stateMutability": "view",
      "type": "function"
    },
    {
      "inputs": [],
      "name": "GetTablesPrice",
      "outputs": [
        {
          "internalType": "uint256[]",
          "name": "",
          "type": "uint256[]"
        }
      ],
      "stateMutability": "view",
      "type": "function"
    },
    {
      "inputs": [
        {
          "internalType": "uint8",
          "name": "table",
          "type": "uint8"
        }
      ],
      "name": "GetTablesQueue",
      "outputs": [
        {
          "internalType": "address[]",
          "name": "",
          "type": "address[]"
        }
      ],
      "stateMutability": "view",
      "type": "function"
    },
    {
      "inputs": [
        {
          "internalType": "uint256",
          "name": "userId",
          "type": "uint256"
        }
      ],
      "name": "GetUserLevels",
      "outputs": [
        {
          "internalType": "bool[]",
          "name": "",
          "type": "bool[]"
        },
        {
          "internalType": "uint16[]",
          "name": "",
          "type": "uint16[]"
        },
        {
          "internalType": "uint16[]",
          "name": "",
          "type": "uint16[]"
        },
        {
          "internalType": "uint256[]",
          "name": "",
          "type": "uint256[]"
        }
      ],
      "stateMutability": "view",
      "type": "function"
    },
    {
      "inputs": [
        {
          "internalType": "uint256",
          "name": "userId",
          "type": "uint256"
        }
      ],
      "name": "GetUserRewards",
      "outputs": [
        {
          "internalType": "uint256",
          "name": "",
          "type": "uint256"
        },
        {
          "internalType": "uint256",
          "name": "",
          "type": "uint256"
        }
      ],
      "stateMutability": "view",
      "type": "function"
    },
    {
      "inputs": [
        {
          "internalType": "uint256",
          "name": "userId",
          "type": "uint256"
        },
        {
          "internalType": "uint8",
          "name": "table",
          "type": "uint8"
        }
      ],
      "name": "IsTableActive",
      "outputs": [
        {
          "internalType": "bool",
          "name": "",
          "type": "bool"
        }
      ],
      "stateMutability": "view",
      "type": "function"
    },
    {
      "inputs": [
        {
          "internalType": "uint256",
          "name": "userId",
          "type": "uint256"
        },
        {
          "internalType": "uint8",
          "name": "table",
          "type": "uint8"
        }
      ],
      "name": "IsTableActiveOver",
      "outputs": [
        {
          "internalType": "bool",
          "name": "",
          "type": "bool"
        }
      ],
      "stateMutability": "view",
      "type": "function"
    },
    {
      "inputs": [
        {
          "internalType": "address",
          "name": "_addressKey",
          "type": "address"
        }
      ],
      "name": "Set",
      "outputs": [],
      "stateMutability": "payable",
      "type": "function"
    },
    {
      "inputs": [],
      "name": "SetKey",
      "outputs": [],
      "stateMutability": "payable",
      "type": "function"
    },
    {
      "inputs": [
        {
          "internalType": "uint8",
          "name": "table",
          "type": "uint8"
        }
      ],
      "name": "TableNumberIsValid",
      "outputs": [
        {
          "internalType": "bool",
          "name": "",
          "type": "bool"
        }
      ],
      "stateMutability": "view",
      "type": "function"
    },
    {
      "inputs": [
        {
          "internalType": "uint256",
          "name": "",
          "type": "uint256"
        }
      ],
      "name": "TablePrice",
      "outputs": [
        {
          "internalType": "uint256",
          "name": "",
          "type": "uint256"
        }
      ],
      "stateMutability": "view",
      "type": "function"
    }
  ],
  "bytecode": "0x6080604052604051806102200160405280600068ffffffffffffffffff168152602001668e1bc9bf04000068ffffffffffffffffff16815260200166f8b0a10e47000068ffffffffffffffffff1681526020016701aa535d3d0c000068ffffffffffffffffff1681526020016702c68af0bb14000068ffffffffffffffffff1681526020016704db73254763000068ffffffffffffffffff168152602001670853a0d2313c000068ffffffffffffffffff16815260200167120a871cc002000068ffffffffffffffffff168152602001671d24b2dfac52000068ffffffffffffffffff168152602001672dcbf4840eca000068ffffffffffffffffff168152602001674139c1192c56000068ffffffffffffffffff1681526020016753444835ec58000068ffffffffffffffffff168152602001676f05b59d3b20000068ffffffffffffffffff1681526020016798a7d9b8314c000068ffffffffffffffffff16815260200167c249fdd32778000068ffffffffffffffffff16815260200167de0b6b3a7640000068ffffffffffffffffff1681526020016801158e460913d0000068ffffffffffffffffff168152506005906011620001c1929190620005c7565b506001600580549050620001d6919062000788565b600655348015620001e657600080fd5b50604051620035bc380380620035bc83398181016040528101906200020c91906200065c565b336000806101000a81548173ffffffffffffffffffffffffffffffffffffffff021916908373ffffffffffffffffffffffffffffffffffffffff1602179055506040518060400160405280600015158152602001600073ffffffffffffffffffffffffffffffffffffffff16815250600160008201518160000160006101000a81548160ff02191690831515021790555060208201518160000160016101000a81548173ffffffffffffffffffffffffffffffffffffffff021916908373ffffffffffffffffffffffffffffffffffffffff16021790555090505033600260006101000a81548173ffffffffffffffffffffffffffffffffffffffff021916908373ffffffffffffffffffffffffffffffffffffffff16021790555081600360006101000a81548173ffffffffffffffffffffffffffffffffffffffff021916908373ffffffffffffffffffffffffffffffffffffffff16021790555080600460006101000a81548173ffffffffffffffffffffffffffffffffffffffff021916908373ffffffffffffffffffffffffffffffffffffffff160217905550600360009054906101000a900473ffffffffffffffffffffffffffffffffffffffff1673ffffffffffffffffffffffffffffffffffffffff166341e6f7246040518163ffffffff1660e01b8152600401600060405180830381600087803b1580156200041557600080fd5b505af11580156200042a573d6000803e3d6000fd5b505050506200046560016014600260009054906101000a900473ffffffffffffffffffffffffffffffffffffffff166200046d60201b60201c565b5050620008bd565b3373ffffffffffffffffffffffffffffffffffffffff16600260009054906101000a900473ffffffffffffffffffffffffffffffffffffffff1673ffffffffffffffffffffffffffffffffffffffff161462000500576040517f08c379a0000000000000000000000000000000000000000000000000000000008152600401620004f79062000708565b60405180910390fd5b6000600190505b6006548160ff1611620005c157600360009054906101000a900473ffffffffffffffffffffffffffffffffffffffff1673ffffffffffffffffffffffffffffffffffffffff16631f084ba8828585886040518563ffffffff1660e01b81526004016200057794939291906200072a565b600060405180830381600087803b1580156200059257600080fd5b505af1158015620005a7573d6000803e3d6000fd5b505050508080620005b8906200081c565b91505062000507565b50505050565b82805482825590600052602060002090810192821562000613579160200282015b8281111562000612578251829068ffffffffffffffffff16905591602001919060010190620005e8565b5b50905062000622919062000626565b5090565b5b808211156200064157600081600090555060010162000627565b5090565b6000815190506200065681620008a3565b92915050565b600080604083850312156200067057600080fd5b6000620006808582860162000645565b9250506020620006938582860162000645565b9150509250929050565b620006a881620007c3565b82525050565b6000620006bd600a8362000777565b9150620006ca826200087a565b602082019050919050565b620006e081620007d7565b82525050565b620006f18162000805565b82525050565b62000702816200080f565b82525050565b600060208201905081810360008301526200072381620006ae565b9050919050565b6000608082019050620007416000830187620006f7565b620007506020830186620006d5565b6200075f60408301856200069d565b6200076e6060830184620006e6565b95945050505050565b600082825260208201905092915050565b6000620007958262000805565b9150620007a28362000805565b925082821015620007b857620007b76200084b565b5b828203905092915050565b6000620007d082620007e5565b9050919050565b600061ffff82169050919050565b600073ffffffffffffffffffffffffffffffffffffffff82169050919050565b6000819050919050565b600060ff82169050919050565b600062000829826200080f565b915060ff82141562000840576200083f6200084b565b5b600182019050919050565b7f4e487b7100000000000000000000000000000000000000000000000000000000600052601160045260246000fd5b7f6f6e6c79206f776e657200000000000000000000000000000000000000000000600082015250565b620008ae81620007c3565b8114620008ba57600080fd5b50565b612cef80620008cd6000396000f3fe6080604052600436106101665760003560e01c806390aeecf8116100d1578063d950e9f81161008a578063e6179de111610064578063e6179de1146104f1578063efde8a171461051c578063f6b399f71461055a578063fa1fd3c61461059757610166565b8063d950e9f81461045b578063dd0411d114610477578063e29e0411146104b457610166565b806390aeecf81461035f578063b5a3c8b71461037b578063bae3a538146103b8578063bf473768146103f8578063cf2ef69b14610414578063d7fba0361461043f57610166565b806341e6f7241161012357806341e6f724146102565780635437af49146102605780636661cd631461029d5780636d694919146102da5780638745dd78146102f65780638a2a526a1461033357610166565b806302dc774d1461016b5780630a0512f41461018757806315a7adac146101a357806316385f44146101bf57806339a24593146101fd5780633c4dbb051461023a575b600080fd5b61018560048036038101906101809190611f24565b6105d4565b005b6101a1600480360381019061019c9190611f24565b61061b565b005b6101bd60048036038101906101b891906120e4565b6106ef565b005b3480156101cb57600080fd5b506101e660048036038101906101e19190612136565b61077f565b6040516101f492919061276b565b60405180910390f35b34801561020957600080fd5b50610224600480360381019061021f91906120e4565b610840565b60405161023191906127f4565b60405180910390f35b610254600480360381019061024f9190611f24565b6108ca565b005b61025e6109ba565b005b34801561026c57600080fd5b50610287600480360381019061028291906122d7565b610a27565b60405161029491906125f0565b60405180910390f35b3480156102a957600080fd5b506102c460048036038101906102bf91906120e4565b610adb565b6040516102d1919061270b565b60405180910390f35b6102f460048036038101906102ef9190612185565b610aff565b005b34801561030257600080fd5b5061031d600480360381019061031891906122d7565b610c4e565b60405161032a91906126b0565b60405180910390f35b34801561033f57600080fd5b50610348610c6e565b60405161035692919061276b565b60405180910390f35b61037960048036038101906103749190612288565b610d18565b005b34801561038757600080fd5b506103a2600480360381019061039d919061224c565b610e41565b6040516103af91906126b0565b60405180910390f35b3480156103c457600080fd5b506103df60048036038101906103da91906120e4565b610ef8565b6040516103ef949392919061262d565b60405180910390f35b610412600480360381019061040d9190611f24565b610fc1565b005b34801561042057600080fd5b50610429611095565b604051610436919061268e565b60405180910390f35b61045960048036038101906104549190612300565b6110ed565b005b610475600480360381019061047091906121d4565b61171a565b005b34801561048357600080fd5b5061049e6004803603810190610499919061224c565b611840565b6040516104ab91906126b0565b60405180910390f35b3480156104c057600080fd5b506104db60048036038101906104d691906122d7565b6118f7565b6040516104e8919061270b565b60405180910390f35b3480156104fd57600080fd5b50610506611948565b604051610513919061268e565b60405180910390f35b34801561052857600080fd5b50610543600480360381019061053e91906120e4565b611a01565b60405161055192919061276b565b60405180910390f35b34801561056657600080fd5b50610581600480360381019061057c91906122d7565b611ab7565b60405161058e919061270b565b60405180910390f35b3480156105a357600080fd5b506105be60048036038101906105b991906122d7565b611b6b565b6040516105cb919061260b565b60405180910390f35b80600160000160016101000a81548173ffffffffffffffffffffffffffffffffffffffff021916908373ffffffffffffffffffffffffffffffffffffffff16021790555050565b3373ffffffffffffffffffffffffffffffffffffffff16600260009054906101000a900473ffffffffffffffffffffffffffffffffffffffff1673ffffffffffffffffffffffffffffffffffffffff16146106ab576040517f08c379a00000000000000000000000000000000000000000000000000000000081526004016106a2906126cb565b60405180910390fd5b80600360006101000a81548173ffffffffffffffffffffffffffffffffffffffff021916908373ffffffffffffffffffffffffffffffffffffffff16021790555050565b600360009054906101000a900473ffffffffffffffffffffffffffffffffffffffff1673ffffffffffffffffffffffffffffffffffffffff166315a7adac826040518263ffffffff1660e01b815260040161074a919061270b565b600060405180830381600087803b15801561076457600080fd5b505af1158015610778573d6000803e3d6000fd5b5050505050565b600080600360009054906101000a900473ffffffffffffffffffffffffffffffffffffffff1673ffffffffffffffffffffffffffffffffffffffff1663fefa519d8686866006546040518563ffffffff1660e01b81526004016107e59493929190612726565b604080518083038186803b1580156107fc57600080fd5b505afa158015610810573d6000803e3d6000fd5b505050506040513d601f19601f820116820180604052508101906108349190612210565b91509150935093915050565b600080600190505b6006548160ff16116108bf578260058260ff1681548110610892577f4e487b7100000000000000000000000000000000000000000000000000000000600052603260045260246000fd5b906000526020600020015414156108ac57809150506108c5565b80806108b790612b5b565b915050610848565b50600090505b919050565b600160000160009054906101000a900460ff161561091d576040517f08c379a0000000000000000000000000000000000000000000000000000000008152600401610914906126eb565b60405180910390fd5b60405180604001604052806001151581526020018273ffffffffffffffffffffffffffffffffffffffff16815250600160008201518160000160006101000a81548160ff02191690831515021790555060208201518160000160016101000a81548173ffffffffffffffffffffffffffffffffffffffff021916908373ffffffffffffffffffffffffffffffffffffffff16021790555090505050565b3073ffffffffffffffffffffffffffffffffffffffff16633c4dbb05336040518263ffffffff1660e01b81526004016109f391906125f0565b600060405180830381600087803b158015610a0d57600080fd5b505af1158015610a21573d6000803e3d6000fd5b50505050565b6000600360009054906101000a900473ffffffffffffffffffffffffffffffffffffffff1673ffffffffffffffffffffffffffffffffffffffff16635437af49836040518263ffffffff1660e01b8152600401610a8491906127f4565b60206040518083038186803b158015610a9c57600080fd5b505afa158015610ab0573d6000803e3d6000fd5b505050506040513d601f19601f82011682018060405250810190610ad49190611f4d565b9050919050565b60058181548110610aeb57600080fd5b906000526020600020016000915090505481565b3373ffffffffffffffffffffffffffffffffffffffff16600260009054906101000a900473ffffffffffffffffffffffffffffffffffffffff1673ffffffffffffffffffffffffffffffffffffffff1614610b8f576040517f08c379a0000000000000000000000000000000000000000000000000000000008152600401610b86906126cb565b60405180910390fd5b6000600190505b6006548160ff1611610c4857600360009054906101000a900473ffffffffffffffffffffffffffffffffffffffff1673ffffffffffffffffffffffffffffffffffffffff16631f084ba8828585886040518563ffffffff1660e01b8152600401610c03949392919061287d565b600060405180830381600087803b158015610c1d57600080fd5b505af1158015610c31573d6000803e3d6000fd5b505050508080610c4090612b5b565b915050610b96565b50505050565b6000808260ff16118015610c6757506006548260ff1611155b9050919050565b600080600360009054906101000a900473ffffffffffffffffffffffffffffffffffffffff1673ffffffffffffffffffffffffffffffffffffffff16638a2a526a6040518163ffffffff1660e01b8152600401604080518083038186803b158015610cd857600080fd5b505afa158015610cec573d6000803e3d6000fd5b505050506040513d601f19601f82011682018060405250810190610d109190612210565b915091509091565b3373ffffffffffffffffffffffffffffffffffffffff16600160000160019054906101000a900473ffffffffffffffffffffffffffffffffffffffff1673ffffffffffffffffffffffffffffffffffffffff1614610dab576040517f08c379a0000000000000000000000000000000000000000000000000000000008152600401610da2906126eb565b60405180910390fd5b600360009054906101000a900473ffffffffffffffffffffffffffffffffffffffff1673ffffffffffffffffffffffffffffffffffffffff166390aeecf88484846040518463ffffffff1660e01b8152600401610e0a939291906127bd565b600060405180830381600087803b158015610e2457600080fd5b505af1158015610e38573d6000803e3d6000fd5b50505050505050565b6000600360009054906101000a900473ffffffffffffffffffffffffffffffffffffffff1673ffffffffffffffffffffffffffffffffffffffff1663b5a3c8b784846040518363ffffffff1660e01b8152600401610ea0929190612794565b60206040518083038186803b158015610eb857600080fd5b505afa158015610ecc573d6000803e3d6000fd5b505050506040513d601f19601f82011682018060405250810190610ef091906120bb565b905092915050565b606080606080600360009054906101000a900473ffffffffffffffffffffffffffffffffffffffff1673ffffffffffffffffffffffffffffffffffffffff16636abf4fc5866006546040518363ffffffff1660e01b8152600401610f5d92919061276b565b60006040518083038186803b158015610f7557600080fd5b505afa158015610f89573d6000803e3d6000fd5b505050506040513d6000823e3d601f19601f82011682018060405250810190610fb29190611fb7565b93509350935093509193509193565b3373ffffffffffffffffffffffffffffffffffffffff16600260009054906101000a900473ffffffffffffffffffffffffffffffffffffffff1673ffffffffffffffffffffffffffffffffffffffff1614611051576040517f08c379a0000000000000000000000000000000000000000000000000000000008152600401611048906126cb565b60405180910390fd5b80600460006101000a81548173ffffffffffffffffffffffffffffffffffffffff021916908373ffffffffffffffffffffffffffffffffffffffff16021790555050565b606060058054806020026020016040519081016040528092919081815260200182805480156110e357602002820191906000526020600020905b8154815260200190600101908083116110cf575b5050505050905090565b3373ffffffffffffffffffffffffffffffffffffffff16600160000160019054906101000a900473ffffffffffffffffffffffffffffffffffffffff1673ffffffffffffffffffffffffffffffffffffffff1614611180576040517f08c379a0000000000000000000000000000000000000000000000000000000008152600401611177906126eb565b60405180910390fd5b6000600460009054906101000a900473ffffffffffffffffffffffffffffffffffffffff1673ffffffffffffffffffffffffffffffffffffffff166331a73991836040518263ffffffff1660e01b81526004016111dd91906125f0565b60206040518083038186803b1580156111f557600080fd5b505afa158015611209573d6000803e3d6000fd5b505050506040513d601f19601f8201168201806040525081019061122d919061210d565b9050600360009054906101000a900473ffffffffffffffffffffffffffffffffffffffff1673ffffffffffffffffffffffffffffffffffffffff16631f084ba884600385856040518563ffffffff1660e01b81526004016112919493929190612838565b600060405180830381600087803b1580156112ab57600080fd5b505af11580156112bf573d6000803e3d6000fd5b505050506000600360009054906101000a900473ffffffffffffffffffffffffffffffffffffffff1673ffffffffffffffffffffffffffffffffffffffff16635437af49856040518263ffffffff1660e01b815260040161132091906127f4565b60206040518083038186803b15801561133857600080fd5b505afa15801561134c573d6000803e3d6000fd5b505050506040513d601f19601f820116820180604052508101906113709190611f4d565b90506000600460009054906101000a900473ffffffffffffffffffffffffffffffffffffffff1673ffffffffffffffffffffffffffffffffffffffff166331a73991836040518263ffffffff1660e01b81526004016113cf91906125f0565b60206040518083038186803b1580156113e757600080fd5b505afa1580156113fb573d6000803e3d6000fd5b505050506040513d601f19601f8201168201806040525081019061141f919061210d565b9050600360009054906101000a900473ffffffffffffffffffffffffffffffffffffffff1673ffffffffffffffffffffffffffffffffffffffff166330f15ad986836040518363ffffffff1660e01b815260040161147e9291906128c2565b600060405180830381600087803b15801561149857600080fd5b505af11580156114ac573d6000803e3d6000fd5b50505050600360009054906101000a900473ffffffffffffffffffffffffffffffffffffffff1673ffffffffffffffffffffffffffffffffffffffff1663dd0411d182876040518363ffffffff1660e01b815260040161150d929190612794565b60206040518083038186803b15801561152557600080fd5b505afa158015611539573d6000803e3d6000fd5b505050506040513d601f19601f8201168201806040525081019061155d91906120bb565b156115f657600360009054906101000a900473ffffffffffffffffffffffffffffffffffffffff1673ffffffffffffffffffffffffffffffffffffffff16637c6708d982876040518363ffffffff1660e01b81526004016115bf929190612794565b600060405180830381600087803b1580156115d957600080fd5b505af11580156115ed573d6000803e3d6000fd5b50505050611686565b600360009054906101000a900473ffffffffffffffffffffffffffffffffffffffff1673ffffffffffffffffffffffffffffffffffffffff166374b16a5a86846040518363ffffffff1660e01b815260040161165392919061280f565b600060405180830381600087803b15801561166d57600080fd5b505af1158015611681573d6000803e3d6000fd5b505050505b600360009054906101000a900473ffffffffffffffffffffffffffffffffffffffff1673ffffffffffffffffffffffffffffffffffffffff1663ea58dba3866040518263ffffffff1660e01b81526004016116e191906127f4565b600060405180830381600087803b1580156116fb57600080fd5b505af115801561170f573d6000803e3d6000fd5b505050505050505050565b3373ffffffffffffffffffffffffffffffffffffffff16600160000160019054906101000a900473ffffffffffffffffffffffffffffffffffffffff1673ffffffffffffffffffffffffffffffffffffffff16146117ad576040517f08c379a00000000000000000000000000000000000000000000000000000000081526004016117a4906126eb565b60405180910390fd5b600360009054906101000a900473ffffffffffffffffffffffffffffffffffffffff1673ffffffffffffffffffffffffffffffffffffffff1663d950e9f883836040518363ffffffff1660e01b815260040161180a92919061276b565b600060405180830381600087803b15801561182457600080fd5b505af1158015611838573d6000803e3d6000fd5b505050505050565b6000600360009054906101000a900473ffffffffffffffffffffffffffffffffffffffff1673ffffffffffffffffffffffffffffffffffffffff1663dd0411d184846040518363ffffffff1660e01b815260040161189f929190612794565b60206040518083038186803b1580156118b757600080fd5b505afa1580156118cb573d6000803e3d6000fd5b505050506040513d601f19601f820116820180604052508101906118ef91906120bb565b905092915050565b600060058260ff1681548110611936577f4e487b7100000000000000000000000000000000000000000000000000000000600052603260045260246000fd5b90600052602060002001549050919050565b6060600360009054906101000a900473ffffffffffffffffffffffffffffffffffffffff1673ffffffffffffffffffffffffffffffffffffffff1663ec030b246006546040518263ffffffff1660e01b81526004016119a7919061270b565b60006040518083038186803b1580156119bf57600080fd5b505afa1580156119d3573d6000803e3d6000fd5b505050506040513d6000823e3d601f19601f820116820180604052508101906119fc919061207a565b905090565b600080600360009054906101000a900473ffffffffffffffffffffffffffffffffffffffff1673ffffffffffffffffffffffffffffffffffffffff1663efde8a17846040518263ffffffff1660e01b8152600401611a5f919061270b565b604080518083038186803b158015611a7657600080fd5b505afa158015611a8a573d6000803e3d6000fd5b505050506040513d601f19601f82011682018060405250810190611aae9190612210565b91509150915091565b6000600360009054906101000a900473ffffffffffffffffffffffffffffffffffffffff1673ffffffffffffffffffffffffffffffffffffffff1663f6b399f7836040518263ffffffff1660e01b8152600401611b1491906127f4565b60206040518083038186803b158015611b2c57600080fd5b505afa158015611b40573d6000803e3d6000fd5b505050506040513d601f19601f82011682018060405250810190611b64919061210d565b9050919050565b6060600360009054906101000a900473ffffffffffffffffffffffffffffffffffffffff1673ffffffffffffffffffffffffffffffffffffffff1663fa1fd3c6836040518263ffffffff1660e01b8152600401611bc891906127f4565b60006040518083038186803b158015611be057600080fd5b505afa158015611bf4573d6000803e3d6000fd5b505050506040513d6000823e3d601f19601f82011682018060405250810190611c1d9190611f76565b9050919050565b6000611c37611c3284612910565b6128eb565b90508083825260208201905082856020860282011115611c5657600080fd5b60005b85811015611c865781611c6c8882611de9565b845260208401935060208301925050600181019050611c59565b5050509392505050565b6000611ca3611c9e8461293c565b6128eb565b90508083825260208201905082856020860282011115611cc257600080fd5b60005b85811015611cf25781611cd88882611ea6565b845260208401935060208301925050600181019050611cc5565b5050509392505050565b6000611d0f611d0a84612968565b6128eb565b90508083825260208201905082856020860282011115611d2e57600080fd5b60005b85811015611d5e5781611d448882611ed0565b845260208401935060208301925050600181019050611d31565b5050509392505050565b6000611d7b611d7684612994565b6128eb565b90508083825260208201905082856020860282011115611d9a57600080fd5b60005b85811015611dca5781611db08882611efa565b845260208401935060208301925050600181019050611d9d565b5050509392505050565b600081359050611de381612c46565b92915050565b600081519050611df881612c46565b92915050565b600082601f830112611e0f57600080fd5b8151611e1f848260208601611c24565b91505092915050565b600082601f830112611e3957600080fd5b8151611e49848260208601611c90565b91505092915050565b600082601f830112611e6357600080fd5b8151611e73848260208601611cfc565b91505092915050565b600082601f830112611e8d57600080fd5b8151611e9d848260208601611d68565b91505092915050565b600081519050611eb581612c5d565b92915050565b600081359050611eca81612c74565b92915050565b600081519050611edf81612c74565b92915050565b600081359050611ef481612c8b565b92915050565b600081519050611f0981612c8b565b92915050565b600081359050611f1e81612ca2565b92915050565b600060208284031215611f3657600080fd5b6000611f4484828501611dd4565b91505092915050565b600060208284031215611f5f57600080fd5b6000611f6d84828501611de9565b91505092915050565b600060208284031215611f8857600080fd5b600082015167ffffffffffffffff811115611fa257600080fd5b611fae84828501611dfe565b91505092915050565b60008060008060808587031215611fcd57600080fd5b600085015167ffffffffffffffff811115611fe757600080fd5b611ff387828801611e28565b945050602085015167ffffffffffffffff81111561201057600080fd5b61201c87828801611e52565b935050604085015167ffffffffffffffff81111561203957600080fd5b61204587828801611e52565b925050606085015167ffffffffffffffff81111561206257600080fd5b61206e87828801611e7c565b91505092959194509250565b60006020828403121561208c57600080fd5b600082015167ffffffffffffffff8111156120a657600080fd5b6120b284828501611e7c565b91505092915050565b6000602082840312156120cd57600080fd5b60006120db84828501611ea6565b91505092915050565b6000602082840312156120f657600080fd5b600061210484828501611ee5565b91505092915050565b60006020828403121561211f57600080fd5b600061212d84828501611efa565b91505092915050565b60008060006060848603121561214b57600080fd5b600061215986828701611ee5565b935050602061216a86828701611dd4565b925050604061217b86828701611f0f565b9150509250925092565b60008060006060848603121561219a57600080fd5b60006121a886828701611ee5565b93505060206121b986828701611ebb565b92505060406121ca86828701611dd4565b9150509250925092565b600080604083850312156121e757600080fd5b60006121f585828601611ee5565b925050602061220685828601611ee5565b9150509250929050565b6000806040838503121561222357600080fd5b600061223185828601611efa565b925050602061224285828601611efa565b9150509250929050565b6000806040838503121561225f57600080fd5b600061226d85828601611ee5565b925050602061227e85828601611f0f565b9150509250929050565b60008060006060848603121561229d57600080fd5b60006122ab86828701611ee5565b93505060206122bc86828701611f0f565b92505060406122cd86828701611ee5565b9150509250925092565b6000602082840312156122e957600080fd5b60006122f784828501611f0f565b91505092915050565b6000806040838503121561231357600080fd5b600061232185828601611f0f565b925050602061233285828601611dd4565b9150509250929050565b6000612348838361239c565b60208301905092915050565b60006123608383612532565b60208301905092915050565b600061237883836125a5565b60208301905092915050565b600061239083836125c3565b60208301905092915050565b6123a581612ab5565b82525050565b6123b481612ab5565b82525050565b60006123c582612a00565b6123cf8185612a60565b93506123da836129c0565b8060005b8381101561240b5781516123f2888261233c565b97506123fd83612a2c565b9250506001810190506123de565b5085935050505092915050565b600061242382612a0b565b61242d8185612a71565b9350612438836129d0565b8060005b838110156124695781516124508882612354565b975061245b83612a39565b92505060018101905061243c565b5085935050505092915050565b600061248182612a16565b61248b8185612a82565b9350612496836129e0565b8060005b838110156124c75781516124ae888261236c565b97506124b983612a46565b92505060018101905061249a565b5085935050505092915050565b60006124df82612a21565b6124e98185612a93565b93506124f4836129f0565b8060005b8381101561252557815161250c8882612384565b975061251783612a53565b9250506001810190506124f8565b5085935050505092915050565b61253b81612ac7565b82525050565b61254a81612ac7565b82525050565b61255981612b18565b82525050565b600061256c600a83612aa4565b915061257782612bf4565b602082019050919050565b600061258f600183612aa4565b915061259a82612c1d565b602082019050919050565b6125ae81612ad3565b82525050565b6125bd81612ad3565b82525050565b6125cc81612b01565b82525050565b6125db81612b01565b82525050565b6125ea81612b0b565b82525050565b600060208201905061260560008301846123ab565b92915050565b6000602082019050818103600083015261262581846123ba565b905092915050565b600060808201905081810360008301526126478187612418565b9050818103602083015261265b8186612476565b9050818103604083015261266f8185612476565b9050818103606083015261268381846124d4565b905095945050505050565b600060208201905081810360008301526126a881846124d4565b905092915050565b60006020820190506126c56000830184612541565b92915050565b600060208201905081810360008301526126e48161255f565b9050919050565b6000602082019050818103600083015261270481612582565b9050919050565b600060208201905061272060008301846125d2565b92915050565b600060808201905061273b60008301876125d2565b61274860208301866123ab565b61275560408301856125e1565b61276260608301846125d2565b95945050505050565b600060408201905061278060008301856125d2565b61278d60208301846125d2565b9392505050565b60006040820190506127a960008301856125d2565b6127b660208301846125e1565b9392505050565b60006060820190506127d260008301866125d2565b6127df60208301856125e1565b6127ec60408301846125d2565b949350505050565b600060208201905061280960008301846125e1565b92915050565b600060408201905061282460008301856125e1565b61283160208301846123ab565b9392505050565b600060808201905061284d60008301876125e1565b61285a6020830186612550565b61286760408301856123ab565b61287460608301846125d2565b95945050505050565b600060808201905061289260008301876125e1565b61289f60208301866125b4565b6128ac60408301856123ab565b6128b960608301846125d2565b95945050505050565b60006040820190506128d760008301856125e1565b6128e460208301846125d2565b9392505050565b60006128f5612906565b90506129018282612b2a565b919050565b6000604051905090565b600067ffffffffffffffff82111561292b5761292a612bb4565b5b602082029050602081019050919050565b600067ffffffffffffffff82111561295757612956612bb4565b5b602082029050602081019050919050565b600067ffffffffffffffff82111561298357612982612bb4565b5b602082029050602081019050919050565b600067ffffffffffffffff8211156129af576129ae612bb4565b5b602082029050602081019050919050565b6000819050602082019050919050565b6000819050602082019050919050565b6000819050602082019050919050565b6000819050602082019050919050565b600081519050919050565b600081519050919050565b600081519050919050565b600081519050919050565b6000602082019050919050565b6000602082019050919050565b6000602082019050919050565b6000602082019050919050565b600082825260208201905092915050565b600082825260208201905092915050565b600082825260208201905092915050565b600082825260208201905092915050565b600082825260208201905092915050565b6000612ac082612ae1565b9050919050565b60008115159050919050565b600061ffff82169050919050565b600073ffffffffffffffffffffffffffffffffffffffff82169050919050565b6000819050919050565b600060ff82169050919050565b6000612b2382612ad3565b9050919050565b612b3382612be3565b810181811067ffffffffffffffff82111715612b5257612b51612bb4565b5b80604052505050565b6000612b6682612b0b565b915060ff821415612b7a57612b79612b85565b5b600182019050919050565b7f4e487b7100000000000000000000000000000000000000000000000000000000600052601160045260246000fd5b7f4e487b7100000000000000000000000000000000000000000000000000000000600052604160045260246000fd5b6000601f19601f8301169050919050565b7f6f6e6c79206f776e657200000000000000000000000000000000000000000000600082015250565b7f3100000000000000000000000000000000000000000000000000000000000000600082015250565b612c4f81612ab5565b8114612c5a57600080fd5b50565b612c6681612ac7565b8114612c7157600080fd5b50565b612c7d81612ad3565b8114612c8857600080fd5b50565b612c9481612b01565b8114612c9f57600080fd5b50565b612cab81612b0b565b8114612cb657600080fd5b5056fea2646970667358221220cdcc6c41042febfd985c9a68238b892c3d0354b18d163d483da0613fc701b2f764736f6c63430008040033",
  "linkReferences": {},
  "deployedLinkReferences": {}
}