{
  "_format": "hh-sol-artifact-1",
  "contractName": "TableController",
  "sourceName": "contracts/Controllers/TableController.sol",
  "abi": [
    {
      "inputs": [
        {
          "internalType": "address",
          "name": "tableStorageAddress",
          "type": "address"
        },
        {
          "internalType": "address",
          "name": "userStorageAddress",
          "type": "address"
        }
      ],
      "stateMutability": "nonpayable",
      "type": "constructor"
    },
    {
      "inputs": [
        {
          "internalType": "uint256",
          "name": "userId",
          "type": "uint256"
        },
        {
          "internalType": "uint256",
          "name": "rewardValue",
          "type": "uint256"
        }
      ],
      "name": "AddReferalPayout",
      "outputs": [],
      "stateMutability": "payable",
      "type": "function"
    },
    {
      "inputs": [
        {
          "internalType": "uint256",
          "name": "userId",
          "type": "uint256"
        },
        {
          "internalType": "uint8",
          "name": "table",
          "type": "uint8"
        },
        {
          "internalType": "uint256",
          "name": "reward",
          "type": "uint256"
        }
      ],
      "name": "AddRewardSum",
      "outputs": [],
      "stateMutability": "payable",
      "type": "function"
    },
    {
      "inputs": [
        {
          "internalType": "uint256",
          "name": "userId",
          "type": "uint256"
        },
        {
          "internalType": "uint16",
          "name": "payouts",
          "type": "uint16"
        },
        {
          "internalType": "address",
          "name": "userAddress",
          "type": "address"
        }
      ],
      "name": "AddWhite",
      "outputs": [],
      "stateMutability": "payable",
      "type": "function"
    },
    {
      "inputs": [
        {
          "internalType": "uint8",
          "name": "table",
          "type": "uint8"
        },
        {
          "internalType": "address",
          "name": "userAddress",
          "type": "address"
        }
      ],
      "name": "BuyTable",
      "outputs": [],
      "stateMutability": "payable",
      "type": "function"
    },
    {
      "inputs": [
        {
          "internalType": "address",
          "name": "newAddress",
          "type": "address"
        }
      ],
      "name": "Change",
      "outputs": [],
      "stateMutability": "payable",
      "type": "function"
    },
    {
      "inputs": [
        {
          "internalType": "address",
          "name": "newAddress",
          "type": "address"
        }
      ],
      "name": "ChangeTableStorage",
      "outputs": [],
      "stateMutability": "payable",
      "type": "function"
    },
    {
      "inputs": [
        {
          "internalType": "address",
          "name": "newAddress",
          "type": "address"
        }
      ],
      "name": "ChangeUserStorage",
      "outputs": [],
      "stateMutability": "payable",
      "type": "function"
    },
    {
      "inputs": [
        {
          "internalType": "uint8",
          "name": "table",
          "type": "uint8"
        }
      ],
      "name": "GetFirstTableAddress",
      "outputs": [
        {
          "internalType": "address",
          "name": "",
          "type": "address"
        }
      ],
      "stateMutability": "view",
      "type": "function"
    },
    {
      "inputs": [],
      "name": "GetGlobalStatistic",
      "outputs": [
        {
          "internalType": "uint256",
          "name": "",
          "type": "uint256"
        }
      ],
      "stateMutability": "view",
      "type": "function"
    },
    {
      "inputs": [
        {
          "internalType": "uint8",
          "name": "table",
          "type": "uint8"
        }
      ],
      "name": "GetHeadIndex",
      "outputs": [
        {
          "internalType": "uint256",
          "name": "",
          "type": "uint256"
        }
      ],
      "stateMutability": "view",
      "type": "function"
    },
    {
      "inputs": [
        {
          "internalType": "uint256",
          "name": "userId",
          "type": "uint256"
        },
        {
          "internalType": "address",
          "name": "userAddress",
          "type": "address"
        },
        {
          "internalType": "uint8",
          "name": "table",
          "type": "uint8"
        }
      ],
      "name": "GetPlaceInQueue",
      "outputs": [
        {
          "internalType": "uint256",
          "name": "",
          "type": "uint256"
        },
        {
          "internalType": "uint256",
          "name": "",
          "type": "uint256"
        }
      ],
      "stateMutability": "view",
      "type": "function"
    },
    {
      "inputs": [
        {
          "internalType": "uint256",
          "name": "value",
          "type": "uint256"
        }
      ],
      "name": "GetTableNumberByValue",
      "outputs": [
        {
          "internalType": "uint8",
          "name": "",
          "type": "uint8"
        }
      ],
      "stateMutability": "view",
      "type": "function"
    },
    {
      "inputs": [
        {
          "internalType": "uint8",
          "name": "table",
          "type": "uint8"
        }
      ],
      "name": "GetTablePrice",
      "outputs": [
        {
          "internalType": "uint256",
          "name": "",
          "type": "uint256"
        }
      ],
      "stateMutability": "view",
      "type": "function"
    },
    {
      "inputs": [],
      "name": "GetTablesCount",
      "outputs": [
        {
          "internalType": "uint256[]",
          "name": "",
          "type": "uint256[]"
        }
      ],
      "stateMutability": "view",
      "type": "function"
    },
    {
      "inputs": [],
      "name": "GetTablesPrice",
      "outputs": [
        {
          "internalType": "uint256[]",
          "name": "",
          "type": "uint256[]"
        }
      ],
      "stateMutability": "view",
      "type": "function"
    },
    {
      "inputs": [
        {
          "internalType": "uint8",
          "name": "table",
          "type": "uint8"
        }
      ],
      "name": "GetTablesQueue",
      "outputs": [
        {
          "internalType": "address[]",
          "name": "",
          "type": "address[]"
        }
      ],
      "stateMutability": "view",
      "type": "function"
    },
    {
      "inputs": [
        {
          "internalType": "uint256",
          "name": "userId",
          "type": "uint256"
        }
      ],
      "name": "GetUserLevels",
      "outputs": [
        {
          "internalType": "bool[]",
          "name": "",
          "type": "bool[]"
        },
        {
          "internalType": "uint16[]",
          "name": "",
          "type": "uint16[]"
        },
        {
          "internalType": "uint16[]",
          "name": "",
          "type": "uint16[]"
        },
        {
          "internalType": "uint256[]",
          "name": "",
          "type": "uint256[]"
        }
      ],
      "stateMutability": "view",
      "type": "function"
    },
    {
      "inputs": [
        {
          "internalType": "uint256",
          "name": "userId",
          "type": "uint256"
        }
      ],
      "name": "GetUserRewards",
      "outputs": [
        {
          "internalType": "uint256",
          "name": "",
          "type": "uint256"
        },
        {
          "internalType": "uint256",
          "name": "",
          "type": "uint256"
        }
      ],
      "stateMutability": "view",
      "type": "function"
    },
    {
      "inputs": [
        {
          "internalType": "uint256",
          "name": "userId",
          "type": "uint256"
        },
        {
          "internalType": "uint8",
          "name": "table",
          "type": "uint8"
        }
      ],
      "name": "IsTableActive",
      "outputs": [
        {
          "internalType": "bool",
          "name": "",
          "type": "bool"
        }
      ],
      "stateMutability": "view",
      "type": "function"
    },
    {
      "inputs": [
        {
          "internalType": "uint256",
          "name": "userId",
          "type": "uint256"
        },
        {
          "internalType": "uint8",
          "name": "table",
          "type": "uint8"
        }
      ],
      "name": "IsTableActiveOver",
      "outputs": [
        {
          "internalType": "bool",
          "name": "",
          "type": "bool"
        }
      ],
      "stateMutability": "view",
      "type": "function"
    },
    {
      "inputs": [
        {
          "internalType": "address",
          "name": "_addressKey",
          "type": "address"
        }
      ],
      "name": "Set",
      "outputs": [],
      "stateMutability": "payable",
      "type": "function"
    },
    {
      "inputs": [],
      "name": "SetKey",
      "outputs": [],
      "stateMutability": "payable",
      "type": "function"
    },
    {
      "inputs": [
        {
          "internalType": "uint8",
          "name": "table",
          "type": "uint8"
        }
      ],
      "name": "TableNumberIsValid",
      "outputs": [
        {
          "internalType": "bool",
          "name": "",
          "type": "bool"
        }
      ],
      "stateMutability": "view",
      "type": "function"
    },
    {
      "inputs": [
        {
          "internalType": "uint256",
          "name": "",
          "type": "uint256"
        }
      ],
      "name": "TablePrice",
      "outputs": [
        {
          "internalType": "uint256",
          "name": "",
          "type": "uint256"
        }
      ],
      "stateMutability": "view",
      "type": "function"
    }
  ],
  "bytecode": "0x6080604052604051806102200160405280600068ffffffffffffffffff168152602001668e1bc9bf04000068ffffffffffffffffff16815260200166f8b0a10e47000068ffffffffffffffffff1681526020016701aa535d3d0c000068ffffffffffffffffff1681526020016702c68af0bb14000068ffffffffffffffffff1681526020016704db73254763000068ffffffffffffffffff168152602001670853a0d2313c000068ffffffffffffffffff16815260200167120a871cc002000068ffffffffffffffffff168152602001671d24b2dfac52000068ffffffffffffffffff168152602001672dcbf4840eca000068ffffffffffffffffff168152602001674139c1192c56000068ffffffffffffffffff1681526020016753444835ec58000068ffffffffffffffffff168152602001676f05b59d3b20000068ffffffffffffffffff1681526020016798a7d9b8314c000068ffffffffffffffffff16815260200167c249fdd32778000068ffffffffffffffffff16815260200167de0b6b3a7640000068ffffffffffffffffff1681526020016801158e460913d0000068ffffffffffffffffff168152506005906011620001c1929190620005c7565b506001600580549050620001d6919062000788565b600655348015620001e657600080fd5b50604051620034f1380380620034f183398181016040528101906200020c91906200065c565b336000806101000a81548173ffffffffffffffffffffffffffffffffffffffff021916908373ffffffffffffffffffffffffffffffffffffffff1602179055506040518060400160405280600015158152602001600073ffffffffffffffffffffffffffffffffffffffff16815250600160008201518160000160006101000a81548160ff02191690831515021790555060208201518160000160016101000a81548173ffffffffffffffffffffffffffffffffffffffff021916908373ffffffffffffffffffffffffffffffffffffffff16021790555090505033600260006101000a81548173ffffffffffffffffffffffffffffffffffffffff021916908373ffffffffffffffffffffffffffffffffffffffff16021790555081600360006101000a81548173ffffffffffffffffffffffffffffffffffffffff021916908373ffffffffffffffffffffffffffffffffffffffff16021790555080600460006101000a81548173ffffffffffffffffffffffffffffffffffffffff021916908373ffffffffffffffffffffffffffffffffffffffff160217905550600360009054906101000a900473ffffffffffffffffffffffffffffffffffffffff1673ffffffffffffffffffffffffffffffffffffffff166341e6f7246040518163ffffffff1660e01b8152600401600060405180830381600087803b1580156200041557600080fd5b505af11580156200042a573d6000803e3d6000fd5b505050506200046560016014600260009054906101000a900473ffffffffffffffffffffffffffffffffffffffff166200046d60201b60201c565b5050620008bd565b3373ffffffffffffffffffffffffffffffffffffffff16600260009054906101000a900473ffffffffffffffffffffffffffffffffffffffff1673ffffffffffffffffffffffffffffffffffffffff161462000500576040517f08c379a0000000000000000000000000000000000000000000000000000000008152600401620004f79062000708565b60405180910390fd5b6000600190505b6006548160ff1611620005c157600360009054906101000a900473ffffffffffffffffffffffffffffffffffffffff1673ffffffffffffffffffffffffffffffffffffffff16631f084ba8828585886040518563ffffffff1660e01b81526004016200057794939291906200072a565b600060405180830381600087803b1580156200059257600080fd5b505af1158015620005a7573d6000803e3d6000fd5b505050508080620005b8906200081c565b91505062000507565b50505050565b82805482825590600052602060002090810192821562000613579160200282015b8281111562000612578251829068ffffffffffffffffff16905591602001919060010190620005e8565b5b50905062000622919062000626565b5090565b5b808211156200064157600081600090555060010162000627565b5090565b6000815190506200065681620008a3565b92915050565b600080604083850312156200067057600080fd5b6000620006808582860162000645565b9250506020620006938582860162000645565b9150509250929050565b620006a881620007c3565b82525050565b6000620006bd600a8362000777565b9150620006ca826200087a565b602082019050919050565b620006e081620007d7565b82525050565b620006f18162000805565b82525050565b62000702816200080f565b82525050565b600060208201905081810360008301526200072381620006ae565b9050919050565b6000608082019050620007416000830187620006f7565b620007506020830186620006d5565b6200075f60408301856200069d565b6200076e6060830184620006e6565b95945050505050565b600082825260208201905092915050565b6000620007958262000805565b9150620007a28362000805565b925082821015620007b857620007b76200084b565b5b828203905092915050565b6000620007d082620007e5565b9050919050565b600061ffff82169050919050565b600073ffffffffffffffffffffffffffffffffffffffff82169050919050565b6000819050919050565b600060ff82169050919050565b600062000829826200080f565b915060ff82141562000840576200083f6200084b565b5b600182019050919050565b7f4e487b7100000000000000000000000000000000000000000000000000000000600052601160045260246000fd5b7f6f6e6c79206f776e657200000000000000000000000000000000000000000000600082015250565b620008ae81620007c3565b8114620008ba57600080fd5b50565b612c2480620008cd6000396000f3fe60806040526004361061014b5760003560e01c8063b5a3c8b7116100b6578063dd0411d11161006f578063dd0411d11461043f578063e29e04111461047c578063e6179de1146104b9578063efde8a17146104e4578063f6b399f714610522578063fa1fd3c61461055f5761014b565b8063b5a3c8b714610343578063bae3a53814610380578063bf473768146103c0578063cf2ef69b146103dc578063d7fba03614610407578063d950e9f8146104235761014b565b80635437af49116101085780635437af49146102295780636661cd63146102665780636d694919146102a35780638745dd78146102bf5780638a2a526a146102fc57806390aeecf8146103275761014b565b806302dc774d146101505780630a0512f41461016c57806316385f441461018857806339a24593146101c65780633c4dbb051461020357806341e6f7241461021f575b600080fd5b61016a60048036038101906101659190611e59565b61059c565b005b61018660048036038101906101819190611e59565b6105e3565b005b34801561019457600080fd5b506101af60048036038101906101aa919061206b565b6106b7565b6040516101bd9291906126a0565b60405180910390f35b3480156101d257600080fd5b506101ed60048036038101906101e89190612019565b610778565b6040516101fa9190612729565b60405180910390f35b61021d60048036038101906102189190611e59565b610802565b005b6102276108f2565b005b34801561023557600080fd5b50610250600480360381019061024b919061220c565b61095f565b60405161025d9190612525565b60405180910390f35b34801561027257600080fd5b5061028d60048036038101906102889190612019565b610a13565b60405161029a9190612640565b60405180910390f35b6102bd60048036038101906102b891906120ba565b610a37565b005b3480156102cb57600080fd5b506102e660048036038101906102e1919061220c565b610b86565b6040516102f391906125e5565b60405180910390f35b34801561030857600080fd5b50610311610ba6565b60405161031e9190612640565b60405180910390f35b610341600480360381019061033c91906121bd565b610c4d565b005b34801561034f57600080fd5b5061036a60048036038101906103659190612181565b610d76565b60405161037791906125e5565b60405180910390f35b34801561038c57600080fd5b506103a760048036038101906103a29190612019565b610e2d565b6040516103b79493929190612562565b60405180910390f35b6103da60048036038101906103d59190611e59565b610ef6565b005b3480156103e857600080fd5b506103f1610fca565b6040516103fe91906125c3565b60405180910390f35b610421600480360381019061041c9190612235565b611022565b005b61043d60048036038101906104389190612109565b61164f565b005b34801561044b57600080fd5b5061046660048036038101906104619190612181565b611775565b60405161047391906125e5565b60405180910390f35b34801561048857600080fd5b506104a3600480360381019061049e919061220c565b61182c565b6040516104b09190612640565b60405180910390f35b3480156104c557600080fd5b506104ce61187d565b6040516104db91906125c3565b60405180910390f35b3480156104f057600080fd5b5061050b60048036038101906105069190612019565b611936565b6040516105199291906126a0565b60405180910390f35b34801561052e57600080fd5b506105496004803603810190610544919061220c565b6119ec565b6040516105569190612640565b60405180910390f35b34801561056b57600080fd5b506105866004803603810190610581919061220c565b611aa0565b6040516105939190612540565b60405180910390f35b80600160000160016101000a81548173ffffffffffffffffffffffffffffffffffffffff021916908373ffffffffffffffffffffffffffffffffffffffff16021790555050565b3373ffffffffffffffffffffffffffffffffffffffff16600260009054906101000a900473ffffffffffffffffffffffffffffffffffffffff1673ffffffffffffffffffffffffffffffffffffffff1614610673576040517f08c379a000000000000000000000000000000000000000000000000000000000815260040161066a90612600565b60405180910390fd5b80600360006101000a81548173ffffffffffffffffffffffffffffffffffffffff021916908373ffffffffffffffffffffffffffffffffffffffff16021790555050565b600080600360009054906101000a900473ffffffffffffffffffffffffffffffffffffffff1673ffffffffffffffffffffffffffffffffffffffff1663fefa519d8686866006546040518563ffffffff1660e01b815260040161071d949392919061265b565b604080518083038186803b15801561073457600080fd5b505afa158015610748573d6000803e3d6000fd5b505050506040513d601f19601f8201168201806040525081019061076c9190612145565b91509150935093915050565b600080600190505b6006548160ff16116107f7578260058260ff16815481106107ca577f4e487b7100000000000000000000000000000000000000000000000000000000600052603260045260246000fd5b906000526020600020015414156107e457809150506107fd565b80806107ef90612a90565b915050610780565b50600090505b919050565b600160000160009054906101000a900460ff1615610855576040517f08c379a000000000000000000000000000000000000000000000000000000000815260040161084c90612620565b60405180910390fd5b60405180604001604052806001151581526020018273ffffffffffffffffffffffffffffffffffffffff16815250600160008201518160000160006101000a81548160ff02191690831515021790555060208201518160000160016101000a81548173ffffffffffffffffffffffffffffffffffffffff021916908373ffffffffffffffffffffffffffffffffffffffff16021790555090505050565b3073ffffffffffffffffffffffffffffffffffffffff16633c4dbb05336040518263ffffffff1660e01b815260040161092b9190612525565b600060405180830381600087803b15801561094557600080fd5b505af1158015610959573d6000803e3d6000fd5b50505050565b6000600360009054906101000a900473ffffffffffffffffffffffffffffffffffffffff1673ffffffffffffffffffffffffffffffffffffffff16635437af49836040518263ffffffff1660e01b81526004016109bc9190612729565b60206040518083038186803b1580156109d457600080fd5b505afa1580156109e8573d6000803e3d6000fd5b505050506040513d601f19601f82011682018060405250810190610a0c9190611e82565b9050919050565b60058181548110610a2357600080fd5b906000526020600020016000915090505481565b3373ffffffffffffffffffffffffffffffffffffffff16600260009054906101000a900473ffffffffffffffffffffffffffffffffffffffff1673ffffffffffffffffffffffffffffffffffffffff1614610ac7576040517f08c379a0000000000000000000000000000000000000000000000000000000008152600401610abe90612600565b60405180910390fd5b6000600190505b6006548160ff1611610b8057600360009054906101000a900473ffffffffffffffffffffffffffffffffffffffff1673ffffffffffffffffffffffffffffffffffffffff16631f084ba8828585886040518563ffffffff1660e01b8152600401610b3b94939291906127b2565b600060405180830381600087803b158015610b5557600080fd5b505af1158015610b69573d6000803e3d6000fd5b505050508080610b7890612a90565b915050610ace565b50505050565b6000808260ff16118015610b9f57506006548260ff1611155b9050919050565b6000600360009054906101000a900473ffffffffffffffffffffffffffffffffffffffff1673ffffffffffffffffffffffffffffffffffffffff16638a2a526a6040518163ffffffff1660e01b815260040160206040518083038186803b158015610c1057600080fd5b505afa158015610c24573d6000803e3d6000fd5b505050506040513d601f19601f82011682018060405250810190610c489190612042565b905090565b3373ffffffffffffffffffffffffffffffffffffffff16600160000160019054906101000a900473ffffffffffffffffffffffffffffffffffffffff1673ffffffffffffffffffffffffffffffffffffffff1614610ce0576040517f08c379a0000000000000000000000000000000000000000000000000000000008152600401610cd790612620565b60405180910390fd5b600360009054906101000a900473ffffffffffffffffffffffffffffffffffffffff1673ffffffffffffffffffffffffffffffffffffffff166390aeecf88484846040518463ffffffff1660e01b8152600401610d3f939291906126f2565b600060405180830381600087803b158015610d5957600080fd5b505af1158015610d6d573d6000803e3d6000fd5b50505050505050565b6000600360009054906101000a900473ffffffffffffffffffffffffffffffffffffffff1673ffffffffffffffffffffffffffffffffffffffff1663b5a3c8b784846040518363ffffffff1660e01b8152600401610dd59291906126c9565b60206040518083038186803b158015610ded57600080fd5b505afa158015610e01573d6000803e3d6000fd5b505050506040513d601f19601f82011682018060405250810190610e259190611ff0565b905092915050565b606080606080600360009054906101000a900473ffffffffffffffffffffffffffffffffffffffff1673ffffffffffffffffffffffffffffffffffffffff16636abf4fc5866006546040518363ffffffff1660e01b8152600401610e929291906126a0565b60006040518083038186803b158015610eaa57600080fd5b505afa158015610ebe573d6000803e3d6000fd5b505050506040513d6000823e3d601f19601f82011682018060405250810190610ee79190611eec565b93509350935093509193509193565b3373ffffffffffffffffffffffffffffffffffffffff16600260009054906101000a900473ffffffffffffffffffffffffffffffffffffffff1673ffffffffffffffffffffffffffffffffffffffff1614610f86576040517f08c379a0000000000000000000000000000000000000000000000000000000008152600401610f7d90612600565b60405180910390fd5b80600460006101000a81548173ffffffffffffffffffffffffffffffffffffffff021916908373ffffffffffffffffffffffffffffffffffffffff16021790555050565b6060600580548060200260200160405190810160405280929190818152602001828054801561101857602002820191906000526020600020905b815481526020019060010190808311611004575b5050505050905090565b3373ffffffffffffffffffffffffffffffffffffffff16600160000160019054906101000a900473ffffffffffffffffffffffffffffffffffffffff1673ffffffffffffffffffffffffffffffffffffffff16146110b5576040517f08c379a00000000000000000000000000000000000000000000000000000000081526004016110ac90612620565b60405180910390fd5b6000600460009054906101000a900473ffffffffffffffffffffffffffffffffffffffff1673ffffffffffffffffffffffffffffffffffffffff166331a73991836040518263ffffffff1660e01b81526004016111129190612525565b60206040518083038186803b15801561112a57600080fd5b505afa15801561113e573d6000803e3d6000fd5b505050506040513d601f19601f820116820180604052508101906111629190612042565b9050600360009054906101000a900473ffffffffffffffffffffffffffffffffffffffff1673ffffffffffffffffffffffffffffffffffffffff16631f084ba884600385856040518563ffffffff1660e01b81526004016111c6949392919061276d565b600060405180830381600087803b1580156111e057600080fd5b505af11580156111f4573d6000803e3d6000fd5b505050506000600360009054906101000a900473ffffffffffffffffffffffffffffffffffffffff1673ffffffffffffffffffffffffffffffffffffffff16635437af49856040518263ffffffff1660e01b81526004016112559190612729565b60206040518083038186803b15801561126d57600080fd5b505afa158015611281573d6000803e3d6000fd5b505050506040513d601f19601f820116820180604052508101906112a59190611e82565b90506000600460009054906101000a900473ffffffffffffffffffffffffffffffffffffffff1673ffffffffffffffffffffffffffffffffffffffff166331a73991836040518263ffffffff1660e01b81526004016113049190612525565b60206040518083038186803b15801561131c57600080fd5b505afa158015611330573d6000803e3d6000fd5b505050506040513d601f19601f820116820180604052508101906113549190612042565b9050600360009054906101000a900473ffffffffffffffffffffffffffffffffffffffff1673ffffffffffffffffffffffffffffffffffffffff166330f15ad986836040518363ffffffff1660e01b81526004016113b39291906127f7565b600060405180830381600087803b1580156113cd57600080fd5b505af11580156113e1573d6000803e3d6000fd5b50505050600360009054906101000a900473ffffffffffffffffffffffffffffffffffffffff1673ffffffffffffffffffffffffffffffffffffffff1663dd0411d182876040518363ffffffff1660e01b81526004016114429291906126c9565b60206040518083038186803b15801561145a57600080fd5b505afa15801561146e573d6000803e3d6000fd5b505050506040513d601f19601f820116820180604052508101906114929190611ff0565b1561152b57600360009054906101000a900473ffffffffffffffffffffffffffffffffffffffff1673ffffffffffffffffffffffffffffffffffffffff16637c6708d982876040518363ffffffff1660e01b81526004016114f49291906126c9565b600060405180830381600087803b15801561150e57600080fd5b505af1158015611522573d6000803e3d6000fd5b505050506115bb565b600360009054906101000a900473ffffffffffffffffffffffffffffffffffffffff1673ffffffffffffffffffffffffffffffffffffffff166374b16a5a86846040518363ffffffff1660e01b8152600401611588929190612744565b600060405180830381600087803b1580156115a257600080fd5b505af11580156115b6573d6000803e3d6000fd5b505050505b600360009054906101000a900473ffffffffffffffffffffffffffffffffffffffff1673ffffffffffffffffffffffffffffffffffffffff1663ea58dba3866040518263ffffffff1660e01b81526004016116169190612729565b600060405180830381600087803b15801561163057600080fd5b505af1158015611644573d6000803e3d6000fd5b505050505050505050565b3373ffffffffffffffffffffffffffffffffffffffff16600160000160019054906101000a900473ffffffffffffffffffffffffffffffffffffffff1673ffffffffffffffffffffffffffffffffffffffff16146116e2576040517f08c379a00000000000000000000000000000000000000000000000000000000081526004016116d990612620565b60405180910390fd5b600360009054906101000a900473ffffffffffffffffffffffffffffffffffffffff1673ffffffffffffffffffffffffffffffffffffffff1663d950e9f883836040518363ffffffff1660e01b815260040161173f9291906126a0565b600060405180830381600087803b15801561175957600080fd5b505af115801561176d573d6000803e3d6000fd5b505050505050565b6000600360009054906101000a900473ffffffffffffffffffffffffffffffffffffffff1673ffffffffffffffffffffffffffffffffffffffff1663dd0411d184846040518363ffffffff1660e01b81526004016117d49291906126c9565b60206040518083038186803b1580156117ec57600080fd5b505afa158015611800573d6000803e3d6000fd5b505050506040513d601f19601f820116820180604052508101906118249190611ff0565b905092915050565b600060058260ff168154811061186b577f4e487b7100000000000000000000000000000000000000000000000000000000600052603260045260246000fd5b90600052602060002001549050919050565b6060600360009054906101000a900473ffffffffffffffffffffffffffffffffffffffff1673ffffffffffffffffffffffffffffffffffffffff1663ec030b246006546040518263ffffffff1660e01b81526004016118dc9190612640565b60006040518083038186803b1580156118f457600080fd5b505afa158015611908573d6000803e3d6000fd5b505050506040513d6000823e3d601f19601f820116820180604052508101906119319190611faf565b905090565b600080600360009054906101000a900473ffffffffffffffffffffffffffffffffffffffff1673ffffffffffffffffffffffffffffffffffffffff1663efde8a17846040518263ffffffff1660e01b81526004016119949190612640565b604080518083038186803b1580156119ab57600080fd5b505afa1580156119bf573d6000803e3d6000fd5b505050506040513d601f19601f820116820180604052508101906119e39190612145565b91509150915091565b6000600360009054906101000a900473ffffffffffffffffffffffffffffffffffffffff1673ffffffffffffffffffffffffffffffffffffffff1663f6b399f7836040518263ffffffff1660e01b8152600401611a499190612729565b60206040518083038186803b158015611a6157600080fd5b505afa158015611a75573d6000803e3d6000fd5b505050506040513d601f19601f82011682018060405250810190611a999190612042565b9050919050565b6060600360009054906101000a900473ffffffffffffffffffffffffffffffffffffffff1673ffffffffffffffffffffffffffffffffffffffff1663fa1fd3c6836040518263ffffffff1660e01b8152600401611afd9190612729565b60006040518083038186803b158015611b1557600080fd5b505afa158015611b29573d6000803e3d6000fd5b505050506040513d6000823e3d601f19601f82011682018060405250810190611b529190611eab565b9050919050565b6000611b6c611b6784612845565b612820565b90508083825260208201905082856020860282011115611b8b57600080fd5b60005b85811015611bbb5781611ba18882611d1e565b845260208401935060208301925050600181019050611b8e565b5050509392505050565b6000611bd8611bd384612871565b612820565b90508083825260208201905082856020860282011115611bf757600080fd5b60005b85811015611c275781611c0d8882611ddb565b845260208401935060208301925050600181019050611bfa565b5050509392505050565b6000611c44611c3f8461289d565b612820565b90508083825260208201905082856020860282011115611c6357600080fd5b60005b85811015611c935781611c798882611e05565b845260208401935060208301925050600181019050611c66565b5050509392505050565b6000611cb0611cab846128c9565b612820565b90508083825260208201905082856020860282011115611ccf57600080fd5b60005b85811015611cff5781611ce58882611e2f565b845260208401935060208301925050600181019050611cd2565b5050509392505050565b600081359050611d1881612b7b565b92915050565b600081519050611d2d81612b7b565b92915050565b600082601f830112611d4457600080fd5b8151611d54848260208601611b59565b91505092915050565b600082601f830112611d6e57600080fd5b8151611d7e848260208601611bc5565b91505092915050565b600082601f830112611d9857600080fd5b8151611da8848260208601611c31565b91505092915050565b600082601f830112611dc257600080fd5b8151611dd2848260208601611c9d565b91505092915050565b600081519050611dea81612b92565b92915050565b600081359050611dff81612ba9565b92915050565b600081519050611e1481612ba9565b92915050565b600081359050611e2981612bc0565b92915050565b600081519050611e3e81612bc0565b92915050565b600081359050611e5381612bd7565b92915050565b600060208284031215611e6b57600080fd5b6000611e7984828501611d09565b91505092915050565b600060208284031215611e9457600080fd5b6000611ea284828501611d1e565b91505092915050565b600060208284031215611ebd57600080fd5b600082015167ffffffffffffffff811115611ed757600080fd5b611ee384828501611d33565b91505092915050565b60008060008060808587031215611f0257600080fd5b600085015167ffffffffffffffff811115611f1c57600080fd5b611f2887828801611d5d565b945050602085015167ffffffffffffffff811115611f4557600080fd5b611f5187828801611d87565b935050604085015167ffffffffffffffff811115611f6e57600080fd5b611f7a87828801611d87565b925050606085015167ffffffffffffffff811115611f9757600080fd5b611fa387828801611db1565b91505092959194509250565b600060208284031215611fc157600080fd5b600082015167ffffffffffffffff811115611fdb57600080fd5b611fe784828501611db1565b91505092915050565b60006020828403121561200257600080fd5b600061201084828501611ddb565b91505092915050565b60006020828403121561202b57600080fd5b600061203984828501611e1a565b91505092915050565b60006020828403121561205457600080fd5b600061206284828501611e2f565b91505092915050565b60008060006060848603121561208057600080fd5b600061208e86828701611e1a565b935050602061209f86828701611d09565b92505060406120b086828701611e44565b9150509250925092565b6000806000606084860312156120cf57600080fd5b60006120dd86828701611e1a565b93505060206120ee86828701611df0565b92505060406120ff86828701611d09565b9150509250925092565b6000806040838503121561211c57600080fd5b600061212a85828601611e1a565b925050602061213b85828601611e1a565b9150509250929050565b6000806040838503121561215857600080fd5b600061216685828601611e2f565b925050602061217785828601611e2f565b9150509250929050565b6000806040838503121561219457600080fd5b60006121a285828601611e1a565b92505060206121b385828601611e44565b9150509250929050565b6000806000606084860312156121d257600080fd5b60006121e086828701611e1a565b93505060206121f186828701611e44565b925050604061220286828701611e1a565b9150509250925092565b60006020828403121561221e57600080fd5b600061222c84828501611e44565b91505092915050565b6000806040838503121561224857600080fd5b600061225685828601611e44565b925050602061226785828601611d09565b9150509250929050565b600061227d83836122d1565b60208301905092915050565b60006122958383612467565b60208301905092915050565b60006122ad83836124da565b60208301905092915050565b60006122c583836124f8565b60208301905092915050565b6122da816129ea565b82525050565b6122e9816129ea565b82525050565b60006122fa82612935565b6123048185612995565b935061230f836128f5565b8060005b838110156123405781516123278882612271565b975061233283612961565b925050600181019050612313565b5085935050505092915050565b600061235882612940565b61236281856129a6565b935061236d83612905565b8060005b8381101561239e5781516123858882612289565b97506123908361296e565b925050600181019050612371565b5085935050505092915050565b60006123b68261294b565b6123c081856129b7565b93506123cb83612915565b8060005b838110156123fc5781516123e388826122a1565b97506123ee8361297b565b9250506001810190506123cf565b5085935050505092915050565b600061241482612956565b61241e81856129c8565b935061242983612925565b8060005b8381101561245a57815161244188826122b9565b975061244c83612988565b92505060018101905061242d565b5085935050505092915050565b612470816129fc565b82525050565b61247f816129fc565b82525050565b61248e81612a4d565b82525050565b60006124a1600a836129d9565b91506124ac82612b29565b602082019050919050565b60006124c46001836129d9565b91506124cf82612b52565b602082019050919050565b6124e381612a08565b82525050565b6124f281612a08565b82525050565b61250181612a36565b82525050565b61251081612a36565b82525050565b61251f81612a40565b82525050565b600060208201905061253a60008301846122e0565b92915050565b6000602082019050818103600083015261255a81846122ef565b905092915050565b6000608082019050818103600083015261257c818761234d565b9050818103602083015261259081866123ab565b905081810360408301526125a481856123ab565b905081810360608301526125b88184612409565b905095945050505050565b600060208201905081810360008301526125dd8184612409565b905092915050565b60006020820190506125fa6000830184612476565b92915050565b6000602082019050818103600083015261261981612494565b9050919050565b60006020820190508181036000830152612639816124b7565b9050919050565b60006020820190506126556000830184612507565b92915050565b60006080820190506126706000830187612507565b61267d60208301866122e0565b61268a6040830185612516565b6126976060830184612507565b95945050505050565b60006040820190506126b56000830185612507565b6126c26020830184612507565b9392505050565b60006040820190506126de6000830185612507565b6126eb6020830184612516565b9392505050565b60006060820190506127076000830186612507565b6127146020830185612516565b6127216040830184612507565b949350505050565b600060208201905061273e6000830184612516565b92915050565b60006040820190506127596000830185612516565b61276660208301846122e0565b9392505050565b60006080820190506127826000830187612516565b61278f6020830186612485565b61279c60408301856122e0565b6127a96060830184612507565b95945050505050565b60006080820190506127c76000830187612516565b6127d460208301866124e9565b6127e160408301856122e0565b6127ee6060830184612507565b95945050505050565b600060408201905061280c6000830185612516565b6128196020830184612507565b9392505050565b600061282a61283b565b90506128368282612a5f565b919050565b6000604051905090565b600067ffffffffffffffff8211156128605761285f612ae9565b5b602082029050602081019050919050565b600067ffffffffffffffff82111561288c5761288b612ae9565b5b602082029050602081019050919050565b600067ffffffffffffffff8211156128b8576128b7612ae9565b5b602082029050602081019050919050565b600067ffffffffffffffff8211156128e4576128e3612ae9565b5b602082029050602081019050919050565b6000819050602082019050919050565b6000819050602082019050919050565b6000819050602082019050919050565b6000819050602082019050919050565b600081519050919050565b600081519050919050565b600081519050919050565b600081519050919050565b6000602082019050919050565b6000602082019050919050565b6000602082019050919050565b6000602082019050919050565b600082825260208201905092915050565b600082825260208201905092915050565b600082825260208201905092915050565b600082825260208201905092915050565b600082825260208201905092915050565b60006129f582612a16565b9050919050565b60008115159050919050565b600061ffff82169050919050565b600073ffffffffffffffffffffffffffffffffffffffff82169050919050565b6000819050919050565b600060ff82169050919050565b6000612a5882612a08565b9050919050565b612a6882612b18565b810181811067ffffffffffffffff82111715612a8757612a86612ae9565b5b80604052505050565b6000612a9b82612a40565b915060ff821415612aaf57612aae612aba565b5b600182019050919050565b7f4e487b7100000000000000000000000000000000000000000000000000000000600052601160045260246000fd5b7f4e487b7100000000000000000000000000000000000000000000000000000000600052604160045260246000fd5b6000601f19601f8301169050919050565b7f6f6e6c79206f776e657200000000000000000000000000000000000000000000600082015250565b7f3100000000000000000000000000000000000000000000000000000000000000600082015250565b612b84816129ea565b8114612b8f57600080fd5b50565b612b9b816129fc565b8114612ba657600080fd5b50565b612bb281612a08565b8114612bbd57600080fd5b50565b612bc981612a36565b8114612bd457600080fd5b50565b612be081612a40565b8114612beb57600080fd5b5056fea264697066735822122003dd3d93a15abcb518d108e4b4a64f99c179c955746563fa4764f4369c729bcd64736f6c63430008040033",
  "linkReferences": {},
  "deployedLinkReferences": {}
}