{
  "_format": "hh-sol-artifact-1",
  "contractName": "TableController",
  "sourceName": "contracts/Controllers/TableController.sol",
  "abi": [
    {
      "inputs": [
        {
          "internalType": "address",
          "name": "key",
          "type": "address"
        },
        {
          "internalType": "address",
          "name": "tableStorageAddress",
          "type": "address"
        },
        {
          "internalType": "address",
          "name": "userStorageAddress",
          "type": "address"
        }
      ],
      "stateMutability": "nonpayable",
      "type": "constructor"
    },
    {
      "inputs": [
        {
          "internalType": "uint256",
          "name": "userId",
          "type": "uint256"
        },
        {
          "internalType": "uint256",
          "name": "rewardValue",
          "type": "uint256"
        },
        {
          "internalType": "address",
          "name": "key",
          "type": "address"
        }
      ],
      "name": "AddReferalPayout",
      "outputs": [],
      "stateMutability": "payable",
      "type": "function"
    },
    {
      "inputs": [
        {
          "internalType": "uint256",
          "name": "userId",
          "type": "uint256"
        },
        {
          "internalType": "uint8",
          "name": "table",
          "type": "uint8"
        },
        {
          "internalType": "uint256",
          "name": "reward",
          "type": "uint256"
        },
        {
          "internalType": "address",
          "name": "key",
          "type": "address"
        }
      ],
      "name": "AddRewardSum",
      "outputs": [],
      "stateMutability": "payable",
      "type": "function"
    },
    {
      "inputs": [
        {
          "internalType": "uint256",
          "name": "userId",
          "type": "uint256"
        },
        {
          "internalType": "uint16",
          "name": "payouts",
          "type": "uint16"
        },
        {
          "internalType": "address",
          "name": "key",
          "type": "address"
        },
        {
          "internalType": "address",
          "name": "userAddress",
          "type": "address"
        }
      ],
      "name": "AddWhite",
      "outputs": [],
      "stateMutability": "payable",
      "type": "function"
    },
    {
      "inputs": [
        {
          "internalType": "uint8",
          "name": "table",
          "type": "uint8"
        },
        {
          "internalType": "address",
          "name": "userAddress",
          "type": "address"
        },
        {
          "internalType": "address",
          "name": "key",
          "type": "address"
        }
      ],
      "name": "BuyTable",
      "outputs": [],
      "stateMutability": "payable",
      "type": "function"
    },
    {
      "inputs": [
        {
          "internalType": "address",
          "name": "newAddress",
          "type": "address"
        },
        {
          "internalType": "address",
          "name": "key",
          "type": "address"
        }
      ],
      "name": "ChangeTableStorage",
      "outputs": [],
      "stateMutability": "payable",
      "type": "function"
    },
    {
      "inputs": [
        {
          "internalType": "address",
          "name": "newAddress",
          "type": "address"
        },
        {
          "internalType": "address",
          "name": "key",
          "type": "address"
        }
      ],
      "name": "ChangeUserStorage",
      "outputs": [],
      "stateMutability": "payable",
      "type": "function"
    },
    {
      "inputs": [
        {
          "internalType": "uint8",
          "name": "table",
          "type": "uint8"
        }
      ],
      "name": "GetFirstTableAddress",
      "outputs": [
        {
          "internalType": "address",
          "name": "",
          "type": "address"
        }
      ],
      "stateMutability": "view",
      "type": "function"
    },
    {
      "inputs": [],
      "name": "GetGlobalStatistic",
      "outputs": [
        {
          "internalType": "uint256",
          "name": "",
          "type": "uint256"
        }
      ],
      "stateMutability": "view",
      "type": "function"
    },
    {
      "inputs": [
        {
          "internalType": "uint8",
          "name": "table",
          "type": "uint8"
        }
      ],
      "name": "GetHeadIndex",
      "outputs": [
        {
          "internalType": "uint256",
          "name": "",
          "type": "uint256"
        }
      ],
      "stateMutability": "view",
      "type": "function"
    },
    {
      "inputs": [
        {
          "internalType": "uint256",
          "name": "userId",
          "type": "uint256"
        },
        {
          "internalType": "address",
          "name": "userAddress",
          "type": "address"
        },
        {
          "internalType": "uint8",
          "name": "table",
          "type": "uint8"
        }
      ],
      "name": "GetPlaceInQueue",
      "outputs": [
        {
          "internalType": "uint256",
          "name": "",
          "type": "uint256"
        },
        {
          "internalType": "uint256",
          "name": "",
          "type": "uint256"
        }
      ],
      "stateMutability": "view",
      "type": "function"
    },
    {
      "inputs": [
        {
          "internalType": "uint256",
          "name": "value",
          "type": "uint256"
        }
      ],
      "name": "GetTableNumberByValue",
      "outputs": [
        {
          "internalType": "uint8",
          "name": "",
          "type": "uint8"
        }
      ],
      "stateMutability": "view",
      "type": "function"
    },
    {
      "inputs": [
        {
          "internalType": "uint8",
          "name": "table",
          "type": "uint8"
        }
      ],
      "name": "GetTablePrice",
      "outputs": [
        {
          "internalType": "uint256",
          "name": "",
          "type": "uint256"
        }
      ],
      "stateMutability": "view",
      "type": "function"
    },
    {
      "inputs": [],
      "name": "GetTablesCount",
      "outputs": [
        {
          "internalType": "uint256[]",
          "name": "",
          "type": "uint256[]"
        }
      ],
      "stateMutability": "view",
      "type": "function"
    },
    {
      "inputs": [],
      "name": "GetTablesPrice",
      "outputs": [
        {
          "internalType": "uint256[]",
          "name": "",
          "type": "uint256[]"
        }
      ],
      "stateMutability": "view",
      "type": "function"
    },
    {
      "inputs": [
        {
          "internalType": "uint8",
          "name": "table",
          "type": "uint8"
        }
      ],
      "name": "GetTablesQueue",
      "outputs": [
        {
          "internalType": "address[]",
          "name": "",
          "type": "address[]"
        }
      ],
      "stateMutability": "view",
      "type": "function"
    },
    {
      "inputs": [
        {
          "internalType": "uint256",
          "name": "userId",
          "type": "uint256"
        }
      ],
      "name": "GetUserLevels",
      "outputs": [
        {
          "internalType": "bool[]",
          "name": "",
          "type": "bool[]"
        },
        {
          "internalType": "uint16[]",
          "name": "",
          "type": "uint16[]"
        },
        {
          "internalType": "uint16[]",
          "name": "",
          "type": "uint16[]"
        },
        {
          "internalType": "uint256[]",
          "name": "",
          "type": "uint256[]"
        }
      ],
      "stateMutability": "view",
      "type": "function"
    },
    {
      "inputs": [
        {
          "internalType": "uint256",
          "name": "userId",
          "type": "uint256"
        }
      ],
      "name": "GetUserRewards",
      "outputs": [
        {
          "internalType": "uint256",
          "name": "",
          "type": "uint256"
        },
        {
          "internalType": "uint256",
          "name": "",
          "type": "uint256"
        }
      ],
      "stateMutability": "view",
      "type": "function"
    },
    {
      "inputs": [
        {
          "internalType": "uint256",
          "name": "userId",
          "type": "uint256"
        },
        {
          "internalType": "uint8",
          "name": "table",
          "type": "uint8"
        }
      ],
      "name": "IsTableActive",
      "outputs": [
        {
          "internalType": "bool",
          "name": "",
          "type": "bool"
        }
      ],
      "stateMutability": "view",
      "type": "function"
    },
    {
      "inputs": [
        {
          "internalType": "uint256",
          "name": "userId",
          "type": "uint256"
        },
        {
          "internalType": "uint8",
          "name": "table",
          "type": "uint8"
        }
      ],
      "name": "IsTableActiveOver",
      "outputs": [
        {
          "internalType": "bool",
          "name": "",
          "type": "bool"
        }
      ],
      "stateMutability": "view",
      "type": "function"
    },
    {
      "inputs": [
        {
          "internalType": "uint8",
          "name": "table",
          "type": "uint8"
        }
      ],
      "name": "TableNumberIsValid",
      "outputs": [
        {
          "internalType": "bool",
          "name": "",
          "type": "bool"
        }
      ],
      "stateMutability": "view",
      "type": "function"
    },
    {
      "inputs": [
        {
          "internalType": "uint256",
          "name": "",
          "type": "uint256"
        }
      ],
      "name": "TablePrice",
      "outputs": [
        {
          "internalType": "uint256",
          "name": "",
          "type": "uint256"
        }
      ],
      "stateMutability": "view",
      "type": "function"
    }
  ],
  "bytecode": "0x6080604052604051806102200160405280600068ffffffffffffffffff168152602001668e1bc9bf04000068ffffffffffffffffff16815260200166f8b0a10e47000068ffffffffffffffffff1681526020016701aa535d3d0c000068ffffffffffffffffff1681526020016702c68af0bb14000068ffffffffffffffffff1681526020016704db73254763000068ffffffffffffffffff168152602001670853a0d2313c000068ffffffffffffffffff16815260200167120a871cc002000068ffffffffffffffffff168152602001671d24b2dfac52000068ffffffffffffffffff168152602001672dcbf4840eca000068ffffffffffffffffff168152602001674139c1192c56000068ffffffffffffffffff1681526020016753444835ec58000068ffffffffffffffffff168152602001676f05b59d3b20000068ffffffffffffffffff1681526020016798a7d9b8314c000068ffffffffffffffffff16815260200167c249fdd32778000068ffffffffffffffffff16815260200167de0b6b3a7640000068ffffffffffffffffff1681526020016801158e460913d0000068ffffffffffffffffff168152506004906011620001c19291906200054e565b506001600480549050620001d691906200077d565b600555348015620001e657600080fd5b50604051620034cd380380620034cd83398181016040528101906200020c9190620005e3565b336000806101000a81548173ffffffffffffffffffffffffffffffffffffffff021916908373ffffffffffffffffffffffffffffffffffffffff16021790555060018060008573ffffffffffffffffffffffffffffffffffffffff1673ffffffffffffffffffffffffffffffffffffffff16815260200190815260200160002060006101000a81548160ff02191690831515021790555081600260006101000a81548173ffffffffffffffffffffffffffffffffffffffff021916908373ffffffffffffffffffffffffffffffffffffffff16021790555080600360006101000a81548173ffffffffffffffffffffffffffffffffffffffff021916908373ffffffffffffffffffffffffffffffffffffffff1602179055506200035b600160148560008054906101000a900473ffffffffffffffffffffffffffffffffffffffff166200036460201b60201c565b505050620008db565b600160008373ffffffffffffffffffffffffffffffffffffffff1673ffffffffffffffffffffffffffffffffffffffff16815260200190815260200160002060009054906101000a900460ff16620003f3576040517f08c379a0000000000000000000000000000000000000000000000000000000008152600401620003ea90620006ed565b60405180910390fd5b3373ffffffffffffffffffffffffffffffffffffffff1660008054906101000a900473ffffffffffffffffffffffffffffffffffffffff1673ffffffffffffffffffffffffffffffffffffffff161462000484576040517f08c379a00000000000000000000000000000000000000000000000000000000081526004016200047b90620006cb565b60405180910390fd5b6000600190505b6005548160ff16116200054757600260009054906101000a900473ffffffffffffffffffffffffffffffffffffffff1673ffffffffffffffffffffffffffffffffffffffff166343938a2782868589886040518663ffffffff1660e01b8152600401620004fd9594939291906200070f565b600060405180830381600087803b1580156200051857600080fd5b505af11580156200052d573d6000803e3d6000fd5b5050505080806200053e9062000811565b9150506200048b565b5050505050565b8280548282559060005260206000209081019282156200059a579160200282015b8281111562000599578251829068ffffffffffffffffff169055916020019190600101906200056f565b5b509050620005a99190620005ad565b5090565b5b80821115620005c8576000816000905550600101620005ae565b5090565b600081519050620005dd81620008c1565b92915050565b600080600060608486031215620005f957600080fd5b60006200060986828701620005cc565b93505060206200061c86828701620005cc565b92505060406200062f86828701620005cc565b9150509250925092565b6200064481620007b8565b82525050565b600062000659600a836200076c565b915062000666826200086f565b602082019050919050565b6000620006806001836200076c565b91506200068d8262000898565b602082019050919050565b620006a381620007cc565b82525050565b620006b481620007fa565b82525050565b620006c58162000804565b82525050565b60006020820190508181036000830152620006e6816200064a565b9050919050565b60006020820190508181036000830152620007088162000671565b9050919050565b600060a082019050620007266000830188620006ba565b62000735602083018762000698565b62000744604083018662000639565b620007536060830185620006a9565b62000762608083018462000639565b9695505050505050565b600082825260208201905092915050565b60006200078a82620007fa565b91506200079783620007fa565b925082821015620007ad57620007ac62000840565b5b828203905092915050565b6000620007c582620007da565b9050919050565b600061ffff82169050919050565b600073ffffffffffffffffffffffffffffffffffffffff82169050919050565b6000819050919050565b600060ff82169050919050565b60006200081e8262000804565b915060ff82141562000835576200083462000840565b5b600182019050919050565b7f4e487b7100000000000000000000000000000000000000000000000000000000600052601160045260246000fd5b7f6f6e6c79206f776e657200000000000000000000000000000000000000000000600082015250565b7f3100000000000000000000000000000000000000000000000000000000000000600082015250565b620008cc81620007b8565b8114620008d857600080fd5b50565b612be280620008eb6000396000f3fe60806040526004361061012a5760003560e01c8063bae3a538116100ab578063e6179de11161006f578063e6179de11461041e578063ed43373514610449578063efde8a1714610465578063f342fd15146104a3578063f6b399f7146104bf578063fa1fd3c6146104fc5761012a565b8063bae3a5381461031d578063cebd63511461035d578063cf2ef69b14610379578063dd0411d1146103a4578063e29e0411146103e15761012a565b80638a2a526a116100f25780638a2a526a1461026157806395d7d0051461028c5780639f9e2ce4146102a8578063ad145d46146102c4578063b5a3c8b7146102e05761012a565b806316385f441461012f57806339a245931461016d5780635437af49146101aa5780636661cd63146101e75780638745dd7814610224575b600080fd5b34801561013b57600080fd5b5061015660048036038101906101519190611efe565b610539565b6040516101649291906125ef565b60405180910390f35b34801561017957600080fd5b50610194600480360381019061018f9190611eac565b6105fa565b6040516101a191906126f4565b60405180910390f35b3480156101b657600080fd5b506101d160048036038101906101cc91906120da565b610684565b6040516101de9190612406565b60405180910390f35b3480156101f357600080fd5b5061020e60048036038101906102099190611eac565b610738565b60405161021b919061258f565b60405180910390f35b34801561023057600080fd5b5061024b600480360381019061024691906120da565b61075c565b6040516102589190612534565b60405180910390f35b34801561026d57600080fd5b5061027661077c565b604051610283919061258f565b60405180910390f35b6102a660048036038101906102a19190612077565b610823565b005b6102c260048036038101906102bd9190612103565b6108bc565b005b6102de60048036038101906102d99190611d02565b610eed565b005b3480156102ec57600080fd5b506103076004803603810190610302919061203b565b61104c565b6040516103149190612534565b60405180910390f35b34801561032957600080fd5b50610344600480360381019061033f9190611eac565b611103565b60405161035494939291906124b1565b60405180910390f35b61037760048036038101906103729190611fec565b6111cc565b005b34801561038557600080fd5b5061038e611262565b60405161039b9190612512565b60405180910390f35b3480156103b057600080fd5b506103cb60048036038101906103c6919061203b565b6112ba565b6040516103d89190612534565b60405180910390f35b3480156103ed57600080fd5b50610408600480360381019061040391906120da565b611371565b604051610415919061258f565b60405180910390f35b34801561042a57600080fd5b506104336113c2565b6040516104409190612512565b60405180910390f35b610463600480360381019061045e9190611f4d565b61147b565b005b34801561047157600080fd5b5061048c60048036038101906104879190611eac565b611657565b60405161049a9291906125ef565b60405180910390f35b6104bd60048036038101906104b89190611d02565b61170d565b005b3480156104cb57600080fd5b506104e660048036038101906104e191906120da565b61186c565b6040516104f3919061258f565b60405180910390f35b34801561050857600080fd5b50610523600480360381019061051e91906120da565b611920565b604051610530919061248f565b60405180910390f35b600080600260009054906101000a900473ffffffffffffffffffffffffffffffffffffffff1673ffffffffffffffffffffffffffffffffffffffff1663fefa519d8686866005546040518563ffffffff1660e01b815260040161059f94939291906125aa565b604080518083038186803b1580156105b657600080fd5b505afa1580156105ca573d6000803e3d6000fd5b505050506040513d601f19601f820116820180604052508101906105ee9190611fb0565b91509150935093915050565b600080600190505b6005548160ff1611610679578260048260ff168154811061064c577f4e487b7100000000000000000000000000000000000000000000000000000000600052603260045260246000fd5b90600052602060002001541415610666578091505061067f565b808061067190612a4e565b915050610602565b50600090505b919050565b6000600260009054906101000a900473ffffffffffffffffffffffffffffffffffffffff1673ffffffffffffffffffffffffffffffffffffffff16635437af49836040518263ffffffff1660e01b81526004016106e191906126f4565b60206040518083038186803b1580156106f957600080fd5b505afa15801561070d573d6000803e3d6000fd5b505050506040513d601f19601f820116820180604052508101906107319190611cd9565b9050919050565b6004818154811061074857600080fd5b906000526020600020016000915090505481565b6000808260ff1611801561077557506005548260ff1611155b9050919050565b6000600260009054906101000a900473ffffffffffffffffffffffffffffffffffffffff1673ffffffffffffffffffffffffffffffffffffffff16638a2a526a6040518163ffffffff1660e01b815260040160206040518083038186803b1580156107e657600080fd5b505afa1580156107fa573d6000803e3d6000fd5b505050506040513d601f19601f8201168201806040525081019061081e9190611ed5565b905090565b600260009054906101000a900473ffffffffffffffffffffffffffffffffffffffff1673ffffffffffffffffffffffffffffffffffffffff166395d7d005858585856040518563ffffffff1660e01b815260040161088494939291906126af565b600060405180830381600087803b15801561089e57600080fd5b505af11580156108b2573d6000803e3d6000fd5b5050505050505050565b600160008273ffffffffffffffffffffffffffffffffffffffff1673ffffffffffffffffffffffffffffffffffffffff16815260200190815260200160002060009054906101000a900460ff16610948576040517f08c379a000000000000000000000000000000000000000000000000000000000815260040161093f9061256f565b60405180910390fd5b6000600360009054906101000a900473ffffffffffffffffffffffffffffffffffffffff1673ffffffffffffffffffffffffffffffffffffffff166331a73991846040518263ffffffff1660e01b81526004016109a59190612406565b60206040518083038186803b1580156109bd57600080fd5b505afa1580156109d1573d6000803e3d6000fd5b505050506040513d601f19601f820116820180604052508101906109f59190611ed5565b9050600260009054906101000a900473ffffffffffffffffffffffffffffffffffffffff1673ffffffffffffffffffffffffffffffffffffffff166343938a278560038685876040518663ffffffff1660e01b8152600401610a5b959493929190612738565b600060405180830381600087803b158015610a7557600080fd5b505af1158015610a89573d6000803e3d6000fd5b505050506000600260009054906101000a900473ffffffffffffffffffffffffffffffffffffffff1673ffffffffffffffffffffffffffffffffffffffff16635437af49866040518263ffffffff1660e01b8152600401610aea91906126f4565b60206040518083038186803b158015610b0257600080fd5b505afa158015610b16573d6000803e3d6000fd5b505050506040513d601f19601f82011682018060405250810190610b3a9190611cd9565b90506000600360009054906101000a900473ffffffffffffffffffffffffffffffffffffffff1673ffffffffffffffffffffffffffffffffffffffff166331a73991836040518263ffffffff1660e01b8152600401610b999190612406565b60206040518083038186803b158015610bb157600080fd5b505afa158015610bc5573d6000803e3d6000fd5b505050506040513d601f19601f82011682018060405250810190610be99190611ed5565b9050600260009054906101000a900473ffffffffffffffffffffffffffffffffffffffff1673ffffffffffffffffffffffffffffffffffffffff1663487658fb8588846040518463ffffffff1660e01b8152600401610c4a93929190612458565b600060405180830381600087803b158015610c6457600080fd5b505af1158015610c78573d6000803e3d6000fd5b50505050600260009054906101000a900473ffffffffffffffffffffffffffffffffffffffff1673ffffffffffffffffffffffffffffffffffffffff1663dd0411d182886040518363ffffffff1660e01b8152600401610cd992919061264f565b60206040518083038186803b158015610cf157600080fd5b505afa158015610d05573d6000803e3d6000fd5b505050506040513d601f19601f82011682018060405250810190610d299190611e83565b15610dc457600260009054906101000a900473ffffffffffffffffffffffffffffffffffffffff1673ffffffffffffffffffffffffffffffffffffffff166376630fa18288876040518463ffffffff1660e01b8152600401610d8d93929190612678565b600060405180830381600087803b158015610da757600080fd5b505af1158015610dbb573d6000803e3d6000fd5b50505050610e56565b600260009054906101000a900473ffffffffffffffffffffffffffffffffffffffff1673ffffffffffffffffffffffffffffffffffffffff1663c981d22f8588856040518463ffffffff1660e01b8152600401610e2393929190612421565b600060405180830381600087803b158015610e3d57600080fd5b505af1158015610e51573d6000803e3d6000fd5b505050505b600260009054906101000a900473ffffffffffffffffffffffffffffffffffffffff1673ffffffffffffffffffffffffffffffffffffffff1663d4e9a8ef87866040518363ffffffff1660e01b8152600401610eb392919061270f565b600060405180830381600087803b158015610ecd57600080fd5b505af1158015610ee1573d6000803e3d6000fd5b50505050505050505050565b600160008273ffffffffffffffffffffffffffffffffffffffff1673ffffffffffffffffffffffffffffffffffffffff16815260200190815260200160002060009054906101000a900460ff16610f79576040517f08c379a0000000000000000000000000000000000000000000000000000000008152600401610f709061256f565b60405180910390fd5b3373ffffffffffffffffffffffffffffffffffffffff1660008054906101000a900473ffffffffffffffffffffffffffffffffffffffff1673ffffffffffffffffffffffffffffffffffffffff1614611007576040517f08c379a0000000000000000000000000000000000000000000000000000000008152600401610ffe9061254f565b60405180910390fd5b81600360006101000a81548173ffffffffffffffffffffffffffffffffffffffff021916908373ffffffffffffffffffffffffffffffffffffffff1602179055505050565b6000600260009054906101000a900473ffffffffffffffffffffffffffffffffffffffff1673ffffffffffffffffffffffffffffffffffffffff1663b5a3c8b784846040518363ffffffff1660e01b81526004016110ab92919061264f565b60206040518083038186803b1580156110c357600080fd5b505afa1580156110d7573d6000803e3d6000fd5b505050506040513d601f19601f820116820180604052508101906110fb9190611e83565b905092915050565b606080606080600260009054906101000a900473ffffffffffffffffffffffffffffffffffffffff1673ffffffffffffffffffffffffffffffffffffffff16636abf4fc5866005546040518363ffffffff1660e01b81526004016111689291906125ef565b60006040518083038186803b15801561118057600080fd5b505afa158015611194573d6000803e3d6000fd5b505050506040513d6000823e3d601f19601f820116820180604052508101906111bd9190611d7f565b93509350935093509193509193565b600260009054906101000a900473ffffffffffffffffffffffffffffffffffffffff1673ffffffffffffffffffffffffffffffffffffffff1663cebd63518484846040518463ffffffff1660e01b815260040161122b93929190612618565b600060405180830381600087803b15801561124557600080fd5b505af1158015611259573d6000803e3d6000fd5b50505050505050565b606060048054806020026020016040519081016040528092919081815260200182805480156112b057602002820191906000526020600020905b81548152602001906001019080831161129c575b5050505050905090565b6000600260009054906101000a900473ffffffffffffffffffffffffffffffffffffffff1673ffffffffffffffffffffffffffffffffffffffff1663dd0411d184846040518363ffffffff1660e01b815260040161131992919061264f565b60206040518083038186803b15801561133157600080fd5b505afa158015611345573d6000803e3d6000fd5b505050506040513d601f19601f820116820180604052508101906113699190611e83565b905092915050565b600060048260ff16815481106113b0577f4e487b7100000000000000000000000000000000000000000000000000000000600052603260045260246000fd5b90600052602060002001549050919050565b6060600260009054906101000a900473ffffffffffffffffffffffffffffffffffffffff1673ffffffffffffffffffffffffffffffffffffffff1663ec030b246005546040518263ffffffff1660e01b8152600401611421919061258f565b60006040518083038186803b15801561143957600080fd5b505afa15801561144d573d6000803e3d6000fd5b505050506040513d6000823e3d601f19601f820116820180604052508101906114769190611e42565b905090565b600160008373ffffffffffffffffffffffffffffffffffffffff1673ffffffffffffffffffffffffffffffffffffffff16815260200190815260200160002060009054906101000a900460ff16611507576040517f08c379a00000000000000000000000000000000000000000000000000000000081526004016114fe9061256f565b60405180910390fd5b3373ffffffffffffffffffffffffffffffffffffffff1660008054906101000a900473ffffffffffffffffffffffffffffffffffffffff1673ffffffffffffffffffffffffffffffffffffffff1614611595576040517f08c379a000000000000000000000000000000000000000000000000000000000815260040161158c9061254f565b60405180910390fd5b6000600190505b6005548160ff161161165057600260009054906101000a900473ffffffffffffffffffffffffffffffffffffffff1673ffffffffffffffffffffffffffffffffffffffff166343938a2782868589886040518663ffffffff1660e01b815260040161160b95949392919061278b565b600060405180830381600087803b15801561162557600080fd5b505af1158015611639573d6000803e3d6000fd5b50505050808061164890612a4e565b91505061159c565b5050505050565b600080600260009054906101000a900473ffffffffffffffffffffffffffffffffffffffff1673ffffffffffffffffffffffffffffffffffffffff1663efde8a17846040518263ffffffff1660e01b81526004016116b5919061258f565b604080518083038186803b1580156116cc57600080fd5b505afa1580156116e0573d6000803e3d6000fd5b505050506040513d601f19601f820116820180604052508101906117049190611fb0565b91509150915091565b600160008273ffffffffffffffffffffffffffffffffffffffff1673ffffffffffffffffffffffffffffffffffffffff16815260200190815260200160002060009054906101000a900460ff16611799576040517f08c379a00000000000000000000000000000000000000000000000000000000081526004016117909061256f565b60405180910390fd5b3373ffffffffffffffffffffffffffffffffffffffff1660008054906101000a900473ffffffffffffffffffffffffffffffffffffffff1673ffffffffffffffffffffffffffffffffffffffff1614611827576040517f08c379a000000000000000000000000000000000000000000000000000000000815260040161181e9061254f565b60405180910390fd5b81600260006101000a81548173ffffffffffffffffffffffffffffffffffffffff021916908373ffffffffffffffffffffffffffffffffffffffff1602179055505050565b6000600260009054906101000a900473ffffffffffffffffffffffffffffffffffffffff1673ffffffffffffffffffffffffffffffffffffffff1663f6b399f7836040518263ffffffff1660e01b81526004016118c991906126f4565b60206040518083038186803b1580156118e157600080fd5b505afa1580156118f5573d6000803e3d6000fd5b505050506040513d601f19601f820116820180604052508101906119199190611ed5565b9050919050565b6060600260009054906101000a900473ffffffffffffffffffffffffffffffffffffffff1673ffffffffffffffffffffffffffffffffffffffff1663fa1fd3c6836040518263ffffffff1660e01b815260040161197d91906126f4565b60006040518083038186803b15801561199557600080fd5b505afa1580156119a9573d6000803e3d6000fd5b505050506040513d6000823e3d601f19601f820116820180604052508101906119d29190611d3e565b9050919050565b60006119ec6119e784612803565b6127de565b90508083825260208201905082856020860282011115611a0b57600080fd5b60005b85811015611a3b5781611a218882611b9e565b845260208401935060208301925050600181019050611a0e565b5050509392505050565b6000611a58611a538461282f565b6127de565b90508083825260208201905082856020860282011115611a7757600080fd5b60005b85811015611aa75781611a8d8882611c5b565b845260208401935060208301925050600181019050611a7a565b5050509392505050565b6000611ac4611abf8461285b565b6127de565b90508083825260208201905082856020860282011115611ae357600080fd5b60005b85811015611b135781611af98882611c85565b845260208401935060208301925050600181019050611ae6565b5050509392505050565b6000611b30611b2b84612887565b6127de565b90508083825260208201905082856020860282011115611b4f57600080fd5b60005b85811015611b7f5781611b658882611caf565b845260208401935060208301925050600181019050611b52565b5050509392505050565b600081359050611b9881612b39565b92915050565b600081519050611bad81612b39565b92915050565b600082601f830112611bc457600080fd5b8151611bd48482602086016119d9565b91505092915050565b600082601f830112611bee57600080fd5b8151611bfe848260208601611a45565b91505092915050565b600082601f830112611c1857600080fd5b8151611c28848260208601611ab1565b91505092915050565b600082601f830112611c4257600080fd5b8151611c52848260208601611b1d565b91505092915050565b600081519050611c6a81612b50565b92915050565b600081359050611c7f81612b67565b92915050565b600081519050611c9481612b67565b92915050565b600081359050611ca981612b7e565b92915050565b600081519050611cbe81612b7e565b92915050565b600081359050611cd381612b95565b92915050565b600060208284031215611ceb57600080fd5b6000611cf984828501611b9e565b91505092915050565b60008060408385031215611d1557600080fd5b6000611d2385828601611b89565b9250506020611d3485828601611b89565b9150509250929050565b600060208284031215611d5057600080fd5b600082015167ffffffffffffffff811115611d6a57600080fd5b611d7684828501611bb3565b91505092915050565b60008060008060808587031215611d9557600080fd5b600085015167ffffffffffffffff811115611daf57600080fd5b611dbb87828801611bdd565b945050602085015167ffffffffffffffff811115611dd857600080fd5b611de487828801611c07565b935050604085015167ffffffffffffffff811115611e0157600080fd5b611e0d87828801611c07565b925050606085015167ffffffffffffffff811115611e2a57600080fd5b611e3687828801611c31565b91505092959194509250565b600060208284031215611e5457600080fd5b600082015167ffffffffffffffff811115611e6e57600080fd5b611e7a84828501611c31565b91505092915050565b600060208284031215611e9557600080fd5b6000611ea384828501611c5b565b91505092915050565b600060208284031215611ebe57600080fd5b6000611ecc84828501611c9a565b91505092915050565b600060208284031215611ee757600080fd5b6000611ef584828501611caf565b91505092915050565b600080600060608486031215611f1357600080fd5b6000611f2186828701611c9a565b9350506020611f3286828701611b89565b9250506040611f4386828701611cc4565b9150509250925092565b60008060008060808587031215611f6357600080fd5b6000611f7187828801611c9a565b9450506020611f8287828801611c70565b9350506040611f9387828801611b89565b9250506060611fa487828801611b89565b91505092959194509250565b60008060408385031215611fc357600080fd5b6000611fd185828601611caf565b9250506020611fe285828601611caf565b9150509250929050565b60008060006060848603121561200157600080fd5b600061200f86828701611c9a565b935050602061202086828701611c9a565b925050604061203186828701611b89565b9150509250925092565b6000806040838503121561204e57600080fd5b600061205c85828601611c9a565b925050602061206d85828601611cc4565b9150509250929050565b6000806000806080858703121561208d57600080fd5b600061209b87828801611c9a565b94505060206120ac87828801611cc4565b93505060406120bd87828801611c9a565b92505060606120ce87828801611b89565b91505092959194509250565b6000602082840312156120ec57600080fd5b60006120fa84828501611cc4565b91505092915050565b60008060006060848603121561211857600080fd5b600061212686828701611cc4565b935050602061213786828701611b89565b925050604061214886828701611b89565b9150509250925092565b600061215e83836121b2565b60208301905092915050565b60006121768383612348565b60208301905092915050565b600061218e83836123bb565b60208301905092915050565b60006121a683836123d9565b60208301905092915050565b6121bb816129a8565b82525050565b6121ca816129a8565b82525050565b60006121db826128f3565b6121e58185612953565b93506121f0836128b3565b8060005b838110156122215781516122088882612152565b97506122138361291f565b9250506001810190506121f4565b5085935050505092915050565b6000612239826128fe565b6122438185612964565b935061224e836128c3565b8060005b8381101561227f578151612266888261216a565b97506122718361292c565b925050600181019050612252565b5085935050505092915050565b600061229782612909565b6122a18185612975565b93506122ac836128d3565b8060005b838110156122dd5781516122c48882612182565b97506122cf83612939565b9250506001810190506122b0565b5085935050505092915050565b60006122f582612914565b6122ff8185612986565b935061230a836128e3565b8060005b8381101561233b578151612322888261219a565b975061232d83612946565b92505060018101905061230e565b5085935050505092915050565b612351816129ba565b82525050565b612360816129ba565b82525050565b61236f81612a0b565b82525050565b6000612382600a83612997565b915061238d82612ae7565b602082019050919050565b60006123a5600183612997565b91506123b082612b10565b602082019050919050565b6123c4816129c6565b82525050565b6123d3816129c6565b82525050565b6123e2816129f4565b82525050565b6123f1816129f4565b82525050565b612400816129fe565b82525050565b600060208201905061241b60008301846121c1565b92915050565b600060608201905061243660008301866121c1565b61244360208301856123f7565b61245060408301846121c1565b949350505050565b600060608201905061246d60008301866121c1565b61247a60208301856123f7565b61248760408301846123e8565b949350505050565b600060208201905081810360008301526124a981846121d0565b905092915050565b600060808201905081810360008301526124cb818761222e565b905081810360208301526124df818661228c565b905081810360408301526124f3818561228c565b9050818103606083015261250781846122ea565b905095945050505050565b6000602082019050818103600083015261252c81846122ea565b905092915050565b60006020820190506125496000830184612357565b92915050565b6000602082019050818103600083015261256881612375565b9050919050565b6000602082019050818103600083015261258881612398565b9050919050565b60006020820190506125a460008301846123e8565b92915050565b60006080820190506125bf60008301876123e8565b6125cc60208301866121c1565b6125d960408301856123f7565b6125e660608301846123e8565b95945050505050565b600060408201905061260460008301856123e8565b61261160208301846123e8565b9392505050565b600060608201905061262d60008301866123e8565b61263a60208301856123e8565b61264760408301846121c1565b949350505050565b600060408201905061266460008301856123e8565b61267160208301846123f7565b9392505050565b600060608201905061268d60008301866123e8565b61269a60208301856123f7565b6126a760408301846121c1565b949350505050565b60006080820190506126c460008301876123e8565b6126d160208301866123f7565b6126de60408301856123e8565b6126eb60608301846121c1565b95945050505050565b600060208201905061270960008301846123f7565b92915050565b600060408201905061272460008301856123f7565b61273160208301846121c1565b9392505050565b600060a08201905061274d60008301886123f7565b61275a6020830187612366565b61276760408301866121c1565b61277460608301856123e8565b61278160808301846121c1565b9695505050505050565b600060a0820190506127a060008301886123f7565b6127ad60208301876123ca565b6127ba60408301866121c1565b6127c760608301856123e8565b6127d460808301846121c1565b9695505050505050565b60006127e86127f9565b90506127f48282612a1d565b919050565b6000604051905090565b600067ffffffffffffffff82111561281e5761281d612aa7565b5b602082029050602081019050919050565b600067ffffffffffffffff82111561284a57612849612aa7565b5b602082029050602081019050919050565b600067ffffffffffffffff82111561287657612875612aa7565b5b602082029050602081019050919050565b600067ffffffffffffffff8211156128a2576128a1612aa7565b5b602082029050602081019050919050565b6000819050602082019050919050565b6000819050602082019050919050565b6000819050602082019050919050565b6000819050602082019050919050565b600081519050919050565b600081519050919050565b600081519050919050565b600081519050919050565b6000602082019050919050565b6000602082019050919050565b6000602082019050919050565b6000602082019050919050565b600082825260208201905092915050565b600082825260208201905092915050565b600082825260208201905092915050565b600082825260208201905092915050565b600082825260208201905092915050565b60006129b3826129d4565b9050919050565b60008115159050919050565b600061ffff82169050919050565b600073ffffffffffffffffffffffffffffffffffffffff82169050919050565b6000819050919050565b600060ff82169050919050565b6000612a16826129c6565b9050919050565b612a2682612ad6565b810181811067ffffffffffffffff82111715612a4557612a44612aa7565b5b80604052505050565b6000612a59826129fe565b915060ff821415612a6d57612a6c612a78565b5b600182019050919050565b7f4e487b7100000000000000000000000000000000000000000000000000000000600052601160045260246000fd5b7f4e487b7100000000000000000000000000000000000000000000000000000000600052604160045260246000fd5b6000601f19601f8301169050919050565b7f6f6e6c79206f776e657200000000000000000000000000000000000000000000600082015250565b7f3100000000000000000000000000000000000000000000000000000000000000600082015250565b612b42816129a8565b8114612b4d57600080fd5b50565b612b59816129ba565b8114612b6457600080fd5b50565b612b70816129c6565b8114612b7b57600080fd5b50565b612b87816129f4565b8114612b9257600080fd5b50565b612b9e816129fe565b8114612ba957600080fd5b5056fea26469706673582212208e1d2b617eb42649ebe27ec6160414e70fd8a373024b54a9695c8e363e3fd51464736f6c63430008040033",
  "linkReferences": {},
  "deployedLinkReferences": {}
}