{
  "_format": "hh-sol-artifact-1",
  "contractName": "UserController",
  "sourceName": "contracts/Controllers/UserController.sol",
  "abi": [
    {
      "inputs": [
        {
          "internalType": "address",
          "name": "key",
          "type": "address"
        },
        {
          "internalType": "address",
          "name": "userStorageAddress",
          "type": "address"
        }
      ],
      "stateMutability": "nonpayable",
      "type": "constructor"
    },
    {
      "inputs": [
        {
          "internalType": "address",
          "name": "newAddress",
          "type": "address"
        },
        {
          "internalType": "address",
          "name": "key",
          "type": "address"
        }
      ],
      "name": "ChangeStorage",
      "outputs": [],
      "stateMutability": "payable",
      "type": "function"
    },
    {
      "inputs": [],
      "name": "GetMembersCount",
      "outputs": [
        {
          "internalType": "uint256",
          "name": "",
          "type": "uint256"
        }
      ],
      "stateMutability": "view",
      "type": "function"
    },
    {
      "inputs": [],
      "name": "GetReferalLines",
      "outputs": [
        {
          "internalType": "uint256",
          "name": "",
          "type": "uint256"
        }
      ],
      "stateMutability": "view",
      "type": "function"
    },
    {
      "inputs": [
        {
          "internalType": "uint256",
          "name": "line",
          "type": "uint256"
        }
      ],
      "name": "GetReferalPercent",
      "outputs": [
        {
          "internalType": "uint256",
          "name": "",
          "type": "uint256"
        }
      ],
      "stateMutability": "view",
      "type": "function"
    },
    {
      "inputs": [],
      "name": "GetReferalPercentArray",
      "outputs": [
        {
          "internalType": "uint256[]",
          "name": "",
          "type": "uint256[]"
        }
      ],
      "stateMutability": "view",
      "type": "function"
    },
    {
      "inputs": [
        {
          "internalType": "address",
          "name": "userAddress",
          "type": "address"
        }
      ],
      "name": "GetReferrer",
      "outputs": [
        {
          "internalType": "address",
          "name": "",
          "type": "address"
        }
      ],
      "stateMutability": "view",
      "type": "function"
    },
    {
      "inputs": [
        {
          "internalType": "uint256",
          "name": "userId",
          "type": "uint256"
        }
      ],
      "name": "GetUserAddressById",
      "outputs": [
        {
          "internalType": "address",
          "name": "",
          "type": "address"
        }
      ],
      "stateMutability": "view",
      "type": "function"
    },
    {
      "inputs": [
        {
          "internalType": "address",
          "name": "userAddress",
          "type": "address"
        }
      ],
      "name": "GetUserByAddress",
      "outputs": [
        {
          "internalType": "uint256",
          "name": "",
          "type": "uint256"
        },
        {
          "internalType": "address",
          "name": "",
          "type": "address"
        },
        {
          "internalType": "uint256",
          "name": "",
          "type": "uint256"
        }
      ],
      "stateMutability": "view",
      "type": "function"
    },
    {
      "inputs": [
        {
          "internalType": "uint256",
          "name": "id",
          "type": "uint256"
        }
      ],
      "name": "GetUserById",
      "outputs": [
        {
          "internalType": "uint256",
          "name": "",
          "type": "uint256"
        },
        {
          "internalType": "address",
          "name": "",
          "type": "address"
        },
        {
          "internalType": "uint256",
          "name": "",
          "type": "uint256"
        }
      ],
      "stateMutability": "view",
      "type": "function"
    },
    {
      "inputs": [
        {
          "internalType": "address",
          "name": "adr",
          "type": "address"
        }
      ],
      "name": "GetUserIdByAddress",
      "outputs": [
        {
          "internalType": "uint256",
          "name": "",
          "type": "uint256"
        }
      ],
      "stateMutability": "view",
      "type": "function"
    },
    {
      "inputs": [
        {
          "internalType": "address",
          "name": "addr",
          "type": "address"
        }
      ],
      "name": "IsUserExist",
      "outputs": [
        {
          "internalType": "bool",
          "name": "",
          "type": "bool"
        }
      ],
      "stateMutability": "view",
      "type": "function"
    },
    {
      "inputs": [
        {
          "internalType": "uint256",
          "name": "id",
          "type": "uint256"
        }
      ],
      "name": "IsUserExistById",
      "outputs": [
        {
          "internalType": "bool",
          "name": "",
          "type": "bool"
        }
      ],
      "stateMutability": "view",
      "type": "function"
    },
    {
      "inputs": [
        {
          "internalType": "address",
          "name": "key",
          "type": "address"
        },
        {
          "internalType": "address",
          "name": "userAddress",
          "type": "address"
        },
        {
          "internalType": "uint256",
          "name": "refId",
          "type": "uint256"
        }
      ],
      "name": "Register",
      "outputs": [],
      "stateMutability": "payable",
      "type": "function"
    },
    {
      "inputs": [
        {
          "internalType": "uint256",
          "name": "",
          "type": "uint256"
        }
      ],
      "name": "referralRewardPercents",
      "outputs": [
        {
          "internalType": "uint256",
          "name": "",
          "type": "uint256"
        }
      ],
      "stateMutability": "view",
      "type": "function"
    }
  ],
  "bytecode": "0x6080604052604051806101000160405280600060ff168152602001600860ff168152602001600460ff168152602001600360ff168152602001600260ff168152602001600160ff168152602001600160ff168152602001600160ff168152506003906008620000709291906200019b565b50600160038054905062000085919062000269565b6004553480156200009557600080fd5b5060405162001732380380620017328339818101604052810190620000bb919062000228565b60018060008473ffffffffffffffffffffffffffffffffffffffff1673ffffffffffffffffffffffffffffffffffffffff16815260200190815260200160002060006101000a81548160ff021916908315150217905550336000806101000a81548173ffffffffffffffffffffffffffffffffffffffff021916908373ffffffffffffffffffffffffffffffffffffffff16021790555080600260006101000a81548173ffffffffffffffffffffffffffffffffffffffff021916908373ffffffffffffffffffffffffffffffffffffffff16021790555050506200032b565b828054828255906000526020600020908101928215620001df579160200282015b82811115620001de578251829060ff16905591602001919060010190620001bc565b5b509050620001ee9190620001f2565b5090565b5b808211156200020d576000816000905550600101620001f3565b5090565b600081519050620002228162000311565b92915050565b600080604083850312156200023c57600080fd5b60006200024c8582860162000211565b92505060206200025f8582860162000211565b9150509250929050565b60006200027682620002d8565b91506200028383620002d8565b925082821015620002995762000298620002e2565b5b828203905092915050565b6000620002b182620002b8565b9050919050565b600073ffffffffffffffffffffffffffffffffffffffff82169050919050565b6000819050919050565b7f4e487b7100000000000000000000000000000000000000000000000000000000600052601160045260246000fd5b6200031c81620002a4565b81146200032857600080fd5b50565b6113f7806200033b6000396000f3fe6080604052600436106100dd5760003560e01c806371f14bc51161007f578063bd4616f411610059578063bd4616f414610301578063cc0bec141461033e578063df271a3a1461035a578063efd2699b14610399576100dd565b806371f14bc51461027d5780639ea6de36146102a8578063b22abbfb146102c4576100dd565b806331a73991116100bb57806331a73991146101895780634260b84c146101c657806357766ce2146102035780635d206d4d14610240576100dd565b80631892fd78146100e2578063219267c4146101215780632f0f9aa01461015e575b600080fd5b3480156100ee57600080fd5b5061010960048036038101906101049190610e49565b6103c4565b604051610118939291906111fb565b60405180910390f35b34801561012d57600080fd5b5061014860048036038101906101439190610f4f565b610481565b60405161015591906111e0565b60405180910390f35b34801561016a57600080fd5b506101736104cf565b6040516101809190611163565b60405180910390f35b34801561019557600080fd5b506101b060048036038101906101ab9190610e49565b610527565b6040516101bd91906111e0565b60405180910390f35b3480156101d257600080fd5b506101ed60048036038101906101e89190610e49565b6105db565b6040516101fa91906110e8565b60405180910390f35b34801561020f57600080fd5b5061022a60048036038101906102259190610f4f565b61068f565b60405161023791906110e8565b60405180910390f35b34801561024c57600080fd5b5061026760048036038101906102629190610f4f565b610743565b6040516102749190611185565b60405180910390f35b34801561028957600080fd5b506102926107f7565b60405161029f91906111e0565b60405180910390f35b6102c260048036038101906102bd9190610e9b565b610801565b005b3480156102d057600080fd5b506102eb60048036038101906102e69190610e49565b610960565b6040516102f89190611185565b60405180910390f35b34801561030d57600080fd5b5061032860048036038101906103239190610f4f565b610a14565b60405161033591906111e0565b60405180910390f35b61035860048036038101906103539190610ed7565b610a38565b005b34801561036657600080fd5b50610381600480360381019061037c9190610f4f565b610c7c565b604051610390939291906111fb565b60405180910390f35b3480156103a557600080fd5b506103ae610d39565b6040516103bb91906111e0565b60405180910390f35b6000806000600260009054906101000a900473ffffffffffffffffffffffffffffffffffffffff1673ffffffffffffffffffffffffffffffffffffffff16631892fd78856040518263ffffffff1660e01b815260040161042491906110e8565b60606040518083038186803b15801561043c57600080fd5b505afa158015610450573d6000803e3d6000fd5b505050506040513d601f19601f820116820180604052508101906104749190610fa1565b9250925092509193909250565b6000600382815481106104bd577f4e487b7100000000000000000000000000000000000000000000000000000000600052603260045260246000fd5b90600052602060002001549050919050565b6060600380548060200260200160405190810160405280929190818152602001828054801561051d57602002820191906000526020600020905b815481526020019060010190808311610509575b5050505050905090565b6000600260009054906101000a900473ffffffffffffffffffffffffffffffffffffffff1673ffffffffffffffffffffffffffffffffffffffff166331a73991836040518263ffffffff1660e01b815260040161058491906110e8565b60206040518083038186803b15801561059c57600080fd5b505afa1580156105b0573d6000803e3d6000fd5b505050506040513d601f19601f820116820180604052508101906105d49190610f78565b9050919050565b6000600260009054906101000a900473ffffffffffffffffffffffffffffffffffffffff1673ffffffffffffffffffffffffffffffffffffffff16634260b84c836040518263ffffffff1660e01b815260040161063891906110e8565b60206040518083038186803b15801561065057600080fd5b505afa158015610664573d6000803e3d6000fd5b505050506040513d601f19601f820116820180604052508101906106889190610e72565b9050919050565b6000600260009054906101000a900473ffffffffffffffffffffffffffffffffffffffff1673ffffffffffffffffffffffffffffffffffffffff166357766ce2836040518263ffffffff1660e01b81526004016106ec91906111e0565b60206040518083038186803b15801561070457600080fd5b505afa158015610718573d6000803e3d6000fd5b505050506040513d601f19601f8201168201806040525081019061073c9190610e72565b9050919050565b6000600260009054906101000a900473ffffffffffffffffffffffffffffffffffffffff1673ffffffffffffffffffffffffffffffffffffffff16635d206d4d836040518263ffffffff1660e01b81526004016107a091906111e0565b60206040518083038186803b1580156107b857600080fd5b505afa1580156107cc573d6000803e3d6000fd5b505050506040513d601f19601f820116820180604052508101906107f09190610f26565b9050919050565b6000600454905090565b600160008273ffffffffffffffffffffffffffffffffffffffff1673ffffffffffffffffffffffffffffffffffffffff16815260200190815260200160002060009054906101000a900460ff1661088d576040517f08c379a0000000000000000000000000000000000000000000000000000000008152600401610884906111c0565b60405180910390fd5b3373ffffffffffffffffffffffffffffffffffffffff1660008054906101000a900473ffffffffffffffffffffffffffffffffffffffff1673ffffffffffffffffffffffffffffffffffffffff161461091b576040517f08c379a0000000000000000000000000000000000000000000000000000000008152600401610912906111a0565b60405180910390fd5b81600260006101000a81548173ffffffffffffffffffffffffffffffffffffffff021916908373ffffffffffffffffffffffffffffffffffffffff1602179055505050565b6000600260009054906101000a900473ffffffffffffffffffffffffffffffffffffffff1673ffffffffffffffffffffffffffffffffffffffff1663b22abbfb836040518263ffffffff1660e01b81526004016109bd91906110e8565b60206040518083038186803b1580156109d557600080fd5b505afa1580156109e9573d6000803e3d6000fd5b505050506040513d601f19601f82011682018060405250810190610a0d9190610f26565b9050919050565b60038181548110610a2457600080fd5b906000526020600020016000915090505481565b600160008473ffffffffffffffffffffffffffffffffffffffff1673ffffffffffffffffffffffffffffffffffffffff16815260200190815260200160002060009054906101000a900460ff16610ac4576040517f08c379a0000000000000000000000000000000000000000000000000000000008152600401610abb906111c0565b60405180910390fd5b610acd81610743565b610ad657600190505b6000610ae18261068f565b9050600260009054906101000a900473ffffffffffffffffffffffffffffffffffffffff1673ffffffffffffffffffffffffffffffffffffffff16631de6337f8483876040518463ffffffff1660e01b8152600401610b429392919061112c565b600060405180830381600087803b158015610b5c57600080fd5b505af1158015610b70573d6000803e3d6000fd5b5050505060006001905060008290505b6004548260ff1611158015610bc25750600073ffffffffffffffffffffffffffffffffffffffff168173ffffffffffffffffffffffffffffffffffffffff1614155b15610c7457600260009054906101000a900473ffffffffffffffffffffffffffffffffffffffff1673ffffffffffffffffffffffffffffffffffffffff1663ae15fbe982886040518363ffffffff1660e01b8152600401610c24929190611103565b600060405180830381600087803b158015610c3e57600080fd5b505af1158015610c52573d6000803e3d6000fd5b50505050610c5f816105db565b90508180610c6c906112d1565b925050610b80565b505050505050565b6000806000600260009054906101000a900473ffffffffffffffffffffffffffffffffffffffff1673ffffffffffffffffffffffffffffffffffffffff1663df271a3a856040518263ffffffff1660e01b8152600401610cdc91906111e0565b60606040518083038186803b158015610cf457600080fd5b505afa158015610d08573d6000803e3d6000fd5b505050506040513d601f19601f82011682018060405250810190610d2c9190610fa1565b9250925092509193909250565b6000600260009054906101000a900473ffffffffffffffffffffffffffffffffffffffff1673ffffffffffffffffffffffffffffffffffffffff1663efd2699b6040518163ffffffff1660e01b815260040160206040518083038186803b158015610da357600080fd5b505afa158015610db7573d6000803e3d6000fd5b505050506040513d601f19601f82011682018060405250810190610ddb9190610f78565b905090565b600081359050610def8161137c565b92915050565b600081519050610e048161137c565b92915050565b600081519050610e1981611393565b92915050565b600081359050610e2e816113aa565b92915050565b600081519050610e43816113aa565b92915050565b600060208284031215610e5b57600080fd5b6000610e6984828501610de0565b91505092915050565b600060208284031215610e8457600080fd5b6000610e9284828501610df5565b91505092915050565b60008060408385031215610eae57600080fd5b6000610ebc85828601610de0565b9250506020610ecd85828601610de0565b9150509250929050565b600080600060608486031215610eec57600080fd5b6000610efa86828701610de0565b9350506020610f0b86828701610de0565b9250506040610f1c86828701610e1f565b9150509250925092565b600060208284031215610f3857600080fd5b6000610f4684828501610e0a565b91505092915050565b600060208284031215610f6157600080fd5b6000610f6f84828501610e1f565b91505092915050565b600060208284031215610f8a57600080fd5b6000610f9884828501610e34565b91505092915050565b600080600060608486031215610fb657600080fd5b6000610fc486828701610e34565b9350506020610fd586828701610df5565b9250506040610fe686828701610e34565b9150509250925092565b6000610ffc83836110ca565b60208301905092915050565b6110118161127c565b82525050565b600061102282611242565b61102c818561125a565b935061103783611232565b8060005b8381101561106857815161104f8882610ff0565b975061105a8361124d565b92505060018101905061103b565b5085935050505092915050565b61107e8161128e565b82525050565b6000611091600a8361126b565b915061109c8261132a565b602082019050919050565b60006110b460018361126b565b91506110bf82611353565b602082019050919050565b6110d3816112ba565b82525050565b6110e2816112ba565b82525050565b60006020820190506110fd6000830184611008565b92915050565b60006040820190506111186000830185611008565b6111256020830184611008565b9392505050565b60006060820190506111416000830186611008565b61114e6020830185611008565b61115b6040830184611008565b949350505050565b6000602082019050818103600083015261117d8184611017565b905092915050565b600060208201905061119a6000830184611075565b92915050565b600060208201905081810360008301526111b981611084565b9050919050565b600060208201905081810360008301526111d9816110a7565b9050919050565b60006020820190506111f560008301846110d9565b92915050565b600060608201905061121060008301866110d9565b61121d6020830185611008565b61122a60408301846110d9565b949350505050565b6000819050602082019050919050565b600081519050919050565b6000602082019050919050565b600082825260208201905092915050565b600082825260208201905092915050565b60006112878261129a565b9050919050565b60008115159050919050565b600073ffffffffffffffffffffffffffffffffffffffff82169050919050565b6000819050919050565b600060ff82169050919050565b60006112dc826112c4565b915060ff8214156112f0576112ef6112fb565b5b600182019050919050565b7f4e487b7100000000000000000000000000000000000000000000000000000000600052601160045260246000fd5b7f6f6e6c79206f776e657200000000000000000000000000000000000000000000600082015250565b7f3100000000000000000000000000000000000000000000000000000000000000600082015250565b6113858161127c565b811461139057600080fd5b50565b61139c8161128e565b81146113a757600080fd5b50565b6113b3816112ba565b81146113be57600080fd5b5056fea2646970667358221220b6ca0e85411226e3b752b84c24189b804fa86a19dde733075b93f44e1f6273fd64736f6c63430008040033",
  "linkReferences": {},
  "deployedLinkReferences": {}
}