{
  "_format": "hh-sol-artifact-1",
  "contractName": "UserController",
  "sourceName": "contracts/Controllers/UserController.sol",
  "abi": [
    {
      "inputs": [
        {
          "internalType": "address",
          "name": "userStorageAddress",
          "type": "address"
        }
      ],
      "stateMutability": "nonpayable",
      "type": "constructor"
    },
    {
      "inputs": [
        {
          "internalType": "address",
          "name": "newAddress",
          "type": "address"
        }
      ],
      "name": "Change",
      "outputs": [],
      "stateMutability": "payable",
      "type": "function"
    },
    {
      "inputs": [
        {
          "internalType": "address",
          "name": "newAddress",
          "type": "address"
        }
      ],
      "name": "ChangeStorage",
      "outputs": [],
      "stateMutability": "payable",
      "type": "function"
    },
    {
      "inputs": [],
      "name": "GetMembersCount",
      "outputs": [
        {
          "internalType": "uint256",
          "name": "",
          "type": "uint256"
        }
      ],
      "stateMutability": "view",
      "type": "function"
    },
    {
      "inputs": [],
      "name": "GetReferalLines",
      "outputs": [
        {
          "internalType": "uint256",
          "name": "",
          "type": "uint256"
        }
      ],
      "stateMutability": "view",
      "type": "function"
    },
    {
      "inputs": [
        {
          "internalType": "uint256",
          "name": "line",
          "type": "uint256"
        }
      ],
      "name": "GetReferalPercent",
      "outputs": [
        {
          "internalType": "uint256",
          "name": "",
          "type": "uint256"
        }
      ],
      "stateMutability": "view",
      "type": "function"
    },
    {
      "inputs": [],
      "name": "GetReferalPercentArray",
      "outputs": [
        {
          "internalType": "uint256[]",
          "name": "",
          "type": "uint256[]"
        }
      ],
      "stateMutability": "view",
      "type": "function"
    },
    {
      "inputs": [
        {
          "internalType": "address",
          "name": "userAddress",
          "type": "address"
        }
      ],
      "name": "GetReferrer",
      "outputs": [
        {
          "internalType": "address",
          "name": "",
          "type": "address"
        }
      ],
      "stateMutability": "view",
      "type": "function"
    },
    {
      "inputs": [
        {
          "internalType": "uint256",
          "name": "userId",
          "type": "uint256"
        }
      ],
      "name": "GetUserAddressById",
      "outputs": [
        {
          "internalType": "address",
          "name": "",
          "type": "address"
        }
      ],
      "stateMutability": "view",
      "type": "function"
    },
    {
      "inputs": [
        {
          "internalType": "address",
          "name": "userAddress",
          "type": "address"
        }
      ],
      "name": "GetUserByAddress",
      "outputs": [
        {
          "internalType": "uint256",
          "name": "",
          "type": "uint256"
        },
        {
          "internalType": "address",
          "name": "",
          "type": "address"
        },
        {
          "internalType": "uint256",
          "name": "",
          "type": "uint256"
        }
      ],
      "stateMutability": "view",
      "type": "function"
    },
    {
      "inputs": [
        {
          "internalType": "uint256",
          "name": "id",
          "type": "uint256"
        }
      ],
      "name": "GetUserById",
      "outputs": [
        {
          "internalType": "uint256",
          "name": "",
          "type": "uint256"
        },
        {
          "internalType": "address",
          "name": "",
          "type": "address"
        },
        {
          "internalType": "uint256",
          "name": "",
          "type": "uint256"
        }
      ],
      "stateMutability": "view",
      "type": "function"
    },
    {
      "inputs": [
        {
          "internalType": "address",
          "name": "adr",
          "type": "address"
        }
      ],
      "name": "GetUserIdByAddress",
      "outputs": [
        {
          "internalType": "uint256",
          "name": "",
          "type": "uint256"
        }
      ],
      "stateMutability": "view",
      "type": "function"
    },
    {
      "inputs": [
        {
          "internalType": "address",
          "name": "addr",
          "type": "address"
        }
      ],
      "name": "IsUserExist",
      "outputs": [
        {
          "internalType": "bool",
          "name": "",
          "type": "bool"
        }
      ],
      "stateMutability": "view",
      "type": "function"
    },
    {
      "inputs": [
        {
          "internalType": "uint256",
          "name": "id",
          "type": "uint256"
        }
      ],
      "name": "IsUserExistById",
      "outputs": [
        {
          "internalType": "bool",
          "name": "",
          "type": "bool"
        }
      ],
      "stateMutability": "view",
      "type": "function"
    },
    {
      "inputs": [
        {
          "internalType": "address",
          "name": "userAddress",
          "type": "address"
        },
        {
          "internalType": "uint256",
          "name": "refId",
          "type": "uint256"
        }
      ],
      "name": "Register",
      "outputs": [],
      "stateMutability": "payable",
      "type": "function"
    },
    {
      "inputs": [
        {
          "internalType": "address",
          "name": "_addressKey",
          "type": "address"
        }
      ],
      "name": "Set",
      "outputs": [],
      "stateMutability": "payable",
      "type": "function"
    },
    {
      "inputs": [],
      "name": "SetKey",
      "outputs": [],
      "stateMutability": "payable",
      "type": "function"
    },
    {
      "inputs": [
        {
          "internalType": "uint256",
          "name": "",
          "type": "uint256"
        }
      ],
      "name": "referralRewardPercents",
      "outputs": [
        {
          "internalType": "uint256",
          "name": "",
          "type": "uint256"
        }
      ],
      "stateMutability": "view",
      "type": "function"
    }
  ],
  "bytecode": "0x6080604052604051806101000160405280600060ff168152602001600860ff168152602001600460ff168152602001600360ff168152602001600260ff168152602001600160ff168152602001600160ff168152602001600160ff16815250600490600862000070929190620002a3565b5060016004805490506200008591906200035c565b6005553480156200009557600080fd5b506040516200199e3803806200199e8339818101604052810190620000bb919062000330565b336000806101000a81548173ffffffffffffffffffffffffffffffffffffffff021916908373ffffffffffffffffffffffffffffffffffffffff1602179055506040518060400160405280600015158152602001600073ffffffffffffffffffffffffffffffffffffffff16815250600160008201518160000160006101000a81548160ff02191690831515021790555060208201518160000160016101000a81548173ffffffffffffffffffffffffffffffffffffffff021916908373ffffffffffffffffffffffffffffffffffffffff16021790555090505033600260006101000a81548173ffffffffffffffffffffffffffffffffffffffff021916908373ffffffffffffffffffffffffffffffffffffffff16021790555080600360006101000a81548173ffffffffffffffffffffffffffffffffffffffff021916908373ffffffffffffffffffffffffffffffffffffffff160217905550600360009054906101000a900473ffffffffffffffffffffffffffffffffffffffff1673ffffffffffffffffffffffffffffffffffffffff166341e6f7246040518163ffffffff1660e01b8152600401600060405180830381600087803b1580156200028357600080fd5b505af115801562000298573d6000803e3d6000fd5b50505050506200041e565b828054828255906000526020600020908101928215620002e7579160200282015b82811115620002e6578251829060ff16905591602001919060010190620002c4565b5b509050620002f69190620002fa565b5090565b5b8082111562000315576000816000905550600101620002fb565b5090565b6000815190506200032a8162000404565b92915050565b6000602082840312156200034357600080fd5b6000620003538482850162000319565b91505092915050565b60006200036982620003cb565b91506200037683620003cb565b9250828210156200038c576200038b620003d5565b5b828203905092915050565b6000620003a482620003ab565b9050919050565b600073ffffffffffffffffffffffffffffffffffffffff82169050919050565b6000819050919050565b7f4e487b7100000000000000000000000000000000000000000000000000000000600052601160045260246000fd5b6200040f8162000397565b81146200041b57600080fd5b50565b611570806200042e6000396000f3fe6080604052600436106100fd5760003560e01c806341e6f7241161009557806371f14bc51161006457806371f14bc514610317578063b22abbfb14610342578063bd4616f41461037f578063df271a3a146103bc578063efd2699b146103fb576100fd565b806341e6f724146102565780634260b84c1461026057806357766ce21461029d5780635d206d4d146102da576100fd565b8063219267c4116100d1578063219267c4146101955780632f0f9aa0146101d257806331a73991146101fd5780633c4dbb051461023a576100fd565b80627dc6ab1461010257806302dc774d1461011e57806307b8680d1461013a5780631892fd7814610156575b600080fd5b61011c6004803603810190610117919061109a565b610426565b005b61013860048036038101906101339190611048565b61066c565b005b610154600480360381019061014f9190611048565b6106b3565b005b34801561016257600080fd5b5061017d60048036038101906101789190611048565b610809565b60405161018c93929190611374565b60405180910390f35b3480156101a157600080fd5b506101bc60048036038101906101b791906110ff565b6108c6565b6040516101c99190611359565b60405180910390f35b3480156101de57600080fd5b506101e7610914565b6040516101f491906112dc565b60405180910390f35b34801561020957600080fd5b50610224600480360381019061021f9190611048565b61096c565b6040516102319190611359565b60405180910390f35b610254600480360381019061024f9190611048565b610a20565b005b61025e610b10565b005b34801561026c57600080fd5b5061028760048036038101906102829190611048565b610b7d565b6040516102949190611298565b60405180910390f35b3480156102a957600080fd5b506102c460048036038101906102bf91906110ff565b610c31565b6040516102d19190611298565b60405180910390f35b3480156102e657600080fd5b5061030160048036038101906102fc91906110ff565b610ce5565b60405161030e91906112fe565b60405180910390f35b34801561032357600080fd5b5061032c610d99565b6040516103399190611359565b60405180910390f35b34801561034e57600080fd5b5061036960048036038101906103649190611048565b610da3565b60405161037691906112fe565b60405180910390f35b34801561038b57600080fd5b506103a660048036038101906103a191906110ff565b610e57565b6040516103b39190611359565b60405180910390f35b3480156103c857600080fd5b506103e360048036038101906103de91906110ff565b610e7b565b6040516103f293929190611374565b60405180910390f35b34801561040757600080fd5b50610410610f38565b60405161041d9190611359565b60405180910390f35b3373ffffffffffffffffffffffffffffffffffffffff16600160000160019054906101000a900473ffffffffffffffffffffffffffffffffffffffff1673ffffffffffffffffffffffffffffffffffffffff16146104b9576040517f08c379a00000000000000000000000000000000000000000000000000000000081526004016104b090611339565b60405180910390fd5b6104c281610ce5565b6104cb57600190505b60006104d682610c31565b9050600360009054906101000a900473ffffffffffffffffffffffffffffffffffffffff1673ffffffffffffffffffffffffffffffffffffffff16633991f82e84836040518363ffffffff1660e01b81526004016105359291906112b3565b600060405180830381600087803b15801561054f57600080fd5b505af1158015610563573d6000803e3d6000fd5b5050505060006001905060008290505b6005548260ff16111580156105b55750600073ffffffffffffffffffffffffffffffffffffffff168173ffffffffffffffffffffffffffffffffffffffff1614155b1561066557600360009054906101000a900473ffffffffffffffffffffffffffffffffffffffff1673ffffffffffffffffffffffffffffffffffffffff1663d66bfb0f826040518263ffffffff1660e01b81526004016106159190611298565b600060405180830381600087803b15801561062f57600080fd5b505af1158015610643573d6000803e3d6000fd5b5050505061065081610b7d565b9050818061065d9061144a565b925050610573565b5050505050565b80600160000160016101000a81548173ffffffffffffffffffffffffffffffffffffffff021916908373ffffffffffffffffffffffffffffffffffffffff16021790555050565b3373ffffffffffffffffffffffffffffffffffffffff16600260009054906101000a900473ffffffffffffffffffffffffffffffffffffffff1673ffffffffffffffffffffffffffffffffffffffff1614610743576040517f08c379a000000000000000000000000000000000000000000000000000000000815260040161073a90611319565b60405180910390fd5b80600360006101000a81548173ffffffffffffffffffffffffffffffffffffffff021916908373ffffffffffffffffffffffffffffffffffffffff160217905550600360009054906101000a900473ffffffffffffffffffffffffffffffffffffffff1673ffffffffffffffffffffffffffffffffffffffff166341e6f7246040518163ffffffff1660e01b8152600401600060405180830381600087803b1580156107ee57600080fd5b505af1158015610802573d6000803e3d6000fd5b5050505050565b6000806000600360009054906101000a900473ffffffffffffffffffffffffffffffffffffffff1673ffffffffffffffffffffffffffffffffffffffff16631892fd78856040518263ffffffff1660e01b81526004016108699190611298565b60606040518083038186803b15801561088157600080fd5b505afa158015610895573d6000803e3d6000fd5b505050506040513d601f19601f820116820180604052508101906108b99190611151565b9250925092509193909250565b600060048281548110610902577f4e487b7100000000000000000000000000000000000000000000000000000000600052603260045260246000fd5b90600052602060002001549050919050565b6060600480548060200260200160405190810160405280929190818152602001828054801561096257602002820191906000526020600020905b81548152602001906001019080831161094e575b5050505050905090565b6000600360009054906101000a900473ffffffffffffffffffffffffffffffffffffffff1673ffffffffffffffffffffffffffffffffffffffff166331a73991836040518263ffffffff1660e01b81526004016109c99190611298565b60206040518083038186803b1580156109e157600080fd5b505afa1580156109f5573d6000803e3d6000fd5b505050506040513d601f19601f82011682018060405250810190610a199190611128565b9050919050565b600160000160009054906101000a900460ff1615610a73576040517f08c379a0000000000000000000000000000000000000000000000000000000008152600401610a6a90611339565b60405180910390fd5b60405180604001604052806001151581526020018273ffffffffffffffffffffffffffffffffffffffff16815250600160008201518160000160006101000a81548160ff02191690831515021790555060208201518160000160016101000a81548173ffffffffffffffffffffffffffffffffffffffff021916908373ffffffffffffffffffffffffffffffffffffffff16021790555090505050565b3073ffffffffffffffffffffffffffffffffffffffff16633c4dbb05336040518263ffffffff1660e01b8152600401610b499190611298565b600060405180830381600087803b158015610b6357600080fd5b505af1158015610b77573d6000803e3d6000fd5b50505050565b6000600360009054906101000a900473ffffffffffffffffffffffffffffffffffffffff1673ffffffffffffffffffffffffffffffffffffffff16634260b84c836040518263ffffffff1660e01b8152600401610bda9190611298565b60206040518083038186803b158015610bf257600080fd5b505afa158015610c06573d6000803e3d6000fd5b505050506040513d601f19601f82011682018060405250810190610c2a9190611071565b9050919050565b6000600360009054906101000a900473ffffffffffffffffffffffffffffffffffffffff1673ffffffffffffffffffffffffffffffffffffffff166357766ce2836040518263ffffffff1660e01b8152600401610c8e9190611359565b60206040518083038186803b158015610ca657600080fd5b505afa158015610cba573d6000803e3d6000fd5b505050506040513d601f19601f82011682018060405250810190610cde9190611071565b9050919050565b6000600360009054906101000a900473ffffffffffffffffffffffffffffffffffffffff1673ffffffffffffffffffffffffffffffffffffffff16635d206d4d836040518263ffffffff1660e01b8152600401610d429190611359565b60206040518083038186803b158015610d5a57600080fd5b505afa158015610d6e573d6000803e3d6000fd5b505050506040513d601f19601f82011682018060405250810190610d9291906110d6565b9050919050565b6000600554905090565b6000600360009054906101000a900473ffffffffffffffffffffffffffffffffffffffff1673ffffffffffffffffffffffffffffffffffffffff1663b22abbfb836040518263ffffffff1660e01b8152600401610e009190611298565b60206040518083038186803b158015610e1857600080fd5b505afa158015610e2c573d6000803e3d6000fd5b505050506040513d601f19601f82011682018060405250810190610e5091906110d6565b9050919050565b60048181548110610e6757600080fd5b906000526020600020016000915090505481565b6000806000600360009054906101000a900473ffffffffffffffffffffffffffffffffffffffff1673ffffffffffffffffffffffffffffffffffffffff1663df271a3a856040518263ffffffff1660e01b8152600401610edb9190611359565b60606040518083038186803b158015610ef357600080fd5b505afa158015610f07573d6000803e3d6000fd5b505050506040513d601f19601f82011682018060405250810190610f2b9190611151565b9250925092509193909250565b6000600360009054906101000a900473ffffffffffffffffffffffffffffffffffffffff1673ffffffffffffffffffffffffffffffffffffffff1663efd2699b6040518163ffffffff1660e01b815260040160206040518083038186803b158015610fa257600080fd5b505afa158015610fb6573d6000803e3d6000fd5b505050506040513d601f19601f82011682018060405250810190610fda9190611128565b905090565b600081359050610fee816114f5565b92915050565b600081519050611003816114f5565b92915050565b6000815190506110188161150c565b92915050565b60008135905061102d81611523565b92915050565b60008151905061104281611523565b92915050565b60006020828403121561105a57600080fd5b600061106884828501610fdf565b91505092915050565b60006020828403121561108357600080fd5b600061109184828501610ff4565b91505092915050565b600080604083850312156110ad57600080fd5b60006110bb85828601610fdf565b92505060206110cc8582860161101e565b9150509250929050565b6000602082840312156110e857600080fd5b60006110f684828501611009565b91505092915050565b60006020828403121561111157600080fd5b600061111f8482850161101e565b91505092915050565b60006020828403121561113a57600080fd5b600061114884828501611033565b91505092915050565b60008060006060848603121561116657600080fd5b600061117486828701611033565b935050602061118586828701610ff4565b925050604061119686828701611033565b9150509250925092565b60006111ac838361127a565b60208301905092915050565b6111c1816113f5565b82525050565b60006111d2826113bb565b6111dc81856113d3565b93506111e7836113ab565b8060005b838110156112185781516111ff88826111a0565b975061120a836113c6565b9250506001810190506111eb565b5085935050505092915050565b61122e81611407565b82525050565b6000611241600a836113e4565b915061124c826114a3565b602082019050919050565b60006112646001836113e4565b915061126f826114cc565b602082019050919050565b61128381611433565b82525050565b61129281611433565b82525050565b60006020820190506112ad60008301846111b8565b92915050565b60006040820190506112c860008301856111b8565b6112d560208301846111b8565b9392505050565b600060208201905081810360008301526112f681846111c7565b905092915050565b60006020820190506113136000830184611225565b92915050565b6000602082019050818103600083015261133281611234565b9050919050565b6000602082019050818103600083015261135281611257565b9050919050565b600060208201905061136e6000830184611289565b92915050565b60006060820190506113896000830186611289565b61139660208301856111b8565b6113a36040830184611289565b949350505050565b6000819050602082019050919050565b600081519050919050565b6000602082019050919050565b600082825260208201905092915050565b600082825260208201905092915050565b600061140082611413565b9050919050565b60008115159050919050565b600073ffffffffffffffffffffffffffffffffffffffff82169050919050565b6000819050919050565b600060ff82169050919050565b60006114558261143d565b915060ff82141561146957611468611474565b5b600182019050919050565b7f4e487b7100000000000000000000000000000000000000000000000000000000600052601160045260246000fd5b7f6f6e6c79206f776e657200000000000000000000000000000000000000000000600082015250565b7f3100000000000000000000000000000000000000000000000000000000000000600082015250565b6114fe816113f5565b811461150957600080fd5b50565b61151581611407565b811461152057600080fd5b50565b61152c81611433565b811461153757600080fd5b5056fea264697066735822122039b78a48147bbea61fff04dd993b58499d377e37e1c68f729e044a9900eec81864736f6c63430008040033",
  "linkReferences": {},
  "deployedLinkReferences": {}
}