{
  "_format": "hh-sol-artifact-1",
  "contractName": "UserController",
  "sourceName": "contracts/Controllers/UserController.sol",
  "abi": [
    {
      "inputs": [
        {
          "internalType": "address",
          "name": "key",
          "type": "address"
        },
        {
          "internalType": "address",
          "name": "userStorageAddress",
          "type": "address"
        }
      ],
      "stateMutability": "nonpayable",
      "type": "constructor"
    },
    {
      "inputs": [
        {
          "internalType": "address",
          "name": "userAddress",
          "type": "address"
        },
        {
          "internalType": "address",
          "name": "key",
          "type": "address"
        }
      ],
      "name": "AddReferal",
      "outputs": [],
      "stateMutability": "payable",
      "type": "function"
    },
    {
      "inputs": [
        {
          "internalType": "address",
          "name": "userAddress",
          "type": "address"
        },
        {
          "internalType": "address",
          "name": "Ref",
          "type": "address"
        },
        {
          "internalType": "address",
          "name": "key",
          "type": "address"
        }
      ],
      "name": "AddUser",
      "outputs": [],
      "stateMutability": "payable",
      "type": "function"
    },
    {
      "inputs": [
        {
          "internalType": "address",
          "name": "newAddress",
          "type": "address"
        },
        {
          "internalType": "address",
          "name": "key",
          "type": "address"
        }
      ],
      "name": "ChangeStorage",
      "outputs": [],
      "stateMutability": "payable",
      "type": "function"
    },
    {
      "inputs": [
        {
          "internalType": "uint256",
          "name": "line",
          "type": "uint256"
        }
      ],
      "name": "GerReferalPercent",
      "outputs": [
        {
          "internalType": "uint256",
          "name": "",
          "type": "uint256"
        }
      ],
      "stateMutability": "view",
      "type": "function"
    },
    {
      "inputs": [],
      "name": "GetMembersCount",
      "outputs": [
        {
          "internalType": "uint256",
          "name": "",
          "type": "uint256"
        }
      ],
      "stateMutability": "view",
      "type": "function"
    },
    {
      "inputs": [],
      "name": "GetReferalLines",
      "outputs": [
        {
          "internalType": "uint256",
          "name": "",
          "type": "uint256"
        }
      ],
      "stateMutability": "view",
      "type": "function"
    },
    {
      "inputs": [
        {
          "internalType": "address",
          "name": "userAddress",
          "type": "address"
        }
      ],
      "name": "GetReferrer",
      "outputs": [
        {
          "internalType": "address",
          "name": "",
          "type": "address"
        }
      ],
      "stateMutability": "view",
      "type": "function"
    },
    {
      "inputs": [
        {
          "internalType": "uint256",
          "name": "userId",
          "type": "uint256"
        }
      ],
      "name": "GetUserAddressById",
      "outputs": [
        {
          "internalType": "address",
          "name": "",
          "type": "address"
        }
      ],
      "stateMutability": "view",
      "type": "function"
    },
    {
      "inputs": [
        {
          "internalType": "address",
          "name": "userAddress",
          "type": "address"
        }
      ],
      "name": "GetUserByAddress",
      "outputs": [
        {
          "internalType": "uint256",
          "name": "",
          "type": "uint256"
        },
        {
          "internalType": "address",
          "name": "",
          "type": "address"
        },
        {
          "internalType": "uint256",
          "name": "",
          "type": "uint256"
        }
      ],
      "stateMutability": "view",
      "type": "function"
    },
    {
      "inputs": [
        {
          "internalType": "uint256",
          "name": "id",
          "type": "uint256"
        }
      ],
      "name": "GetUserById",
      "outputs": [
        {
          "internalType": "uint256",
          "name": "",
          "type": "uint256"
        },
        {
          "internalType": "address",
          "name": "",
          "type": "address"
        },
        {
          "internalType": "uint256",
          "name": "",
          "type": "uint256"
        }
      ],
      "stateMutability": "view",
      "type": "function"
    },
    {
      "inputs": [
        {
          "internalType": "address",
          "name": "adr",
          "type": "address"
        }
      ],
      "name": "GetUserIdByAddress",
      "outputs": [
        {
          "internalType": "uint256",
          "name": "",
          "type": "uint256"
        }
      ],
      "stateMutability": "view",
      "type": "function"
    },
    {
      "inputs": [
        {
          "internalType": "address",
          "name": "addr",
          "type": "address"
        }
      ],
      "name": "IsUserExist",
      "outputs": [
        {
          "internalType": "bool",
          "name": "",
          "type": "bool"
        }
      ],
      "stateMutability": "view",
      "type": "function"
    },
    {
      "inputs": [
        {
          "internalType": "uint256",
          "name": "id",
          "type": "uint256"
        }
      ],
      "name": "IsUserExistById",
      "outputs": [
        {
          "internalType": "bool",
          "name": "",
          "type": "bool"
        }
      ],
      "stateMutability": "view",
      "type": "function"
    },
    {
      "inputs": [
        {
          "internalType": "address",
          "name": "key",
          "type": "address"
        },
        {
          "internalType": "address",
          "name": "userAddress",
          "type": "address"
        },
        {
          "internalType": "uint256",
          "name": "refId",
          "type": "uint256"
        }
      ],
      "name": "Register",
      "outputs": [],
      "stateMutability": "payable",
      "type": "function"
    },
    {
      "inputs": [
        {
          "internalType": "uint256",
          "name": "",
          "type": "uint256"
        }
      ],
      "name": "referralRewardPercents",
      "outputs": [
        {
          "internalType": "uint256",
          "name": "",
          "type": "uint256"
        }
      ],
      "stateMutability": "view",
      "type": "function"
    }
  ],
  "bytecode": "0x6080604052604051806101000160405280600060ff168152602001600860ff168152602001600460ff168152602001600360ff168152602001600260ff168152602001600160ff168152602001600160ff168152602001600160ff168152506003906008620000709291906200019b565b50600160038054905062000085919062000269565b6004553480156200009557600080fd5b506040516200170c3803806200170c8339818101604052810190620000bb919062000228565b60018060008473ffffffffffffffffffffffffffffffffffffffff1673ffffffffffffffffffffffffffffffffffffffff16815260200190815260200160002060006101000a81548160ff021916908315150217905550336000806101000a81548173ffffffffffffffffffffffffffffffffffffffff021916908373ffffffffffffffffffffffffffffffffffffffff16021790555080600260006101000a81548173ffffffffffffffffffffffffffffffffffffffff021916908373ffffffffffffffffffffffffffffffffffffffff16021790555050506200032b565b828054828255906000526020600020908101928215620001df579160200282015b82811115620001de578251829060ff16905591602001919060010190620001bc565b5b509050620001ee9190620001f2565b5090565b5b808211156200020d576000816000905550600101620001f3565b5090565b600081519050620002228162000311565b92915050565b600080604083850312156200023c57600080fd5b60006200024c8582860162000211565b92505060206200025f8582860162000211565b9150509250929050565b60006200027682620002d8565b91506200028383620002d8565b925082821015620002995762000298620002e2565b5b828203905092915050565b6000620002b182620002b8565b9050919050565b600073ffffffffffffffffffffffffffffffffffffffff82169050919050565b6000819050919050565b7f4e487b7100000000000000000000000000000000000000000000000000000000600052601160045260246000fd5b6200031c81620002a4565b81146200032857600080fd5b50565b6113d1806200033b6000396000f3fe6080604052600436106100e85760003560e01c80638064c42c1161008a578063bd4616f411610059578063bd4616f414610319578063cc0bec1414610356578063df271a3a14610372578063efd2699b146103b1576100e8565b80638064c42c146102675780639ea6de36146102a4578063ae15fbe9146102c0578063b22abbfb146102dc576100e8565b80634260b84c116100c65780634260b84c1461018557806357766ce2146101c25780635d206d4d146101ff57806371f14bc51461023c576100e8565b80631892fd78146100ed5780631de6337f1461012c57806331a7399114610148575b600080fd5b3480156100f957600080fd5b50610114600480360381019061010f9190610eb4565b6103dc565b6040516101239392919061120e565b60405180910390f35b61014660048036038101906101419190610f42565b610499565b005b34801561015457600080fd5b5061016f600480360381019061016a9190610eb4565b6105bb565b60405161017c91906111f3565b60405180910390f35b34801561019157600080fd5b506101ac60048036038101906101a79190610eb4565b61066f565b6040516101b9919061111d565b60405180910390f35b3480156101ce57600080fd5b506101e960048036038101906101e49190611009565b610723565b6040516101f6919061111d565b60405180910390f35b34801561020b57600080fd5b5061022660048036038101906102219190611009565b6107d7565b6040516102339190611198565b60405180910390f35b34801561024857600080fd5b5061025161088b565b60405161025e91906111f3565b60405180910390f35b34801561027357600080fd5b5061028e60048036038101906102899190611009565b610895565b60405161029b91906111f3565b60405180910390f35b6102be60048036038101906102b99190610f06565b6108e3565b005b6102da60048036038101906102d59190610f06565b610a42565b005b3480156102e857600080fd5b5061030360048036038101906102fe9190610eb4565b610ad5565b6040516103109190611198565b60405180910390f35b34801561032557600080fd5b50610340600480360381019061033b9190611009565b610b89565b60405161034d91906111f3565b60405180910390f35b610370600480360381019061036b9190610f91565b610bad565b005b34801561037e57600080fd5b5061039960048036038101906103949190611009565b610ce7565b6040516103a89392919061120e565b60405180910390f35b3480156103bd57600080fd5b506103c6610da4565b6040516103d391906111f3565b60405180910390f35b6000806000600260009054906101000a900473ffffffffffffffffffffffffffffffffffffffff1673ffffffffffffffffffffffffffffffffffffffff16631892fd78856040518263ffffffff1660e01b815260040161043c919061111d565b60606040518083038186803b15801561045457600080fd5b505afa158015610468573d6000803e3d6000fd5b505050506040513d601f19601f8201168201806040525081019061048c919061105b565b9250925092509193909250565b600160008273ffffffffffffffffffffffffffffffffffffffff1673ffffffffffffffffffffffffffffffffffffffff16815260200190815260200160002060009054906101000a900460ff16610525576040517f08c379a000000000000000000000000000000000000000000000000000000000815260040161051c906111d3565b60405180910390fd5b600260009054906101000a900473ffffffffffffffffffffffffffffffffffffffff1673ffffffffffffffffffffffffffffffffffffffff16631de6337f8484846040518463ffffffff1660e01b815260040161058493929190611161565b600060405180830381600087803b15801561059e57600080fd5b505af11580156105b2573d6000803e3d6000fd5b50505050505050565b6000600260009054906101000a900473ffffffffffffffffffffffffffffffffffffffff1673ffffffffffffffffffffffffffffffffffffffff166331a73991836040518263ffffffff1660e01b8152600401610618919061111d565b60206040518083038186803b15801561063057600080fd5b505afa158015610644573d6000803e3d6000fd5b505050506040513d601f19601f820116820180604052508101906106689190611032565b9050919050565b6000600260009054906101000a900473ffffffffffffffffffffffffffffffffffffffff1673ffffffffffffffffffffffffffffffffffffffff16634260b84c836040518263ffffffff1660e01b81526004016106cc919061111d565b60206040518083038186803b1580156106e457600080fd5b505afa1580156106f8573d6000803e3d6000fd5b505050506040513d601f19601f8201168201806040525081019061071c9190610edd565b9050919050565b6000600260009054906101000a900473ffffffffffffffffffffffffffffffffffffffff1673ffffffffffffffffffffffffffffffffffffffff166357766ce2836040518263ffffffff1660e01b815260040161078091906111f3565b60206040518083038186803b15801561079857600080fd5b505afa1580156107ac573d6000803e3d6000fd5b505050506040513d601f19601f820116820180604052508101906107d09190610edd565b9050919050565b6000600260009054906101000a900473ffffffffffffffffffffffffffffffffffffffff1673ffffffffffffffffffffffffffffffffffffffff16635d206d4d836040518263ffffffff1660e01b815260040161083491906111f3565b60206040518083038186803b15801561084c57600080fd5b505afa158015610860573d6000803e3d6000fd5b505050506040513d601f19601f820116820180604052508101906108849190610fe0565b9050919050565b6000600454905090565b6000600382815481106108d1577f4e487b7100000000000000000000000000000000000000000000000000000000600052603260045260246000fd5b90600052602060002001549050919050565b600160008273ffffffffffffffffffffffffffffffffffffffff1673ffffffffffffffffffffffffffffffffffffffff16815260200190815260200160002060009054906101000a900460ff1661096f576040517f08c379a0000000000000000000000000000000000000000000000000000000008152600401610966906111d3565b60405180910390fd5b3373ffffffffffffffffffffffffffffffffffffffff1660008054906101000a900473ffffffffffffffffffffffffffffffffffffffff1673ffffffffffffffffffffffffffffffffffffffff16146109fd576040517f08c379a00000000000000000000000000000000000000000000000000000000081526004016109f4906111b3565b60405180910390fd5b81600260006101000a81548173ffffffffffffffffffffffffffffffffffffffff021916908373ffffffffffffffffffffffffffffffffffffffff1602179055505050565b600260009054906101000a900473ffffffffffffffffffffffffffffffffffffffff1673ffffffffffffffffffffffffffffffffffffffff1663ae15fbe983836040518363ffffffff1660e01b8152600401610a9f929190611138565b600060405180830381600087803b158015610ab957600080fd5b505af1158015610acd573d6000803e3d6000fd5b505050505050565b6000600260009054906101000a900473ffffffffffffffffffffffffffffffffffffffff1673ffffffffffffffffffffffffffffffffffffffff1663b22abbfb836040518263ffffffff1660e01b8152600401610b32919061111d565b60206040518083038186803b158015610b4a57600080fd5b505afa158015610b5e573d6000803e3d6000fd5b505050506040513d601f19601f82011682018060405250810190610b829190610fe0565b9050919050565b60038181548110610b9957600080fd5b906000526020600020016000915090505481565b600160008473ffffffffffffffffffffffffffffffffffffffff1673ffffffffffffffffffffffffffffffffffffffff16815260200190815260200160002060009054906101000a900460ff16610c39576040517f08c379a0000000000000000000000000000000000000000000000000000000008152600401610c30906111d3565b60405180910390fd5b610c42816107d7565b15610c4c57600190505b6000610c5782610723565b9050610c64838286610499565b60006001905060008290505b6004548260ff1611158015610cb25750600073ffffffffffffffffffffffffffffffffffffffff168173ffffffffffffffffffffffffffffffffffffffff1614155b15610cdf57610cc18187610a42565b610cca8161066f565b90508180610cd7906112ab565b925050610c70565b505050505050565b6000806000600260009054906101000a900473ffffffffffffffffffffffffffffffffffffffff1673ffffffffffffffffffffffffffffffffffffffff1663df271a3a856040518263ffffffff1660e01b8152600401610d4791906111f3565b60606040518083038186803b158015610d5f57600080fd5b505afa158015610d73573d6000803e3d6000fd5b505050506040513d601f19601f82011682018060405250810190610d97919061105b565b9250925092509193909250565b6000600260009054906101000a900473ffffffffffffffffffffffffffffffffffffffff1673ffffffffffffffffffffffffffffffffffffffff1663efd2699b6040518163ffffffff1660e01b815260040160206040518083038186803b158015610e0e57600080fd5b505afa158015610e22573d6000803e3d6000fd5b505050506040513d601f19601f82011682018060405250810190610e469190611032565b905090565b600081359050610e5a81611356565b92915050565b600081519050610e6f81611356565b92915050565b600081519050610e848161136d565b92915050565b600081359050610e9981611384565b92915050565b600081519050610eae81611384565b92915050565b600060208284031215610ec657600080fd5b6000610ed484828501610e4b565b91505092915050565b600060208284031215610eef57600080fd5b6000610efd84828501610e60565b91505092915050565b60008060408385031215610f1957600080fd5b6000610f2785828601610e4b565b9250506020610f3885828601610e4b565b9150509250929050565b600080600060608486031215610f5757600080fd5b6000610f6586828701610e4b565b9350506020610f7686828701610e4b565b9250506040610f8786828701610e4b565b9150509250925092565b600080600060608486031215610fa657600080fd5b6000610fb486828701610e4b565b9350506020610fc586828701610e4b565b9250506040610fd686828701610e8a565b9150509250925092565b600060208284031215610ff257600080fd5b600061100084828501610e75565b91505092915050565b60006020828403121561101b57600080fd5b600061102984828501610e8a565b91505092915050565b60006020828403121561104457600080fd5b600061105284828501610e9f565b91505092915050565b60008060006060848603121561107057600080fd5b600061107e86828701610e9f565b935050602061108f86828701610e60565b92505060406110a086828701610e9f565b9150509250925092565b6110b381611256565b82525050565b6110c281611268565b82525050565b60006110d5600a83611245565b91506110e082611304565b602082019050919050565b60006110f8600183611245565b91506111038261132d565b602082019050919050565b61111781611294565b82525050565b600060208201905061113260008301846110aa565b92915050565b600060408201905061114d60008301856110aa565b61115a60208301846110aa565b9392505050565b600060608201905061117660008301866110aa565b61118360208301856110aa565b61119060408301846110aa565b949350505050565b60006020820190506111ad60008301846110b9565b92915050565b600060208201905081810360008301526111cc816110c8565b9050919050565b600060208201905081810360008301526111ec816110eb565b9050919050565b6000602082019050611208600083018461110e565b92915050565b6000606082019050611223600083018661110e565b61123060208301856110aa565b61123d604083018461110e565b949350505050565b600082825260208201905092915050565b600061126182611274565b9050919050565b60008115159050919050565b600073ffffffffffffffffffffffffffffffffffffffff82169050919050565b6000819050919050565b600060ff82169050919050565b60006112b68261129e565b915060ff8214156112ca576112c96112d5565b5b600182019050919050565b7f4e487b7100000000000000000000000000000000000000000000000000000000600052601160045260246000fd5b7f6f6e6c79206f776e657200000000000000000000000000000000000000000000600082015250565b7f3100000000000000000000000000000000000000000000000000000000000000600082015250565b61135f81611256565b811461136a57600080fd5b50565b61137681611268565b811461138157600080fd5b50565b61138d81611294565b811461139857600080fd5b5056fea26469706673582212205e21790ecf480d128193acb7ac88adb46e7c115be6bf91e887b147440f8e195264736f6c63430008040033",
  "linkReferences": {},
  "deployedLinkReferences": {}
}