{
  "_format": "hh-sol-artifact-1",
  "contractName": "DepositeStorage",
  "sourceName": "contracts/Repository/DepositeStorage.sol",
  "abi": [
    {
      "inputs": [],
      "stateMutability": "nonpayable",
      "type": "constructor"
    },
    {
      "inputs": [
        {
          "internalType": "address",
          "name": "newAddress",
          "type": "address"
        }
      ],
      "name": "Change",
      "outputs": [],
      "stateMutability": "payable",
      "type": "function"
    },
    {
      "inputs": [
        {
          "internalType": "address",
          "name": "newKey",
          "type": "address"
        }
      ],
      "name": "ChangeKey",
      "outputs": [],
      "stateMutability": "payable",
      "type": "function"
    },
    {
      "inputs": [],
      "name": "GetTotalState",
      "outputs": [
        {
          "internalType": "uint256",
          "name": "",
          "type": "uint256"
        },
        {
          "internalType": "uint256",
          "name": "",
          "type": "uint256"
        }
      ],
      "stateMutability": "view",
      "type": "function"
    },
    {
      "inputs": [
        {
          "internalType": "uint256",
          "name": "userId",
          "type": "uint256"
        }
      ],
      "name": "GetUserDeposite",
      "outputs": [
        {
          "internalType": "uint256",
          "name": "",
          "type": "uint256"
        }
      ],
      "stateMutability": "view",
      "type": "function"
    },
    {
      "inputs": [
        {
          "internalType": "uint256",
          "name": "value",
          "type": "uint256"
        },
        {
          "internalType": "uint256",
          "name": "userId",
          "type": "uint256"
        }
      ],
      "name": "ReduceUserDeposite",
      "outputs": [],
      "stateMutability": "payable",
      "type": "function"
    },
    {
      "inputs": [
        {
          "internalType": "address",
          "name": "_addressKey",
          "type": "address"
        }
      ],
      "name": "Set",
      "outputs": [],
      "stateMutability": "payable",
      "type": "function"
    },
    {
      "inputs": [],
      "name": "SetKey",
      "outputs": [],
      "stateMutability": "payable",
      "type": "function"
    },
    {
      "inputs": [
        {
          "internalType": "uint256",
          "name": "userId",
          "type": "uint256"
        },
        {
          "internalType": "uint256",
          "name": "value",
          "type": "uint256"
        }
      ],
      "name": "SetReinvestCell",
      "outputs": [],
      "stateMutability": "payable",
      "type": "function"
    }
  ],
  "bytecode": "0x608060405234801561001057600080fd5b50336000806101000a81548173ffffffffffffffffffffffffffffffffffffffff021916908373ffffffffffffffffffffffffffffffffffffffff1602179055506040518060400160405280600015158152602001600073ffffffffffffffffffffffffffffffffffffffff16815250600160008201518160000160006101000a81548160ff02191690831515021790555060208201518160000160016101000a81548173ffffffffffffffffffffffffffffffffffffffff021916908373ffffffffffffffffffffffffffffffffffffffff16021790555090505033600260006101000a81548173ffffffffffffffffffffffffffffffffffffffff021916908373ffffffffffffffffffffffffffffffffffffffff16021790555061097a8061013c6000396000f3fe60806040526004361061007b5760003560e01c80635c7273141161004e5780635c727314146100ee5780638a1422fc1461010a578063953fe93214610126578063a64b47ce146101635761007b565b806302dc774d146100805780633c4dbb051461009c57806341e6f724146100b8578063538c8c3a146100c2575b600080fd5b61009a6004803603810190610095919061062d565b61017f565b005b6100b660048036038101906100b1919061062d565b6101c6565b005b6100c06102b6565b005b3480156100ce57600080fd5b506100d7610323565b6040516100e5929190610795565b60405180910390f35b6101086004803603810190610103919061067f565b610334565b005b610124600480360381019061011f919061062d565b61040e565b005b34801561013257600080fd5b5061014d60048036038101906101489190610656565b61050c565b60405161015a919061077a565b60405180910390f35b61017d6004803603810190610178919061067f565b610529565b005b80600160000160016101000a81548173ffffffffffffffffffffffffffffffffffffffff021916908373ffffffffffffffffffffffffffffffffffffffff16021790555050565b600160000160009054906101000a900460ff1615610219576040517f08c379a00000000000000000000000000000000000000000000000000000000081526004016102109061075a565b60405180910390fd5b60405180604001604052806001151581526020018273ffffffffffffffffffffffffffffffffffffffff16815250600160008201518160000160006101000a81548160ff02191690831515021790555060208201518160000160016101000a81548173ffffffffffffffffffffffffffffffffffffffff021916908373ffffffffffffffffffffffffffffffffffffffff16021790555090505050565b3073ffffffffffffffffffffffffffffffffffffffff16633c4dbb05336040518263ffffffff1660e01b81526004016102ef919061071f565b600060405180830381600087803b15801561030957600080fd5b505af115801561031d573d6000803e3d6000fd5b50505050565b600080600454600554915091509091565b3373ffffffffffffffffffffffffffffffffffffffff16600160000160019054906101000a900473ffffffffffffffffffffffffffffffffffffffff1673ffffffffffffffffffffffffffffffffffffffff16146103c7576040517f08c379a00000000000000000000000000000000000000000000000000000000081526004016103be9061075a565b60405180910390fd5b816003600083815260200190815260200160002060008282546103ea9190610825565b9250508190555081600460008282546104039190610825565b925050819055505050565b600260009054906101000a900473ffffffffffffffffffffffffffffffffffffffff1673ffffffffffffffffffffffffffffffffffffffff163373ffffffffffffffffffffffffffffffffffffffff161461049e576040517f08c379a00000000000000000000000000000000000000000000000000000000081526004016104959061073a565b60405180910390fd5b3073ffffffffffffffffffffffffffffffffffffffff166302dc774d826040518263ffffffff1660e01b81526004016104d7919061071f565b600060405180830381600087803b1580156104f157600080fd5b505af1158015610505573d6000803e3d6000fd5b5050505050565b600060036000838152602001908152602001600020549050919050565b3373ffffffffffffffffffffffffffffffffffffffff16600160000160019054906101000a900473ffffffffffffffffffffffffffffffffffffffff1673ffffffffffffffffffffffffffffffffffffffff16146105bc576040517f08c379a00000000000000000000000000000000000000000000000000000000081526004016105b39061075a565b60405180910390fd5b806003600084815260200190815260200160002060008282546105df91906107cf565b9250508190555080600460008282546105f891906107cf565b925050819055505050565b60008135905061061281610916565b92915050565b6000813590506106278161092d565b92915050565b60006020828403121561063f57600080fd5b600061064d84828501610603565b91505092915050565b60006020828403121561066857600080fd5b600061067684828501610618565b91505092915050565b6000806040838503121561069257600080fd5b60006106a085828601610618565b92505060206106b185828601610618565b9150509250929050565b6106c481610859565b82525050565b60006106d76001836107be565b91506106e2826108c4565b602082019050919050565b60006106fa6001836107be565b9150610705826108ed565b602082019050919050565b6107198161088b565b82525050565b600060208201905061073460008301846106bb565b92915050565b60006020820190508181036000830152610753816106ca565b9050919050565b60006020820190508181036000830152610773816106ed565b9050919050565b600060208201905061078f6000830184610710565b92915050565b60006040820190506107aa6000830185610710565b6107b76020830184610710565b9392505050565b600082825260208201905092915050565b60006107da8261088b565b91506107e58361088b565b9250827fffffffffffffffffffffffffffffffffffffffffffffffffffffffffffffffff0382111561081a57610819610895565b5b828201905092915050565b60006108308261088b565b915061083b8361088b565b92508282101561084e5761084d610895565b5b828203905092915050565b60006108648261086b565b9050919050565b600073ffffffffffffffffffffffffffffffffffffffff82169050919050565b6000819050919050565b7f4e487b7100000000000000000000000000000000000000000000000000000000600052601160045260246000fd5b7f3200000000000000000000000000000000000000000000000000000000000000600082015250565b7f3100000000000000000000000000000000000000000000000000000000000000600082015250565b61091f81610859565b811461092a57600080fd5b50565b6109368161088b565b811461094157600080fd5b5056fea2646970667358221220a9442d5baee5521455f41c9b4b4c7fcf4aeecac4c6e1e5ed4f3769ae1cbb585964736f6c63430008040033",
  "linkReferences": {},
  "deployedLinkReferences": {}
}