{
  "_format": "hh-sol-artifact-1",
  "contractName": "DepositeStorage",
  "sourceName": "contracts/Repository/DepositeStorage.sol",
  "abi": [
    {
      "inputs": [
        {
          "internalType": "address",
          "name": "key",
          "type": "address"
        }
      ],
      "stateMutability": "nonpayable",
      "type": "constructor"
    },
    {
      "inputs": [],
      "name": "GetTotalState",
      "outputs": [
        {
          "internalType": "uint256",
          "name": "",
          "type": "uint256"
        },
        {
          "internalType": "uint256",
          "name": "",
          "type": "uint256"
        }
      ],
      "stateMutability": "view",
      "type": "function"
    },
    {
      "inputs": [
        {
          "internalType": "uint256",
          "name": "userId",
          "type": "uint256"
        }
      ],
      "name": "GetUserDeposite",
      "outputs": [
        {
          "internalType": "uint256",
          "name": "",
          "type": "uint256"
        }
      ],
      "stateMutability": "view",
      "type": "function"
    },
    {
      "inputs": [
        {
          "internalType": "uint256",
          "name": "value",
          "type": "uint256"
        },
        {
          "internalType": "uint256",
          "name": "userId",
          "type": "uint256"
        },
        {
          "internalType": "address",
          "name": "key",
          "type": "address"
        }
      ],
      "name": "ReduceUserDeposite",
      "outputs": [],
      "stateMutability": "payable",
      "type": "function"
    },
    {
      "inputs": [
        {
          "internalType": "uint256",
          "name": "userId",
          "type": "uint256"
        },
        {
          "internalType": "uint256",
          "name": "value",
          "type": "uint256"
        },
        {
          "internalType": "address",
          "name": "key",
          "type": "address"
        }
      ],
      "name": "SetReinvestCell",
      "outputs": [],
      "stateMutability": "payable",
      "type": "function"
    }
  ],
  "bytecode": "0x608060405234801561001057600080fd5b506040516106ea3803806106ea833981810160405281019061003291906100e5565b33600160006101000a81548173ffffffffffffffffffffffffffffffffffffffff021916908373ffffffffffffffffffffffffffffffffffffffff16021790555060016000808373ffffffffffffffffffffffffffffffffffffffff1673ffffffffffffffffffffffffffffffffffffffff16815260200190815260200160002060006101000a81548160ff02191690831515021790555050610157565b6000815190506100df81610140565b92915050565b6000602082840312156100f757600080fd5b6000610105848285016100d0565b91505092915050565b600061011982610120565b9050919050565b600073ffffffffffffffffffffffffffffffffffffffff82169050919050565b6101498161010e565b811461015457600080fd5b50565b610584806101666000396000f3fe60806040526004361061003f5760003560e01c806314d6c17514610044578063538c8c3a14610060578063953fe9321461008c578063ce68d8af146100c9575b600080fd5b61005e6004803603810190610059919061030c565b6100e5565b005b34801561006c57600080fd5b506100756101b8565b6040516100839291906103c8565b60405180910390f35b34801561009857600080fd5b506100b360048036038101906100ae91906102e3565b6101c9565b6040516100c091906103ad565b60405180910390f35b6100e360048036038101906100de919061030c565b6101e6565b005b6000808273ffffffffffffffffffffffffffffffffffffffff1673ffffffffffffffffffffffffffffffffffffffff16815260200190815260200160002060009054906101000a900460ff16610170576040517f08c379a00000000000000000000000000000000000000000000000000000000081526004016101679061038d565b60405180910390fd5b816002600085815260200190815260200160002060008282546101939190610402565b9250508190555081600360008282546101ac9190610402565b92505081905550505050565b600080600354600454915091509091565b600060026000838152602001908152602001600020549050919050565b6000808273ffffffffffffffffffffffffffffffffffffffff1673ffffffffffffffffffffffffffffffffffffffff16815260200190815260200160002060009054906101000a900460ff16610271576040517f08c379a00000000000000000000000000000000000000000000000000000000081526004016102689061038d565b60405180910390fd5b826002600084815260200190815260200160002060008282546102949190610458565b9250508190555082600360008282546102ad9190610458565b92505081905550505050565b6000813590506102c881610520565b92915050565b6000813590506102dd81610537565b92915050565b6000602082840312156102f557600080fd5b6000610303848285016102ce565b91505092915050565b60008060006060848603121561032157600080fd5b600061032f868287016102ce565b9350506020610340868287016102ce565b9250506040610351868287016102b9565b9150509250925092565b60006103686001836103f1565b9150610373826104f7565b602082019050919050565b610387816104be565b82525050565b600060208201905081810360008301526103a68161035b565b9050919050565b60006020820190506103c2600083018461037e565b92915050565b60006040820190506103dd600083018561037e565b6103ea602083018461037e565b9392505050565b600082825260208201905092915050565b600061040d826104be565b9150610418836104be565b9250827fffffffffffffffffffffffffffffffffffffffffffffffffffffffffffffffff0382111561044d5761044c6104c8565b5b828201905092915050565b6000610463826104be565b915061046e836104be565b925082821015610481576104806104c8565b5b828203905092915050565b60006104978261049e565b9050919050565b600073ffffffffffffffffffffffffffffffffffffffff82169050919050565b6000819050919050565b7f4e487b7100000000000000000000000000000000000000000000000000000000600052601160045260246000fd5b7f3100000000000000000000000000000000000000000000000000000000000000600082015250565b6105298161048c565b811461053457600080fd5b50565b610540816104be565b811461054b57600080fd5b5056fea2646970667358221220f3d5efc31daf3d5aa11692ea99c0de102da61ef7a474ec700e29ce7f7d241c0464736f6c63430008040033",
  "linkReferences": {},
  "deployedLinkReferences": {}
}