{
  "_format": "hh-sol-artifact-1",
  "contractName": "MatrixGame",
  "sourceName": "contracts/Payable/MatrixGame.sol",
  "abi": [
    {
      "inputs": [
        {
          "internalType": "address",
          "name": "key",
          "type": "address"
        },
        {
          "internalType": "address",
          "name": "UserControllerAddress",
          "type": "address"
        },
        {
          "internalType": "address",
          "name": "PullControllerAddress",
          "type": "address"
        },
        {
          "internalType": "address",
          "name": "TablesControllerAddress",
          "type": "address"
        },
        {
          "internalType": "address",
          "name": "PullReinvestAddress",
          "type": "address"
        }
      ],
      "stateMutability": "nonpayable",
      "type": "constructor"
    },
    {
      "inputs": [
        {
          "internalType": "uint8",
          "name": "table",
          "type": "uint8"
        },
        {
          "internalType": "uint256",
          "name": "refId",
          "type": "uint256"
        }
      ],
      "name": "BuyTable",
      "outputs": [],
      "stateMutability": "payable",
      "type": "function"
    },
    {
      "inputs": [
        {
          "internalType": "uint256",
          "name": "userId",
          "type": "uint256"
        },
        {
          "internalType": "uint256",
          "name": "value",
          "type": "uint256"
        },
        {
          "internalType": "uint8",
          "name": "table",
          "type": "uint8"
        },
        {
          "internalType": "address",
          "name": "key",
          "type": "address"
        }
      ],
      "name": "BuyTableReInvest",
      "outputs": [],
      "stateMutability": "payable",
      "type": "function"
    },
    {
      "inputs": [
        {
          "internalType": "address",
          "name": "newAddress",
          "type": "address"
        },
        {
          "internalType": "address",
          "name": "key",
          "type": "address"
        }
      ],
      "name": "ChangePullStorage",
      "outputs": [],
      "stateMutability": "payable",
      "type": "function"
    },
    {
      "inputs": [
        {
          "internalType": "address",
          "name": "newAddress",
          "type": "address"
        },
        {
          "internalType": "address",
          "name": "key",
          "type": "address"
        }
      ],
      "name": "ChangeReinvestAddress",
      "outputs": [],
      "stateMutability": "payable",
      "type": "function"
    },
    {
      "inputs": [
        {
          "internalType": "address",
          "name": "newAddress",
          "type": "address"
        },
        {
          "internalType": "address",
          "name": "key",
          "type": "address"
        }
      ],
      "name": "ChangeTableStorage",
      "outputs": [],
      "stateMutability": "payable",
      "type": "function"
    },
    {
      "inputs": [
        {
          "internalType": "address",
          "name": "newAddress",
          "type": "address"
        },
        {
          "internalType": "address",
          "name": "key",
          "type": "address"
        }
      ],
      "name": "ChangeUserStorage",
      "outputs": [],
      "stateMutability": "payable",
      "type": "function"
    },
    {
      "inputs": [],
      "name": "getContractBalance",
      "outputs": [
        {
          "internalType": "uint256",
          "name": "",
          "type": "uint256"
        }
      ],
      "stateMutability": "view",
      "type": "function"
    },
    {
      "inputs": [
        {
          "internalType": "uint256",
          "name": "refId",
          "type": "uint256"
        }
      ],
      "name": "registerWithReferrer",
      "outputs": [],
      "stateMutability": "payable",
      "type": "function"
    },
    {
      "inputs": [],
      "name": "turnover",
      "outputs": [
        {
          "internalType": "uint256",
          "name": "",
          "type": "uint256"
        }
      ],
      "stateMutability": "view",
      "type": "function"
    },
    {
      "inputs": [],
      "name": "withDraw",
      "outputs": [],
      "stateMutability": "payable",
      "type": "function"
    },
    {
      "stateMutability": "payable",
      "type": "receive"
    }
  ],
  "bytecode": "0x60806040523480156200001157600080fd5b506040516200360f3803806200360f833981810160405281019062000037919062000213565b60016000819055506001600360008773ffffffffffffffffffffffffffffffffffffffff1673ffffffffffffffffffffffffffffffffffffffff16815260200190815260200160002060006101000a81548160ff0219169083151502179055508460026000600160ff16815260200190815260200160002060006101000a81548173ffffffffffffffffffffffffffffffffffffffff021916908373ffffffffffffffffffffffffffffffffffffffff16021790555083600560006101000a81548173ffffffffffffffffffffffffffffffffffffffff021916908373ffffffffffffffffffffffffffffffffffffffff16021790555081600760006101000a81548173ffffffffffffffffffffffffffffffffffffffff021916908373ffffffffffffffffffffffffffffffffffffffff16021790555082600660006101000a81548173ffffffffffffffffffffffffffffffffffffffff021916908373ffffffffffffffffffffffffffffffffffffffff16021790555080600460006101000a81548173ffffffffffffffffffffffffffffffffffffffff021916908373ffffffffffffffffffffffffffffffffffffffff1602179055505050505050620002e3565b6000815190506200020d81620002c9565b92915050565b600080600080600060a086880312156200022c57600080fd5b60006200023c88828901620001fc565b95505060206200024f88828901620001fc565b94505060406200026288828901620001fc565b93505060606200027588828901620001fc565b92505060806200028888828901620001fc565b9150509295509295909350565b6000620002a282620002a9565b9050919050565b600073ffffffffffffffffffffffffffffffffffffffff82169050919050565b620002d48162000295565b8114620002e057600080fd5b50565b61331c80620002f36000396000f3fe6080604052600436106100955760003560e01c80636f9fb98a116100595780636f9fb98a146101725780637ee513271461019d578063ad145d46146101b9578063d9633e7e146101d5578063f342fd15146101f1576100e4565b8063077000bb146100e95780630fdb1c1014610105578063256540cd1461010f57806348eddca01461013a5780635500138b14610156576100e4565b366100e4576100a33361020d565b6100e2576040517f08c379a00000000000000000000000000000000000000000000000000000000081526004016100d990612cc2565b60405180910390fd5b005b600080fd5b61010360048036038101906100fe9190612960565b610227565b005b61010d610fd9565b005b34801561011b57600080fd5b50610124611131565b6040516101319190612d62565b60405180910390f35b610154600480360381019061014f91906128a9565b611137565b005b610170600480360381019061016b91906128a9565b611298565b005b34801561017e57600080fd5b506101876113f9565b6040516101949190612d62565b60405180910390f35b6101b760048036038101906101b291906129c3565b611401565b005b6101d360048036038101906101ce91906128a9565b612378565b005b6101ef60048036038101906101ea919061290e565b6124d9565b005b61020b600480360381019061020691906128a9565b6126a1565b005b600080823b905060008163ffffffff161415915050919050565b600360008273ffffffffffffffffffffffffffffffffffffffff1673ffffffffffffffffffffffffffffffffffffffff16815260200190815260200160002060009054906101000a900460ff166102b3576040517f08c379a00000000000000000000000000000000000000000000000000000000081526004016102aa90612c22565b60405180910390fd5b600760009054906101000a900473ffffffffffffffffffffffffffffffffffffffff1673ffffffffffffffffffffffffffffffffffffffff16638745dd78836040518263ffffffff1660e01b815260040161030e9190612e3d565b60206040518083038186803b15801561032657600080fd5b505afa15801561033a573d6000803e3d6000fd5b505050506040513d601f19601f8201168201806040525081019061035e91906128e5565b61039d576040517f08c379a000000000000000000000000000000000000000000000000000000000815260040161039490612ce2565b60405180910390fd5b82600760009054906101000a900473ffffffffffffffffffffffffffffffffffffffff1673ffffffffffffffffffffffffffffffffffffffff1663e29e0411846040518263ffffffff1660e01b81526004016103f99190612e3d565b60206040518083038186803b15801561041157600080fd5b505afa158015610425573d6000803e3d6000fd5b505050506040513d601f19601f820116820180604052508101906104499190612937565b14610489576040517f08c379a000000000000000000000000000000000000000000000000000000000815260040161048090612ca2565b60405180910390fd5b826008600082825461049b9190612ea0565b9250508190555060006064846104b19190612ef6565b9050600080600560009054906101000a900473ffffffffffffffffffffffffffffffffffffffff1673ffffffffffffffffffffffffffffffffffffffff166357766ce2886040518263ffffffff1660e01b81526004016105119190612d62565b60206040518083038186803b15801561052957600080fd5b505afa15801561053d573d6000803e3d6000fd5b505050506040513d601f19601f820116820180604052508101906105619190612880565b9050600760009054906101000a900473ffffffffffffffffffffffffffffffffffffffff1673ffffffffffffffffffffffffffffffffffffffff16639f9e2ce4868360026000600160ff16815260200190815260200160002060009054906101000a900473ffffffffffffffffffffffffffffffffffffffff166040518463ffffffff1660e01b81526004016105f993929190612e58565b600060405180830381600087803b15801561061357600080fd5b505af1158015610627573d6000803e3d6000fd5b505050506000603c60ff168461063d9190612f27565b9050808361064b9190612ea0565b92506000600760009054906101000a900473ffffffffffffffffffffffffffffffffffffffff1673ffffffffffffffffffffffffffffffffffffffff16635437af49886040518263ffffffff1660e01b81526004016106aa9190612e3d565b60206040518083038186803b1580156106c257600080fd5b505afa1580156106d6573d6000803e3d6000fd5b505050506040513d601f19601f820116820180604052508101906106fa9190612880565b90506000600560009054906101000a900473ffffffffffffffffffffffffffffffffffffffff1673ffffffffffffffffffffffffffffffffffffffff166331a73991836040518263ffffffff1660e01b81526004016107599190612b99565b60206040518083038186803b15801561077157600080fd5b505afa158015610785573d6000803e3d6000fd5b505050506040513d601f19601f820116820180604052508101906107a99190612937565b905060008273ffffffffffffffffffffffffffffffffffffffff166108fc859081150290604051600060405180830381858888f19350505050905080156108b957600760009054906101000a900473ffffffffffffffffffffffffffffffffffffffff1673ffffffffffffffffffffffffffffffffffffffff166395d7d005838b8760026000600160ff16815260200190815260200160002060009054906101000a900473ffffffffffffffffffffffffffffffffffffffff166040518563ffffffff1660e01b81526004016108829493929190612ddd565b600060405180830381600087803b15801561089c57600080fd5b505af11580156108b0573d6000803e3d6000fd5b50505050610923565b600160009054906101000a900473ffffffffffffffffffffffffffffffffffffffff1673ffffffffffffffffffffffffffffffffffffffff166108fc859081150290604051600060405180830381858888f19350505050158015610921573d6000803e3d6000fd5b505b6000600560009054906101000a900473ffffffffffffffffffffffffffffffffffffffff1673ffffffffffffffffffffffffffffffffffffffff166371f14bc56040518163ffffffff1660e01b815260040160206040518083038186803b15801561098d57600080fd5b505afa1580156109a1573d6000803e3d6000fd5b505050506040513d601f19601f820116820180604052508101906109c59190612937565b90506000600560009054906101000a900473ffffffffffffffffffffffffffffffffffffffff1673ffffffffffffffffffffffffffffffffffffffff16634260b84c886040518263ffffffff1660e01b8152600401610a249190612b99565b60206040518083038186803b158015610a3c57600080fd5b505afa158015610a50573d6000803e3d6000fd5b505050506040513d601f19601f82011682018060405250810190610a749190612880565b90506000600190505b828160ff1611610e25576000600560009054906101000a900473ffffffffffffffffffffffffffffffffffffffff1673ffffffffffffffffffffffffffffffffffffffff1663219267c4836040518263ffffffff1660e01b8152600401610ae49190612e22565b60206040518083038186803b158015610afc57600080fd5b505afa158015610b10573d6000803e3d6000fd5b505050506040513d601f19601f82011682018060405250810190610b349190612937565b8b610b3f9190612f27565b9050808a610b4d9190612ea0565b99508273ffffffffffffffffffffffffffffffffffffffff166108fc829081150290604051600060405180830381858888f19350505050158015610b95573d6000803e3d6000fd5b506000600560009054906101000a900473ffffffffffffffffffffffffffffffffffffffff1673ffffffffffffffffffffffffffffffffffffffff166331a73991856040518263ffffffff1660e01b8152600401610bf39190612b99565b60206040518083038186803b158015610c0b57600080fd5b505afa158015610c1f573d6000803e3d6000fd5b505050506040513d601f19601f82011682018060405250810190610c439190612937565b9050600760009054906101000a900473ffffffffffffffffffffffffffffffffffffffff1673ffffffffffffffffffffffffffffffffffffffff1663cebd6351828460026000600160ff16815260200190815260200160002060009054906101000a900473ffffffffffffffffffffffffffffffffffffffff166040518463ffffffff1660e01b8152600401610cdb93929190612d7d565b600060405180830381600087803b158015610cf557600080fd5b505af1158015610d09573d6000803e3d6000fd5b50505050600160009054906101000a900473ffffffffffffffffffffffffffffffffffffffff1673ffffffffffffffffffffffffffffffffffffffff168473ffffffffffffffffffffffffffffffffffffffff1614610e1057600560009054906101000a900473ffffffffffffffffffffffffffffffffffffffff1673ffffffffffffffffffffffffffffffffffffffff16634260b84c856040518263ffffffff1660e01b8152600401610dbd9190612b99565b60206040518083038186803b158015610dd557600080fd5b505afa158015610de9573d6000803e3d6000fd5b505050506040513d601f19601f82011682018060405250810190610e0d9190612880565b93505b50508080610e1d9061301c565b915050610a7d565b506000888d610e349190612f81565b9050600660009054906101000a900473ffffffffffffffffffffffffffffffffffffffff1673ffffffffffffffffffffffffffffffffffffffff166388124e56338360026000600160ff16815260200190815260200160002060009054906101000a900473ffffffffffffffffffffffffffffffffffffffff166040518463ffffffff1660e01b8152600401610ecc93929190612beb565b600060405180830381600087803b158015610ee657600080fd5b505af1158015610efa573d6000803e3d6000fd5b505050506000600460009054906101000a900473ffffffffffffffffffffffffffffffffffffffff1673ffffffffffffffffffffffffffffffffffffffff166108fc839081150290604051600060405180830381858888f19350505050905080610fc857600460009054906101000a900473ffffffffffffffffffffffffffffffffffffffff1673ffffffffffffffffffffffffffffffffffffffff166108fc839081150290604051600060405180830381858888f19350505050158015610fc6573d6000803e3d6000fd5b505b505050505050505050505050505050565b6002600054141561101f576040517f08c379a000000000000000000000000000000000000000000000000000000000815260040161101690612d42565b60405180910390fd5b60026000819055503373ffffffffffffffffffffffffffffffffffffffff16600160009054906101000a900473ffffffffffffffffffffffffffffffffffffffff1673ffffffffffffffffffffffffffffffffffffffff16146110b7576040517f08c379a00000000000000000000000000000000000000000000000000000000081526004016110ae90612d02565b60405180910390fd5b600160009054906101000a900473ffffffffffffffffffffffffffffffffffffffff1673ffffffffffffffffffffffffffffffffffffffff166108fc6110fb6113f9565b9081150290604051600060405180830381858888f19350505050158015611126573d6000803e3d6000fd5b506001600081905550565b60085481565b3373ffffffffffffffffffffffffffffffffffffffff16600160009054906101000a900473ffffffffffffffffffffffffffffffffffffffff1673ffffffffffffffffffffffffffffffffffffffff16146111c7576040517f08c379a00000000000000000000000000000000000000000000000000000000081526004016111be90612d02565b60405180910390fd5b600360008273ffffffffffffffffffffffffffffffffffffffff1673ffffffffffffffffffffffffffffffffffffffff16815260200190815260200160002060009054906101000a900460ff16611253576040517f08c379a000000000000000000000000000000000000000000000000000000000815260040161124a90612c42565b60405180910390fd5b81600460006101000a81548173ffffffffffffffffffffffffffffffffffffffff021916908373ffffffffffffffffffffffffffffffffffffffff1602179055505050565b3373ffffffffffffffffffffffffffffffffffffffff16600160009054906101000a900473ffffffffffffffffffffffffffffffffffffffff1673ffffffffffffffffffffffffffffffffffffffff1614611328576040517f08c379a000000000000000000000000000000000000000000000000000000000815260040161131f90612d02565b60405180910390fd5b600360008273ffffffffffffffffffffffffffffffffffffffff1673ffffffffffffffffffffffffffffffffffffffff16815260200190815260200160002060009054906101000a900460ff166113b4576040517f08c379a00000000000000000000000000000000000000000000000000000000081526004016113ab90612c42565b60405180910390fd5b81600660006101000a81548173ffffffffffffffffffffffffffffffffffffffff021916908373ffffffffffffffffffffffffffffffffffffffff1602179055505050565b600047905090565b60026000541415611447576040517f08c379a000000000000000000000000000000000000000000000000000000000815260040161143e90612d42565b60405180910390fd5b60026000819055506114583361020d565b15611498576040517f08c379a000000000000000000000000000000000000000000000000000000000815260040161148f90612d22565b60405180910390fd5b600760009054906101000a900473ffffffffffffffffffffffffffffffffffffffff1673ffffffffffffffffffffffffffffffffffffffff16638745dd78836040518263ffffffff1660e01b81526004016114f39190612e3d565b60206040518083038186803b15801561150b57600080fd5b505afa15801561151f573d6000803e3d6000fd5b505050506040513d601f19601f8201168201806040525081019061154391906128e5565b611582576040517f08c379a000000000000000000000000000000000000000000000000000000000815260040161157990612ce2565b60405180910390fd5b34600760009054906101000a900473ffffffffffffffffffffffffffffffffffffffff1673ffffffffffffffffffffffffffffffffffffffff1663e29e0411846040518263ffffffff1660e01b81526004016115de9190612e3d565b60206040518083038186803b1580156115f657600080fd5b505afa15801561160a573d6000803e3d6000fd5b505050506040513d601f19601f8201168201806040525081019061162e9190612937565b1461166e576040517f08c379a000000000000000000000000000000000000000000000000000000000815260040161166590612ca2565b60405180910390fd5b600560009054906101000a900473ffffffffffffffffffffffffffffffffffffffff1673ffffffffffffffffffffffffffffffffffffffff1663b22abbfb336040518263ffffffff1660e01b81526004016116c99190612b99565b60206040518083038186803b1580156116e157600080fd5b505afa1580156116f5573d6000803e3d6000fd5b505050506040513d601f19601f8201168201806040525081019061171991906128e5565b61172757611726816124d9565b5b6000600560009054906101000a900473ffffffffffffffffffffffffffffffffffffffff1673ffffffffffffffffffffffffffffffffffffffff166331a73991336040518263ffffffff1660e01b81526004016117849190612b99565b60206040518083038186803b15801561179c57600080fd5b505afa1580156117b0573d6000803e3d6000fd5b505050506040513d601f19601f820116820180604052508101906117d49190612937565b90506000600190505b8360ff168160ff1610156118ea57600760009054906101000a900473ffffffffffffffffffffffffffffffffffffffff1673ffffffffffffffffffffffffffffffffffffffff1663b5a3c8b783836040518363ffffffff1660e01b8152600401611848929190612db4565b60206040518083038186803b15801561186057600080fd5b505afa158015611874573d6000803e3d6000fd5b505050506040513d601f19601f8201168201806040525081019061189891906128e5565b6118d7576040517f08c379a00000000000000000000000000000000000000000000000000000000081526004016118ce90612c62565b60405180910390fd5b80806118e29061301c565b9150506117dd565b50600760009054906101000a900473ffffffffffffffffffffffffffffffffffffffff1673ffffffffffffffffffffffffffffffffffffffff1663b5a3c8b782856040518363ffffffff1660e01b8152600401611948929190612db4565b60206040518083038186803b15801561196057600080fd5b505afa158015611974573d6000803e3d6000fd5b505050506040513d601f19601f8201168201806040525081019061199891906128e5565b156119d8576040517f08c379a00000000000000000000000000000000000000000000000000000000081526004016119cf90612c82565b60405180910390fd5b600060026000600160ff16815260200190815260200160002060009054906101000a900473ffffffffffffffffffffffffffffffffffffffff1690503460086000828254611a269190612ea0565b925050819055506000606434611a3c9190612ef6565b90506000603c60ff1682611a509190612f27565b9050600080600760009054906101000a900473ffffffffffffffffffffffffffffffffffffffff1673ffffffffffffffffffffffffffffffffffffffff16635437af49896040518263ffffffff1660e01b8152600401611ab09190612e3d565b60206040518083038186803b158015611ac857600080fd5b505afa158015611adc573d6000803e3d6000fd5b505050506040513d601f19601f82011682018060405250810190611b009190612880565b90506000600560009054906101000a900473ffffffffffffffffffffffffffffffffffffffff1673ffffffffffffffffffffffffffffffffffffffff166331a73991836040518263ffffffff1660e01b8152600401611b5f9190612b99565b60206040518083038186803b158015611b7757600080fd5b505afa158015611b8b573d6000803e3d6000fd5b505050506040513d601f19601f82011682018060405250810190611baf9190612937565b90508383611bbd9190612ea0565b92508173ffffffffffffffffffffffffffffffffffffffff166108fc859081150290604051600060405180830381858888f19350505050158015611c05573d6000803e3d6000fd5b50600760009054906101000a900473ffffffffffffffffffffffffffffffffffffffff1673ffffffffffffffffffffffffffffffffffffffff166395d7d005828b878a6040518563ffffffff1660e01b8152600401611c679493929190612ddd565b600060405180830381600087803b158015611c8157600080fd5b505af1158015611c95573d6000803e3d6000fd5b50505050600760009054906101000a900473ffffffffffffffffffffffffffffffffffffffff1673ffffffffffffffffffffffffffffffffffffffff16639f9e2ce48a33896040518463ffffffff1660e01b8152600401611cf893929190612e58565b600060405180830381600087803b158015611d1257600080fd5b505af1158015611d26573d6000803e3d6000fd5b505050506000600560009054906101000a900473ffffffffffffffffffffffffffffffffffffffff1673ffffffffffffffffffffffffffffffffffffffff16634260b84c336040518263ffffffff1660e01b8152600401611d879190612b99565b60206040518083038186803b158015611d9f57600080fd5b505afa158015611db3573d6000803e3d6000fd5b505050506040513d601f19601f82011682018060405250810190611dd79190612880565b90506000600560009054906101000a900473ffffffffffffffffffffffffffffffffffffffff1673ffffffffffffffffffffffffffffffffffffffff166371f14bc56040518163ffffffff1660e01b815260040160206040518083038186803b158015611e4357600080fd5b505afa158015611e57573d6000803e3d6000fd5b505050506040513d601f19601f82011682018060405250810190611e7b9190612937565b90506000600190505b818160ff16116121f5576000600560009054906101000a900473ffffffffffffffffffffffffffffffffffffffff1673ffffffffffffffffffffffffffffffffffffffff1663219267c4836040518263ffffffff1660e01b8152600401611eeb9190612e22565b60206040518083038186803b158015611f0357600080fd5b505afa158015611f17573d6000803e3d6000fd5b505050506040513d601f19601f82011682018060405250810190611f3b9190612937565b89611f469190612f27565b90508087611f549190612ea0565b96508373ffffffffffffffffffffffffffffffffffffffff166108fc829081150290604051600060405180830381858888f19350505050158015611f9c573d6000803e3d6000fd5b506000600560009054906101000a900473ffffffffffffffffffffffffffffffffffffffff1673ffffffffffffffffffffffffffffffffffffffff166331a73991866040518263ffffffff1660e01b8152600401611ffa9190612b99565b60206040518083038186803b15801561201257600080fd5b505afa158015612026573d6000803e3d6000fd5b505050506040513d601f19601f8201168201806040525081019061204a9190612937565b9050600760009054906101000a900473ffffffffffffffffffffffffffffffffffffffff1673ffffffffffffffffffffffffffffffffffffffff1663cebd635182848e6040518463ffffffff1660e01b81526004016120ab93929190612d7d565b600060405180830381600087803b1580156120c557600080fd5b505af11580156120d9573d6000803e3d6000fd5b50505050600160009054906101000a900473ffffffffffffffffffffffffffffffffffffffff1673ffffffffffffffffffffffffffffffffffffffff168573ffffffffffffffffffffffffffffffffffffffff16146121e057600560009054906101000a900473ffffffffffffffffffffffffffffffffffffffff1673ffffffffffffffffffffffffffffffffffffffff16634260b84c866040518263ffffffff1660e01b815260040161218d9190612b99565b60206040518083038186803b1580156121a557600080fd5b505afa1580156121b9573d6000803e3d6000fd5b505050506040513d601f19601f820116820180604052508101906121dd9190612880565b94505b505080806121ed9061301c565b915050611e84565b50600085346122049190612f81565b9050600660009054906101000a900473ffffffffffffffffffffffffffffffffffffffff1673ffffffffffffffffffffffffffffffffffffffff166388124e5633838c6040518463ffffffff1660e01b815260040161226593929190612beb565b600060405180830381600087803b15801561227f57600080fd5b505af1158015612293573d6000803e3d6000fd5b505050506000600460009054906101000a900473ffffffffffffffffffffffffffffffffffffffff1673ffffffffffffffffffffffffffffffffffffffff166108fc839081150290604051600060405180830381858888f1935050505090508061236157600460009054906101000a900473ffffffffffffffffffffffffffffffffffffffff1673ffffffffffffffffffffffffffffffffffffffff166108fc839081150290604051600060405180830381858888f1935050505015801561235f573d6000803e3d6000fd5b505b505050505050505050505060016000819055505050565b3373ffffffffffffffffffffffffffffffffffffffff16600160009054906101000a900473ffffffffffffffffffffffffffffffffffffffff1673ffffffffffffffffffffffffffffffffffffffff1614612408576040517f08c379a00000000000000000000000000000000000000000000000000000000081526004016123ff90612d02565b60405180910390fd5b600360008273ffffffffffffffffffffffffffffffffffffffff1673ffffffffffffffffffffffffffffffffffffffff16815260200190815260200160002060009054906101000a900460ff16612494576040517f08c379a000000000000000000000000000000000000000000000000000000000815260040161248b90612c42565b60405180910390fd5b81600560006101000a81548173ffffffffffffffffffffffffffffffffffffffff021916908373ffffffffffffffffffffffffffffffffffffffff1602179055505050565b6124e23361020d565b15612522576040517f08c379a000000000000000000000000000000000000000000000000000000000815260040161251990612d22565b60405180910390fd5b600560009054906101000a900473ffffffffffffffffffffffffffffffffffffffff1673ffffffffffffffffffffffffffffffffffffffff16635d206d4d826040518263ffffffff1660e01b815260040161257d9190612d62565b60206040518083038186803b15801561259557600080fd5b505afa1580156125a9573d6000803e3d6000fd5b505050506040513d601f19601f820116820180604052508101906125cd91906128e5565b6125d657600190505b600560009054906101000a900473ffffffffffffffffffffffffffffffffffffffff1673ffffffffffffffffffffffffffffffffffffffff1663cc0bec1460026000600160ff16815260200190815260200160002060009054906101000a900473ffffffffffffffffffffffffffffffffffffffff1633846040518463ffffffff1660e01b815260040161266c93929190612bb4565b600060405180830381600087803b15801561268657600080fd5b505af115801561269a573d6000803e3d6000fd5b5050505050565b3373ffffffffffffffffffffffffffffffffffffffff16600160009054906101000a900473ffffffffffffffffffffffffffffffffffffffff1673ffffffffffffffffffffffffffffffffffffffff1614612731576040517f08c379a000000000000000000000000000000000000000000000000000000000815260040161272890612d02565b60405180910390fd5b600360008273ffffffffffffffffffffffffffffffffffffffff1673ffffffffffffffffffffffffffffffffffffffff16815260200190815260200160002060009054906101000a900460ff166127bd576040517f08c379a00000000000000000000000000000000000000000000000000000000081526004016127b490612c42565b60405180910390fd5b81600760006101000a81548173ffffffffffffffffffffffffffffffffffffffff021916908373ffffffffffffffffffffffffffffffffffffffff1602179055505050565b6000813590506128118161328a565b92915050565b6000815190506128268161328a565b92915050565b60008151905061283b816132a1565b92915050565b600081359050612850816132b8565b92915050565b600081519050612865816132b8565b92915050565b60008135905061287a816132cf565b92915050565b60006020828403121561289257600080fd5b60006128a084828501612817565b91505092915050565b600080604083850312156128bc57600080fd5b60006128ca85828601612802565b92505060206128db85828601612802565b9150509250929050565b6000602082840312156128f757600080fd5b60006129058482850161282c565b91505092915050565b60006020828403121561292057600080fd5b600061292e84828501612841565b91505092915050565b60006020828403121561294957600080fd5b600061295784828501612856565b91505092915050565b6000806000806080858703121561297657600080fd5b600061298487828801612841565b945050602061299587828801612841565b93505060406129a68782880161286b565b92505060606129b787828801612802565b91505092959194509250565b600080604083850312156129d657600080fd5b60006129e48582860161286b565b92505060206129f585828601612841565b9150509250929050565b612a0881612fb5565b82525050565b6000612a1b600a83612e8f565b9150612a26826130a4565b602082019050919050565b6000612a3e600283612e8f565b9150612a49826130cd565b602082019050919050565b6000612a61602283612e8f565b9150612a6c826130f6565b604082019050919050565b6000612a84601483612e8f565b9150612a8f82613145565b602082019050919050565b6000612aa7601183612e8f565b9150612ab28261316e565b602082019050919050565b6000612aca602183612e8f565b9150612ad582613197565b604082019050919050565b6000612aed600d83612e8f565b9150612af8826131e6565b602082019050919050565b6000612b10600a83612e8f565b9150612b1b8261320f565b602082019050919050565b6000612b33601583612e8f565b9150612b3e82613238565b602082019050919050565b6000612b56601f83612e8f565b9150612b6182613261565b602082019050919050565b612b7581612ff3565b82525050565b612b848161300a565b82525050565b612b9381612ffd565b82525050565b6000602082019050612bae60008301846129ff565b92915050565b6000606082019050612bc960008301866129ff565b612bd660208301856129ff565b612be36040830184612b6c565b949350505050565b6000606082019050612c0060008301866129ff565b612c0d6020830185612b6c565b612c1a60408301846129ff565b949350505050565b60006020820190508181036000830152612c3b81612a0e565b9050919050565b60006020820190508181036000830152612c5b81612a31565b9050919050565b60006020820190508181036000830152612c7b81612a54565b9050919050565b60006020820190508181036000830152612c9b81612a77565b9050919050565b60006020820190508181036000830152612cbb81612a9a565b9050919050565b60006020820190508181036000830152612cdb81612abd565b9050919050565b60006020820190508181036000830152612cfb81612ae0565b9050919050565b60006020820190508181036000830152612d1b81612b03565b9050919050565b60006020820190508181036000830152612d3b81612b26565b9050919050565b60006020820190508181036000830152612d5b81612b49565b9050919050565b6000602082019050612d776000830184612b6c565b92915050565b6000606082019050612d926000830186612b6c565b612d9f6020830185612b6c565b612dac60408301846129ff565b949350505050565b6000604082019050612dc96000830185612b6c565b612dd66020830184612b8a565b9392505050565b6000608082019050612df26000830187612b6c565b612dff6020830186612b8a565b612e0c6040830185612b6c565b612e1960608301846129ff565b95945050505050565b6000602082019050612e376000830184612b7b565b92915050565b6000602082019050612e526000830184612b8a565b92915050565b6000606082019050612e6d6000830186612b8a565b612e7a60208301856129ff565b612e8760408301846129ff565b949350505050565b600082825260208201905092915050565b6000612eab82612ff3565b9150612eb683612ff3565b9250827fffffffffffffffffffffffffffffffffffffffffffffffffffffffffffffffff03821115612eeb57612eea613046565b5b828201905092915050565b6000612f0182612ff3565b9150612f0c83612ff3565b925082612f1c57612f1b613075565b5b828204905092915050565b6000612f3282612ff3565b9150612f3d83612ff3565b9250817fffffffffffffffffffffffffffffffffffffffffffffffffffffffffffffffff0483118215151615612f7657612f75613046565b5b828202905092915050565b6000612f8c82612ff3565b9150612f9783612ff3565b925082821015612faa57612fa9613046565b5b828203905092915050565b6000612fc082612fd3565b9050919050565b60008115159050919050565b600073ffffffffffffffffffffffffffffffffffffffff82169050919050565b6000819050919050565b600060ff82169050919050565b600061301582612ffd565b9050919050565b600061302782612ffd565b915060ff82141561303b5761303a613046565b5b600182019050919050565b7f4e487b7100000000000000000000000000000000000000000000000000000000600052601160045260246000fd5b7f4e487b7100000000000000000000000000000000000000000000000000000000600052601260045260246000fd5b7f4e6f206163637365737300000000000000000000000000000000000000000000600082015250565b7f4e4f000000000000000000000000000000000000000000000000000000000000600082015250565b7f416c6c2070726576696f7573206c6576656c73206d757374206265206163746960008201527f7665000000000000000000000000000000000000000000000000000000000000602082015250565b7f4c6576656c20616c726561647920616374697665000000000000000000000000600082015250565b7f496e76616c696420424e422076616c7565000000000000000000000000000000600082015250565b7f5461626c657320617265206e6f7420707572636861736564206469726563746c60008201527f7900000000000000000000000000000000000000000000000000000000000000602082015250565b7f496e76616c6964206c6576656c00000000000000000000000000000000000000600082015250565b7f6f6e6c79206f776e657200000000000000000000000000000000000000000000600082015250565b7f43616e206e6f74206265206120636f6e74726163740000000000000000000000600082015250565b7f5265656e7472616e637947756172643a207265656e7472616e742063616c6c00600082015250565b61329381612fb5565b811461329e57600080fd5b50565b6132aa81612fc7565b81146132b557600080fd5b50565b6132c181612ff3565b81146132cc57600080fd5b50565b6132d881612ffd565b81146132e357600080fd5b5056fea2646970667358221220784e7ef5589ec00ea045a3143cc9ff6340614adb6eb9b3de09bb28f51406876464736f6c63430008040033",
  "linkReferences": {},
  "deployedLinkReferences": {}
}