{
  "_format": "hh-sol-artifact-1",
  "contractName": "MatrixGame",
  "sourceName": "contracts/Payable/MatrixGame.sol",
  "abi": [
    {
      "inputs": [
        {
          "internalType": "address",
          "name": "UserControllerAddress",
          "type": "address"
        },
        {
          "internalType": "address",
          "name": "PullControllerAddress",
          "type": "address"
        },
        {
          "internalType": "address",
          "name": "TablesControllerAddress",
          "type": "address"
        },
        {
          "internalType": "address",
          "name": "PullReinvestAddress",
          "type": "address"
        }
      ],
      "stateMutability": "nonpayable",
      "type": "constructor"
    },
    {
      "inputs": [
        {
          "internalType": "uint256",
          "name": "ReferalReward",
          "type": "uint256"
        },
        {
          "internalType": "uint256",
          "name": "RefererId",
          "type": "uint256"
        }
      ],
      "name": "AddMemberReferalRewards",
      "outputs": [],
      "stateMutability": "payable",
      "type": "function"
    },
    {
      "inputs": [
        {
          "internalType": "uint256",
          "name": "UserReward",
          "type": "uint256"
        },
        {
          "internalType": "uint256",
          "name": "UserId",
          "type": "uint256"
        }
      ],
      "name": "AddMemberRewards",
      "outputs": [],
      "stateMutability": "payable",
      "type": "function"
    },
    {
      "inputs": [
        {
          "internalType": "uint8",
          "name": "table",
          "type": "uint8"
        },
        {
          "internalType": "uint256",
          "name": "refId",
          "type": "uint256"
        }
      ],
      "name": "BuyTable",
      "outputs": [],
      "stateMutability": "payable",
      "type": "function"
    },
    {
      "inputs": [
        {
          "internalType": "uint256",
          "name": "userId",
          "type": "uint256"
        },
        {
          "internalType": "uint256",
          "name": "value",
          "type": "uint256"
        },
        {
          "internalType": "uint8",
          "name": "table",
          "type": "uint8"
        }
      ],
      "name": "BuyTableReInvest",
      "outputs": [],
      "stateMutability": "payable",
      "type": "function"
    },
    {
      "inputs": [
        {
          "internalType": "address",
          "name": "newAddress",
          "type": "address"
        }
      ],
      "name": "Change",
      "outputs": [],
      "stateMutability": "payable",
      "type": "function"
    },
    {
      "inputs": [
        {
          "internalType": "address",
          "name": "newAddress",
          "type": "address"
        }
      ],
      "name": "ChangePullStorage",
      "outputs": [],
      "stateMutability": "payable",
      "type": "function"
    },
    {
      "inputs": [
        {
          "internalType": "address",
          "name": "newAddress",
          "type": "address"
        }
      ],
      "name": "ChangeReinvestAddress",
      "outputs": [],
      "stateMutability": "payable",
      "type": "function"
    },
    {
      "inputs": [
        {
          "internalType": "address",
          "name": "newAddress",
          "type": "address"
        }
      ],
      "name": "ChangeTableStorage",
      "outputs": [],
      "stateMutability": "payable",
      "type": "function"
    },
    {
      "inputs": [
        {
          "internalType": "address",
          "name": "newAddress",
          "type": "address"
        }
      ],
      "name": "ChangeUserStorage",
      "outputs": [],
      "stateMutability": "payable",
      "type": "function"
    },
    {
      "inputs": [
        {
          "internalType": "address",
          "name": "_addressKey",
          "type": "address"
        }
      ],
      "name": "Set",
      "outputs": [],
      "stateMutability": "payable",
      "type": "function"
    },
    {
      "inputs": [],
      "name": "SetKey",
      "outputs": [],
      "stateMutability": "payable",
      "type": "function"
    },
    {
      "inputs": [],
      "name": "getContractBalance",
      "outputs": [
        {
          "internalType": "uint256",
          "name": "",
          "type": "uint256"
        }
      ],
      "stateMutability": "view",
      "type": "function"
    },
    {
      "inputs": [
        {
          "internalType": "uint256",
          "name": "refId",
          "type": "uint256"
        }
      ],
      "name": "registerWithReferrer",
      "outputs": [],
      "stateMutability": "nonpayable",
      "type": "function"
    },
    {
      "inputs": [],
      "name": "withDraw",
      "outputs": [],
      "stateMutability": "payable",
      "type": "function"
    },
    {
      "stateMutability": "payable",
      "type": "receive"
    }
  ],
  "bytecode": "0x60806040523480156200001157600080fd5b5060405162003a4538038062003a4583398181016040528101906200003791906200040d565b600160008190555033600160006101000a81548173ffffffffffffffffffffffffffffffffffffffff021916908373ffffffffffffffffffffffffffffffffffffffff1602179055506040518060400160405280600015158152602001600073ffffffffffffffffffffffffffffffffffffffff16815250600260008201518160000160006101000a81548160ff02191690831515021790555060208201518160000160016101000a81548173ffffffffffffffffffffffffffffffffffffffff021916908373ffffffffffffffffffffffffffffffffffffffff16021790555090505033600360006101000a81548173ffffffffffffffffffffffffffffffffffffffff021916908373ffffffffffffffffffffffffffffffffffffffff16021790555083600560006101000a81548173ffffffffffffffffffffffffffffffffffffffff021916908373ffffffffffffffffffffffffffffffffffffffff16021790555081600760006101000a81548173ffffffffffffffffffffffffffffffffffffffff021916908373ffffffffffffffffffffffffffffffffffffffff16021790555082600660006101000a81548173ffffffffffffffffffffffffffffffffffffffff021916908373ffffffffffffffffffffffffffffffffffffffff16021790555080600460006101000a81548173ffffffffffffffffffffffffffffffffffffffff021916908373ffffffffffffffffffffffffffffffffffffffff160217905550600560009054906101000a900473ffffffffffffffffffffffffffffffffffffffff1673ffffffffffffffffffffffffffffffffffffffff166341e6f7246040518163ffffffff1660e01b8152600401600060405180830381600087803b158015620002cb57600080fd5b505af1158015620002e0573d6000803e3d6000fd5b50505050600760009054906101000a900473ffffffffffffffffffffffffffffffffffffffff1673ffffffffffffffffffffffffffffffffffffffff166341e6f7246040518163ffffffff1660e01b8152600401600060405180830381600087803b1580156200034f57600080fd5b505af115801562000364573d6000803e3d6000fd5b50505050600660009054906101000a900473ffffffffffffffffffffffffffffffffffffffff1673ffffffffffffffffffffffffffffffffffffffff166341e6f7246040518163ffffffff1660e01b8152600401600060405180830381600087803b158015620003d357600080fd5b505af1158015620003e8573d6000803e3d6000fd5b5050505050505050620004c7565b6000815190506200040781620004ad565b92915050565b600080600080608085870312156200042457600080fd5b60006200043487828801620003f6565b94505060206200044787828801620003f6565b93505060406200045a87828801620003f6565b92505060606200046d87828801620003f6565b91505092959194509250565b600062000486826200048d565b9050919050565b600073ffffffffffffffffffffffffffffffffffffffff82169050919050565b620004b88162000479565b8114620004c457600080fd5b50565b61356e80620004d76000396000f3fe6080604052600436106100e15760003560e01c8063523b81f71161007f5780638a73900a116100595780638a73900a14610238578063afc983fc14610254578063bf47376814610270578063d9633e7e1461028c57610130565b8063523b81f7146101d55780636f9fb98a146101f15780637ee513271461021c57610130565b8063190a853b116100bb578063190a853b146101775780633c4dbb05146101935780633f2a65f5146101af57806341e6f724146101cb57610130565b806302dc774d146101355780630a0512f4146101515780630fdb1c101461016d57610130565b36610130576100ef336102b5565b61012e576040517f08c379a000000000000000000000000000000000000000000000000000000000815260040161012590612f8d565b60405180910390fd5b005b600080fd5b61014f600480360381019061014a9190612bbe565b6102cf565b005b61016b60048036038101906101669190612bbe565b610316565b005b61017561046c565b005b610191600480360381019061018c9190612c8b565b6105c4565b005b6101ad60048036038101906101a89190612bbe565b6106ea565b005b6101c960048036038101906101c49190612c8b565b6107da565b005b6101d3610900565b005b6101ef60048036038101906101ea9190612bbe565b61096d565b005b3480156101fd57600080fd5b50610206610a41565b604051610213919061302d565b60405180910390f35b61023660048036038101906102319190612d16565b610a49565b005b610252600480360381019061024d9190612cc7565b611a5d565b005b61026e60048036038101906102699190612bbe565b61274f565b005b61028a60048036038101906102859190612bbe565b6128a5565b005b34801561029857600080fd5b506102b360048036038101906102ae9190612c39565b6129fb565b005b600080823b905060008163ffffffff161415915050919050565b80600260000160016101000a81548173ffffffffffffffffffffffffffffffffffffffff021916908373ffffffffffffffffffffffffffffffffffffffff16021790555050565b3373ffffffffffffffffffffffffffffffffffffffff16600360009054906101000a900473ffffffffffffffffffffffffffffffffffffffff1673ffffffffffffffffffffffffffffffffffffffff16146103a6576040517f08c379a000000000000000000000000000000000000000000000000000000000815260040161039d90612fad565b60405180910390fd5b80600760006101000a81548173ffffffffffffffffffffffffffffffffffffffff021916908373ffffffffffffffffffffffffffffffffffffffff160217905550600760009054906101000a900473ffffffffffffffffffffffffffffffffffffffff1673ffffffffffffffffffffffffffffffffffffffff166341e6f7246040518163ffffffff1660e01b8152600401600060405180830381600087803b15801561045157600080fd5b505af1158015610465573d6000803e3d6000fd5b5050505050565b600260005414156104b2576040517f08c379a00000000000000000000000000000000000000000000000000000000081526004016104a99061300d565b60405180910390fd5b60026000819055503373ffffffffffffffffffffffffffffffffffffffff16600360009054906101000a900473ffffffffffffffffffffffffffffffffffffffff1673ffffffffffffffffffffffffffffffffffffffff161461054a576040517f08c379a000000000000000000000000000000000000000000000000000000000815260040161054190612fad565b60405180910390fd5b600360009054906101000a900473ffffffffffffffffffffffffffffffffffffffff1673ffffffffffffffffffffffffffffffffffffffff166108fc61058e610a41565b9081150290604051600060405180830381858888f193505050501580156105b9573d6000803e3d6000fd5b506001600081905550565b3373ffffffffffffffffffffffffffffffffffffffff16600260000160019054906101000a900473ffffffffffffffffffffffffffffffffffffffff1673ffffffffffffffffffffffffffffffffffffffff1614610657576040517f08c379a000000000000000000000000000000000000000000000000000000000815260040161064e90612fcd565b60405180910390fd5b600660009054906101000a900473ffffffffffffffffffffffffffffffffffffffff1673ffffffffffffffffffffffffffffffffffffffff1663190a853b83836040518363ffffffff1660e01b81526004016106b4929190613048565b600060405180830381600087803b1580156106ce57600080fd5b505af11580156106e2573d6000803e3d6000fd5b505050505050565b600260000160009054906101000a900460ff161561073d576040517f08c379a000000000000000000000000000000000000000000000000000000000815260040161073490612fcd565b60405180910390fd5b60405180604001604052806001151581526020018273ffffffffffffffffffffffffffffffffffffffff16815250600260008201518160000160006101000a81548160ff02191690831515021790555060208201518160000160016101000a81548173ffffffffffffffffffffffffffffffffffffffff021916908373ffffffffffffffffffffffffffffffffffffffff16021790555090505050565b3373ffffffffffffffffffffffffffffffffffffffff16600260000160019054906101000a900473ffffffffffffffffffffffffffffffffffffffff1673ffffffffffffffffffffffffffffffffffffffff161461086d576040517f08c379a000000000000000000000000000000000000000000000000000000000815260040161086490612fcd565b60405180910390fd5b600660009054906101000a900473ffffffffffffffffffffffffffffffffffffffff1673ffffffffffffffffffffffffffffffffffffffff16633f2a65f583836040518363ffffffff1660e01b81526004016108ca929190613048565b600060405180830381600087803b1580156108e457600080fd5b505af11580156108f8573d6000803e3d6000fd5b505050505050565b3073ffffffffffffffffffffffffffffffffffffffff16633c4dbb05336040518263ffffffff1660e01b81526004016109399190612ec9565b600060405180830381600087803b15801561095357600080fd5b505af1158015610967573d6000803e3d6000fd5b50505050565b3373ffffffffffffffffffffffffffffffffffffffff16600360009054906101000a900473ffffffffffffffffffffffffffffffffffffffff1673ffffffffffffffffffffffffffffffffffffffff16146109fd576040517f08c379a00000000000000000000000000000000000000000000000000000000081526004016109f490612fad565b60405180910390fd5b80600460006101000a81548173ffffffffffffffffffffffffffffffffffffffff021916908373ffffffffffffffffffffffffffffffffffffffff16021790555050565b600047905090565b60026000541415610a8f576040517f08c379a0000000000000000000000000000000000000000000000000000000008152600401610a869061300d565b60405180910390fd5b6002600081905550610aa0336102b5565b15610ae0576040517f08c379a0000000000000000000000000000000000000000000000000000000008152600401610ad790612fed565b60405180910390fd5b600760009054906101000a900473ffffffffffffffffffffffffffffffffffffffff1673ffffffffffffffffffffffffffffffffffffffff16638745dd78836040518263ffffffff1660e01b8152600401610b3b91906130ec565b60206040518083038186803b158015610b5357600080fd5b505afa158015610b67573d6000803e3d6000fd5b505050506040513d601f19601f82011682018060405250810190610b8b9190612c10565b610bca576040517f08c379a0000000000000000000000000000000000000000000000000000000008152600401610bc190612f6d565b60405180910390fd5b34600760009054906101000a900473ffffffffffffffffffffffffffffffffffffffff1673ffffffffffffffffffffffffffffffffffffffff1663e29e0411846040518263ffffffff1660e01b8152600401610c2691906130ec565b60206040518083038186803b158015610c3e57600080fd5b505afa158015610c52573d6000803e3d6000fd5b505050506040513d601f19601f82011682018060405250810190610c769190612c62565b14610cb6576040517f08c379a0000000000000000000000000000000000000000000000000000000008152600401610cad90612f4d565b60405180910390fd5b600560009054906101000a900473ffffffffffffffffffffffffffffffffffffffff1673ffffffffffffffffffffffffffffffffffffffff1663b22abbfb336040518263ffffffff1660e01b8152600401610d119190612ec9565b60206040518083038186803b158015610d2957600080fd5b505afa158015610d3d573d6000803e3d6000fd5b505050506040513d601f19601f82011682018060405250810190610d619190612c10565b610d6f57610d6e816129fb565b5b6000600560009054906101000a900473ffffffffffffffffffffffffffffffffffffffff1673ffffffffffffffffffffffffffffffffffffffff166331a73991336040518263ffffffff1660e01b8152600401610dcc9190612ec9565b60206040518083038186803b158015610de457600080fd5b505afa158015610df8573d6000803e3d6000fd5b505050506040513d601f19601f82011682018060405250810190610e1c9190612c62565b90506000600190505b8360ff168160ff161015610f3257600760009054906101000a900473ffffffffffffffffffffffffffffffffffffffff1673ffffffffffffffffffffffffffffffffffffffff1663b5a3c8b783836040518363ffffffff1660e01b8152600401610e90929190613071565b60206040518083038186803b158015610ea857600080fd5b505afa158015610ebc573d6000803e3d6000fd5b505050506040513d601f19601f82011682018060405250810190610ee09190612c10565b610f1f576040517f08c379a0000000000000000000000000000000000000000000000000000000008152600401610f1690612f0d565b60405180910390fd5b8080610f2a906132bd565b915050610e25565b50600760009054906101000a900473ffffffffffffffffffffffffffffffffffffffff1673ffffffffffffffffffffffffffffffffffffffff1663b5a3c8b782856040518363ffffffff1660e01b8152600401610f90929190613071565b60206040518083038186803b158015610fa857600080fd5b505afa158015610fbc573d6000803e3d6000fd5b505050506040513d601f19601f82011682018060405250810190610fe09190612c10565b15611020576040517f08c379a000000000000000000000000000000000000000000000000000000000815260040161101790612f2d565b60405180910390fd5b600760009054906101000a900473ffffffffffffffffffffffffffffffffffffffff1673ffffffffffffffffffffffffffffffffffffffff166315a7adac346040518263ffffffff1660e01b815260040161107b919061302d565b600060405180830381600087803b15801561109557600080fd5b505af11580156110a9573d6000803e3d6000fd5b5050505060006064346110bc9190613197565b90506000603c60ff16826110d091906131c8565b9050600080600760009054906101000a900473ffffffffffffffffffffffffffffffffffffffff1673ffffffffffffffffffffffffffffffffffffffff16635437af49886040518263ffffffff1660e01b815260040161113091906130ec565b60206040518083038186803b15801561114857600080fd5b505afa15801561115c573d6000803e3d6000fd5b505050506040513d601f19601f820116820180604052508101906111809190612be7565b90506000600560009054906101000a900473ffffffffffffffffffffffffffffffffffffffff1673ffffffffffffffffffffffffffffffffffffffff166331a73991836040518263ffffffff1660e01b81526004016111df9190612ec9565b60206040518083038186803b1580156111f757600080fd5b505afa15801561120b573d6000803e3d6000fd5b505050506040513d601f19601f8201168201806040525081019061122f9190612c62565b9050838361123d9190613141565b925060008273ffffffffffffffffffffffffffffffffffffffff166108fc869081150290604051600060405180830381858888f193505050509050806112e757600360009054906101000a900473ffffffffffffffffffffffffffffffffffffffff1673ffffffffffffffffffffffffffffffffffffffff166108fc869081150290604051600060405180830381858888f193505050501580156112e5573d6000803e3d6000fd5b505b600760009054906101000a900473ffffffffffffffffffffffffffffffffffffffff1673ffffffffffffffffffffffffffffffffffffffff166390aeecf8838b886040518463ffffffff1660e01b81526004016113469392919061309a565b600060405180830381600087803b15801561136057600080fd5b505af1158015611374573d6000803e3d6000fd5b50505050600760009054906101000a900473ffffffffffffffffffffffffffffffffffffffff1673ffffffffffffffffffffffffffffffffffffffff1663d7fba0368a336040518363ffffffff1660e01b81526004016113d5929190613107565b600060405180830381600087803b1580156113ef57600080fd5b505af1158015611403573d6000803e3d6000fd5b505050506000600560009054906101000a900473ffffffffffffffffffffffffffffffffffffffff1673ffffffffffffffffffffffffffffffffffffffff16634260b84c336040518263ffffffff1660e01b81526004016114649190612ec9565b60206040518083038186803b15801561147c57600080fd5b505afa158015611490573d6000803e3d6000fd5b505050506040513d601f19601f820116820180604052508101906114b49190612be7565b90506000600560009054906101000a900473ffffffffffffffffffffffffffffffffffffffff1673ffffffffffffffffffffffffffffffffffffffff166371f14bc56040518163ffffffff1660e01b815260040160206040518083038186803b15801561152057600080fd5b505afa158015611534573d6000803e3d6000fd5b505050506040513d601f19601f820116820180604052508101906115589190612c62565b90506000600190505b818160ff16116118dc576000600560009054906101000a900473ffffffffffffffffffffffffffffffffffffffff1673ffffffffffffffffffffffffffffffffffffffff1663219267c4836040518263ffffffff1660e01b81526004016115c891906130d1565b60206040518083038186803b1580156115e057600080fd5b505afa1580156115f4573d6000803e3d6000fd5b505050506040513d601f19601f820116820180604052508101906116189190612c62565b8a61162391906131c8565b905080886116319190613141565b975060008473ffffffffffffffffffffffffffffffffffffffff166108fc839081150290604051600060405180830381858888f193505050509050806116db57600360009054906101000a900473ffffffffffffffffffffffffffffffffffffffff1673ffffffffffffffffffffffffffffffffffffffff166108fc839081150290604051600060405180830381858888f193505050501580156116d9573d6000803e3d6000fd5b505b6000600560009054906101000a900473ffffffffffffffffffffffffffffffffffffffff1673ffffffffffffffffffffffffffffffffffffffff166331a73991876040518263ffffffff1660e01b81526004016117389190612ec9565b60206040518083038186803b15801561175057600080fd5b505afa158015611764573d6000803e3d6000fd5b505050506040513d601f19601f820116820180604052508101906117889190612c62565b9050600760009054906101000a900473ffffffffffffffffffffffffffffffffffffffff1673ffffffffffffffffffffffffffffffffffffffff1663d950e9f882856040518363ffffffff1660e01b81526004016117e7929190613048565b600060405180830381600087803b15801561180157600080fd5b505af1158015611815573d6000803e3d6000fd5b50505050600560009054906101000a900473ffffffffffffffffffffffffffffffffffffffff1673ffffffffffffffffffffffffffffffffffffffff16634260b84c876040518263ffffffff1660e01b81526004016118749190612ec9565b60206040518083038186803b15801561188c57600080fd5b505afa1580156118a0573d6000803e3d6000fd5b505050506040513d601f19601f820116820180604052508101906118c49190612be7565b955050505080806118d4906132bd565b915050611561565b50600086346118eb9190613222565b9050600660009054906101000a900473ffffffffffffffffffffffffffffffffffffffff1673ffffffffffffffffffffffffffffffffffffffff1663a8445a1e8b836040518363ffffffff1660e01b815260040161194a929190613048565b600060405180830381600087803b15801561196457600080fd5b505af1158015611978573d6000803e3d6000fd5b505050506000600460009054906101000a900473ffffffffffffffffffffffffffffffffffffffff1673ffffffffffffffffffffffffffffffffffffffff166108fc839081150290604051600060405180830381858888f19350505050905080611a4657600460009054906101000a900473ffffffffffffffffffffffffffffffffffffffff1673ffffffffffffffffffffffffffffffffffffffff166108fc839081150290604051600060405180830381858888f19350505050158015611a44573d6000803e3d6000fd5b505b505050505050505050505060016000819055505050565b3373ffffffffffffffffffffffffffffffffffffffff16600260000160019054906101000a900473ffffffffffffffffffffffffffffffffffffffff1673ffffffffffffffffffffffffffffffffffffffff1614611af0576040517f08c379a0000000000000000000000000000000000000000000000000000000008152600401611ae790612fcd565b60405180910390fd5b600760009054906101000a900473ffffffffffffffffffffffffffffffffffffffff1673ffffffffffffffffffffffffffffffffffffffff16638745dd78826040518263ffffffff1660e01b8152600401611b4b91906130ec565b60206040518083038186803b158015611b6357600080fd5b505afa158015611b77573d6000803e3d6000fd5b505050506040513d601f19601f82011682018060405250810190611b9b9190612c10565b611bda576040517f08c379a0000000000000000000000000000000000000000000000000000000008152600401611bd190612f6d565b60405180910390fd5b81600760009054906101000a900473ffffffffffffffffffffffffffffffffffffffff1673ffffffffffffffffffffffffffffffffffffffff1663e29e0411836040518263ffffffff1660e01b8152600401611c3691906130ec565b60206040518083038186803b158015611c4e57600080fd5b505afa158015611c62573d6000803e3d6000fd5b505050506040513d601f19601f82011682018060405250810190611c869190612c62565b14611cc6576040517f08c379a0000000000000000000000000000000000000000000000000000000008152600401611cbd90612f4d565b60405180910390fd5b600760009054906101000a900473ffffffffffffffffffffffffffffffffffffffff1673ffffffffffffffffffffffffffffffffffffffff166315a7adac836040518263ffffffff1660e01b8152600401611d21919061302d565b600060405180830381600087803b158015611d3b57600080fd5b505af1158015611d4f573d6000803e3d6000fd5b505050506000606483611d629190613197565b9050600080600560009054906101000a900473ffffffffffffffffffffffffffffffffffffffff1673ffffffffffffffffffffffffffffffffffffffff166357766ce2876040518263ffffffff1660e01b8152600401611dc2919061302d565b60206040518083038186803b158015611dda57600080fd5b505afa158015611dee573d6000803e3d6000fd5b505050506040513d601f19601f82011682018060405250810190611e129190612be7565b9050600760009054906101000a900473ffffffffffffffffffffffffffffffffffffffff1673ffffffffffffffffffffffffffffffffffffffff1663d7fba03685836040518363ffffffff1660e01b8152600401611e71929190613107565b600060405180830381600087803b158015611e8b57600080fd5b505af1158015611e9f573d6000803e3d6000fd5b505050506000603c60ff1684611eb591906131c8565b90508083611ec39190613141565b92506000600760009054906101000a900473ffffffffffffffffffffffffffffffffffffffff1673ffffffffffffffffffffffffffffffffffffffff16635437af49876040518263ffffffff1660e01b8152600401611f2291906130ec565b60206040518083038186803b158015611f3a57600080fd5b505afa158015611f4e573d6000803e3d6000fd5b505050506040513d601f19601f82011682018060405250810190611f729190612be7565b90506000600560009054906101000a900473ffffffffffffffffffffffffffffffffffffffff1673ffffffffffffffffffffffffffffffffffffffff166331a73991836040518263ffffffff1660e01b8152600401611fd19190612ec9565b60206040518083038186803b158015611fe957600080fd5b505afa158015611ffd573d6000803e3d6000fd5b505050506040513d601f19601f820116820180604052508101906120219190612c62565b905060008273ffffffffffffffffffffffffffffffffffffffff166108fc859081150290604051600060405180830381858888f19350505050905080156120f857600760009054906101000a900473ffffffffffffffffffffffffffffffffffffffff1673ffffffffffffffffffffffffffffffffffffffff166390aeecf8838a876040518463ffffffff1660e01b81526004016120c19392919061309a565b600060405180830381600087803b1580156120db57600080fd5b505af11580156120ef573d6000803e3d6000fd5b50505050612162565b600360009054906101000a900473ffffffffffffffffffffffffffffffffffffffff1673ffffffffffffffffffffffffffffffffffffffff166108fc859081150290604051600060405180830381858888f19350505050158015612160573d6000803e3d6000fd5b505b6000600560009054906101000a900473ffffffffffffffffffffffffffffffffffffffff1673ffffffffffffffffffffffffffffffffffffffff166371f14bc56040518163ffffffff1660e01b815260040160206040518083038186803b1580156121cc57600080fd5b505afa1580156121e0573d6000803e3d6000fd5b505050506040513d601f19601f820116820180604052508101906122049190612c62565b90506000600560009054906101000a900473ffffffffffffffffffffffffffffffffffffffff1673ffffffffffffffffffffffffffffffffffffffff16634260b84c886040518263ffffffff1660e01b81526004016122639190612ec9565b60206040518083038186803b15801561227b57600080fd5b505afa15801561228f573d6000803e3d6000fd5b505050506040513d601f19601f820116820180604052508101906122b39190612be7565b90506000600190505b828160ff16116125d5576000600560009054906101000a900473ffffffffffffffffffffffffffffffffffffffff1673ffffffffffffffffffffffffffffffffffffffff1663219267c4836040518263ffffffff1660e01b815260040161232391906130d1565b60206040518083038186803b15801561233b57600080fd5b505afa15801561234f573d6000803e3d6000fd5b505050506040513d601f19601f820116820180604052508101906123739190612c62565b8b61237e91906131c8565b9050808a61238c9190613141565b99508273ffffffffffffffffffffffffffffffffffffffff166108fc829081150290604051600060405180830381858888f193505050501580156123d4573d6000803e3d6000fd5b506000600560009054906101000a900473ffffffffffffffffffffffffffffffffffffffff1673ffffffffffffffffffffffffffffffffffffffff166331a73991856040518263ffffffff1660e01b81526004016124329190612ec9565b60206040518083038186803b15801561244a57600080fd5b505afa15801561245e573d6000803e3d6000fd5b505050506040513d601f19601f820116820180604052508101906124829190612c62565b9050600760009054906101000a900473ffffffffffffffffffffffffffffffffffffffff1673ffffffffffffffffffffffffffffffffffffffff1663d950e9f882846040518363ffffffff1660e01b81526004016124e1929190613048565b600060405180830381600087803b1580156124fb57600080fd5b505af115801561250f573d6000803e3d6000fd5b50505050600560009054906101000a900473ffffffffffffffffffffffffffffffffffffffff1673ffffffffffffffffffffffffffffffffffffffff16634260b84c856040518263ffffffff1660e01b815260040161256e9190612ec9565b60206040518083038186803b15801561258657600080fd5b505afa15801561259a573d6000803e3d6000fd5b505050506040513d601f19601f820116820180604052508101906125be9190612be7565b9350505080806125cd906132bd565b9150506122bc565b506000888c6125e49190613222565b9050600660009054906101000a900473ffffffffffffffffffffffffffffffffffffffff1673ffffffffffffffffffffffffffffffffffffffff1663a8445a1e8e836040518363ffffffff1660e01b8152600401612643929190613048565b600060405180830381600087803b15801561265d57600080fd5b505af1158015612671573d6000803e3d6000fd5b505050506000600460009054906101000a900473ffffffffffffffffffffffffffffffffffffffff1673ffffffffffffffffffffffffffffffffffffffff166108fc839081150290604051600060405180830381858888f1935050505090508061273f57600460009054906101000a900473ffffffffffffffffffffffffffffffffffffffff1673ffffffffffffffffffffffffffffffffffffffff166108fc839081150290604051600060405180830381858888f1935050505015801561273d573d6000803e3d6000fd5b505b5050505050505050505050505050565b3373ffffffffffffffffffffffffffffffffffffffff16600360009054906101000a900473ffffffffffffffffffffffffffffffffffffffff1673ffffffffffffffffffffffffffffffffffffffff16146127df576040517f08c379a00000000000000000000000000000000000000000000000000000000081526004016127d690612fad565b60405180910390fd5b80600660006101000a81548173ffffffffffffffffffffffffffffffffffffffff021916908373ffffffffffffffffffffffffffffffffffffffff160217905550600660009054906101000a900473ffffffffffffffffffffffffffffffffffffffff1673ffffffffffffffffffffffffffffffffffffffff166341e6f7246040518163ffffffff1660e01b8152600401600060405180830381600087803b15801561288a57600080fd5b505af115801561289e573d6000803e3d6000fd5b5050505050565b3373ffffffffffffffffffffffffffffffffffffffff16600360009054906101000a900473ffffffffffffffffffffffffffffffffffffffff1673ffffffffffffffffffffffffffffffffffffffff1614612935576040517f08c379a000000000000000000000000000000000000000000000000000000000815260040161292c90612fad565b60405180910390fd5b80600560006101000a81548173ffffffffffffffffffffffffffffffffffffffff021916908373ffffffffffffffffffffffffffffffffffffffff160217905550600560009054906101000a900473ffffffffffffffffffffffffffffffffffffffff1673ffffffffffffffffffffffffffffffffffffffff166341e6f7246040518163ffffffff1660e01b8152600401600060405180830381600087803b1580156129e057600080fd5b505af11580156129f4573d6000803e3d6000fd5b5050505050565b600560009054906101000a900473ffffffffffffffffffffffffffffffffffffffff1673ffffffffffffffffffffffffffffffffffffffff16635d206d4d826040518263ffffffff1660e01b8152600401612a56919061302d565b60206040518083038186803b158015612a6e57600080fd5b505afa158015612a82573d6000803e3d6000fd5b505050506040513d601f19601f82011682018060405250810190612aa69190612c10565b612aaf57600190505b600560009054906101000a900473ffffffffffffffffffffffffffffffffffffffff1673ffffffffffffffffffffffffffffffffffffffff16627dc6ab33836040518363ffffffff1660e01b8152600401612b0b929190612ee4565b600060405180830381600087803b158015612b2557600080fd5b505af1158015612b39573d6000803e3d6000fd5b5050505050565b600081359050612b4f816134dc565b92915050565b600081519050612b64816134dc565b92915050565b600081519050612b79816134f3565b92915050565b600081359050612b8e8161350a565b92915050565b600081519050612ba38161350a565b92915050565b600081359050612bb881613521565b92915050565b600060208284031215612bd057600080fd5b6000612bde84828501612b40565b91505092915050565b600060208284031215612bf957600080fd5b6000612c0784828501612b55565b91505092915050565b600060208284031215612c2257600080fd5b6000612c3084828501612b6a565b91505092915050565b600060208284031215612c4b57600080fd5b6000612c5984828501612b7f565b91505092915050565b600060208284031215612c7457600080fd5b6000612c8284828501612b94565b91505092915050565b60008060408385031215612c9e57600080fd5b6000612cac85828601612b7f565b9250506020612cbd85828601612b7f565b9150509250929050565b600080600060608486031215612cdc57600080fd5b6000612cea86828701612b7f565b9350506020612cfb86828701612b7f565b9250506040612d0c86828701612ba9565b9150509250925092565b60008060408385031215612d2957600080fd5b6000612d3785828601612ba9565b9250506020612d4885828601612b7f565b9150509250929050565b612d5b81613256565b82525050565b6000612d6e602283613130565b9150612d7982613345565b604082019050919050565b6000612d91601483613130565b9150612d9c82613394565b602082019050919050565b6000612db4601183613130565b9150612dbf826133bd565b602082019050919050565b6000612dd7600d83613130565b9150612de2826133e6565b602082019050919050565b6000612dfa601483613130565b9150612e058261340f565b602082019050919050565b6000612e1d600a83613130565b9150612e2882613438565b602082019050919050565b6000612e40600183613130565b9150612e4b82613461565b602082019050919050565b6000612e63601583613130565b9150612e6e8261348a565b602082019050919050565b6000612e86601f83613130565b9150612e91826134b3565b602082019050919050565b612ea581613294565b82525050565b612eb4816132ab565b82525050565b612ec38161329e565b82525050565b6000602082019050612ede6000830184612d52565b92915050565b6000604082019050612ef96000830185612d52565b612f066020830184612e9c565b9392505050565b60006020820190508181036000830152612f2681612d61565b9050919050565b60006020820190508181036000830152612f4681612d84565b9050919050565b60006020820190508181036000830152612f6681612da7565b9050919050565b60006020820190508181036000830152612f8681612dca565b9050919050565b60006020820190508181036000830152612fa681612ded565b9050919050565b60006020820190508181036000830152612fc681612e10565b9050919050565b60006020820190508181036000830152612fe681612e33565b9050919050565b6000602082019050818103600083015261300681612e56565b9050919050565b6000602082019050818103600083015261302681612e79565b9050919050565b60006020820190506130426000830184612e9c565b92915050565b600060408201905061305d6000830185612e9c565b61306a6020830184612e9c565b9392505050565b60006040820190506130866000830185612e9c565b6130936020830184612eba565b9392505050565b60006060820190506130af6000830186612e9c565b6130bc6020830185612eba565b6130c96040830184612e9c565b949350505050565b60006020820190506130e66000830184612eab565b92915050565b60006020820190506131016000830184612eba565b92915050565b600060408201905061311c6000830185612eba565b6131296020830184612d52565b9392505050565b600082825260208201905092915050565b600061314c82613294565b915061315783613294565b9250827fffffffffffffffffffffffffffffffffffffffffffffffffffffffffffffffff0382111561318c5761318b6132e7565b5b828201905092915050565b60006131a282613294565b91506131ad83613294565b9250826131bd576131bc613316565b5b828204905092915050565b60006131d382613294565b91506131de83613294565b9250817fffffffffffffffffffffffffffffffffffffffffffffffffffffffffffffffff0483118215151615613217576132166132e7565b5b828202905092915050565b600061322d82613294565b915061323883613294565b92508282101561324b5761324a6132e7565b5b828203905092915050565b600061326182613274565b9050919050565b60008115159050919050565b600073ffffffffffffffffffffffffffffffffffffffff82169050919050565b6000819050919050565b600060ff82169050919050565b60006132b68261329e565b9050919050565b60006132c88261329e565b915060ff8214156132dc576132db6132e7565b5b600182019050919050565b7f4e487b7100000000000000000000000000000000000000000000000000000000600052601160045260246000fd5b7f4e487b7100000000000000000000000000000000000000000000000000000000600052601260045260246000fd5b7f416c6c2070726576696f7573206c6576656c73206d757374206265206163746960008201527f7665000000000000000000000000000000000000000000000000000000000000602082015250565b7f4c6576656c20616c726561647920616374697665000000000000000000000000600082015250565b7f496e76616c696420424e422076616c7565000000000000000000000000000000600082015250565b7f496e76616c6964206c6576656c00000000000000000000000000000000000000600082015250565b7f427579207461626c6573206f6e6c792044615050000000000000000000000000600082015250565b7f6f6e6c79206f776e657200000000000000000000000000000000000000000000600082015250565b7f3100000000000000000000000000000000000000000000000000000000000000600082015250565b7f43616e206e6f74206265206120636f6e74726163740000000000000000000000600082015250565b7f5265656e7472616e637947756172643a207265656e7472616e742063616c6c00600082015250565b6134e581613256565b81146134f057600080fd5b50565b6134fc81613268565b811461350757600080fd5b50565b61351381613294565b811461351e57600080fd5b50565b61352a8161329e565b811461353557600080fd5b5056fea2646970667358221220394f326e388f889e0cefb8413dfa5c3cac1c4f83ea8d36b4f3e55480f092f18964736f6c63430008040033",
  "linkReferences": {},
  "deployedLinkReferences": {}
}