{
  "_format": "hh-sol-artifact-1",
  "contractName": "MatrixGame",
  "sourceName": "contracts/Payable/MatrixGame.sol",
  "abi": [
    {
      "inputs": [
        {
          "internalType": "address",
          "name": "UserControllerAddress",
          "type": "address"
        },
        {
          "internalType": "address",
          "name": "PullControllerAddress",
          "type": "address"
        },
        {
          "internalType": "address",
          "name": "TablesControllerAddress",
          "type": "address"
        },
        {
          "internalType": "address",
          "name": "PullReinvestAddress",
          "type": "address"
        }
      ],
      "stateMutability": "nonpayable",
      "type": "constructor"
    },
    {
      "inputs": [
        {
          "internalType": "uint256",
          "name": "ReferalReward",
          "type": "uint256"
        },
        {
          "internalType": "uint256",
          "name": "RefererId",
          "type": "uint256"
        }
      ],
      "name": "AddMemberReferalRewards",
      "outputs": [],
      "stateMutability": "payable",
      "type": "function"
    },
    {
      "inputs": [
        {
          "internalType": "uint256",
          "name": "UserReward",
          "type": "uint256"
        },
        {
          "internalType": "uint256",
          "name": "UserId",
          "type": "uint256"
        }
      ],
      "name": "AddMemberRewards",
      "outputs": [],
      "stateMutability": "payable",
      "type": "function"
    },
    {
      "inputs": [
        {
          "internalType": "uint8",
          "name": "table",
          "type": "uint8"
        },
        {
          "internalType": "uint256",
          "name": "refId",
          "type": "uint256"
        }
      ],
      "name": "BuyTable",
      "outputs": [],
      "stateMutability": "payable",
      "type": "function"
    },
    {
      "inputs": [
        {
          "internalType": "uint256",
          "name": "userId",
          "type": "uint256"
        },
        {
          "internalType": "uint256",
          "name": "value",
          "type": "uint256"
        },
        {
          "internalType": "uint8",
          "name": "table",
          "type": "uint8"
        }
      ],
      "name": "BuyTableReInvest",
      "outputs": [],
      "stateMutability": "payable",
      "type": "function"
    },
    {
      "inputs": [
        {
          "internalType": "address",
          "name": "newAddress",
          "type": "address"
        }
      ],
      "name": "Change",
      "outputs": [],
      "stateMutability": "payable",
      "type": "function"
    },
    {
      "inputs": [
        {
          "internalType": "address",
          "name": "newAddress",
          "type": "address"
        }
      ],
      "name": "ChangePullStorage",
      "outputs": [],
      "stateMutability": "payable",
      "type": "function"
    },
    {
      "inputs": [
        {
          "internalType": "address",
          "name": "newAddress",
          "type": "address"
        }
      ],
      "name": "ChangeReinvestAddress",
      "outputs": [],
      "stateMutability": "payable",
      "type": "function"
    },
    {
      "inputs": [
        {
          "internalType": "address",
          "name": "newAddress",
          "type": "address"
        }
      ],
      "name": "ChangeTableStorage",
      "outputs": [],
      "stateMutability": "payable",
      "type": "function"
    },
    {
      "inputs": [
        {
          "internalType": "address",
          "name": "newAddress",
          "type": "address"
        }
      ],
      "name": "ChangeUserStorage",
      "outputs": [],
      "stateMutability": "payable",
      "type": "function"
    },
    {
      "inputs": [
        {
          "internalType": "address",
          "name": "_addressKey",
          "type": "address"
        }
      ],
      "name": "Set",
      "outputs": [],
      "stateMutability": "payable",
      "type": "function"
    },
    {
      "inputs": [],
      "name": "SetKey",
      "outputs": [],
      "stateMutability": "payable",
      "type": "function"
    },
    {
      "inputs": [],
      "name": "getContractBalance",
      "outputs": [
        {
          "internalType": "uint256",
          "name": "",
          "type": "uint256"
        }
      ],
      "stateMutability": "view",
      "type": "function"
    },
    {
      "inputs": [
        {
          "internalType": "uint256",
          "name": "refId",
          "type": "uint256"
        }
      ],
      "name": "registerWithReferrer",
      "outputs": [],
      "stateMutability": "payable",
      "type": "function"
    },
    {
      "inputs": [],
      "name": "turnover",
      "outputs": [
        {
          "internalType": "uint256",
          "name": "",
          "type": "uint256"
        }
      ],
      "stateMutability": "view",
      "type": "function"
    },
    {
      "inputs": [],
      "name": "withDraw",
      "outputs": [],
      "stateMutability": "payable",
      "type": "function"
    },
    {
      "stateMutability": "payable",
      "type": "receive"
    }
  ],
  "bytecode": "0x60806040523480156200001157600080fd5b50604051620039d5380380620039d583398181016040528101906200003791906200040d565b600160008190555033600160006101000a81548173ffffffffffffffffffffffffffffffffffffffff021916908373ffffffffffffffffffffffffffffffffffffffff1602179055506040518060400160405280600015158152602001600073ffffffffffffffffffffffffffffffffffffffff16815250600260008201518160000160006101000a81548160ff02191690831515021790555060208201518160000160016101000a81548173ffffffffffffffffffffffffffffffffffffffff021916908373ffffffffffffffffffffffffffffffffffffffff16021790555090505033600360006101000a81548173ffffffffffffffffffffffffffffffffffffffff021916908373ffffffffffffffffffffffffffffffffffffffff16021790555083600560006101000a81548173ffffffffffffffffffffffffffffffffffffffff021916908373ffffffffffffffffffffffffffffffffffffffff16021790555081600760006101000a81548173ffffffffffffffffffffffffffffffffffffffff021916908373ffffffffffffffffffffffffffffffffffffffff16021790555082600660006101000a81548173ffffffffffffffffffffffffffffffffffffffff021916908373ffffffffffffffffffffffffffffffffffffffff16021790555080600460006101000a81548173ffffffffffffffffffffffffffffffffffffffff021916908373ffffffffffffffffffffffffffffffffffffffff160217905550600560009054906101000a900473ffffffffffffffffffffffffffffffffffffffff1673ffffffffffffffffffffffffffffffffffffffff166341e6f7246040518163ffffffff1660e01b8152600401600060405180830381600087803b158015620002cb57600080fd5b505af1158015620002e0573d6000803e3d6000fd5b50505050600760009054906101000a900473ffffffffffffffffffffffffffffffffffffffff1673ffffffffffffffffffffffffffffffffffffffff166341e6f7246040518163ffffffff1660e01b8152600401600060405180830381600087803b1580156200034f57600080fd5b505af115801562000364573d6000803e3d6000fd5b50505050600660009054906101000a900473ffffffffffffffffffffffffffffffffffffffff1673ffffffffffffffffffffffffffffffffffffffff166341e6f7246040518163ffffffff1660e01b8152600401600060405180830381600087803b158015620003d357600080fd5b505af1158015620003e8573d6000803e3d6000fd5b5050505050505050620004c7565b6000815190506200040781620004ad565b92915050565b600080600080608085870312156200042457600080fd5b60006200043487828801620003f6565b94505060206200044787828801620003f6565b93505060406200045a87828801620003f6565b92505060606200046d87828801620003f6565b91505092959194509250565b600062000486826200048d565b9050919050565b600073ffffffffffffffffffffffffffffffffffffffff82169050919050565b620004b88162000479565b8114620004c457600080fd5b50565b6134fe80620004d76000396000f3fe6080604052600436106100ec5760003560e01c806341e6f7241161008a5780638a73900a116100595780638a73900a1461026e578063afc983fc1461028a578063bf473768146102a6578063d9633e7e146102c25761013b565b806341e6f72414610201578063523b81f71461020b5780636f9fb98a146102275780637ee51327146102525761013b565b8063190a853b116100c6578063190a853b14610182578063256540cd1461019e5780633c4dbb05146101c95780633f2a65f5146101e55761013b565b806302dc774d146101405780630a0512f41461015c5780630fdb1c10146101785761013b565b3661013b576100fa336102de565b610139576040517f08c379a000000000000000000000000000000000000000000000000000000000815260040161013090612f1d565b60405180910390fd5b005b600080fd5b61015a60048036038101906101559190612b4e565b6102f8565b005b61017660048036038101906101719190612b4e565b61033f565b005b610180610495565b005b61019c60048036038101906101979190612c1b565b6105ed565b005b3480156101aa57600080fd5b506101b3610713565b6040516101c09190612fbd565b60405180910390f35b6101e360048036038101906101de9190612b4e565b610719565b005b6101ff60048036038101906101fa9190612c1b565b610809565b005b61020961092f565b005b61022560048036038101906102209190612b4e565b61099c565b005b34801561023357600080fd5b5061023c610a70565b6040516102499190612fbd565b60405180910390f35b61026c60048036038101906102679190612ca6565b610a78565b005b61028860048036038101906102839190612c57565b611a18565b005b6102a4600480360381019061029f9190612b4e565b612696565b005b6102c060048036038101906102bb9190612b4e565b6127ec565b005b6102dc60048036038101906102d79190612bc9565b612942565b005b600080823b905060008163ffffffff161415915050919050565b80600260000160016101000a81548173ffffffffffffffffffffffffffffffffffffffff021916908373ffffffffffffffffffffffffffffffffffffffff16021790555050565b3373ffffffffffffffffffffffffffffffffffffffff16600360009054906101000a900473ffffffffffffffffffffffffffffffffffffffff1673ffffffffffffffffffffffffffffffffffffffff16146103cf576040517f08c379a00000000000000000000000000000000000000000000000000000000081526004016103c690612f3d565b60405180910390fd5b80600760006101000a81548173ffffffffffffffffffffffffffffffffffffffff021916908373ffffffffffffffffffffffffffffffffffffffff160217905550600760009054906101000a900473ffffffffffffffffffffffffffffffffffffffff1673ffffffffffffffffffffffffffffffffffffffff166341e6f7246040518163ffffffff1660e01b8152600401600060405180830381600087803b15801561047a57600080fd5b505af115801561048e573d6000803e3d6000fd5b5050505050565b600260005414156104db576040517f08c379a00000000000000000000000000000000000000000000000000000000081526004016104d290612f9d565b60405180910390fd5b60026000819055503373ffffffffffffffffffffffffffffffffffffffff16600360009054906101000a900473ffffffffffffffffffffffffffffffffffffffff1673ffffffffffffffffffffffffffffffffffffffff1614610573576040517f08c379a000000000000000000000000000000000000000000000000000000000815260040161056a90612f3d565b60405180910390fd5b600360009054906101000a900473ffffffffffffffffffffffffffffffffffffffff1673ffffffffffffffffffffffffffffffffffffffff166108fc6105b7610a70565b9081150290604051600060405180830381858888f193505050501580156105e2573d6000803e3d6000fd5b506001600081905550565b3373ffffffffffffffffffffffffffffffffffffffff16600260000160019054906101000a900473ffffffffffffffffffffffffffffffffffffffff1673ffffffffffffffffffffffffffffffffffffffff1614610680576040517f08c379a000000000000000000000000000000000000000000000000000000000815260040161067790612f5d565b60405180910390fd5b600660009054906101000a900473ffffffffffffffffffffffffffffffffffffffff1673ffffffffffffffffffffffffffffffffffffffff1663190a853b83836040518363ffffffff1660e01b81526004016106dd929190612fd8565b600060405180830381600087803b1580156106f757600080fd5b505af115801561070b573d6000803e3d6000fd5b505050505050565b60085481565b600260000160009054906101000a900460ff161561076c576040517f08c379a000000000000000000000000000000000000000000000000000000000815260040161076390612f5d565b60405180910390fd5b60405180604001604052806001151581526020018273ffffffffffffffffffffffffffffffffffffffff16815250600260008201518160000160006101000a81548160ff02191690831515021790555060208201518160000160016101000a81548173ffffffffffffffffffffffffffffffffffffffff021916908373ffffffffffffffffffffffffffffffffffffffff16021790555090505050565b3373ffffffffffffffffffffffffffffffffffffffff16600260000160019054906101000a900473ffffffffffffffffffffffffffffffffffffffff1673ffffffffffffffffffffffffffffffffffffffff161461089c576040517f08c379a000000000000000000000000000000000000000000000000000000000815260040161089390612f5d565b60405180910390fd5b600660009054906101000a900473ffffffffffffffffffffffffffffffffffffffff1673ffffffffffffffffffffffffffffffffffffffff16633f2a65f583836040518363ffffffff1660e01b81526004016108f9929190612fd8565b600060405180830381600087803b15801561091357600080fd5b505af1158015610927573d6000803e3d6000fd5b505050505050565b3073ffffffffffffffffffffffffffffffffffffffff16633c4dbb05336040518263ffffffff1660e01b81526004016109689190612e59565b600060405180830381600087803b15801561098257600080fd5b505af1158015610996573d6000803e3d6000fd5b50505050565b3373ffffffffffffffffffffffffffffffffffffffff16600360009054906101000a900473ffffffffffffffffffffffffffffffffffffffff1673ffffffffffffffffffffffffffffffffffffffff1614610a2c576040517f08c379a0000000000000000000000000000000000000000000000000000000008152600401610a2390612f3d565b60405180910390fd5b80600460006101000a81548173ffffffffffffffffffffffffffffffffffffffff021916908373ffffffffffffffffffffffffffffffffffffffff16021790555050565b600047905090565b60026000541415610abe576040517f08c379a0000000000000000000000000000000000000000000000000000000008152600401610ab590612f9d565b60405180910390fd5b6002600081905550610acf336102de565b15610b0f576040517f08c379a0000000000000000000000000000000000000000000000000000000008152600401610b0690612f7d565b60405180910390fd5b600760009054906101000a900473ffffffffffffffffffffffffffffffffffffffff1673ffffffffffffffffffffffffffffffffffffffff16638745dd78836040518263ffffffff1660e01b8152600401610b6a919061307c565b60206040518083038186803b158015610b8257600080fd5b505afa158015610b96573d6000803e3d6000fd5b505050506040513d601f19601f82011682018060405250810190610bba9190612ba0565b610bf9576040517f08c379a0000000000000000000000000000000000000000000000000000000008152600401610bf090612efd565b60405180910390fd5b34600760009054906101000a900473ffffffffffffffffffffffffffffffffffffffff1673ffffffffffffffffffffffffffffffffffffffff1663e29e0411846040518263ffffffff1660e01b8152600401610c55919061307c565b60206040518083038186803b158015610c6d57600080fd5b505afa158015610c81573d6000803e3d6000fd5b505050506040513d601f19601f82011682018060405250810190610ca59190612bf2565b14610ce5576040517f08c379a0000000000000000000000000000000000000000000000000000000008152600401610cdc90612edd565b60405180910390fd5b600560009054906101000a900473ffffffffffffffffffffffffffffffffffffffff1673ffffffffffffffffffffffffffffffffffffffff1663b22abbfb336040518263ffffffff1660e01b8152600401610d409190612e59565b60206040518083038186803b158015610d5857600080fd5b505afa158015610d6c573d6000803e3d6000fd5b505050506040513d601f19601f82011682018060405250810190610d909190612ba0565b610d9e57610d9d81612942565b5b6000600560009054906101000a900473ffffffffffffffffffffffffffffffffffffffff1673ffffffffffffffffffffffffffffffffffffffff166331a73991336040518263ffffffff1660e01b8152600401610dfb9190612e59565b60206040518083038186803b158015610e1357600080fd5b505afa158015610e27573d6000803e3d6000fd5b505050506040513d601f19601f82011682018060405250810190610e4b9190612bf2565b90506000600190505b8360ff168160ff161015610f6157600760009054906101000a900473ffffffffffffffffffffffffffffffffffffffff1673ffffffffffffffffffffffffffffffffffffffff1663b5a3c8b783836040518363ffffffff1660e01b8152600401610ebf929190613001565b60206040518083038186803b158015610ed757600080fd5b505afa158015610eeb573d6000803e3d6000fd5b505050506040513d601f19601f82011682018060405250810190610f0f9190612ba0565b610f4e576040517f08c379a0000000000000000000000000000000000000000000000000000000008152600401610f4590612e9d565b60405180910390fd5b8080610f599061324d565b915050610e54565b50600760009054906101000a900473ffffffffffffffffffffffffffffffffffffffff1673ffffffffffffffffffffffffffffffffffffffff1663b5a3c8b782856040518363ffffffff1660e01b8152600401610fbf929190613001565b60206040518083038186803b158015610fd757600080fd5b505afa158015610feb573d6000803e3d6000fd5b505050506040513d601f19601f8201168201806040525081019061100f9190612ba0565b1561104f576040517f08c379a000000000000000000000000000000000000000000000000000000000815260040161104690612ebd565b60405180910390fd5b346008600082825461106191906130d1565b9250508190555060006064346110779190613127565b90506000603c60ff168261108b9190613158565b9050600080600760009054906101000a900473ffffffffffffffffffffffffffffffffffffffff1673ffffffffffffffffffffffffffffffffffffffff16635437af49886040518263ffffffff1660e01b81526004016110eb919061307c565b60206040518083038186803b15801561110357600080fd5b505afa158015611117573d6000803e3d6000fd5b505050506040513d601f19601f8201168201806040525081019061113b9190612b77565b90506000600560009054906101000a900473ffffffffffffffffffffffffffffffffffffffff1673ffffffffffffffffffffffffffffffffffffffff166331a73991836040518263ffffffff1660e01b815260040161119a9190612e59565b60206040518083038186803b1580156111b257600080fd5b505afa1580156111c6573d6000803e3d6000fd5b505050506040513d601f19601f820116820180604052508101906111ea9190612bf2565b905083836111f891906130d1565b925060008273ffffffffffffffffffffffffffffffffffffffff166108fc869081150290604051600060405180830381858888f193505050509050806112a257600360009054906101000a900473ffffffffffffffffffffffffffffffffffffffff1673ffffffffffffffffffffffffffffffffffffffff166108fc869081150290604051600060405180830381858888f193505050501580156112a0573d6000803e3d6000fd5b505b600760009054906101000a900473ffffffffffffffffffffffffffffffffffffffff1673ffffffffffffffffffffffffffffffffffffffff166390aeecf8838b886040518463ffffffff1660e01b81526004016113019392919061302a565b600060405180830381600087803b15801561131b57600080fd5b505af115801561132f573d6000803e3d6000fd5b50505050600760009054906101000a900473ffffffffffffffffffffffffffffffffffffffff1673ffffffffffffffffffffffffffffffffffffffff1663d7fba0368a336040518363ffffffff1660e01b8152600401611390929190613097565b600060405180830381600087803b1580156113aa57600080fd5b505af11580156113be573d6000803e3d6000fd5b505050506000600560009054906101000a900473ffffffffffffffffffffffffffffffffffffffff1673ffffffffffffffffffffffffffffffffffffffff16634260b84c336040518263ffffffff1660e01b815260040161141f9190612e59565b60206040518083038186803b15801561143757600080fd5b505afa15801561144b573d6000803e3d6000fd5b505050506040513d601f19601f8201168201806040525081019061146f9190612b77565b90506000600560009054906101000a900473ffffffffffffffffffffffffffffffffffffffff1673ffffffffffffffffffffffffffffffffffffffff166371f14bc56040518163ffffffff1660e01b815260040160206040518083038186803b1580156114db57600080fd5b505afa1580156114ef573d6000803e3d6000fd5b505050506040513d601f19601f820116820180604052508101906115139190612bf2565b90506000600190505b818160ff1611611897576000600560009054906101000a900473ffffffffffffffffffffffffffffffffffffffff1673ffffffffffffffffffffffffffffffffffffffff1663219267c4836040518263ffffffff1660e01b81526004016115839190613061565b60206040518083038186803b15801561159b57600080fd5b505afa1580156115af573d6000803e3d6000fd5b505050506040513d601f19601f820116820180604052508101906115d39190612bf2565b8a6115de9190613158565b905080886115ec91906130d1565b975060008473ffffffffffffffffffffffffffffffffffffffff166108fc839081150290604051600060405180830381858888f1935050505090508061169657600360009054906101000a900473ffffffffffffffffffffffffffffffffffffffff1673ffffffffffffffffffffffffffffffffffffffff166108fc839081150290604051600060405180830381858888f19350505050158015611694573d6000803e3d6000fd5b505b6000600560009054906101000a900473ffffffffffffffffffffffffffffffffffffffff1673ffffffffffffffffffffffffffffffffffffffff166331a73991876040518263ffffffff1660e01b81526004016116f39190612e59565b60206040518083038186803b15801561170b57600080fd5b505afa15801561171f573d6000803e3d6000fd5b505050506040513d601f19601f820116820180604052508101906117439190612bf2565b9050600760009054906101000a900473ffffffffffffffffffffffffffffffffffffffff1673ffffffffffffffffffffffffffffffffffffffff1663d950e9f882856040518363ffffffff1660e01b81526004016117a2929190612fd8565b600060405180830381600087803b1580156117bc57600080fd5b505af11580156117d0573d6000803e3d6000fd5b50505050600560009054906101000a900473ffffffffffffffffffffffffffffffffffffffff1673ffffffffffffffffffffffffffffffffffffffff16634260b84c876040518263ffffffff1660e01b815260040161182f9190612e59565b60206040518083038186803b15801561184757600080fd5b505afa15801561185b573d6000803e3d6000fd5b505050506040513d601f19601f8201168201806040525081019061187f9190612b77565b9550505050808061188f9061324d565b91505061151c565b50600086346118a691906131b2565b9050600660009054906101000a900473ffffffffffffffffffffffffffffffffffffffff1673ffffffffffffffffffffffffffffffffffffffff16632a31644233836040518363ffffffff1660e01b8152600401611905929190612e74565b600060405180830381600087803b15801561191f57600080fd5b505af1158015611933573d6000803e3d6000fd5b505050506000600460009054906101000a900473ffffffffffffffffffffffffffffffffffffffff1673ffffffffffffffffffffffffffffffffffffffff166108fc839081150290604051600060405180830381858888f19350505050905080611a0157600460009054906101000a900473ffffffffffffffffffffffffffffffffffffffff1673ffffffffffffffffffffffffffffffffffffffff166108fc839081150290604051600060405180830381858888f193505050501580156119ff573d6000803e3d6000fd5b505b505050505050505050505060016000819055505050565b3373ffffffffffffffffffffffffffffffffffffffff16600260000160019054906101000a900473ffffffffffffffffffffffffffffffffffffffff1673ffffffffffffffffffffffffffffffffffffffff1614611aab576040517f08c379a0000000000000000000000000000000000000000000000000000000008152600401611aa290612f5d565b60405180910390fd5b600760009054906101000a900473ffffffffffffffffffffffffffffffffffffffff1673ffffffffffffffffffffffffffffffffffffffff16638745dd78826040518263ffffffff1660e01b8152600401611b06919061307c565b60206040518083038186803b158015611b1e57600080fd5b505afa158015611b32573d6000803e3d6000fd5b505050506040513d601f19601f82011682018060405250810190611b569190612ba0565b611b95576040517f08c379a0000000000000000000000000000000000000000000000000000000008152600401611b8c90612efd565b60405180910390fd5b81600760009054906101000a900473ffffffffffffffffffffffffffffffffffffffff1673ffffffffffffffffffffffffffffffffffffffff1663e29e0411836040518263ffffffff1660e01b8152600401611bf1919061307c565b60206040518083038186803b158015611c0957600080fd5b505afa158015611c1d573d6000803e3d6000fd5b505050506040513d601f19601f82011682018060405250810190611c419190612bf2565b14611c81576040517f08c379a0000000000000000000000000000000000000000000000000000000008152600401611c7890612edd565b60405180910390fd5b8160086000828254611c9391906130d1565b925050819055506000606483611ca99190613127565b9050600080600560009054906101000a900473ffffffffffffffffffffffffffffffffffffffff1673ffffffffffffffffffffffffffffffffffffffff166357766ce2876040518263ffffffff1660e01b8152600401611d099190612fbd565b60206040518083038186803b158015611d2157600080fd5b505afa158015611d35573d6000803e3d6000fd5b505050506040513d601f19601f82011682018060405250810190611d599190612b77565b9050600760009054906101000a900473ffffffffffffffffffffffffffffffffffffffff1673ffffffffffffffffffffffffffffffffffffffff1663d7fba03685836040518363ffffffff1660e01b8152600401611db8929190613097565b600060405180830381600087803b158015611dd257600080fd5b505af1158015611de6573d6000803e3d6000fd5b505050506000603c60ff1684611dfc9190613158565b90508083611e0a91906130d1565b92506000600760009054906101000a900473ffffffffffffffffffffffffffffffffffffffff1673ffffffffffffffffffffffffffffffffffffffff16635437af49876040518263ffffffff1660e01b8152600401611e69919061307c565b60206040518083038186803b158015611e8157600080fd5b505afa158015611e95573d6000803e3d6000fd5b505050506040513d601f19601f82011682018060405250810190611eb99190612b77565b90506000600560009054906101000a900473ffffffffffffffffffffffffffffffffffffffff1673ffffffffffffffffffffffffffffffffffffffff166331a73991836040518263ffffffff1660e01b8152600401611f189190612e59565b60206040518083038186803b158015611f3057600080fd5b505afa158015611f44573d6000803e3d6000fd5b505050506040513d601f19601f82011682018060405250810190611f689190612bf2565b905060008273ffffffffffffffffffffffffffffffffffffffff166108fc859081150290604051600060405180830381858888f193505050509050801561203f57600760009054906101000a900473ffffffffffffffffffffffffffffffffffffffff1673ffffffffffffffffffffffffffffffffffffffff166390aeecf8838a876040518463ffffffff1660e01b81526004016120089392919061302a565b600060405180830381600087803b15801561202257600080fd5b505af1158015612036573d6000803e3d6000fd5b505050506120a9565b600360009054906101000a900473ffffffffffffffffffffffffffffffffffffffff1673ffffffffffffffffffffffffffffffffffffffff166108fc859081150290604051600060405180830381858888f193505050501580156120a7573d6000803e3d6000fd5b505b6000600560009054906101000a900473ffffffffffffffffffffffffffffffffffffffff1673ffffffffffffffffffffffffffffffffffffffff166371f14bc56040518163ffffffff1660e01b815260040160206040518083038186803b15801561211357600080fd5b505afa158015612127573d6000803e3d6000fd5b505050506040513d601f19601f8201168201806040525081019061214b9190612bf2565b90506000600560009054906101000a900473ffffffffffffffffffffffffffffffffffffffff1673ffffffffffffffffffffffffffffffffffffffff16634260b84c886040518263ffffffff1660e01b81526004016121aa9190612e59565b60206040518083038186803b1580156121c257600080fd5b505afa1580156121d6573d6000803e3d6000fd5b505050506040513d601f19601f820116820180604052508101906121fa9190612b77565b90506000600190505b828160ff161161251c576000600560009054906101000a900473ffffffffffffffffffffffffffffffffffffffff1673ffffffffffffffffffffffffffffffffffffffff1663219267c4836040518263ffffffff1660e01b815260040161226a9190613061565b60206040518083038186803b15801561228257600080fd5b505afa158015612296573d6000803e3d6000fd5b505050506040513d601f19601f820116820180604052508101906122ba9190612bf2565b8b6122c59190613158565b9050808a6122d391906130d1565b99508273ffffffffffffffffffffffffffffffffffffffff166108fc829081150290604051600060405180830381858888f1935050505015801561231b573d6000803e3d6000fd5b506000600560009054906101000a900473ffffffffffffffffffffffffffffffffffffffff1673ffffffffffffffffffffffffffffffffffffffff166331a73991856040518263ffffffff1660e01b81526004016123799190612e59565b60206040518083038186803b15801561239157600080fd5b505afa1580156123a5573d6000803e3d6000fd5b505050506040513d601f19601f820116820180604052508101906123c99190612bf2565b9050600760009054906101000a900473ffffffffffffffffffffffffffffffffffffffff1673ffffffffffffffffffffffffffffffffffffffff1663d950e9f882846040518363ffffffff1660e01b8152600401612428929190612fd8565b600060405180830381600087803b15801561244257600080fd5b505af1158015612456573d6000803e3d6000fd5b50505050600560009054906101000a900473ffffffffffffffffffffffffffffffffffffffff1673ffffffffffffffffffffffffffffffffffffffff16634260b84c856040518263ffffffff1660e01b81526004016124b59190612e59565b60206040518083038186803b1580156124cd57600080fd5b505afa1580156124e1573d6000803e3d6000fd5b505050506040513d601f19601f820116820180604052508101906125059190612b77565b9350505080806125149061324d565b915050612203565b506000888c61252b91906131b2565b9050600660009054906101000a900473ffffffffffffffffffffffffffffffffffffffff1673ffffffffffffffffffffffffffffffffffffffff16632a31644233836040518363ffffffff1660e01b815260040161258a929190612e74565b600060405180830381600087803b1580156125a457600080fd5b505af11580156125b8573d6000803e3d6000fd5b505050506000600460009054906101000a900473ffffffffffffffffffffffffffffffffffffffff1673ffffffffffffffffffffffffffffffffffffffff166108fc839081150290604051600060405180830381858888f1935050505090508061268657600460009054906101000a900473ffffffffffffffffffffffffffffffffffffffff1673ffffffffffffffffffffffffffffffffffffffff166108fc839081150290604051600060405180830381858888f19350505050158015612684573d6000803e3d6000fd5b505b5050505050505050505050505050565b3373ffffffffffffffffffffffffffffffffffffffff16600360009054906101000a900473ffffffffffffffffffffffffffffffffffffffff1673ffffffffffffffffffffffffffffffffffffffff1614612726576040517f08c379a000000000000000000000000000000000000000000000000000000000815260040161271d90612f3d565b60405180910390fd5b80600660006101000a81548173ffffffffffffffffffffffffffffffffffffffff021916908373ffffffffffffffffffffffffffffffffffffffff160217905550600660009054906101000a900473ffffffffffffffffffffffffffffffffffffffff1673ffffffffffffffffffffffffffffffffffffffff166341e6f7246040518163ffffffff1660e01b8152600401600060405180830381600087803b1580156127d157600080fd5b505af11580156127e5573d6000803e3d6000fd5b5050505050565b3373ffffffffffffffffffffffffffffffffffffffff16600360009054906101000a900473ffffffffffffffffffffffffffffffffffffffff1673ffffffffffffffffffffffffffffffffffffffff161461287c576040517f08c379a000000000000000000000000000000000000000000000000000000000815260040161287390612f3d565b60405180910390fd5b80600560006101000a81548173ffffffffffffffffffffffffffffffffffffffff021916908373ffffffffffffffffffffffffffffffffffffffff160217905550600560009054906101000a900473ffffffffffffffffffffffffffffffffffffffff1673ffffffffffffffffffffffffffffffffffffffff166341e6f7246040518163ffffffff1660e01b8152600401600060405180830381600087803b15801561292757600080fd5b505af115801561293b573d6000803e3d6000fd5b5050505050565b61294b336102de565b1561298b576040517f08c379a000000000000000000000000000000000000000000000000000000000815260040161298290612f7d565b60405180910390fd5b600560009054906101000a900473ffffffffffffffffffffffffffffffffffffffff1673ffffffffffffffffffffffffffffffffffffffff16635d206d4d826040518263ffffffff1660e01b81526004016129e69190612fbd565b60206040518083038186803b1580156129fe57600080fd5b505afa158015612a12573d6000803e3d6000fd5b505050506040513d601f19601f82011682018060405250810190612a369190612ba0565b612a3f57600190505b600560009054906101000a900473ffffffffffffffffffffffffffffffffffffffff1673ffffffffffffffffffffffffffffffffffffffff16627dc6ab33836040518363ffffffff1660e01b8152600401612a9b929190612e74565b600060405180830381600087803b158015612ab557600080fd5b505af1158015612ac9573d6000803e3d6000fd5b5050505050565b600081359050612adf8161346c565b92915050565b600081519050612af48161346c565b92915050565b600081519050612b0981613483565b92915050565b600081359050612b1e8161349a565b92915050565b600081519050612b338161349a565b92915050565b600081359050612b48816134b1565b92915050565b600060208284031215612b6057600080fd5b6000612b6e84828501612ad0565b91505092915050565b600060208284031215612b8957600080fd5b6000612b9784828501612ae5565b91505092915050565b600060208284031215612bb257600080fd5b6000612bc084828501612afa565b91505092915050565b600060208284031215612bdb57600080fd5b6000612be984828501612b0f565b91505092915050565b600060208284031215612c0457600080fd5b6000612c1284828501612b24565b91505092915050565b60008060408385031215612c2e57600080fd5b6000612c3c85828601612b0f565b9250506020612c4d85828601612b0f565b9150509250929050565b600080600060608486031215612c6c57600080fd5b6000612c7a86828701612b0f565b9350506020612c8b86828701612b0f565b9250506040612c9c86828701612b39565b9150509250925092565b60008060408385031215612cb957600080fd5b6000612cc785828601612b39565b9250506020612cd885828601612b0f565b9150509250929050565b612ceb816131e6565b82525050565b6000612cfe6022836130c0565b9150612d09826132d5565b604082019050919050565b6000612d216014836130c0565b9150612d2c82613324565b602082019050919050565b6000612d446011836130c0565b9150612d4f8261334d565b602082019050919050565b6000612d67600d836130c0565b9150612d7282613376565b602082019050919050565b6000612d8a6014836130c0565b9150612d958261339f565b602082019050919050565b6000612dad600a836130c0565b9150612db8826133c8565b602082019050919050565b6000612dd06001836130c0565b9150612ddb826133f1565b602082019050919050565b6000612df36015836130c0565b9150612dfe8261341a565b602082019050919050565b6000612e16601f836130c0565b9150612e2182613443565b602082019050919050565b612e3581613224565b82525050565b612e448161323b565b82525050565b612e538161322e565b82525050565b6000602082019050612e6e6000830184612ce2565b92915050565b6000604082019050612e896000830185612ce2565b612e966020830184612e2c565b9392505050565b60006020820190508181036000830152612eb681612cf1565b9050919050565b60006020820190508181036000830152612ed681612d14565b9050919050565b60006020820190508181036000830152612ef681612d37565b9050919050565b60006020820190508181036000830152612f1681612d5a565b9050919050565b60006020820190508181036000830152612f3681612d7d565b9050919050565b60006020820190508181036000830152612f5681612da0565b9050919050565b60006020820190508181036000830152612f7681612dc3565b9050919050565b60006020820190508181036000830152612f9681612de6565b9050919050565b60006020820190508181036000830152612fb681612e09565b9050919050565b6000602082019050612fd26000830184612e2c565b92915050565b6000604082019050612fed6000830185612e2c565b612ffa6020830184612e2c565b9392505050565b60006040820190506130166000830185612e2c565b6130236020830184612e4a565b9392505050565b600060608201905061303f6000830186612e2c565b61304c6020830185612e4a565b6130596040830184612e2c565b949350505050565b60006020820190506130766000830184612e3b565b92915050565b60006020820190506130916000830184612e4a565b92915050565b60006040820190506130ac6000830185612e4a565b6130b96020830184612ce2565b9392505050565b600082825260208201905092915050565b60006130dc82613224565b91506130e783613224565b9250827fffffffffffffffffffffffffffffffffffffffffffffffffffffffffffffffff0382111561311c5761311b613277565b5b828201905092915050565b600061313282613224565b915061313d83613224565b92508261314d5761314c6132a6565b5b828204905092915050565b600061316382613224565b915061316e83613224565b9250817fffffffffffffffffffffffffffffffffffffffffffffffffffffffffffffffff04831182151516156131a7576131a6613277565b5b828202905092915050565b60006131bd82613224565b91506131c883613224565b9250828210156131db576131da613277565b5b828203905092915050565b60006131f182613204565b9050919050565b60008115159050919050565b600073ffffffffffffffffffffffffffffffffffffffff82169050919050565b6000819050919050565b600060ff82169050919050565b60006132468261322e565b9050919050565b60006132588261322e565b915060ff82141561326c5761326b613277565b5b600182019050919050565b7f4e487b7100000000000000000000000000000000000000000000000000000000600052601160045260246000fd5b7f4e487b7100000000000000000000000000000000000000000000000000000000600052601260045260246000fd5b7f416c6c2070726576696f7573206c6576656c73206d757374206265206163746960008201527f7665000000000000000000000000000000000000000000000000000000000000602082015250565b7f4c6576656c20616c726561647920616374697665000000000000000000000000600082015250565b7f496e76616c696420424e422076616c7565000000000000000000000000000000600082015250565b7f496e76616c6964206c6576656c00000000000000000000000000000000000000600082015250565b7f427579207461626c6573206f6e6c792044615050000000000000000000000000600082015250565b7f6f6e6c79206f776e657200000000000000000000000000000000000000000000600082015250565b7f3100000000000000000000000000000000000000000000000000000000000000600082015250565b7f43616e206e6f74206265206120636f6e74726163740000000000000000000000600082015250565b7f5265656e7472616e637947756172643a207265656e7472616e742063616c6c00600082015250565b613475816131e6565b811461348057600080fd5b50565b61348c816131f8565b811461349757600080fd5b50565b6134a381613224565b81146134ae57600080fd5b50565b6134ba8161322e565b81146134c557600080fd5b5056fea2646970667358221220d504a7eea98ae661330ea4c265b1df13e610b4fa840d2420bf517a91c27f5a0964736f6c63430008040033",
  "linkReferences": {},
  "deployedLinkReferences": {}
}