{
  "_format": "hh-sol-artifact-1",
  "contractName": "MatrixGame",
  "sourceName": "contracts/Payable/MatrixGame.sol",
  "abi": [
    {
      "inputs": [
        {
          "internalType": "address",
          "name": "key",
          "type": "address"
        },
        {
          "internalType": "address",
          "name": "UserControllerAddress",
          "type": "address"
        },
        {
          "internalType": "address",
          "name": "PullControllerAddress",
          "type": "address"
        },
        {
          "internalType": "address",
          "name": "TablesControllerAddress",
          "type": "address"
        },
        {
          "internalType": "address",
          "name": "PullReinvestAddress",
          "type": "address"
        }
      ],
      "stateMutability": "nonpayable",
      "type": "constructor"
    },
    {
      "inputs": [
        {
          "internalType": "uint256",
          "name": "userId",
          "type": "uint256"
        },
        {
          "internalType": "uint256",
          "name": "value",
          "type": "uint256"
        },
        {
          "internalType": "uint8",
          "name": "table",
          "type": "uint8"
        },
        {
          "internalType": "address",
          "name": "key",
          "type": "address"
        }
      ],
      "name": "BuyTableReInvest",
      "outputs": [],
      "stateMutability": "payable",
      "type": "function"
    },
    {
      "inputs": [
        {
          "internalType": "address",
          "name": "newAddress",
          "type": "address"
        },
        {
          "internalType": "address",
          "name": "key",
          "type": "address"
        }
      ],
      "name": "ChangePullStorage",
      "outputs": [],
      "stateMutability": "payable",
      "type": "function"
    },
    {
      "inputs": [
        {
          "internalType": "address",
          "name": "newAddress",
          "type": "address"
        },
        {
          "internalType": "address",
          "name": "key",
          "type": "address"
        }
      ],
      "name": "ChangeReinvestAddress",
      "outputs": [],
      "stateMutability": "payable",
      "type": "function"
    },
    {
      "inputs": [
        {
          "internalType": "address",
          "name": "newAddress",
          "type": "address"
        },
        {
          "internalType": "address",
          "name": "key",
          "type": "address"
        }
      ],
      "name": "ChangeTableStorage",
      "outputs": [],
      "stateMutability": "payable",
      "type": "function"
    },
    {
      "inputs": [
        {
          "internalType": "address",
          "name": "newAddress",
          "type": "address"
        },
        {
          "internalType": "address",
          "name": "key",
          "type": "address"
        }
      ],
      "name": "ChangeUserStorage",
      "outputs": [],
      "stateMutability": "payable",
      "type": "function"
    },
    {
      "inputs": [
        {
          "internalType": "uint8",
          "name": "table",
          "type": "uint8"
        },
        {
          "internalType": "uint256",
          "name": "refId",
          "type": "uint256"
        }
      ],
      "name": "buyTable",
      "outputs": [],
      "stateMutability": "payable",
      "type": "function"
    },
    {
      "inputs": [],
      "name": "getContractBalance",
      "outputs": [
        {
          "internalType": "uint256",
          "name": "",
          "type": "uint256"
        }
      ],
      "stateMutability": "view",
      "type": "function"
    },
    {
      "inputs": [],
      "name": "turnover",
      "outputs": [
        {
          "internalType": "uint256",
          "name": "",
          "type": "uint256"
        }
      ],
      "stateMutability": "view",
      "type": "function"
    },
    {
      "inputs": [],
      "name": "withDraw",
      "outputs": [],
      "stateMutability": "payable",
      "type": "function"
    },
    {
      "stateMutability": "payable",
      "type": "receive"
    }
  ],
  "bytecode": "0x60806040523480156200001157600080fd5b506040516200381238038062003812833981810160405281019062000037919062000213565b60016000819055506001600360008773ffffffffffffffffffffffffffffffffffffffff1673ffffffffffffffffffffffffffffffffffffffff16815260200190815260200160002060006101000a81548160ff0219169083151502179055508460026000600160ff16815260200190815260200160002060006101000a81548173ffffffffffffffffffffffffffffffffffffffff021916908373ffffffffffffffffffffffffffffffffffffffff16021790555083600560006101000a81548173ffffffffffffffffffffffffffffffffffffffff021916908373ffffffffffffffffffffffffffffffffffffffff16021790555081600760006101000a81548173ffffffffffffffffffffffffffffffffffffffff021916908373ffffffffffffffffffffffffffffffffffffffff16021790555082600660006101000a81548173ffffffffffffffffffffffffffffffffffffffff021916908373ffffffffffffffffffffffffffffffffffffffff16021790555080600460006101000a81548173ffffffffffffffffffffffffffffffffffffffff021916908373ffffffffffffffffffffffffffffffffffffffff1602179055505050505050620002e3565b6000815190506200020d81620002c9565b92915050565b600080600080600060a086880312156200022c57600080fd5b60006200023c88828901620001fc565b95505060206200024f88828901620001fc565b94505060406200026288828901620001fc565b93505060606200027588828901620001fc565b92505060806200028888828901620001fc565b9150509295509295909350565b6000620002a282620002a9565b9050919050565b600073ffffffffffffffffffffffffffffffffffffffff82169050919050565b620002d48162000295565b8114620002e057600080fd5b50565b61351f80620002f36000396000f3fe60806040526004361061008a5760003560e01c806348eddca01161005957806348eddca01461014b5780635500138b146101675780636f9fb98a14610183578063ad145d46146101ae578063f342fd15146101ca576100d9565b8063059d29bd146100de578063077000bb146100fa5780630fdb1c1014610116578063256540cd14610120576100d9565b366100d957610098336101e6565b6100d7576040517f08c379a00000000000000000000000000000000000000000000000000000000081526004016100ce90612e6e565b60405180910390fd5b005b600080fd5b6100f860048036038101906100f39190612b4c565b610200565b005b610114600480360381019061010f9190612ae9565b611264565b005b61011e612102565b005b34801561012c57600080fd5b5061013561225a565b6040516101429190612f2e565b60405180910390f35b61016560048036038101906101609190612a5b565b612260565b005b610181600480360381019061017c9190612a5b565b6123c1565b005b34801561018f57600080fd5b50610198612522565b6040516101a59190612f2e565b60405180910390f35b6101c860048036038101906101c39190612a5b565b61252a565b005b6101e460048036038101906101df9190612a5b565b61268b565b005b600080823b905060008163ffffffff161415915050919050565b60026000541415610246576040517f08c379a000000000000000000000000000000000000000000000000000000000815260040161023d90612f0e565b60405180910390fd5b6002600081905550610257336101e6565b15610297576040517f08c379a000000000000000000000000000000000000000000000000000000000815260040161028e90612eee565b60405180910390fd5b600760009054906101000a900473ffffffffffffffffffffffffffffffffffffffff1673ffffffffffffffffffffffffffffffffffffffff1663300e2797836040518263ffffffff1660e01b81526004016102f29190613009565b60206040518083038186803b15801561030a57600080fd5b505afa15801561031e573d6000803e3d6000fd5b505050506040513d601f19601f820116820180604052508101906103429190612a97565b610381576040517f08c379a000000000000000000000000000000000000000000000000000000000815260040161037890612ece565b60405180910390fd5b600760009054906101000a900473ffffffffffffffffffffffffffffffffffffffff1673ffffffffffffffffffffffffffffffffffffffff16638745dd78836040518263ffffffff1660e01b81526004016103dc9190613009565b60206040518083038186803b1580156103f457600080fd5b505afa158015610408573d6000803e3d6000fd5b505050506040513d601f19601f8201168201806040525081019061042c9190612a97565b61046b576040517f08c379a000000000000000000000000000000000000000000000000000000000815260040161046290612e8e565b60405180910390fd5b34600760009054906101000a900473ffffffffffffffffffffffffffffffffffffffff1673ffffffffffffffffffffffffffffffffffffffff1663e29e0411846040518263ffffffff1660e01b81526004016104c79190613009565b60206040518083038186803b1580156104df57600080fd5b505afa1580156104f3573d6000803e3d6000fd5b505050506040513d601f19601f820116820180604052508101906105179190612ac0565b14610557576040517f08c379a000000000000000000000000000000000000000000000000000000000815260040161054e90612e4e565b60405180910390fd5b600560009054906101000a900473ffffffffffffffffffffffffffffffffffffffff1673ffffffffffffffffffffffffffffffffffffffff1663b22abbfb336040518263ffffffff1660e01b81526004016105b29190612d45565b60206040518083038186803b1580156105ca57600080fd5b505afa1580156105de573d6000803e3d6000fd5b505050506040513d601f19601f820116820180604052508101906106029190612a97565b6106105761060f816127ec565b5b6000600560009054906101000a900473ffffffffffffffffffffffffffffffffffffffff1673ffffffffffffffffffffffffffffffffffffffff166331a73991336040518263ffffffff1660e01b815260040161066d9190612d45565b60206040518083038186803b15801561068557600080fd5b505afa158015610699573d6000803e3d6000fd5b505050506040513d601f19601f820116820180604052508101906106bd9190612ac0565b90506000600190505b8360ff168160ff1610156107d357600760009054906101000a900473ffffffffffffffffffffffffffffffffffffffff1673ffffffffffffffffffffffffffffffffffffffff1663b5a3c8b783836040518363ffffffff1660e01b8152600401610731929190612f80565b60206040518083038186803b15801561074957600080fd5b505afa15801561075d573d6000803e3d6000fd5b505050506040513d601f19601f820116820180604052508101906107819190612a97565b6107c0576040517f08c379a00000000000000000000000000000000000000000000000000000000081526004016107b790612e0e565b60405180910390fd5b80806107cb906131f6565b9150506106c6565b50600760009054906101000a900473ffffffffffffffffffffffffffffffffffffffff1673ffffffffffffffffffffffffffffffffffffffff1663b5a3c8b782856040518363ffffffff1660e01b8152600401610831929190612f80565b60206040518083038186803b15801561084957600080fd5b505afa15801561085d573d6000803e3d6000fd5b505050506040513d601f19601f820116820180604052508101906108819190612a97565b156108c1576040517f08c379a00000000000000000000000000000000000000000000000000000000081526004016108b890612e2e565b60405180910390fd5b600060026000600160ff16815260200190815260200160002060009054906101000a900473ffffffffffffffffffffffffffffffffffffffff169050346008600082825461090f919061307a565b92505081905550600060643461092591906130d0565b90506000603c60ff16826109399190613101565b90506000600760009054906101000a900473ffffffffffffffffffffffffffffffffffffffff1673ffffffffffffffffffffffffffffffffffffffff1663a798e9fd883388886040518563ffffffff1660e01b815260040161099e9493929190613024565b600060405180830381600087803b1580156109b857600080fd5b505af11580156109cc573d6000803e3d6000fd5b505050506000600760009054906101000a900473ffffffffffffffffffffffffffffffffffffffff1673ffffffffffffffffffffffffffffffffffffffff16635437af49896040518263ffffffff1660e01b8152600401610a2d9190613009565b60206040518083038186803b158015610a4557600080fd5b505afa158015610a59573d6000803e3d6000fd5b505050506040513d601f19601f82011682018060405250810190610a7d9190612a32565b90506000600560009054906101000a900473ffffffffffffffffffffffffffffffffffffffff1673ffffffffffffffffffffffffffffffffffffffff166331a73991836040518263ffffffff1660e01b8152600401610adc9190612d45565b60206040518083038186803b158015610af457600080fd5b505afa158015610b08573d6000803e3d6000fd5b505050506040513d601f19601f82011682018060405250810190610b2c9190612ac0565b90508383610b3a919061307a565b92508173ffffffffffffffffffffffffffffffffffffffff166108fc859081150290604051600060405180830381858888f19350505050158015610b82573d6000803e3d6000fd5b50600760009054906101000a900473ffffffffffffffffffffffffffffffffffffffff1673ffffffffffffffffffffffffffffffffffffffff166395d7d005828b878a6040518563ffffffff1660e01b8152600401610be49493929190612fa9565b600060405180830381600087803b158015610bfe57600080fd5b505af1158015610c12573d6000803e3d6000fd5b505050506000600560009054906101000a900473ffffffffffffffffffffffffffffffffffffffff1673ffffffffffffffffffffffffffffffffffffffff16634260b84c336040518263ffffffff1660e01b8152600401610c739190612d45565b60206040518083038186803b158015610c8b57600080fd5b505afa158015610c9f573d6000803e3d6000fd5b505050506040513d601f19601f82011682018060405250810190610cc39190612a32565b90506000600560009054906101000a900473ffffffffffffffffffffffffffffffffffffffff1673ffffffffffffffffffffffffffffffffffffffff166371f14bc56040518163ffffffff1660e01b815260040160206040518083038186803b158015610d2f57600080fd5b505afa158015610d43573d6000803e3d6000fd5b505050506040513d601f19601f82011682018060405250810190610d679190612ac0565b90506000600190505b818160ff16116110e1576000600560009054906101000a900473ffffffffffffffffffffffffffffffffffffffff1673ffffffffffffffffffffffffffffffffffffffff16638064c42c836040518263ffffffff1660e01b8152600401610dd79190612fee565b60206040518083038186803b158015610def57600080fd5b505afa158015610e03573d6000803e3d6000fd5b505050506040513d601f19601f82011682018060405250810190610e279190612ac0565b89610e329190613101565b90508087610e40919061307a565b96508373ffffffffffffffffffffffffffffffffffffffff166108fc829081150290604051600060405180830381858888f19350505050158015610e88573d6000803e3d6000fd5b506000600560009054906101000a900473ffffffffffffffffffffffffffffffffffffffff1673ffffffffffffffffffffffffffffffffffffffff166331a73991866040518263ffffffff1660e01b8152600401610ee69190612d45565b60206040518083038186803b158015610efe57600080fd5b505afa158015610f12573d6000803e3d6000fd5b505050506040513d601f19601f82011682018060405250810190610f369190612ac0565b9050600760009054906101000a900473ffffffffffffffffffffffffffffffffffffffff1673ffffffffffffffffffffffffffffffffffffffff1663cebd635182848e6040518463ffffffff1660e01b8152600401610f9793929190612f49565b600060405180830381600087803b158015610fb157600080fd5b505af1158015610fc5573d6000803e3d6000fd5b50505050600160009054906101000a900473ffffffffffffffffffffffffffffffffffffffff1673ffffffffffffffffffffffffffffffffffffffff168573ffffffffffffffffffffffffffffffffffffffff16146110cc57600560009054906101000a900473ffffffffffffffffffffffffffffffffffffffff1673ffffffffffffffffffffffffffffffffffffffff16634260b84c866040518263ffffffff1660e01b81526004016110799190612d45565b60206040518083038186803b15801561109157600080fd5b505afa1580156110a5573d6000803e3d6000fd5b505050506040513d601f19601f820116820180604052508101906110c99190612a32565b94505b505080806110d9906131f6565b915050610d70565b50600085346110f0919061315b565b9050600660009054906101000a900473ffffffffffffffffffffffffffffffffffffffff1673ffffffffffffffffffffffffffffffffffffffff166388124e5633838c6040518463ffffffff1660e01b815260040161115193929190612d97565b600060405180830381600087803b15801561116b57600080fd5b505af115801561117f573d6000803e3d6000fd5b505050506000600460009054906101000a900473ffffffffffffffffffffffffffffffffffffffff1673ffffffffffffffffffffffffffffffffffffffff166108fc839081150290604051600060405180830381858888f1935050505090508061124d57600460009054906101000a900473ffffffffffffffffffffffffffffffffffffffff1673ffffffffffffffffffffffffffffffffffffffff166108fc839081150290604051600060405180830381858888f1935050505015801561124b573d6000803e3d6000fd5b505b505050505050505050505060016000819055505050565b600360008273ffffffffffffffffffffffffffffffffffffffff1673ffffffffffffffffffffffffffffffffffffffff16815260200190815260200160002060009054906101000a900460ff166112f0576040517f08c379a00000000000000000000000000000000000000000000000000000000081526004016112e790612dce565b60405180910390fd5b600760009054906101000a900473ffffffffffffffffffffffffffffffffffffffff1673ffffffffffffffffffffffffffffffffffffffff1663300e2797836040518263ffffffff1660e01b815260040161134b9190613009565b60206040518083038186803b15801561136357600080fd5b505afa158015611377573d6000803e3d6000fd5b505050506040513d601f19601f8201168201806040525081019061139b9190612a97565b6113da576040517f08c379a00000000000000000000000000000000000000000000000000000000081526004016113d190612ece565b60405180910390fd5b600760009054906101000a900473ffffffffffffffffffffffffffffffffffffffff1673ffffffffffffffffffffffffffffffffffffffff16638745dd78836040518263ffffffff1660e01b81526004016114359190613009565b60206040518083038186803b15801561144d57600080fd5b505afa158015611461573d6000803e3d6000fd5b505050506040513d601f19601f820116820180604052508101906114859190612a97565b6114c4576040517f08c379a00000000000000000000000000000000000000000000000000000000081526004016114bb90612e8e565b60405180910390fd5b82600760009054906101000a900473ffffffffffffffffffffffffffffffffffffffff1673ffffffffffffffffffffffffffffffffffffffff1663e29e0411846040518263ffffffff1660e01b81526004016115209190613009565b60206040518083038186803b15801561153857600080fd5b505afa15801561154c573d6000803e3d6000fd5b505050506040513d601f19601f820116820180604052508101906115709190612ac0565b146115b0576040517f08c379a00000000000000000000000000000000000000000000000000000000081526004016115a790612e4e565b60405180910390fd5b82600860008282546115c2919061307a565b9250508190555060006064846115d891906130d0565b9050600080600560009054906101000a900473ffffffffffffffffffffffffffffffffffffffff1673ffffffffffffffffffffffffffffffffffffffff166357766ce2886040518263ffffffff1660e01b81526004016116389190612f2e565b60206040518083038186803b15801561165057600080fd5b505afa158015611664573d6000803e3d6000fd5b505050506040513d601f19601f820116820180604052508101906116889190612a32565b9050600760009054906101000a900473ffffffffffffffffffffffffffffffffffffffff1673ffffffffffffffffffffffffffffffffffffffff1663a798e9fd86838a60026000600160ff16815260200190815260200160002060009054906101000a900473ffffffffffffffffffffffffffffffffffffffff166040518563ffffffff1660e01b81526004016117229493929190613024565b600060405180830381600087803b15801561173c57600080fd5b505af1158015611750573d6000803e3d6000fd5b505050506000603c60ff16846117669190613101565b90508083611774919061307a565b92506000600760009054906101000a900473ffffffffffffffffffffffffffffffffffffffff1673ffffffffffffffffffffffffffffffffffffffff16635437af49886040518263ffffffff1660e01b81526004016117d39190613009565b60206040518083038186803b1580156117eb57600080fd5b505afa1580156117ff573d6000803e3d6000fd5b505050506040513d601f19601f820116820180604052508101906118239190612a32565b90506000600560009054906101000a900473ffffffffffffffffffffffffffffffffffffffff1673ffffffffffffffffffffffffffffffffffffffff166331a73991836040518263ffffffff1660e01b81526004016118829190612d45565b60206040518083038186803b15801561189a57600080fd5b505afa1580156118ae573d6000803e3d6000fd5b505050506040513d601f19601f820116820180604052508101906118d29190612ac0565b905060008273ffffffffffffffffffffffffffffffffffffffff166108fc859081150290604051600060405180830381858888f19350505050905080156119e257600760009054906101000a900473ffffffffffffffffffffffffffffffffffffffff1673ffffffffffffffffffffffffffffffffffffffff166395d7d005838b8760026000600160ff16815260200190815260200160002060009054906101000a900473ffffffffffffffffffffffffffffffffffffffff166040518563ffffffff1660e01b81526004016119ab9493929190612fa9565b600060405180830381600087803b1580156119c557600080fd5b505af11580156119d9573d6000803e3d6000fd5b50505050611a4c565b600160009054906101000a900473ffffffffffffffffffffffffffffffffffffffff1673ffffffffffffffffffffffffffffffffffffffff166108fc859081150290604051600060405180830381858888f19350505050158015611a4a573d6000803e3d6000fd5b505b6000600560009054906101000a900473ffffffffffffffffffffffffffffffffffffffff1673ffffffffffffffffffffffffffffffffffffffff166371f14bc56040518163ffffffff1660e01b815260040160206040518083038186803b158015611ab657600080fd5b505afa158015611aca573d6000803e3d6000fd5b505050506040513d601f19601f82011682018060405250810190611aee9190612ac0565b90506000600560009054906101000a900473ffffffffffffffffffffffffffffffffffffffff1673ffffffffffffffffffffffffffffffffffffffff16634260b84c886040518263ffffffff1660e01b8152600401611b4d9190612d45565b60206040518083038186803b158015611b6557600080fd5b505afa158015611b79573d6000803e3d6000fd5b505050506040513d601f19601f82011682018060405250810190611b9d9190612a32565b90506000600190505b828160ff1611611f4e576000600560009054906101000a900473ffffffffffffffffffffffffffffffffffffffff1673ffffffffffffffffffffffffffffffffffffffff16638064c42c836040518263ffffffff1660e01b8152600401611c0d9190612fee565b60206040518083038186803b158015611c2557600080fd5b505afa158015611c39573d6000803e3d6000fd5b505050506040513d601f19601f82011682018060405250810190611c5d9190612ac0565b8b611c689190613101565b9050808a611c76919061307a565b99508273ffffffffffffffffffffffffffffffffffffffff166108fc829081150290604051600060405180830381858888f19350505050158015611cbe573d6000803e3d6000fd5b506000600560009054906101000a900473ffffffffffffffffffffffffffffffffffffffff1673ffffffffffffffffffffffffffffffffffffffff166331a73991856040518263ffffffff1660e01b8152600401611d1c9190612d45565b60206040518083038186803b158015611d3457600080fd5b505afa158015611d48573d6000803e3d6000fd5b505050506040513d601f19601f82011682018060405250810190611d6c9190612ac0565b9050600760009054906101000a900473ffffffffffffffffffffffffffffffffffffffff1673ffffffffffffffffffffffffffffffffffffffff1663cebd6351828460026000600160ff16815260200190815260200160002060009054906101000a900473ffffffffffffffffffffffffffffffffffffffff166040518463ffffffff1660e01b8152600401611e0493929190612f49565b600060405180830381600087803b158015611e1e57600080fd5b505af1158015611e32573d6000803e3d6000fd5b50505050600160009054906101000a900473ffffffffffffffffffffffffffffffffffffffff1673ffffffffffffffffffffffffffffffffffffffff168473ffffffffffffffffffffffffffffffffffffffff1614611f3957600560009054906101000a900473ffffffffffffffffffffffffffffffffffffffff1673ffffffffffffffffffffffffffffffffffffffff16634260b84c856040518263ffffffff1660e01b8152600401611ee69190612d45565b60206040518083038186803b158015611efe57600080fd5b505afa158015611f12573d6000803e3d6000fd5b505050506040513d601f19601f82011682018060405250810190611f369190612a32565b93505b50508080611f46906131f6565b915050611ba6565b506000888d611f5d919061315b565b9050600660009054906101000a900473ffffffffffffffffffffffffffffffffffffffff1673ffffffffffffffffffffffffffffffffffffffff166388124e56338360026000600160ff16815260200190815260200160002060009054906101000a900473ffffffffffffffffffffffffffffffffffffffff166040518463ffffffff1660e01b8152600401611ff593929190612d97565b600060405180830381600087803b15801561200f57600080fd5b505af1158015612023573d6000803e3d6000fd5b505050506000600460009054906101000a900473ffffffffffffffffffffffffffffffffffffffff1673ffffffffffffffffffffffffffffffffffffffff166108fc839081150290604051600060405180830381858888f193505050509050806120f157600460009054906101000a900473ffffffffffffffffffffffffffffffffffffffff1673ffffffffffffffffffffffffffffffffffffffff166108fc839081150290604051600060405180830381858888f193505050501580156120ef573d6000803e3d6000fd5b505b505050505050505050505050505050565b60026000541415612148576040517f08c379a000000000000000000000000000000000000000000000000000000000815260040161213f90612f0e565b60405180910390fd5b60026000819055503373ffffffffffffffffffffffffffffffffffffffff16600160009054906101000a900473ffffffffffffffffffffffffffffffffffffffff1673ffffffffffffffffffffffffffffffffffffffff16146121e0576040517f08c379a00000000000000000000000000000000000000000000000000000000081526004016121d790612eae565b60405180910390fd5b600160009054906101000a900473ffffffffffffffffffffffffffffffffffffffff1673ffffffffffffffffffffffffffffffffffffffff166108fc612224612522565b9081150290604051600060405180830381858888f1935050505015801561224f573d6000803e3d6000fd5b506001600081905550565b60085481565b3373ffffffffffffffffffffffffffffffffffffffff16600160009054906101000a900473ffffffffffffffffffffffffffffffffffffffff1673ffffffffffffffffffffffffffffffffffffffff16146122f0576040517f08c379a00000000000000000000000000000000000000000000000000000000081526004016122e790612eae565b60405180910390fd5b600360008273ffffffffffffffffffffffffffffffffffffffff1673ffffffffffffffffffffffffffffffffffffffff16815260200190815260200160002060009054906101000a900460ff1661237c576040517f08c379a000000000000000000000000000000000000000000000000000000000815260040161237390612dee565b60405180910390fd5b81600460006101000a81548173ffffffffffffffffffffffffffffffffffffffff021916908373ffffffffffffffffffffffffffffffffffffffff1602179055505050565b3373ffffffffffffffffffffffffffffffffffffffff16600160009054906101000a900473ffffffffffffffffffffffffffffffffffffffff1673ffffffffffffffffffffffffffffffffffffffff1614612451576040517f08c379a000000000000000000000000000000000000000000000000000000000815260040161244890612eae565b60405180910390fd5b600360008273ffffffffffffffffffffffffffffffffffffffff1673ffffffffffffffffffffffffffffffffffffffff16815260200190815260200160002060009054906101000a900460ff166124dd576040517f08c379a00000000000000000000000000000000000000000000000000000000081526004016124d490612dee565b60405180910390fd5b81600660006101000a81548173ffffffffffffffffffffffffffffffffffffffff021916908373ffffffffffffffffffffffffffffffffffffffff1602179055505050565b600047905090565b3373ffffffffffffffffffffffffffffffffffffffff16600160009054906101000a900473ffffffffffffffffffffffffffffffffffffffff1673ffffffffffffffffffffffffffffffffffffffff16146125ba576040517f08c379a00000000000000000000000000000000000000000000000000000000081526004016125b190612eae565b60405180910390fd5b600360008273ffffffffffffffffffffffffffffffffffffffff1673ffffffffffffffffffffffffffffffffffffffff16815260200190815260200160002060009054906101000a900460ff16612646576040517f08c379a000000000000000000000000000000000000000000000000000000000815260040161263d90612dee565b60405180910390fd5b81600560006101000a81548173ffffffffffffffffffffffffffffffffffffffff021916908373ffffffffffffffffffffffffffffffffffffffff1602179055505050565b3373ffffffffffffffffffffffffffffffffffffffff16600160009054906101000a900473ffffffffffffffffffffffffffffffffffffffff1673ffffffffffffffffffffffffffffffffffffffff161461271b576040517f08c379a000000000000000000000000000000000000000000000000000000000815260040161271290612eae565b60405180910390fd5b600360008273ffffffffffffffffffffffffffffffffffffffff1673ffffffffffffffffffffffffffffffffffffffff16815260200190815260200160002060009054906101000a900460ff166127a7576040517f08c379a000000000000000000000000000000000000000000000000000000000815260040161279e90612dee565b60405180910390fd5b81600760006101000a81548173ffffffffffffffffffffffffffffffffffffffff021916908373ffffffffffffffffffffffffffffffffffffffff1602179055505050565b6127f5336101e6565b15612835576040517f08c379a000000000000000000000000000000000000000000000000000000000815260040161282c90612eee565b60405180910390fd5b600560009054906101000a900473ffffffffffffffffffffffffffffffffffffffff1673ffffffffffffffffffffffffffffffffffffffff16635d206d4d826040518263ffffffff1660e01b81526004016128909190612f2e565b60206040518083038186803b1580156128a857600080fd5b505afa1580156128bc573d6000803e3d6000fd5b505050506040513d601f19601f820116820180604052508101906128e09190612a97565b6128e957600190505b600560009054906101000a900473ffffffffffffffffffffffffffffffffffffffff1673ffffffffffffffffffffffffffffffffffffffff1663cc0bec1460026000600160ff16815260200190815260200160002060009054906101000a900473ffffffffffffffffffffffffffffffffffffffff1633846040518463ffffffff1660e01b815260040161297f93929190612d60565b600060405180830381600087803b15801561299957600080fd5b505af11580156129ad573d6000803e3d6000fd5b5050505050565b6000813590506129c38161348d565b92915050565b6000815190506129d88161348d565b92915050565b6000815190506129ed816134a4565b92915050565b600081359050612a02816134bb565b92915050565b600081519050612a17816134bb565b92915050565b600081359050612a2c816134d2565b92915050565b600060208284031215612a4457600080fd5b6000612a52848285016129c9565b91505092915050565b60008060408385031215612a6e57600080fd5b6000612a7c858286016129b4565b9250506020612a8d858286016129b4565b9150509250929050565b600060208284031215612aa957600080fd5b6000612ab7848285016129de565b91505092915050565b600060208284031215612ad257600080fd5b6000612ae084828501612a08565b91505092915050565b60008060008060808587031215612aff57600080fd5b6000612b0d878288016129f3565b9450506020612b1e878288016129f3565b9350506040612b2f87828801612a1d565b9250506060612b40878288016129b4565b91505092959194509250565b60008060408385031215612b5f57600080fd5b6000612b6d85828601612a1d565b9250506020612b7e858286016129f3565b9150509250929050565b612b918161318f565b82525050565b6000612ba4600a83613069565b9150612baf8261327e565b602082019050919050565b6000612bc7600283613069565b9150612bd2826132a7565b602082019050919050565b6000612bea602283613069565b9150612bf5826132d0565b604082019050919050565b6000612c0d601483613069565b9150612c188261331f565b602082019050919050565b6000612c30601183613069565b9150612c3b82613348565b602082019050919050565b6000612c53602183613069565b9150612c5e82613371565b604082019050919050565b6000612c76600d83613069565b9150612c81826133c0565b602082019050919050565b6000612c99600a83613069565b9150612ca4826133e9565b602082019050919050565b6000612cbc601d83613069565b9150612cc782613412565b602082019050919050565b6000612cdf601583613069565b9150612cea8261343b565b602082019050919050565b6000612d02601f83613069565b9150612d0d82613464565b602082019050919050565b612d21816131cd565b82525050565b612d30816131e4565b82525050565b612d3f816131d7565b82525050565b6000602082019050612d5a6000830184612b88565b92915050565b6000606082019050612d756000830186612b88565b612d826020830185612b88565b612d8f6040830184612d18565b949350505050565b6000606082019050612dac6000830186612b88565b612db96020830185612d18565b612dc66040830184612b88565b949350505050565b60006020820190508181036000830152612de781612b97565b9050919050565b60006020820190508181036000830152612e0781612bba565b9050919050565b60006020820190508181036000830152612e2781612bdd565b9050919050565b60006020820190508181036000830152612e4781612c00565b9050919050565b60006020820190508181036000830152612e6781612c23565b9050919050565b60006020820190508181036000830152612e8781612c46565b9050919050565b60006020820190508181036000830152612ea781612c69565b9050919050565b60006020820190508181036000830152612ec781612c8c565b9050919050565b60006020820190508181036000830152612ee781612caf565b9050919050565b60006020820190508181036000830152612f0781612cd2565b9050919050565b60006020820190508181036000830152612f2781612cf5565b9050919050565b6000602082019050612f436000830184612d18565b92915050565b6000606082019050612f5e6000830186612d18565b612f6b6020830185612d18565b612f786040830184612b88565b949350505050565b6000604082019050612f956000830185612d18565b612fa26020830184612d36565b9392505050565b6000608082019050612fbe6000830187612d18565b612fcb6020830186612d36565b612fd86040830185612d18565b612fe56060830184612b88565b95945050505050565b60006020820190506130036000830184612d27565b92915050565b600060208201905061301e6000830184612d36565b92915050565b60006080820190506130396000830187612d36565b6130466020830186612b88565b6130536040830185612d18565b6130606060830184612b88565b95945050505050565b600082825260208201905092915050565b6000613085826131cd565b9150613090836131cd565b9250827fffffffffffffffffffffffffffffffffffffffffffffffffffffffffffffffff038211156130c5576130c4613220565b5b828201905092915050565b60006130db826131cd565b91506130e6836131cd565b9250826130f6576130f561324f565b5b828204905092915050565b600061310c826131cd565b9150613117836131cd565b9250817fffffffffffffffffffffffffffffffffffffffffffffffffffffffffffffffff04831182151516156131505761314f613220565b5b828202905092915050565b6000613166826131cd565b9150613171836131cd565b92508282101561318457613183613220565b5b828203905092915050565b600061319a826131ad565b9050919050565b60008115159050919050565b600073ffffffffffffffffffffffffffffffffffffffff82169050919050565b6000819050919050565b600060ff82169050919050565b60006131ef826131d7565b9050919050565b6000613201826131d7565b915060ff82141561321557613214613220565b5b600182019050919050565b7f4e487b7100000000000000000000000000000000000000000000000000000000600052601160045260246000fd5b7f4e487b7100000000000000000000000000000000000000000000000000000000600052601260045260246000fd5b7f4e6f206163637365737300000000000000000000000000000000000000000000600082015250565b7f4e4f000000000000000000000000000000000000000000000000000000000000600082015250565b7f416c6c2070726576696f7573206c6576656c73206d757374206265206163746960008201527f7665000000000000000000000000000000000000000000000000000000000000602082015250565b7f4c6576656c20616c726561647920616374697665000000000000000000000000600082015250565b7f496e76616c696420424e422076616c7565000000000000000000000000000000600082015250565b7f5461626c657320617265206e6f7420707572636861736564206469726563746c60008201527f7900000000000000000000000000000000000000000000000000000000000000602082015250565b7f496e76616c6964206c6576656c00000000000000000000000000000000000000600082015250565b7f6f6e6c79206f776e657200000000000000000000000000000000000000000000600082015250565b7f5461626c65206973206e6f74206f70656e20746f207075726368617365000000600082015250565b7f43616e206e6f74206265206120636f6e74726163740000000000000000000000600082015250565b7f5265656e7472616e637947756172643a207265656e7472616e742063616c6c00600082015250565b6134968161318f565b81146134a157600080fd5b50565b6134ad816131a1565b81146134b857600080fd5b50565b6134c4816131cd565b81146134cf57600080fd5b50565b6134db816131d7565b81146134e657600080fd5b5056fea264697066735822122020ee5962965e1dbb8fdc6931ff0fa39eed84606ae8c2ee11c2f9119b237fc7eb64736f6c63430008040033",
  "linkReferences": {},
  "deployedLinkReferences": {}
}