{
  "_format": "hh-sol-artifact-1",
  "contractName": "MatrixGame",
  "sourceName": "contracts/Payable/MatrixGame.sol",
  "abi": [
    {
      "inputs": [
        {
          "internalType": "address",
          "name": "key",
          "type": "address"
        },
        {
          "internalType": "address",
          "name": "UserControllerAddress",
          "type": "address"
        },
        {
          "internalType": "address",
          "name": "PullControllerAddress",
          "type": "address"
        },
        {
          "internalType": "address",
          "name": "TablesControllerAddress",
          "type": "address"
        },
        {
          "internalType": "address",
          "name": "PullReinvestAddress",
          "type": "address"
        }
      ],
      "stateMutability": "nonpayable",
      "type": "constructor"
    },
    {
      "inputs": [
        {
          "internalType": "uint256",
          "name": "userId",
          "type": "uint256"
        },
        {
          "internalType": "uint256",
          "name": "value",
          "type": "uint256"
        },
        {
          "internalType": "uint8",
          "name": "table",
          "type": "uint8"
        },
        {
          "internalType": "address",
          "name": "key",
          "type": "address"
        }
      ],
      "name": "BuyTableReInvest",
      "outputs": [],
      "stateMutability": "payable",
      "type": "function"
    },
    {
      "inputs": [
        {
          "internalType": "address",
          "name": "newAddress",
          "type": "address"
        },
        {
          "internalType": "address",
          "name": "key",
          "type": "address"
        }
      ],
      "name": "ChangePullStorage",
      "outputs": [],
      "stateMutability": "payable",
      "type": "function"
    },
    {
      "inputs": [
        {
          "internalType": "address",
          "name": "newAddress",
          "type": "address"
        },
        {
          "internalType": "address",
          "name": "key",
          "type": "address"
        }
      ],
      "name": "ChangeReinvestAddress",
      "outputs": [],
      "stateMutability": "payable",
      "type": "function"
    },
    {
      "inputs": [
        {
          "internalType": "address",
          "name": "newAddress",
          "type": "address"
        },
        {
          "internalType": "address",
          "name": "key",
          "type": "address"
        }
      ],
      "name": "ChangeTableStorage",
      "outputs": [],
      "stateMutability": "payable",
      "type": "function"
    },
    {
      "inputs": [
        {
          "internalType": "address",
          "name": "newAddress",
          "type": "address"
        },
        {
          "internalType": "address",
          "name": "key",
          "type": "address"
        }
      ],
      "name": "ChangeUserStorage",
      "outputs": [],
      "stateMutability": "payable",
      "type": "function"
    },
    {
      "inputs": [
        {
          "internalType": "uint8",
          "name": "table",
          "type": "uint8"
        },
        {
          "internalType": "uint256",
          "name": "refId",
          "type": "uint256"
        }
      ],
      "name": "buyTable",
      "outputs": [],
      "stateMutability": "payable",
      "type": "function"
    },
    {
      "inputs": [],
      "name": "getContractBalance",
      "outputs": [
        {
          "internalType": "uint256",
          "name": "",
          "type": "uint256"
        }
      ],
      "stateMutability": "view",
      "type": "function"
    },
    {
      "inputs": [
        {
          "internalType": "uint256",
          "name": "refId",
          "type": "uint256"
        }
      ],
      "name": "registerWithReferrer",
      "outputs": [],
      "stateMutability": "payable",
      "type": "function"
    },
    {
      "inputs": [],
      "name": "turnover",
      "outputs": [
        {
          "internalType": "uint256",
          "name": "",
          "type": "uint256"
        }
      ],
      "stateMutability": "view",
      "type": "function"
    },
    {
      "inputs": [],
      "name": "withDraw",
      "outputs": [],
      "stateMutability": "payable",
      "type": "function"
    },
    {
      "stateMutability": "payable",
      "type": "receive"
    }
  ],
  "bytecode": "0x60806040523480156200001157600080fd5b506040516200361038038062003610833981810160405281019062000037919062000213565b60016000819055506001600360008773ffffffffffffffffffffffffffffffffffffffff1673ffffffffffffffffffffffffffffffffffffffff16815260200190815260200160002060006101000a81548160ff0219169083151502179055508460026000600160ff16815260200190815260200160002060006101000a81548173ffffffffffffffffffffffffffffffffffffffff021916908373ffffffffffffffffffffffffffffffffffffffff16021790555083600560006101000a81548173ffffffffffffffffffffffffffffffffffffffff021916908373ffffffffffffffffffffffffffffffffffffffff16021790555081600760006101000a81548173ffffffffffffffffffffffffffffffffffffffff021916908373ffffffffffffffffffffffffffffffffffffffff16021790555082600660006101000a81548173ffffffffffffffffffffffffffffffffffffffff021916908373ffffffffffffffffffffffffffffffffffffffff16021790555080600460006101000a81548173ffffffffffffffffffffffffffffffffffffffff021916908373ffffffffffffffffffffffffffffffffffffffff1602179055505050505050620002e3565b6000815190506200020d81620002c9565b92915050565b600080600080600060a086880312156200022c57600080fd5b60006200023c88828901620001fc565b95505060206200024f88828901620001fc565b94505060406200026288828901620001fc565b93505060606200027588828901620001fc565b92505060806200028888828901620001fc565b9150509295509295909350565b6000620002a282620002a9565b9050919050565b600073ffffffffffffffffffffffffffffffffffffffff82169050919050565b620002d48162000295565b8114620002e057600080fd5b50565b61331d80620002f36000396000f3fe6080604052600436106100955760003560e01c80635500138b116100595780635500138b146101725780636f9fb98a1461018e578063ad145d46146101b9578063d9633e7e146101d5578063f342fd15146101f1576100e4565b8063059d29bd146100e9578063077000bb146101055780630fdb1c1014610121578063256540cd1461012b57806348eddca014610156576100e4565b366100e4576100a33361020d565b6100e2576040517f08c379a00000000000000000000000000000000000000000000000000000000081526004016100d990612cc3565b60405180910390fd5b005b600080fd5b61010360048036038101906100fe91906129c4565b610227565b005b61011f600480360381019061011a9190612961565b61119f565b005b610129611f51565b005b34801561013757600080fd5b506101406120a9565b60405161014d9190612d63565b60405180910390f35b610170600480360381019061016b91906128aa565b6120af565b005b61018c600480360381019061018791906128aa565b612210565b005b34801561019a57600080fd5b506101a3612371565b6040516101b09190612d63565b60405180910390f35b6101d360048036038101906101ce91906128aa565b612379565b005b6101ef60048036038101906101ea919061290f565b6124da565b005b61020b600480360381019061020691906128aa565b6126a2565b005b600080823b905060008163ffffffff161415915050919050565b6002600054141561026d576040517f08c379a000000000000000000000000000000000000000000000000000000000815260040161026490612d43565b60405180910390fd5b600260008190555061027e3361020d565b156102be576040517f08c379a00000000000000000000000000000000000000000000000000000000081526004016102b590612d23565b60405180910390fd5b600760009054906101000a900473ffffffffffffffffffffffffffffffffffffffff1673ffffffffffffffffffffffffffffffffffffffff16638745dd78836040518263ffffffff1660e01b81526004016103199190612e3e565b60206040518083038186803b15801561033157600080fd5b505afa158015610345573d6000803e3d6000fd5b505050506040513d601f19601f8201168201806040525081019061036991906128e6565b6103a8576040517f08c379a000000000000000000000000000000000000000000000000000000000815260040161039f90612ce3565b60405180910390fd5b34600760009054906101000a900473ffffffffffffffffffffffffffffffffffffffff1673ffffffffffffffffffffffffffffffffffffffff1663e29e0411846040518263ffffffff1660e01b81526004016104049190612e3e565b60206040518083038186803b15801561041c57600080fd5b505afa158015610430573d6000803e3d6000fd5b505050506040513d601f19601f820116820180604052508101906104549190612938565b14610494576040517f08c379a000000000000000000000000000000000000000000000000000000000815260040161048b90612ca3565b60405180910390fd5b600560009054906101000a900473ffffffffffffffffffffffffffffffffffffffff1673ffffffffffffffffffffffffffffffffffffffff1663b22abbfb336040518263ffffffff1660e01b81526004016104ef9190612b9a565b60206040518083038186803b15801561050757600080fd5b505afa15801561051b573d6000803e3d6000fd5b505050506040513d601f19601f8201168201806040525081019061053f91906128e6565b61054d5761054c816124da565b5b6000600560009054906101000a900473ffffffffffffffffffffffffffffffffffffffff1673ffffffffffffffffffffffffffffffffffffffff166331a73991336040518263ffffffff1660e01b81526004016105aa9190612b9a565b60206040518083038186803b1580156105c257600080fd5b505afa1580156105d6573d6000803e3d6000fd5b505050506040513d601f19601f820116820180604052508101906105fa9190612938565b90506000600190505b8360ff168160ff16101561071057600760009054906101000a900473ffffffffffffffffffffffffffffffffffffffff1673ffffffffffffffffffffffffffffffffffffffff1663b5a3c8b783836040518363ffffffff1660e01b815260040161066e929190612db5565b60206040518083038186803b15801561068657600080fd5b505afa15801561069a573d6000803e3d6000fd5b505050506040513d601f19601f820116820180604052508101906106be91906128e6565b6106fd576040517f08c379a00000000000000000000000000000000000000000000000000000000081526004016106f490612c63565b60405180910390fd5b80806107089061301d565b915050610603565b50600760009054906101000a900473ffffffffffffffffffffffffffffffffffffffff1673ffffffffffffffffffffffffffffffffffffffff1663b5a3c8b782856040518363ffffffff1660e01b815260040161076e929190612db5565b60206040518083038186803b15801561078657600080fd5b505afa15801561079a573d6000803e3d6000fd5b505050506040513d601f19601f820116820180604052508101906107be91906128e6565b156107fe576040517f08c379a00000000000000000000000000000000000000000000000000000000081526004016107f590612c83565b60405180910390fd5b600060026000600160ff16815260200190815260200160002060009054906101000a900473ffffffffffffffffffffffffffffffffffffffff169050346008600082825461084c9190612ea1565b9250508190555060006064346108629190612ef7565b90506000603c60ff16826108769190612f28565b90506000600760009054906101000a900473ffffffffffffffffffffffffffffffffffffffff1673ffffffffffffffffffffffffffffffffffffffff16639f9e2ce48833876040518463ffffffff1660e01b81526004016108d993929190612e59565b600060405180830381600087803b1580156108f357600080fd5b505af1158015610907573d6000803e3d6000fd5b505050506000600760009054906101000a900473ffffffffffffffffffffffffffffffffffffffff1673ffffffffffffffffffffffffffffffffffffffff16635437af49896040518263ffffffff1660e01b81526004016109689190612e3e565b60206040518083038186803b15801561098057600080fd5b505afa158015610994573d6000803e3d6000fd5b505050506040513d601f19601f820116820180604052508101906109b89190612881565b90506000600560009054906101000a900473ffffffffffffffffffffffffffffffffffffffff1673ffffffffffffffffffffffffffffffffffffffff166331a73991836040518263ffffffff1660e01b8152600401610a179190612b9a565b60206040518083038186803b158015610a2f57600080fd5b505afa158015610a43573d6000803e3d6000fd5b505050506040513d601f19601f82011682018060405250810190610a679190612938565b90508383610a759190612ea1565b92508173ffffffffffffffffffffffffffffffffffffffff166108fc859081150290604051600060405180830381858888f19350505050158015610abd573d6000803e3d6000fd5b50600760009054906101000a900473ffffffffffffffffffffffffffffffffffffffff1673ffffffffffffffffffffffffffffffffffffffff166395d7d005828b878a6040518563ffffffff1660e01b8152600401610b1f9493929190612dde565b600060405180830381600087803b158015610b3957600080fd5b505af1158015610b4d573d6000803e3d6000fd5b505050506000600560009054906101000a900473ffffffffffffffffffffffffffffffffffffffff1673ffffffffffffffffffffffffffffffffffffffff16634260b84c336040518263ffffffff1660e01b8152600401610bae9190612b9a565b60206040518083038186803b158015610bc657600080fd5b505afa158015610bda573d6000803e3d6000fd5b505050506040513d601f19601f82011682018060405250810190610bfe9190612881565b90506000600560009054906101000a900473ffffffffffffffffffffffffffffffffffffffff1673ffffffffffffffffffffffffffffffffffffffff166371f14bc56040518163ffffffff1660e01b815260040160206040518083038186803b158015610c6a57600080fd5b505afa158015610c7e573d6000803e3d6000fd5b505050506040513d601f19601f82011682018060405250810190610ca29190612938565b90506000600190505b818160ff161161101c576000600560009054906101000a900473ffffffffffffffffffffffffffffffffffffffff1673ffffffffffffffffffffffffffffffffffffffff1663219267c4836040518263ffffffff1660e01b8152600401610d129190612e23565b60206040518083038186803b158015610d2a57600080fd5b505afa158015610d3e573d6000803e3d6000fd5b505050506040513d601f19601f82011682018060405250810190610d629190612938565b89610d6d9190612f28565b90508087610d7b9190612ea1565b96508373ffffffffffffffffffffffffffffffffffffffff166108fc829081150290604051600060405180830381858888f19350505050158015610dc3573d6000803e3d6000fd5b506000600560009054906101000a900473ffffffffffffffffffffffffffffffffffffffff1673ffffffffffffffffffffffffffffffffffffffff166331a73991866040518263ffffffff1660e01b8152600401610e219190612b9a565b60206040518083038186803b158015610e3957600080fd5b505afa158015610e4d573d6000803e3d6000fd5b505050506040513d601f19601f82011682018060405250810190610e719190612938565b9050600760009054906101000a900473ffffffffffffffffffffffffffffffffffffffff1673ffffffffffffffffffffffffffffffffffffffff1663cebd635182848e6040518463ffffffff1660e01b8152600401610ed293929190612d7e565b600060405180830381600087803b158015610eec57600080fd5b505af1158015610f00573d6000803e3d6000fd5b50505050600160009054906101000a900473ffffffffffffffffffffffffffffffffffffffff1673ffffffffffffffffffffffffffffffffffffffff168573ffffffffffffffffffffffffffffffffffffffff161461100757600560009054906101000a900473ffffffffffffffffffffffffffffffffffffffff1673ffffffffffffffffffffffffffffffffffffffff16634260b84c866040518263ffffffff1660e01b8152600401610fb49190612b9a565b60206040518083038186803b158015610fcc57600080fd5b505afa158015610fe0573d6000803e3d6000fd5b505050506040513d601f19601f820116820180604052508101906110049190612881565b94505b505080806110149061301d565b915050610cab565b506000853461102b9190612f82565b9050600660009054906101000a900473ffffffffffffffffffffffffffffffffffffffff1673ffffffffffffffffffffffffffffffffffffffff166388124e5633838c6040518463ffffffff1660e01b815260040161108c93929190612bec565b600060405180830381600087803b1580156110a657600080fd5b505af11580156110ba573d6000803e3d6000fd5b505050506000600460009054906101000a900473ffffffffffffffffffffffffffffffffffffffff1673ffffffffffffffffffffffffffffffffffffffff166108fc839081150290604051600060405180830381858888f1935050505090508061118857600460009054906101000a900473ffffffffffffffffffffffffffffffffffffffff1673ffffffffffffffffffffffffffffffffffffffff166108fc839081150290604051600060405180830381858888f19350505050158015611186573d6000803e3d6000fd5b505b505050505050505050505060016000819055505050565b600360008273ffffffffffffffffffffffffffffffffffffffff1673ffffffffffffffffffffffffffffffffffffffff16815260200190815260200160002060009054906101000a900460ff1661122b576040517f08c379a000000000000000000000000000000000000000000000000000000000815260040161122290612c23565b60405180910390fd5b600760009054906101000a900473ffffffffffffffffffffffffffffffffffffffff1673ffffffffffffffffffffffffffffffffffffffff16638745dd78836040518263ffffffff1660e01b81526004016112869190612e3e565b60206040518083038186803b15801561129e57600080fd5b505afa1580156112b2573d6000803e3d6000fd5b505050506040513d601f19601f820116820180604052508101906112d691906128e6565b611315576040517f08c379a000000000000000000000000000000000000000000000000000000000815260040161130c90612ce3565b60405180910390fd5b82600760009054906101000a900473ffffffffffffffffffffffffffffffffffffffff1673ffffffffffffffffffffffffffffffffffffffff1663e29e0411846040518263ffffffff1660e01b81526004016113719190612e3e565b60206040518083038186803b15801561138957600080fd5b505afa15801561139d573d6000803e3d6000fd5b505050506040513d601f19601f820116820180604052508101906113c19190612938565b14611401576040517f08c379a00000000000000000000000000000000000000000000000000000000081526004016113f890612ca3565b60405180910390fd5b82600860008282546114139190612ea1565b9250508190555060006064846114299190612ef7565b9050600080600560009054906101000a900473ffffffffffffffffffffffffffffffffffffffff1673ffffffffffffffffffffffffffffffffffffffff166357766ce2886040518263ffffffff1660e01b81526004016114899190612d63565b60206040518083038186803b1580156114a157600080fd5b505afa1580156114b5573d6000803e3d6000fd5b505050506040513d601f19601f820116820180604052508101906114d99190612881565b9050600760009054906101000a900473ffffffffffffffffffffffffffffffffffffffff1673ffffffffffffffffffffffffffffffffffffffff16639f9e2ce4868360026000600160ff16815260200190815260200160002060009054906101000a900473ffffffffffffffffffffffffffffffffffffffff166040518463ffffffff1660e01b815260040161157193929190612e59565b600060405180830381600087803b15801561158b57600080fd5b505af115801561159f573d6000803e3d6000fd5b505050506000603c60ff16846115b59190612f28565b905080836115c39190612ea1565b92506000600760009054906101000a900473ffffffffffffffffffffffffffffffffffffffff1673ffffffffffffffffffffffffffffffffffffffff16635437af49886040518263ffffffff1660e01b81526004016116229190612e3e565b60206040518083038186803b15801561163a57600080fd5b505afa15801561164e573d6000803e3d6000fd5b505050506040513d601f19601f820116820180604052508101906116729190612881565b90506000600560009054906101000a900473ffffffffffffffffffffffffffffffffffffffff1673ffffffffffffffffffffffffffffffffffffffff166331a73991836040518263ffffffff1660e01b81526004016116d19190612b9a565b60206040518083038186803b1580156116e957600080fd5b505afa1580156116fd573d6000803e3d6000fd5b505050506040513d601f19601f820116820180604052508101906117219190612938565b905060008273ffffffffffffffffffffffffffffffffffffffff166108fc859081150290604051600060405180830381858888f193505050509050801561183157600760009054906101000a900473ffffffffffffffffffffffffffffffffffffffff1673ffffffffffffffffffffffffffffffffffffffff166395d7d005838b8760026000600160ff16815260200190815260200160002060009054906101000a900473ffffffffffffffffffffffffffffffffffffffff166040518563ffffffff1660e01b81526004016117fa9493929190612dde565b600060405180830381600087803b15801561181457600080fd5b505af1158015611828573d6000803e3d6000fd5b5050505061189b565b600160009054906101000a900473ffffffffffffffffffffffffffffffffffffffff1673ffffffffffffffffffffffffffffffffffffffff166108fc859081150290604051600060405180830381858888f19350505050158015611899573d6000803e3d6000fd5b505b6000600560009054906101000a900473ffffffffffffffffffffffffffffffffffffffff1673ffffffffffffffffffffffffffffffffffffffff166371f14bc56040518163ffffffff1660e01b815260040160206040518083038186803b15801561190557600080fd5b505afa158015611919573d6000803e3d6000fd5b505050506040513d601f19601f8201168201806040525081019061193d9190612938565b90506000600560009054906101000a900473ffffffffffffffffffffffffffffffffffffffff1673ffffffffffffffffffffffffffffffffffffffff16634260b84c886040518263ffffffff1660e01b815260040161199c9190612b9a565b60206040518083038186803b1580156119b457600080fd5b505afa1580156119c8573d6000803e3d6000fd5b505050506040513d601f19601f820116820180604052508101906119ec9190612881565b90506000600190505b828160ff1611611d9d576000600560009054906101000a900473ffffffffffffffffffffffffffffffffffffffff1673ffffffffffffffffffffffffffffffffffffffff1663219267c4836040518263ffffffff1660e01b8152600401611a5c9190612e23565b60206040518083038186803b158015611a7457600080fd5b505afa158015611a88573d6000803e3d6000fd5b505050506040513d601f19601f82011682018060405250810190611aac9190612938565b8b611ab79190612f28565b9050808a611ac59190612ea1565b99508273ffffffffffffffffffffffffffffffffffffffff166108fc829081150290604051600060405180830381858888f19350505050158015611b0d573d6000803e3d6000fd5b506000600560009054906101000a900473ffffffffffffffffffffffffffffffffffffffff1673ffffffffffffffffffffffffffffffffffffffff166331a73991856040518263ffffffff1660e01b8152600401611b6b9190612b9a565b60206040518083038186803b158015611b8357600080fd5b505afa158015611b97573d6000803e3d6000fd5b505050506040513d601f19601f82011682018060405250810190611bbb9190612938565b9050600760009054906101000a900473ffffffffffffffffffffffffffffffffffffffff1673ffffffffffffffffffffffffffffffffffffffff1663cebd6351828460026000600160ff16815260200190815260200160002060009054906101000a900473ffffffffffffffffffffffffffffffffffffffff166040518463ffffffff1660e01b8152600401611c5393929190612d7e565b600060405180830381600087803b158015611c6d57600080fd5b505af1158015611c81573d6000803e3d6000fd5b50505050600160009054906101000a900473ffffffffffffffffffffffffffffffffffffffff1673ffffffffffffffffffffffffffffffffffffffff168473ffffffffffffffffffffffffffffffffffffffff1614611d8857600560009054906101000a900473ffffffffffffffffffffffffffffffffffffffff1673ffffffffffffffffffffffffffffffffffffffff16634260b84c856040518263ffffffff1660e01b8152600401611d359190612b9a565b60206040518083038186803b158015611d4d57600080fd5b505afa158015611d61573d6000803e3d6000fd5b505050506040513d601f19601f82011682018060405250810190611d859190612881565b93505b50508080611d959061301d565b9150506119f5565b506000888d611dac9190612f82565b9050600660009054906101000a900473ffffffffffffffffffffffffffffffffffffffff1673ffffffffffffffffffffffffffffffffffffffff166388124e56338360026000600160ff16815260200190815260200160002060009054906101000a900473ffffffffffffffffffffffffffffffffffffffff166040518463ffffffff1660e01b8152600401611e4493929190612bec565b600060405180830381600087803b158015611e5e57600080fd5b505af1158015611e72573d6000803e3d6000fd5b505050506000600460009054906101000a900473ffffffffffffffffffffffffffffffffffffffff1673ffffffffffffffffffffffffffffffffffffffff166108fc839081150290604051600060405180830381858888f19350505050905080611f4057600460009054906101000a900473ffffffffffffffffffffffffffffffffffffffff1673ffffffffffffffffffffffffffffffffffffffff166108fc839081150290604051600060405180830381858888f19350505050158015611f3e573d6000803e3d6000fd5b505b505050505050505050505050505050565b60026000541415611f97576040517f08c379a0000000000000000000000000000000000000000000000000000000008152600401611f8e90612d43565b60405180910390fd5b60026000819055503373ffffffffffffffffffffffffffffffffffffffff16600160009054906101000a900473ffffffffffffffffffffffffffffffffffffffff1673ffffffffffffffffffffffffffffffffffffffff161461202f576040517f08c379a000000000000000000000000000000000000000000000000000000000815260040161202690612d03565b60405180910390fd5b600160009054906101000a900473ffffffffffffffffffffffffffffffffffffffff1673ffffffffffffffffffffffffffffffffffffffff166108fc612073612371565b9081150290604051600060405180830381858888f1935050505015801561209e573d6000803e3d6000fd5b506001600081905550565b60085481565b3373ffffffffffffffffffffffffffffffffffffffff16600160009054906101000a900473ffffffffffffffffffffffffffffffffffffffff1673ffffffffffffffffffffffffffffffffffffffff161461213f576040517f08c379a000000000000000000000000000000000000000000000000000000000815260040161213690612d03565b60405180910390fd5b600360008273ffffffffffffffffffffffffffffffffffffffff1673ffffffffffffffffffffffffffffffffffffffff16815260200190815260200160002060009054906101000a900460ff166121cb576040517f08c379a00000000000000000000000000000000000000000000000000000000081526004016121c290612c43565b60405180910390fd5b81600460006101000a81548173ffffffffffffffffffffffffffffffffffffffff021916908373ffffffffffffffffffffffffffffffffffffffff1602179055505050565b3373ffffffffffffffffffffffffffffffffffffffff16600160009054906101000a900473ffffffffffffffffffffffffffffffffffffffff1673ffffffffffffffffffffffffffffffffffffffff16146122a0576040517f08c379a000000000000000000000000000000000000000000000000000000000815260040161229790612d03565b60405180910390fd5b600360008273ffffffffffffffffffffffffffffffffffffffff1673ffffffffffffffffffffffffffffffffffffffff16815260200190815260200160002060009054906101000a900460ff1661232c576040517f08c379a000000000000000000000000000000000000000000000000000000000815260040161232390612c43565b60405180910390fd5b81600660006101000a81548173ffffffffffffffffffffffffffffffffffffffff021916908373ffffffffffffffffffffffffffffffffffffffff1602179055505050565b600047905090565b3373ffffffffffffffffffffffffffffffffffffffff16600160009054906101000a900473ffffffffffffffffffffffffffffffffffffffff1673ffffffffffffffffffffffffffffffffffffffff1614612409576040517f08c379a000000000000000000000000000000000000000000000000000000000815260040161240090612d03565b60405180910390fd5b600360008273ffffffffffffffffffffffffffffffffffffffff1673ffffffffffffffffffffffffffffffffffffffff16815260200190815260200160002060009054906101000a900460ff16612495576040517f08c379a000000000000000000000000000000000000000000000000000000000815260040161248c90612c43565b60405180910390fd5b81600560006101000a81548173ffffffffffffffffffffffffffffffffffffffff021916908373ffffffffffffffffffffffffffffffffffffffff1602179055505050565b6124e33361020d565b15612523576040517f08c379a000000000000000000000000000000000000000000000000000000000815260040161251a90612d23565b60405180910390fd5b600560009054906101000a900473ffffffffffffffffffffffffffffffffffffffff1673ffffffffffffffffffffffffffffffffffffffff16635d206d4d826040518263ffffffff1660e01b815260040161257e9190612d63565b60206040518083038186803b15801561259657600080fd5b505afa1580156125aa573d6000803e3d6000fd5b505050506040513d601f19601f820116820180604052508101906125ce91906128e6565b6125d757600190505b600560009054906101000a900473ffffffffffffffffffffffffffffffffffffffff1673ffffffffffffffffffffffffffffffffffffffff1663cc0bec1460026000600160ff16815260200190815260200160002060009054906101000a900473ffffffffffffffffffffffffffffffffffffffff1633846040518463ffffffff1660e01b815260040161266d93929190612bb5565b600060405180830381600087803b15801561268757600080fd5b505af115801561269b573d6000803e3d6000fd5b5050505050565b3373ffffffffffffffffffffffffffffffffffffffff16600160009054906101000a900473ffffffffffffffffffffffffffffffffffffffff1673ffffffffffffffffffffffffffffffffffffffff1614612732576040517f08c379a000000000000000000000000000000000000000000000000000000000815260040161272990612d03565b60405180910390fd5b600360008273ffffffffffffffffffffffffffffffffffffffff1673ffffffffffffffffffffffffffffffffffffffff16815260200190815260200160002060009054906101000a900460ff166127be576040517f08c379a00000000000000000000000000000000000000000000000000000000081526004016127b590612c43565b60405180910390fd5b81600760006101000a81548173ffffffffffffffffffffffffffffffffffffffff021916908373ffffffffffffffffffffffffffffffffffffffff1602179055505050565b6000813590506128128161328b565b92915050565b6000815190506128278161328b565b92915050565b60008151905061283c816132a2565b92915050565b600081359050612851816132b9565b92915050565b600081519050612866816132b9565b92915050565b60008135905061287b816132d0565b92915050565b60006020828403121561289357600080fd5b60006128a184828501612818565b91505092915050565b600080604083850312156128bd57600080fd5b60006128cb85828601612803565b92505060206128dc85828601612803565b9150509250929050565b6000602082840312156128f857600080fd5b60006129068482850161282d565b91505092915050565b60006020828403121561292157600080fd5b600061292f84828501612842565b91505092915050565b60006020828403121561294a57600080fd5b600061295884828501612857565b91505092915050565b6000806000806080858703121561297757600080fd5b600061298587828801612842565b945050602061299687828801612842565b93505060406129a78782880161286c565b92505060606129b887828801612803565b91505092959194509250565b600080604083850312156129d757600080fd5b60006129e58582860161286c565b92505060206129f685828601612842565b9150509250929050565b612a0981612fb6565b82525050565b6000612a1c600a83612e90565b9150612a27826130a5565b602082019050919050565b6000612a3f600283612e90565b9150612a4a826130ce565b602082019050919050565b6000612a62602283612e90565b9150612a6d826130f7565b604082019050919050565b6000612a85601483612e90565b9150612a9082613146565b602082019050919050565b6000612aa8601183612e90565b9150612ab38261316f565b602082019050919050565b6000612acb602183612e90565b9150612ad682613198565b604082019050919050565b6000612aee600d83612e90565b9150612af9826131e7565b602082019050919050565b6000612b11600a83612e90565b9150612b1c82613210565b602082019050919050565b6000612b34601583612e90565b9150612b3f82613239565b602082019050919050565b6000612b57601f83612e90565b9150612b6282613262565b602082019050919050565b612b7681612ff4565b82525050565b612b858161300b565b82525050565b612b9481612ffe565b82525050565b6000602082019050612baf6000830184612a00565b92915050565b6000606082019050612bca6000830186612a00565b612bd76020830185612a00565b612be46040830184612b6d565b949350505050565b6000606082019050612c016000830186612a00565b612c0e6020830185612b6d565b612c1b6040830184612a00565b949350505050565b60006020820190508181036000830152612c3c81612a0f565b9050919050565b60006020820190508181036000830152612c5c81612a32565b9050919050565b60006020820190508181036000830152612c7c81612a55565b9050919050565b60006020820190508181036000830152612c9c81612a78565b9050919050565b60006020820190508181036000830152612cbc81612a9b565b9050919050565b60006020820190508181036000830152612cdc81612abe565b9050919050565b60006020820190508181036000830152612cfc81612ae1565b9050919050565b60006020820190508181036000830152612d1c81612b04565b9050919050565b60006020820190508181036000830152612d3c81612b27565b9050919050565b60006020820190508181036000830152612d5c81612b4a565b9050919050565b6000602082019050612d786000830184612b6d565b92915050565b6000606082019050612d936000830186612b6d565b612da06020830185612b6d565b612dad6040830184612a00565b949350505050565b6000604082019050612dca6000830185612b6d565b612dd76020830184612b8b565b9392505050565b6000608082019050612df36000830187612b6d565b612e006020830186612b8b565b612e0d6040830185612b6d565b612e1a6060830184612a00565b95945050505050565b6000602082019050612e386000830184612b7c565b92915050565b6000602082019050612e536000830184612b8b565b92915050565b6000606082019050612e6e6000830186612b8b565b612e7b6020830185612a00565b612e886040830184612a00565b949350505050565b600082825260208201905092915050565b6000612eac82612ff4565b9150612eb783612ff4565b9250827fffffffffffffffffffffffffffffffffffffffffffffffffffffffffffffffff03821115612eec57612eeb613047565b5b828201905092915050565b6000612f0282612ff4565b9150612f0d83612ff4565b925082612f1d57612f1c613076565b5b828204905092915050565b6000612f3382612ff4565b9150612f3e83612ff4565b9250817fffffffffffffffffffffffffffffffffffffffffffffffffffffffffffffffff0483118215151615612f7757612f76613047565b5b828202905092915050565b6000612f8d82612ff4565b9150612f9883612ff4565b925082821015612fab57612faa613047565b5b828203905092915050565b6000612fc182612fd4565b9050919050565b60008115159050919050565b600073ffffffffffffffffffffffffffffffffffffffff82169050919050565b6000819050919050565b600060ff82169050919050565b600061301682612ffe565b9050919050565b600061302882612ffe565b915060ff82141561303c5761303b613047565b5b600182019050919050565b7f4e487b7100000000000000000000000000000000000000000000000000000000600052601160045260246000fd5b7f4e487b7100000000000000000000000000000000000000000000000000000000600052601260045260246000fd5b7f4e6f206163637365737300000000000000000000000000000000000000000000600082015250565b7f4e4f000000000000000000000000000000000000000000000000000000000000600082015250565b7f416c6c2070726576696f7573206c6576656c73206d757374206265206163746960008201527f7665000000000000000000000000000000000000000000000000000000000000602082015250565b7f4c6576656c20616c726561647920616374697665000000000000000000000000600082015250565b7f496e76616c696420424e422076616c7565000000000000000000000000000000600082015250565b7f5461626c657320617265206e6f7420707572636861736564206469726563746c60008201527f7900000000000000000000000000000000000000000000000000000000000000602082015250565b7f496e76616c6964206c6576656c00000000000000000000000000000000000000600082015250565b7f6f6e6c79206f776e657200000000000000000000000000000000000000000000600082015250565b7f43616e206e6f74206265206120636f6e74726163740000000000000000000000600082015250565b7f5265656e7472616e637947756172643a207265656e7472616e742063616c6c00600082015250565b61329481612fb6565b811461329f57600080fd5b50565b6132ab81612fc8565b81146132b657600080fd5b50565b6132c281612ff4565b81146132cd57600080fd5b50565b6132d981612ffe565b81146132e457600080fd5b5056fea2646970667358221220e0066b8e86cf0eadd7718c9117ef4781f37fb37a692ec455c54f2cf5c39be68a64736f6c63430008040033",
  "linkReferences": {},
  "deployedLinkReferences": {}
}