{
  "_format": "hh-sol-artifact-1",
  "contractName": "Reinvest",
  "sourceName": "contracts/Payable/Reinvest.sol",
  "abi": [
    {
      "inputs": [
        {
          "internalType": "address",
          "name": "pullControllerAddress",
          "type": "address"
        },
        {
          "internalType": "address",
          "name": "userControllerAddress",
          "type": "address"
        },
        {
          "internalType": "address",
          "name": "tableControllerAddress",
          "type": "address"
        },
        {
          "internalType": "address payable",
          "name": "gameAddress",
          "type": "address"
        },
        {
          "internalType": "address",
          "name": "depositeControllerAddres",
          "type": "address"
        }
      ],
      "stateMutability": "nonpayable",
      "type": "constructor"
    },
    {
      "inputs": [
        {
          "internalType": "address",
          "name": "newAddress",
          "type": "address"
        }
      ],
      "name": "ChangeDepositeStorage",
      "outputs": [],
      "stateMutability": "payable",
      "type": "function"
    },
    {
      "inputs": [
        {
          "internalType": "address",
          "name": "newAddress",
          "type": "address"
        }
      ],
      "name": "ChangePullStorage",
      "outputs": [],
      "stateMutability": "payable",
      "type": "function"
    },
    {
      "inputs": [
        {
          "internalType": "address",
          "name": "newAddress",
          "type": "address"
        }
      ],
      "name": "ChangeTableStorage",
      "outputs": [],
      "stateMutability": "payable",
      "type": "function"
    },
    {
      "inputs": [
        {
          "internalType": "address",
          "name": "newAddress",
          "type": "address"
        }
      ],
      "name": "ChangeUserStorage",
      "outputs": [],
      "stateMutability": "payable",
      "type": "function"
    },
    {
      "inputs": [
        {
          "internalType": "uint8",
          "name": "table",
          "type": "uint8"
        },
        {
          "internalType": "address",
          "name": "userAddress",
          "type": "address"
        }
      ],
      "name": "ReinvestTable",
      "outputs": [],
      "stateMutability": "payable",
      "type": "function"
    },
    {
      "inputs": [
        {
          "internalType": "uint256",
          "name": "pullId",
          "type": "uint256"
        }
      ],
      "name": "RewardToPull",
      "outputs": [],
      "stateMutability": "payable",
      "type": "function"
    },
    {
      "inputs": [],
      "name": "getContractBalance",
      "outputs": [
        {
          "internalType": "uint256",
          "name": "",
          "type": "uint256"
        }
      ],
      "stateMutability": "view",
      "type": "function"
    },
    {
      "inputs": [],
      "name": "withDraw",
      "outputs": [],
      "stateMutability": "payable",
      "type": "function"
    },
    {
      "stateMutability": "payable",
      "type": "receive"
    }
  ],
  "bytecode": "0x60806040523480156200001157600080fd5b50604051620024b4380380620024b4833981810160405281019062000037919062000306565b600160008190555033600160006101000a81548173ffffffffffffffffffffffffffffffffffffffff021916908373ffffffffffffffffffffffffffffffffffffffff16021790555084600260006101000a81548173ffffffffffffffffffffffffffffffffffffffff021916908373ffffffffffffffffffffffffffffffffffffffff16021790555083600360006101000a81548173ffffffffffffffffffffffffffffffffffffffff021916908373ffffffffffffffffffffffffffffffffffffffff16021790555082600460006101000a81548173ffffffffffffffffffffffffffffffffffffffff021916908373ffffffffffffffffffffffffffffffffffffffff16021790555080600560006101000a81548173ffffffffffffffffffffffffffffffffffffffff021916908373ffffffffffffffffffffffffffffffffffffffff16021790555081600660006101000a81548173ffffffffffffffffffffffffffffffffffffffff021916908373ffffffffffffffffffffffffffffffffffffffff160217905550600560009054906101000a900473ffffffffffffffffffffffffffffffffffffffff1673ffffffffffffffffffffffffffffffffffffffff166341e6f7246040518163ffffffff1660e01b8152600401600060405180830381600087803b1580156200023057600080fd5b505af115801562000245573d6000803e3d6000fd5b50505050600660009054906101000a900473ffffffffffffffffffffffffffffffffffffffff1673ffffffffffffffffffffffffffffffffffffffff166341e6f7246040518163ffffffff1660e01b8152600401600060405180830381600087803b158015620002b457600080fd5b505af1158015620002c9573d6000803e3d6000fd5b50505050505050505062000404565b600081519050620002e981620003d0565b92915050565b6000815190506200030081620003ea565b92915050565b600080600080600060a086880312156200031f57600080fd5b60006200032f88828901620002d8565b95505060206200034288828901620002d8565b94505060406200035588828901620002d8565b93505060606200036888828901620002ef565b92505060806200037b88828901620002d8565b9150509295509295909350565b60006200039582620003b0565b9050919050565b6000620003a982620003b0565b9050919050565b600073ffffffffffffffffffffffffffffffffffffffff82169050919050565b620003db8162000388565b8114620003e757600080fd5b50565b620003f5816200039c565b81146200040157600080fd5b50565b6120a080620004146000396000f3fe60806040526004361061007f5760003560e01c80636f9fb98a1161004e5780636f9fb98a146100e9578063afc983fc14610114578063bf47376814610130578063c8e6a5311461014c57610086565b80630a0512f41461008b5780630fdb1c10146100a7578063262ac669146100b157806335a2e6cc146100cd57610086565b3661008657005b600080fd5b6100a560048036038101906100a09190611858565b610168565b005b6100af61023c565b005b6100cb60048036038101906100c691906119b5565b610394565b005b6100e760048036038101906100e29190611858565b6109fc565b005b3480156100f557600080fd5b506100fe610b52565b60405161010b9190611bcb565b60405180910390f35b61012e60048036038101906101299190611858565b610b5a565b005b61014a60048036038101906101459190611858565b610c2e565b005b61016660048036038101906101619190611963565b610d02565b005b3373ffffffffffffffffffffffffffffffffffffffff16600160009054906101000a900473ffffffffffffffffffffffffffffffffffffffff1673ffffffffffffffffffffffffffffffffffffffff16146101f8576040517f08c379a00000000000000000000000000000000000000000000000000000000081526004016101ef90611b8b565b60405180910390fd5b80600460006101000a81548173ffffffffffffffffffffffffffffffffffffffff021916908373ffffffffffffffffffffffffffffffffffffffff16021790555050565b60026000541415610282576040517f08c379a000000000000000000000000000000000000000000000000000000000815260040161027990611bab565b60405180910390fd5b60026000819055503373ffffffffffffffffffffffffffffffffffffffff16600160009054906101000a900473ffffffffffffffffffffffffffffffffffffffff1673ffffffffffffffffffffffffffffffffffffffff161461031a576040517f08c379a000000000000000000000000000000000000000000000000000000000815260040161031190611b8b565b60405180910390fd5b600160009054906101000a900473ffffffffffffffffffffffffffffffffffffffff1673ffffffffffffffffffffffffffffffffffffffff166108fc61035e610b52565b9081150290604051600060405180830381858888f19350505050158015610389573d6000803e3d6000fd5b506001600081905550565b600260005414156103da576040517f08c379a00000000000000000000000000000000000000000000000000000000081526004016103d190611bab565b60405180910390fd5b6002600081905550600360009054906101000a900473ffffffffffffffffffffffffffffffffffffffff1673ffffffffffffffffffffffffffffffffffffffff1663b22abbfb826040518263ffffffff1660e01b815260040161043d9190611af0565b60206040518083038186803b15801561045557600080fd5b505afa158015610469573d6000803e3d6000fd5b505050506040513d601f19601f8201168201806040525081019061048d919061193a565b6104cc576040517f08c379a00000000000000000000000000000000000000000000000000000000081526004016104c390611b4b565b60405180910390fd5b6000600460009054906101000a900473ffffffffffffffffffffffffffffffffffffffff1673ffffffffffffffffffffffffffffffffffffffff1663e29e0411846040518263ffffffff1660e01b81526004016105299190611c6f565b60206040518083038186803b15801561054157600080fd5b505afa158015610555573d6000803e3d6000fd5b505050506040513d601f19601f82011682018060405250810190610579919061198c565b90506000600360009054906101000a900473ffffffffffffffffffffffffffffffffffffffff1673ffffffffffffffffffffffffffffffffffffffff166331a73991846040518263ffffffff1660e01b81526004016105d89190611af0565b60206040518083038186803b1580156105f057600080fd5b505afa158015610604573d6000803e3d6000fd5b505050506040513d601f19601f82011682018060405250810190610628919061198c565b905081600560009054906101000a900473ffffffffffffffffffffffffffffffffffffffff1673ffffffffffffffffffffffffffffffffffffffff1663953fe932836040518263ffffffff1660e01b81526004016106869190611bcb565b60206040518083038186803b15801561069e57600080fd5b505afa1580156106b2573d6000803e3d6000fd5b505050506040513d601f19601f820116820180604052508101906106d6919061198c565b10610716576040517f08c379a000000000000000000000000000000000000000000000000000000000815260040161070d90611b2b565b60405180910390fd5b600460009054906101000a900473ffffffffffffffffffffffffffffffffffffffff1673ffffffffffffffffffffffffffffffffffffffff1663b5a3c8b782866040518363ffffffff1660e01b8152600401610773929190611c46565b60206040518083038186803b15801561078b57600080fd5b505afa15801561079f573d6000803e3d6000fd5b505050506040513d601f19601f820116820180604052508101906107c3919061193a565b15610803576040517f08c379a00000000000000000000000000000000000000000000000000000000081526004016107fa90611b0b565b60405180910390fd5b6000600660009054906101000a900473ffffffffffffffffffffffffffffffffffffffff1673ffffffffffffffffffffffffffffffffffffffff166108fc849081150290604051600060405180830381858888f193505050509050806108cd57600660009054906101000a900473ffffffffffffffffffffffffffffffffffffffff1673ffffffffffffffffffffffffffffffffffffffff166108fc849081150290604051600060405180830381858888f193505050501580156108cb573d6000803e3d6000fd5b505b600560009054906101000a900473ffffffffffffffffffffffffffffffffffffffff1673ffffffffffffffffffffffffffffffffffffffff16635c72731484846040518363ffffffff1660e01b815260040161092a929190611be6565b600060405180830381600087803b15801561094457600080fd5b505af1158015610958573d6000803e3d6000fd5b50505050600660009054906101000a900473ffffffffffffffffffffffffffffffffffffffff1673ffffffffffffffffffffffffffffffffffffffff16638a73900a8385886040518463ffffffff1660e01b81526004016109bb93929190611c0f565b600060405180830381600087803b1580156109d557600080fd5b505af11580156109e9573d6000803e3d6000fd5b5050505050505060016000819055505050565b3373ffffffffffffffffffffffffffffffffffffffff16600160009054906101000a900473ffffffffffffffffffffffffffffffffffffffff1673ffffffffffffffffffffffffffffffffffffffff1614610a8c576040517f08c379a0000000000000000000000000000000000000000000000000000000008152600401610a8390611b8b565b60405180910390fd5b80600560006101000a81548173ffffffffffffffffffffffffffffffffffffffff021916908373ffffffffffffffffffffffffffffffffffffffff160217905550600560009054906101000a900473ffffffffffffffffffffffffffffffffffffffff1673ffffffffffffffffffffffffffffffffffffffff166341e6f7246040518163ffffffff1660e01b8152600401600060405180830381600087803b158015610b3757600080fd5b505af1158015610b4b573d6000803e3d6000fd5b5050505050565b600047905090565b3373ffffffffffffffffffffffffffffffffffffffff16600160009054906101000a900473ffffffffffffffffffffffffffffffffffffffff1673ffffffffffffffffffffffffffffffffffffffff1614610bea576040517f08c379a0000000000000000000000000000000000000000000000000000000008152600401610be190611b8b565b60405180910390fd5b80600260006101000a81548173ffffffffffffffffffffffffffffffffffffffff021916908373ffffffffffffffffffffffffffffffffffffffff16021790555050565b3373ffffffffffffffffffffffffffffffffffffffff16600160009054906101000a900473ffffffffffffffffffffffffffffffffffffffff1673ffffffffffffffffffffffffffffffffffffffff1614610cbe576040517f08c379a0000000000000000000000000000000000000000000000000000000008152600401610cb590611b8b565b60405180910390fd5b80600360006101000a81548173ffffffffffffffffffffffffffffffffffffffff021916908373ffffffffffffffffffffffffffffffffffffffff16021790555050565b600260009054906101000a900473ffffffffffffffffffffffffffffffffffffffff1673ffffffffffffffffffffffffffffffffffffffff166303b4525f826040518263ffffffff1660e01b8152600401610d5d9190611bcb565b60206040518083038186803b158015610d7557600080fd5b505afa158015610d89573d6000803e3d6000fd5b505050506040513d601f19601f82011682018060405250810190610dad919061193a565b610dec576040517f08c379a0000000000000000000000000000000000000000000000000000000008152600401610de390611b6b565b60405180910390fd5b6000600260009054906101000a900473ffffffffffffffffffffffffffffffffffffffff1673ffffffffffffffffffffffffffffffffffffffff16638fd061016040518163ffffffff1660e01b815260040160006040518083038186803b158015610e5657600080fd5b505afa158015610e6a573d6000803e3d6000fd5b505050506040513d6000823e3d601f19601f82011682018060405250810190610e9391906118f9565b9050600034905060006064600260009054906101000a900473ffffffffffffffffffffffffffffffffffffffff1673ffffffffffffffffffffffffffffffffffffffff16636045f20a866040518263ffffffff1660e01b8152600401610ef99190611bcb565b60206040518083038186803b158015610f1157600080fd5b505afa158015610f25573d6000803e3d6000fd5b505050506040513d601f19601f82011682018060405250810190610f49919061198c565b610f539190611cec565b90506000600260009054906101000a900473ffffffffffffffffffffffffffffffffffffffff1673ffffffffffffffffffffffffffffffffffffffff166373c74e91866040518263ffffffff1660e01b8152600401610fb29190611bcb565b60206040518083038186803b158015610fca57600080fd5b505afa158015610fde573d6000803e3d6000fd5b505050506040513d601f19601f82011682018060405250810190611002919061198c565b90506000600190505b81811161173c576000806000600260009054906101000a900473ffffffffffffffffffffffffffffffffffffffff1673ffffffffffffffffffffffffffffffffffffffff166366e8c5ef8a866040518363ffffffff1660e01b8152600401611074929190611be6565b60606040518083038186803b15801561108c57600080fd5b505afa1580156110a0573d6000803e3d6000fd5b505050506040513d601f19601f820116820180604052508101906110c491906118aa565b925092509250600086836110d89190611cec565b905060008160648a6110ea9190611cec565b6110f49190611d1d565b9050600060286064836111079190611cec565b6111119190611d1d565b9050600560009054906101000a900473ffffffffffffffffffffffffffffffffffffffff1673ffffffffffffffffffffffffffffffffffffffff1663a64b47ce85836040518363ffffffff1660e01b8152600401611170929190611be6565b600060405180830381600087803b15801561118a57600080fd5b505af115801561119e573d6000803e3d6000fd5b5050505080826111ae9190611d77565b91506000600190506000600360009054906101000a900473ffffffffffffffffffffffffffffffffffffffff1673ffffffffffffffffffffffffffffffffffffffff16634260b84c896040518263ffffffff1660e01b81526004016112139190611af0565b60206040518083038186803b15801561122b57600080fd5b505afa15801561123f573d6000803e3d6000fd5b505050506040513d601f19601f820116820180604052508101906112639190611881565b90505b60018d516112749190611d77565b82111580156112d15750600160009054906101000a900473ffffffffffffffffffffffffffffffffffffffff1673ffffffffffffffffffffffffffffffffffffffff168173ffffffffffffffffffffffffffffffffffffffff1614155b156115e95760008d8381518110611311577f4e487b7100000000000000000000000000000000000000000000000000000000600052603260045260246000fd5b60200260200101516064866113269190611cec565b6113309190611d1d565b905060008273ffffffffffffffffffffffffffffffffffffffff166108fc839081150290604051600060405180830381858888f193505050509050806113da57600160009054906101000a900473ffffffffffffffffffffffffffffffffffffffff1673ffffffffffffffffffffffffffffffffffffffff166108fc839081150290604051600060405180830381858888f193505050501580156113d8573d6000803e3d6000fd5b505b6000600360009054906101000a900473ffffffffffffffffffffffffffffffffffffffff1673ffffffffffffffffffffffffffffffffffffffff166331a73991856040518263ffffffff1660e01b81526004016114379190611af0565b60206040518083038186803b15801561144f57600080fd5b505afa158015611463573d6000803e3d6000fd5b505050506040513d601f19601f82011682018060405250810190611487919061198c565b9050600660009054906101000a900473ffffffffffffffffffffffffffffffffffffffff1673ffffffffffffffffffffffffffffffffffffffff16633f2a65f584836040518363ffffffff1660e01b81526004016114e6929190611be6565b600060405180830381600087803b15801561150057600080fd5b505af1158015611514573d6000803e3d6000fd5b50505050600360009054906101000a900473ffffffffffffffffffffffffffffffffffffffff1673ffffffffffffffffffffffffffffffffffffffff16634260b84c856040518263ffffffff1660e01b81526004016115739190611af0565b60206040518083038186803b15801561158b57600080fd5b505afa15801561159f573d6000803e3d6000fd5b505050506040513d601f19601f820116820180604052508101906115c39190611881565b935084806115d090611e31565b95505082876115df9190611d77565b9650505050611266565b60008873ffffffffffffffffffffffffffffffffffffffff166108fc869081150290604051600060405180830381858888f1935050505090508061169157600160009054906101000a900473ffffffffffffffffffffffffffffffffffffffff1673ffffffffffffffffffffffffffffffffffffffff166108fc869081150290604051600060405180830381858888f1935050505015801561168f573d6000803e3d6000fd5b505b600660009054906101000a900473ffffffffffffffffffffffffffffffffffffffff1673ffffffffffffffffffffffffffffffffffffffff1663190a853b86896040518363ffffffff1660e01b81526004016116ee929190611be6565b600060405180830381600087803b15801561170857600080fd5b505af115801561171c573d6000803e3d6000fd5b50505050505050505050505050808061173490611e31565b91505061100b565b505050505050565b600061175761175284611caf565b611c8a565b9050808382526020820190508285602086028201111561177657600080fd5b60005b858110156117a6578161178c888261182e565b845260208401935060208301925050600181019050611779565b5050509392505050565b6000813590506117bf8161200e565b92915050565b6000815190506117d48161200e565b92915050565b600082601f8301126117eb57600080fd5b81516117fb848260208601611744565b91505092915050565b60008151905061181381612025565b92915050565b6000813590506118288161203c565b92915050565b60008151905061183d8161203c565b92915050565b60008135905061185281612053565b92915050565b60006020828403121561186a57600080fd5b6000611878848285016117b0565b91505092915050565b60006020828403121561189357600080fd5b60006118a1848285016117c5565b91505092915050565b6000806000606084860312156118bf57600080fd5b60006118cd868287016117c5565b93505060206118de8682870161182e565b92505060406118ef8682870161182e565b9150509250925092565b60006020828403121561190b57600080fd5b600082015167ffffffffffffffff81111561192557600080fd5b611931848285016117da565b91505092915050565b60006020828403121561194c57600080fd5b600061195a84828501611804565b91505092915050565b60006020828403121561197557600080fd5b600061198384828501611819565b91505092915050565b60006020828403121561199e57600080fd5b60006119ac8482850161182e565b91505092915050565b600080604083850312156119c857600080fd5b60006119d685828601611843565b92505060206119e7858286016117b0565b9150509250929050565b6119fa81611dab565b82525050565b6000611a0d601283611cdb565b9150611a1882611f18565b602082019050919050565b6000611a30601183611cdb565b9150611a3b82611f41565b602082019050919050565b6000611a53600e83611cdb565b9150611a5e82611f6a565b602082019050919050565b6000611a76600e83611cdb565b9150611a8182611f93565b602082019050919050565b6000611a99600a83611cdb565b9150611aa482611fbc565b602082019050919050565b6000611abc601f83611cdb565b9150611ac782611fe5565b602082019050919050565b611adb81611de9565b82525050565b611aea81611df3565b82525050565b6000602082019050611b0560008301846119f1565b92915050565b60006020820190508181036000830152611b2481611a00565b9050919050565b60006020820190508181036000830152611b4481611a23565b9050919050565b60006020820190508181036000830152611b6481611a46565b9050919050565b60006020820190508181036000830152611b8481611a69565b9050919050565b60006020820190508181036000830152611ba481611a8c565b9050919050565b60006020820190508181036000830152611bc481611aaf565b9050919050565b6000602082019050611be06000830184611ad2565b92915050565b6000604082019050611bfb6000830185611ad2565b611c086020830184611ad2565b9392505050565b6000606082019050611c246000830186611ad2565b611c316020830185611ad2565b611c3e6040830184611ae1565b949350505050565b6000604082019050611c5b6000830185611ad2565b611c686020830184611ae1565b9392505050565b6000602082019050611c846000830184611ae1565b92915050565b6000611c94611ca5565b9050611ca08282611e00565b919050565b6000604051905090565b600067ffffffffffffffff821115611cca57611cc9611ed8565b5b602082029050602081019050919050565b600082825260208201905092915050565b6000611cf782611de9565b9150611d0283611de9565b925082611d1257611d11611ea9565b5b828204905092915050565b6000611d2882611de9565b9150611d3383611de9565b9250817fffffffffffffffffffffffffffffffffffffffffffffffffffffffffffffffff0483118215151615611d6c57611d6b611e7a565b5b828202905092915050565b6000611d8282611de9565b9150611d8d83611de9565b925082821015611da057611d9f611e7a565b5b828203905092915050565b6000611db682611dc9565b9050919050565b60008115159050919050565b600073ffffffffffffffffffffffffffffffffffffffff82169050919050565b6000819050919050565b600060ff82169050919050565b611e0982611f07565b810181811067ffffffffffffffff82111715611e2857611e27611ed8565b5b80604052505050565b6000611e3c82611de9565b91507fffffffffffffffffffffffffffffffffffffffffffffffffffffffffffffffff821415611e6f57611e6e611e7a565b5b600182019050919050565b7f4e487b7100000000000000000000000000000000000000000000000000000000600052601160045260246000fd5b7f4e487b7100000000000000000000000000000000000000000000000000000000600052601260045260246000fd5b7f4e487b7100000000000000000000000000000000000000000000000000000000600052604160045260246000fd5b6000601f19601f8301169050919050565b7f5461626c65416c72656164794163746976650000000000000000000000000000600082015250565b7f4e6f7420656e6f6967687420746f6b656e000000000000000000000000000000600082015250565b7f4e6f7420666f756e642075736572000000000000000000000000000000000000600082015250565b7f50756c6c206e6f7420666f756e64000000000000000000000000000000000000600082015250565b7f6f6e6c79206f776e657200000000000000000000000000000000000000000000600082015250565b7f5265656e7472616e637947756172643a207265656e7472616e742063616c6c00600082015250565b61201781611dab565b811461202257600080fd5b50565b61202e81611dbd565b811461203957600080fd5b50565b61204581611de9565b811461205057600080fd5b50565b61205c81611df3565b811461206757600080fd5b5056fea2646970667358221220d82720a8a9702c748a050fd662974bde2463f4a36dd9d51d62c0627542e425a464736f6c63430008040033",
  "linkReferences": {},
  "deployedLinkReferences": {}
}