{
  "_format": "hh-sol-artifact-1",
  "contractName": "Reinvest",
  "sourceName": "contracts/Payable/Reinvest.sol",
  "abi": [
    {
      "inputs": [
        {
          "internalType": "address",
          "name": "key",
          "type": "address"
        },
        {
          "internalType": "address",
          "name": "pullControllerAddress",
          "type": "address"
        },
        {
          "internalType": "address",
          "name": "userControllerAddress",
          "type": "address"
        },
        {
          "internalType": "address",
          "name": "tableControllerAddress",
          "type": "address"
        },
        {
          "internalType": "address payable",
          "name": "gameAddress",
          "type": "address"
        },
        {
          "internalType": "address",
          "name": "depositeControllerAddres",
          "type": "address"
        }
      ],
      "stateMutability": "nonpayable",
      "type": "constructor"
    },
    {
      "inputs": [
        {
          "internalType": "address",
          "name": "newAddress",
          "type": "address"
        },
        {
          "internalType": "address",
          "name": "key",
          "type": "address"
        }
      ],
      "name": "ChangeDepositeStorage",
      "outputs": [],
      "stateMutability": "payable",
      "type": "function"
    },
    {
      "inputs": [
        {
          "internalType": "address",
          "name": "newAddress",
          "type": "address"
        },
        {
          "internalType": "address",
          "name": "key",
          "type": "address"
        }
      ],
      "name": "ChangePullStorage",
      "outputs": [],
      "stateMutability": "payable",
      "type": "function"
    },
    {
      "inputs": [
        {
          "internalType": "address",
          "name": "newAddress",
          "type": "address"
        },
        {
          "internalType": "address",
          "name": "key",
          "type": "address"
        }
      ],
      "name": "ChangeTableStorage",
      "outputs": [],
      "stateMutability": "payable",
      "type": "function"
    },
    {
      "inputs": [
        {
          "internalType": "address",
          "name": "newAddress",
          "type": "address"
        },
        {
          "internalType": "address",
          "name": "key",
          "type": "address"
        }
      ],
      "name": "ChangeUserStorage",
      "outputs": [],
      "stateMutability": "payable",
      "type": "function"
    },
    {
      "inputs": [
        {
          "internalType": "uint8",
          "name": "table",
          "type": "uint8"
        },
        {
          "internalType": "uint256",
          "name": "userId",
          "type": "uint256"
        }
      ],
      "name": "ReinvestTable",
      "outputs": [],
      "stateMutability": "payable",
      "type": "function"
    },
    {
      "inputs": [
        {
          "internalType": "uint256",
          "name": "pullId",
          "type": "uint256"
        }
      ],
      "name": "RewardToPull",
      "outputs": [],
      "stateMutability": "payable",
      "type": "function"
    },
    {
      "inputs": [],
      "name": "getContractBalance",
      "outputs": [
        {
          "internalType": "uint256",
          "name": "",
          "type": "uint256"
        }
      ],
      "stateMutability": "view",
      "type": "function"
    },
    {
      "inputs": [],
      "name": "withDraw",
      "outputs": [],
      "stateMutability": "payable",
      "type": "function"
    },
    {
      "stateMutability": "payable",
      "type": "receive"
    }
  ],
  "bytecode": "0x60806040523480156200001157600080fd5b5060405162002623380380620026238339818101604052810190620000379190620002ad565b600160008190555033600160006101000a81548173ffffffffffffffffffffffffffffffffffffffff021916908373ffffffffffffffffffffffffffffffffffffffff1602179055506001600360008873ffffffffffffffffffffffffffffffffffffffff1673ffffffffffffffffffffffffffffffffffffffff16815260200190815260200160002060006101000a81548160ff0219169083151502179055508560026000600160ff16815260200190815260200160002060006101000a81548173ffffffffffffffffffffffffffffffffffffffff021916908373ffffffffffffffffffffffffffffffffffffffff16021790555084600460006101000a81548173ffffffffffffffffffffffffffffffffffffffff021916908373ffffffffffffffffffffffffffffffffffffffff16021790555083600560006101000a81548173ffffffffffffffffffffffffffffffffffffffff021916908373ffffffffffffffffffffffffffffffffffffffff16021790555082600660006101000a81548173ffffffffffffffffffffffffffffffffffffffff021916908373ffffffffffffffffffffffffffffffffffffffff16021790555080600760006101000a81548173ffffffffffffffffffffffffffffffffffffffff021916908373ffffffffffffffffffffffffffffffffffffffff16021790555081600860006101000a81548173ffffffffffffffffffffffffffffffffffffffff021916908373ffffffffffffffffffffffffffffffffffffffff160217905550505050505050620003bf565b60008151905062000290816200038b565b92915050565b600081519050620002a781620003a5565b92915050565b60008060008060008060c08789031215620002c757600080fd5b6000620002d789828a016200027f565b9650506020620002ea89828a016200027f565b9550506040620002fd89828a016200027f565b94505060606200031089828a016200027f565b93505060806200032389828a0162000296565b92505060a06200033689828a016200027f565b9150509295509295509295565b600062000350826200036b565b9050919050565b600062000364826200036b565b9050919050565b600073ffffffffffffffffffffffffffffffffffffffff82169050919050565b620003968162000343565b8114620003a257600080fd5b50565b620003b08162000357565b8114620003bc57600080fd5b50565b61225480620003cf6000396000f3fe60806040526004361061007f5760003560e01c8063a771608e1161004e578063a771608e146100f8578063ad145d4614610114578063c8e6a53114610130578063f342fd151461014c57610086565b80630fdb1c101461008b5780634364b595146100955780635500138b146100b15780636f9fb98a146100cd57610086565b3661008657005b600080fd5b610093610168565b005b6100af60048036038101906100aa9190611ace565b6102c0565b005b6100cb60048036038101906100c69190611987565b6107aa565b005b3480156100d957600080fd5b506100e261090b565b6040516100ef9190611ce4565b60405180910390f35b610112600480360381019061010d9190611987565b610913565b005b61012e60048036038101906101299190611987565b610a74565b005b61014a60048036038101906101459190611a7c565b610bd5565b005b61016660048036038101906101619190611987565b6116e9565b005b600260005414156101ae576040517f08c379a00000000000000000000000000000000000000000000000000000000081526004016101a590611cc4565b60405180910390fd5b60026000819055503373ffffffffffffffffffffffffffffffffffffffff16600160009054906101000a900473ffffffffffffffffffffffffffffffffffffffff1673ffffffffffffffffffffffffffffffffffffffff1614610246576040517f08c379a000000000000000000000000000000000000000000000000000000000815260040161023d90611ca4565b60405180910390fd5b600160009054906101000a900473ffffffffffffffffffffffffffffffffffffffff1673ffffffffffffffffffffffffffffffffffffffff166108fc61028a61090b565b9081150290604051600060405180830381858888f193505050501580156102b5573d6000803e3d6000fd5b506001600081905550565b6000600660009054906101000a900473ffffffffffffffffffffffffffffffffffffffff1673ffffffffffffffffffffffffffffffffffffffff1663e29e0411846040518263ffffffff1660e01b815260040161031d9190611dcd565b60206040518083038186803b15801561033557600080fd5b505afa158015610349573d6000803e3d6000fd5b505050506040513d601f19601f8201168201806040525081019061036d9190611aa5565b905080600760009054906101000a900473ffffffffffffffffffffffffffffffffffffffff1673ffffffffffffffffffffffffffffffffffffffff1663953fe932846040518263ffffffff1660e01b81526004016103cb9190611ce4565b60206040518083038186803b1580156103e357600080fd5b505afa1580156103f7573d6000803e3d6000fd5b505050506040513d601f19601f8201168201806040525081019061041b9190611aa5565b1061045b576040517f08c379a000000000000000000000000000000000000000000000000000000000815260040161045290611c64565b60405180910390fd5b600660009054906101000a900473ffffffffffffffffffffffffffffffffffffffff1673ffffffffffffffffffffffffffffffffffffffff1663b5a3c8b783856040518363ffffffff1660e01b81526004016104b8929190611da4565b60206040518083038186803b1580156104d057600080fd5b505afa1580156104e4573d6000803e3d6000fd5b505050506040513d601f19601f820116820180604052508101906105089190611a53565b15610548576040517f08c379a000000000000000000000000000000000000000000000000000000000815260040161053f90611c44565b60405180910390fd5b6000600860009054906101000a900473ffffffffffffffffffffffffffffffffffffffff1673ffffffffffffffffffffffffffffffffffffffff166108fc839081150290604051600060405180830381858888f1935050505090508061061257600860009054906101000a900473ffffffffffffffffffffffffffffffffffffffff1673ffffffffffffffffffffffffffffffffffffffff166108fc839081150290604051600060405180830381858888f19350505050158015610610573d6000803e3d6000fd5b505b600760009054906101000a900473ffffffffffffffffffffffffffffffffffffffff1673ffffffffffffffffffffffffffffffffffffffff1663ce68d8af838560026000600160ff16815260200190815260200160002060009054906101000a900473ffffffffffffffffffffffffffffffffffffffff166040518463ffffffff1660e01b81526004016106a893929190611d28565b600060405180830381600087803b1580156106c257600080fd5b505af11580156106d6573d6000803e3d6000fd5b50505050600860009054906101000a900473ffffffffffffffffffffffffffffffffffffffff1673ffffffffffffffffffffffffffffffffffffffff1663077000bb84848760026000600160ff16815260200190815260200160002060009054906101000a900473ffffffffffffffffffffffffffffffffffffffff166040518563ffffffff1660e01b81526004016107729493929190611d5f565b600060405180830381600087803b15801561078c57600080fd5b505af11580156107a0573d6000803e3d6000fd5b5050505050505050565b3373ffffffffffffffffffffffffffffffffffffffff16600160009054906101000a900473ffffffffffffffffffffffffffffffffffffffff1673ffffffffffffffffffffffffffffffffffffffff161461083a576040517f08c379a000000000000000000000000000000000000000000000000000000000815260040161083190611ca4565b60405180910390fd5b600360008273ffffffffffffffffffffffffffffffffffffffff1673ffffffffffffffffffffffffffffffffffffffff16815260200190815260200160002060009054906101000a900460ff166108c6576040517f08c379a00000000000000000000000000000000000000000000000000000000081526004016108bd90611c24565b60405180910390fd5b81600460006101000a81548173ffffffffffffffffffffffffffffffffffffffff021916908373ffffffffffffffffffffffffffffffffffffffff1602179055505050565b600047905090565b3373ffffffffffffffffffffffffffffffffffffffff16600160009054906101000a900473ffffffffffffffffffffffffffffffffffffffff1673ffffffffffffffffffffffffffffffffffffffff16146109a3576040517f08c379a000000000000000000000000000000000000000000000000000000000815260040161099a90611ca4565b60405180910390fd5b600360008273ffffffffffffffffffffffffffffffffffffffff1673ffffffffffffffffffffffffffffffffffffffff16815260200190815260200160002060009054906101000a900460ff16610a2f576040517f08c379a0000000000000000000000000000000000000000000000000000000008152600401610a2690611c24565b60405180910390fd5b81600760006101000a81548173ffffffffffffffffffffffffffffffffffffffff021916908373ffffffffffffffffffffffffffffffffffffffff1602179055505050565b3373ffffffffffffffffffffffffffffffffffffffff16600160009054906101000a900473ffffffffffffffffffffffffffffffffffffffff1673ffffffffffffffffffffffffffffffffffffffff1614610b04576040517f08c379a0000000000000000000000000000000000000000000000000000000008152600401610afb90611ca4565b60405180910390fd5b600360008273ffffffffffffffffffffffffffffffffffffffff1673ffffffffffffffffffffffffffffffffffffffff16815260200190815260200160002060009054906101000a900460ff16610b90576040517f08c379a0000000000000000000000000000000000000000000000000000000008152600401610b8790611c24565b60405180910390fd5b81600560006101000a81548173ffffffffffffffffffffffffffffffffffffffff021916908373ffffffffffffffffffffffffffffffffffffffff1602179055505050565b600460009054906101000a900473ffffffffffffffffffffffffffffffffffffffff1673ffffffffffffffffffffffffffffffffffffffff166303b4525f826040518263ffffffff1660e01b8152600401610c309190611ce4565b60206040518083038186803b158015610c4857600080fd5b505afa158015610c5c573d6000803e3d6000fd5b505050506040513d601f19601f82011682018060405250810190610c809190611a53565b610cbf576040517f08c379a0000000000000000000000000000000000000000000000000000000008152600401610cb690611c84565b60405180910390fd5b6000600460009054906101000a900473ffffffffffffffffffffffffffffffffffffffff1673ffffffffffffffffffffffffffffffffffffffff16638fd061016040518163ffffffff1660e01b815260040160006040518083038186803b158015610d2957600080fd5b505afa158015610d3d573d6000803e3d6000fd5b505050506040513d6000823e3d601f19601f82011682018060405250810190610d669190611a12565b90506000603c606434610d799190611ea0565b610d839190611ed1565b905060008134610d939190611f2b565b905060006064600460009054906101000a900473ffffffffffffffffffffffffffffffffffffffff1673ffffffffffffffffffffffffffffffffffffffff1663de2a6d58876040518263ffffffff1660e01b8152600401610df49190611ce4565b60206040518083038186803b158015610e0c57600080fd5b505afa158015610e20573d6000803e3d6000fd5b505050506040513d601f19601f82011682018060405250810190610e449190611aa5565b610e4e9190611ea0565b90506000600460009054906101000a900473ffffffffffffffffffffffffffffffffffffffff1673ffffffffffffffffffffffffffffffffffffffff166373c74e91876040518263ffffffff1660e01b8152600401610ead9190611ce4565b60206040518083038186803b158015610ec557600080fd5b505afa158015610ed9573d6000803e3d6000fd5b505050506040513d601f19601f82011682018060405250810190610efd9190611aa5565b905060005b818110156116e0576000806000600460009054906101000a900473ffffffffffffffffffffffffffffffffffffffff1673ffffffffffffffffffffffffffffffffffffffff166366e8c5ef8b866040518363ffffffff1660e01b8152600401610f6c929190611cff565b60606040518083038186803b158015610f8457600080fd5b505afa158015610f98573d6000803e3d6000fd5b505050506040513d601f19601f82011682018060405250810190610fbc91906119c3565b92509250925060008683610fd09190611ea0565b905060008160648b610fe29190611ea0565b610fec9190611ed1565b905060008260648b610ffe9190611ea0565b6110089190611ed1565b9050600760009054906101000a900473ffffffffffffffffffffffffffffffffffffffff1673ffffffffffffffffffffffffffffffffffffffff166314d6c175858360026000600160ff16815260200190815260200160002060009054906101000a900473ffffffffffffffffffffffffffffffffffffffff166040518463ffffffff1660e01b81526004016110a093929190611d28565b600060405180830381600087803b1580156110ba57600080fd5b505af11580156110ce573d6000803e3d6000fd5b50505050600060019050600080600560009054906101000a900473ffffffffffffffffffffffffffffffffffffffff1673ffffffffffffffffffffffffffffffffffffffff16634260b84c8a6040518263ffffffff1660e01b81526004016111369190611c09565b60206040518083038186803b15801561114e57600080fd5b505afa158015611162573d6000803e3d6000fd5b505050506040513d601f19601f82011682018060405250810190611186919061195e565b90505b60018f516111979190611f2b565b83111580156111f45750600160009054906101000a900473ffffffffffffffffffffffffffffffffffffffff1673ffffffffffffffffffffffffffffffffffffffff168173ffffffffffffffffffffffffffffffffffffffff1614155b156115455760008f8481518110611234577f4e487b7100000000000000000000000000000000000000000000000000000000600052603260045260246000fd5b60200260200101516064876112499190611ea0565b6112539190611ed1565b905060008273ffffffffffffffffffffffffffffffffffffffff166108fc839081150290604051600060405180830381858888f193505050509050806112fd57600160009054906101000a900473ffffffffffffffffffffffffffffffffffffffff1673ffffffffffffffffffffffffffffffffffffffff166108fc839081150290604051600060405180830381858888f193505050501580156112fb573d6000803e3d6000fd5b505b6000600560009054906101000a900473ffffffffffffffffffffffffffffffffffffffff1673ffffffffffffffffffffffffffffffffffffffff166331a73991856040518263ffffffff1660e01b815260040161135a9190611c09565b60206040518083038186803b15801561137257600080fd5b505afa158015611386573d6000803e3d6000fd5b505050506040513d601f19601f820116820180604052508101906113aa9190611aa5565b9050600460009054906101000a900473ffffffffffffffffffffffffffffffffffffffff1673ffffffffffffffffffffffffffffffffffffffff16635bc8713a848360026000600160ff16815260200190815260200160002060009054906101000a900473ffffffffffffffffffffffffffffffffffffffff166040518463ffffffff1660e01b815260040161144293929190611d28565b600060405180830381600087803b15801561145c57600080fd5b505af1158015611470573d6000803e3d6000fd5b50505050600560009054906101000a900473ffffffffffffffffffffffffffffffffffffffff1673ffffffffffffffffffffffffffffffffffffffff16634260b84c856040518263ffffffff1660e01b81526004016114cf9190611c09565b60206040518083038186803b1580156114e757600080fd5b505afa1580156114fb573d6000803e3d6000fd5b505050506040513d601f19601f8201168201806040525081019061151f919061195e565b9350858061152c90611fe5565b965050828561153b9190611e4a565b9450505050611189565b81856115519190611f2b565b945060008973ffffffffffffffffffffffffffffffffffffffff166108fc879081150290604051600060405180830381858888f193505050509050806115fb57600160009054906101000a900473ffffffffffffffffffffffffffffffffffffffff1673ffffffffffffffffffffffffffffffffffffffff166108fc879081150290604051600060405180830381858888f193505050501580156115f9573d6000803e3d6000fd5b505b600460009054906101000a900473ffffffffffffffffffffffffffffffffffffffff1673ffffffffffffffffffffffffffffffffffffffff166343b7063c878a60026000600160ff16815260200190815260200160002060009054906101000a900473ffffffffffffffffffffffffffffffffffffffff166040518463ffffffff1660e01b815260040161169193929190611d28565b600060405180830381600087803b1580156116ab57600080fd5b505af11580156116bf573d6000803e3d6000fd5b505050505050505050505050505080806116d890611fe5565b915050610f02565b50505050505050565b3373ffffffffffffffffffffffffffffffffffffffff16600160009054906101000a900473ffffffffffffffffffffffffffffffffffffffff1673ffffffffffffffffffffffffffffffffffffffff1614611779576040517f08c379a000000000000000000000000000000000000000000000000000000000815260040161177090611ca4565b60405180910390fd5b600360008273ffffffffffffffffffffffffffffffffffffffff1673ffffffffffffffffffffffffffffffffffffffff16815260200190815260200160002060009054906101000a900460ff16611805576040517f08c379a00000000000000000000000000000000000000000000000000000000081526004016117fc90611c24565b60405180910390fd5b81600660006101000a81548173ffffffffffffffffffffffffffffffffffffffff021916908373ffffffffffffffffffffffffffffffffffffffff1602179055505050565b600061185d61185884611e0d565b611de8565b9050808382526020820190508285602086028201111561187c57600080fd5b60005b858110156118ac57816118928882611934565b84526020840193506020830192505060018101905061187f565b5050509392505050565b6000813590506118c5816121c2565b92915050565b6000815190506118da816121c2565b92915050565b600082601f8301126118f157600080fd5b815161190184826020860161184a565b91505092915050565b600081519050611919816121d9565b92915050565b60008135905061192e816121f0565b92915050565b600081519050611943816121f0565b92915050565b60008135905061195881612207565b92915050565b60006020828403121561197057600080fd5b600061197e848285016118cb565b91505092915050565b6000806040838503121561199a57600080fd5b60006119a8858286016118b6565b92505060206119b9858286016118b6565b9150509250929050565b6000806000606084860312156119d857600080fd5b60006119e6868287016118cb565b93505060206119f786828701611934565b9250506040611a0886828701611934565b9150509250925092565b600060208284031215611a2457600080fd5b600082015167ffffffffffffffff811115611a3e57600080fd5b611a4a848285016118e0565b91505092915050565b600060208284031215611a6557600080fd5b6000611a738482850161190a565b91505092915050565b600060208284031215611a8e57600080fd5b6000611a9c8482850161191f565b91505092915050565b600060208284031215611ab757600080fd5b6000611ac584828501611934565b91505092915050565b60008060408385031215611ae157600080fd5b6000611aef85828601611949565b9250506020611b008582860161191f565b9150509250929050565b611b1381611f5f565b82525050565b6000611b26600283611e39565b9150611b31826120cc565b602082019050919050565b6000611b49601283611e39565b9150611b54826120f5565b602082019050919050565b6000611b6c601183611e39565b9150611b778261211e565b602082019050919050565b6000611b8f600e83611e39565b9150611b9a82612147565b602082019050919050565b6000611bb2600a83611e39565b9150611bbd82612170565b602082019050919050565b6000611bd5601f83611e39565b9150611be082612199565b602082019050919050565b611bf481611f9d565b82525050565b611c0381611fa7565b82525050565b6000602082019050611c1e6000830184611b0a565b92915050565b60006020820190508181036000830152611c3d81611b19565b9050919050565b60006020820190508181036000830152611c5d81611b3c565b9050919050565b60006020820190508181036000830152611c7d81611b5f565b9050919050565b60006020820190508181036000830152611c9d81611b82565b9050919050565b60006020820190508181036000830152611cbd81611ba5565b9050919050565b60006020820190508181036000830152611cdd81611bc8565b9050919050565b6000602082019050611cf96000830184611beb565b92915050565b6000604082019050611d146000830185611beb565b611d216020830184611beb565b9392505050565b6000606082019050611d3d6000830186611beb565b611d4a6020830185611beb565b611d576040830184611b0a565b949350505050565b6000608082019050611d746000830187611beb565b611d816020830186611beb565b611d8e6040830185611bfa565b611d9b6060830184611b0a565b95945050505050565b6000604082019050611db96000830185611beb565b611dc66020830184611bfa565b9392505050565b6000602082019050611de26000830184611bfa565b92915050565b6000611df2611e03565b9050611dfe8282611fb4565b919050565b6000604051905090565b600067ffffffffffffffff821115611e2857611e2761208c565b5b602082029050602081019050919050565b600082825260208201905092915050565b6000611e5582611f9d565b9150611e6083611f9d565b9250827fffffffffffffffffffffffffffffffffffffffffffffffffffffffffffffffff03821115611e9557611e9461202e565b5b828201905092915050565b6000611eab82611f9d565b9150611eb683611f9d565b925082611ec657611ec561205d565b5b828204905092915050565b6000611edc82611f9d565b9150611ee783611f9d565b9250817fffffffffffffffffffffffffffffffffffffffffffffffffffffffffffffffff0483118215151615611f2057611f1f61202e565b5b828202905092915050565b6000611f3682611f9d565b9150611f4183611f9d565b925082821015611f5457611f5361202e565b5b828203905092915050565b6000611f6a82611f7d565b9050919050565b60008115159050919050565b600073ffffffffffffffffffffffffffffffffffffffff82169050919050565b6000819050919050565b600060ff82169050919050565b611fbd826120bb565b810181811067ffffffffffffffff82111715611fdc57611fdb61208c565b5b80604052505050565b6000611ff082611f9d565b91507fffffffffffffffffffffffffffffffffffffffffffffffffffffffffffffffff8214156120235761202261202e565b5b600182019050919050565b7f4e487b7100000000000000000000000000000000000000000000000000000000600052601160045260246000fd5b7f4e487b7100000000000000000000000000000000000000000000000000000000600052601260045260246000fd5b7f4e487b7100000000000000000000000000000000000000000000000000000000600052604160045260246000fd5b6000601f19601f8301169050919050565b7f4e4f000000000000000000000000000000000000000000000000000000000000600082015250565b7f5461626c65416c72656164794163746976650000000000000000000000000000600082015250565b7f4e6f7420656e6f6967687420746f6b656e000000000000000000000000000000600082015250565b7f50756c6c206e6f7420666f756e64000000000000000000000000000000000000600082015250565b7f6f6e6c79206f776e657200000000000000000000000000000000000000000000600082015250565b7f5265656e7472616e637947756172643a207265656e7472616e742063616c6c00600082015250565b6121cb81611f5f565b81146121d657600080fd5b50565b6121e281611f71565b81146121ed57600080fd5b50565b6121f981611f9d565b811461220457600080fd5b50565b61221081611fa7565b811461221b57600080fd5b5056fea2646970667358221220e72a3dd7ab7a9c725f9d35f38460d638a94bace8da7d7b932aed498a46b93d6564736f6c63430008040033",
  "linkReferences": {},
  "deployedLinkReferences": {}
}