{
  "_format": "hh-sol-artifact-1",
  "contractName": "Reinvest",
  "sourceName": "contracts/Payable/Reinvest.sol",
  "abi": [
    {
      "inputs": [
        {
          "internalType": "address",
          "name": "key",
          "type": "address"
        },
        {
          "internalType": "address",
          "name": "pullControllerAddress",
          "type": "address"
        },
        {
          "internalType": "address",
          "name": "userControllerAddress",
          "type": "address"
        },
        {
          "internalType": "address",
          "name": "tableControllerAddress",
          "type": "address"
        },
        {
          "internalType": "address payable",
          "name": "gameAddress",
          "type": "address"
        },
        {
          "internalType": "address",
          "name": "depositeControllerAddres",
          "type": "address"
        }
      ],
      "stateMutability": "nonpayable",
      "type": "constructor"
    },
    {
      "inputs": [
        {
          "internalType": "address",
          "name": "newAddress",
          "type": "address"
        },
        {
          "internalType": "address",
          "name": "key",
          "type": "address"
        }
      ],
      "name": "ChangeDepositeStorage",
      "outputs": [],
      "stateMutability": "payable",
      "type": "function"
    },
    {
      "inputs": [
        {
          "internalType": "address",
          "name": "newAddress",
          "type": "address"
        },
        {
          "internalType": "address",
          "name": "key",
          "type": "address"
        }
      ],
      "name": "ChangePullStorage",
      "outputs": [],
      "stateMutability": "payable",
      "type": "function"
    },
    {
      "inputs": [
        {
          "internalType": "address",
          "name": "newAddress",
          "type": "address"
        },
        {
          "internalType": "address",
          "name": "key",
          "type": "address"
        }
      ],
      "name": "ChangeTableStorage",
      "outputs": [],
      "stateMutability": "payable",
      "type": "function"
    },
    {
      "inputs": [
        {
          "internalType": "address",
          "name": "newAddress",
          "type": "address"
        },
        {
          "internalType": "address",
          "name": "key",
          "type": "address"
        }
      ],
      "name": "ChangeUserStorage",
      "outputs": [],
      "stateMutability": "payable",
      "type": "function"
    },
    {
      "inputs": [
        {
          "internalType": "uint8",
          "name": "table",
          "type": "uint8"
        },
        {
          "internalType": "address",
          "name": "userAddress",
          "type": "address"
        }
      ],
      "name": "ReinvestTable",
      "outputs": [],
      "stateMutability": "payable",
      "type": "function"
    },
    {
      "inputs": [
        {
          "internalType": "uint256",
          "name": "pullId",
          "type": "uint256"
        }
      ],
      "name": "RewardToPull",
      "outputs": [],
      "stateMutability": "payable",
      "type": "function"
    },
    {
      "inputs": [],
      "name": "getContractBalance",
      "outputs": [
        {
          "internalType": "uint256",
          "name": "",
          "type": "uint256"
        }
      ],
      "stateMutability": "view",
      "type": "function"
    },
    {
      "inputs": [],
      "name": "withDraw",
      "outputs": [],
      "stateMutability": "payable",
      "type": "function"
    },
    {
      "stateMutability": "payable",
      "type": "receive"
    }
  ],
  "bytecode": "0x60806040523480156200001157600080fd5b5060405162002829380380620028298339818101604052810190620000379190620002ad565b600160008190555033600160006101000a81548173ffffffffffffffffffffffffffffffffffffffff021916908373ffffffffffffffffffffffffffffffffffffffff1602179055506001600360008873ffffffffffffffffffffffffffffffffffffffff1673ffffffffffffffffffffffffffffffffffffffff16815260200190815260200160002060006101000a81548160ff0219169083151502179055508560026000600160ff16815260200190815260200160002060006101000a81548173ffffffffffffffffffffffffffffffffffffffff021916908373ffffffffffffffffffffffffffffffffffffffff16021790555084600460006101000a81548173ffffffffffffffffffffffffffffffffffffffff021916908373ffffffffffffffffffffffffffffffffffffffff16021790555083600560006101000a81548173ffffffffffffffffffffffffffffffffffffffff021916908373ffffffffffffffffffffffffffffffffffffffff16021790555082600660006101000a81548173ffffffffffffffffffffffffffffffffffffffff021916908373ffffffffffffffffffffffffffffffffffffffff16021790555080600760006101000a81548173ffffffffffffffffffffffffffffffffffffffff021916908373ffffffffffffffffffffffffffffffffffffffff16021790555081600860006101000a81548173ffffffffffffffffffffffffffffffffffffffff021916908373ffffffffffffffffffffffffffffffffffffffff160217905550505050505050620003bf565b60008151905062000290816200038b565b92915050565b600081519050620002a781620003a5565b92915050565b60008060008060008060c08789031215620002c757600080fd5b6000620002d789828a016200027f565b9650506020620002ea89828a016200027f565b9550506040620002fd89828a016200027f565b94505060606200031089828a016200027f565b93505060806200032389828a0162000296565b92505060a06200033689828a016200027f565b9150509295509295509295565b600062000350826200036b565b9050919050565b600062000364826200036b565b9050919050565b600073ffffffffffffffffffffffffffffffffffffffff82169050919050565b620003968162000343565b8114620003a257600080fd5b50565b620003b08162000357565b8114620003bc57600080fd5b50565b61245a80620003cf6000396000f3fe60806040526004361061007f5760003560e01c8063a771608e1161004e578063a771608e146100f8578063ad145d4614610114578063c8e6a53114610130578063f342fd151461014c57610086565b80630fdb1c101461008b578063262ac669146100955780635500138b146100b15780636f9fb98a146100cd57610086565b3661008657005b600080fd5b610093610168565b005b6100af60048036038101906100aa9190611c68565b6102c0565b005b6100cb60048036038101906100c69190611b21565b610944565b005b3480156100d957600080fd5b506100e2610aa5565b6040516100ef9190611ec1565b60405180910390f35b610112600480360381019061010d9190611b21565b610aad565b005b61012e60048036038101906101299190611b21565b610c0e565b005b61014a60048036038101906101459190611c16565b610d6f565b005b61016660048036038101906101619190611b21565b611883565b005b600260005414156101ae576040517f08c379a00000000000000000000000000000000000000000000000000000000081526004016101a590611ea1565b60405180910390fd5b60026000819055503373ffffffffffffffffffffffffffffffffffffffff16600160009054906101000a900473ffffffffffffffffffffffffffffffffffffffff1673ffffffffffffffffffffffffffffffffffffffff1614610246576040517f08c379a000000000000000000000000000000000000000000000000000000000815260040161023d90611e81565b60405180910390fd5b600160009054906101000a900473ffffffffffffffffffffffffffffffffffffffff1673ffffffffffffffffffffffffffffffffffffffff166108fc61028a610aa5565b9081150290604051600060405180830381858888f193505050501580156102b5573d6000803e3d6000fd5b506001600081905550565b600560009054906101000a900473ffffffffffffffffffffffffffffffffffffffff1673ffffffffffffffffffffffffffffffffffffffff1663b22abbfb826040518263ffffffff1660e01b815260040161031b9190611dc6565b60206040518083038186803b15801561033357600080fd5b505afa158015610347573d6000803e3d6000fd5b505050506040513d601f19601f8201168201806040525081019061036b9190611bed565b6103aa576040517f08c379a00000000000000000000000000000000000000000000000000000000081526004016103a190611e41565b60405180910390fd5b6000600660009054906101000a900473ffffffffffffffffffffffffffffffffffffffff1673ffffffffffffffffffffffffffffffffffffffff1663e29e0411846040518263ffffffff1660e01b81526004016104079190611faa565b60206040518083038186803b15801561041f57600080fd5b505afa158015610433573d6000803e3d6000fd5b505050506040513d601f19601f820116820180604052508101906104579190611c3f565b90506000600560009054906101000a900473ffffffffffffffffffffffffffffffffffffffff1673ffffffffffffffffffffffffffffffffffffffff166331a73991846040518263ffffffff1660e01b81526004016104b69190611dc6565b60206040518083038186803b1580156104ce57600080fd5b505afa1580156104e2573d6000803e3d6000fd5b505050506040513d601f19601f820116820180604052508101906105069190611c3f565b905081600760009054906101000a900473ffffffffffffffffffffffffffffffffffffffff1673ffffffffffffffffffffffffffffffffffffffff1663953fe932836040518263ffffffff1660e01b81526004016105649190611ec1565b60206040518083038186803b15801561057c57600080fd5b505afa158015610590573d6000803e3d6000fd5b505050506040513d601f19601f820116820180604052508101906105b49190611c3f565b106105f4576040517f08c379a00000000000000000000000000000000000000000000000000000000081526004016105eb90611e21565b60405180910390fd5b600660009054906101000a900473ffffffffffffffffffffffffffffffffffffffff1673ffffffffffffffffffffffffffffffffffffffff1663b5a3c8b782866040518363ffffffff1660e01b8152600401610651929190611f81565b60206040518083038186803b15801561066957600080fd5b505afa15801561067d573d6000803e3d6000fd5b505050506040513d601f19601f820116820180604052508101906106a19190611bed565b156106e1576040517f08c379a00000000000000000000000000000000000000000000000000000000081526004016106d890611e01565b60405180910390fd5b6000600860009054906101000a900473ffffffffffffffffffffffffffffffffffffffff1673ffffffffffffffffffffffffffffffffffffffff166108fc849081150290604051600060405180830381858888f193505050509050806107ab57600860009054906101000a900473ffffffffffffffffffffffffffffffffffffffff1673ffffffffffffffffffffffffffffffffffffffff166108fc849081150290604051600060405180830381858888f193505050501580156107a9573d6000803e3d6000fd5b505b600760009054906101000a900473ffffffffffffffffffffffffffffffffffffffff1673ffffffffffffffffffffffffffffffffffffffff1663ce68d8af848460026000600160ff16815260200190815260200160002060009054906101000a900473ffffffffffffffffffffffffffffffffffffffff166040518463ffffffff1660e01b815260040161084193929190611f05565b600060405180830381600087803b15801561085b57600080fd5b505af115801561086f573d6000803e3d6000fd5b50505050600860009054906101000a900473ffffffffffffffffffffffffffffffffffffffff1673ffffffffffffffffffffffffffffffffffffffff1663077000bb83858860026000600160ff16815260200190815260200160002060009054906101000a900473ffffffffffffffffffffffffffffffffffffffff166040518563ffffffff1660e01b815260040161090b9493929190611f3c565b600060405180830381600087803b15801561092557600080fd5b505af1158015610939573d6000803e3d6000fd5b505050505050505050565b3373ffffffffffffffffffffffffffffffffffffffff16600160009054906101000a900473ffffffffffffffffffffffffffffffffffffffff1673ffffffffffffffffffffffffffffffffffffffff16146109d4576040517f08c379a00000000000000000000000000000000000000000000000000000000081526004016109cb90611e81565b60405180910390fd5b600360008273ffffffffffffffffffffffffffffffffffffffff1673ffffffffffffffffffffffffffffffffffffffff16815260200190815260200160002060009054906101000a900460ff16610a60576040517f08c379a0000000000000000000000000000000000000000000000000000000008152600401610a5790611de1565b60405180910390fd5b81600460006101000a81548173ffffffffffffffffffffffffffffffffffffffff021916908373ffffffffffffffffffffffffffffffffffffffff1602179055505050565b600047905090565b3373ffffffffffffffffffffffffffffffffffffffff16600160009054906101000a900473ffffffffffffffffffffffffffffffffffffffff1673ffffffffffffffffffffffffffffffffffffffff1614610b3d576040517f08c379a0000000000000000000000000000000000000000000000000000000008152600401610b3490611e81565b60405180910390fd5b600360008273ffffffffffffffffffffffffffffffffffffffff1673ffffffffffffffffffffffffffffffffffffffff16815260200190815260200160002060009054906101000a900460ff16610bc9576040517f08c379a0000000000000000000000000000000000000000000000000000000008152600401610bc090611de1565b60405180910390fd5b81600760006101000a81548173ffffffffffffffffffffffffffffffffffffffff021916908373ffffffffffffffffffffffffffffffffffffffff1602179055505050565b3373ffffffffffffffffffffffffffffffffffffffff16600160009054906101000a900473ffffffffffffffffffffffffffffffffffffffff1673ffffffffffffffffffffffffffffffffffffffff1614610c9e576040517f08c379a0000000000000000000000000000000000000000000000000000000008152600401610c9590611e81565b60405180910390fd5b600360008273ffffffffffffffffffffffffffffffffffffffff1673ffffffffffffffffffffffffffffffffffffffff16815260200190815260200160002060009054906101000a900460ff16610d2a576040517f08c379a0000000000000000000000000000000000000000000000000000000008152600401610d2190611de1565b60405180910390fd5b81600560006101000a81548173ffffffffffffffffffffffffffffffffffffffff021916908373ffffffffffffffffffffffffffffffffffffffff1602179055505050565b600460009054906101000a900473ffffffffffffffffffffffffffffffffffffffff1673ffffffffffffffffffffffffffffffffffffffff166303b4525f826040518263ffffffff1660e01b8152600401610dca9190611ec1565b60206040518083038186803b158015610de257600080fd5b505afa158015610df6573d6000803e3d6000fd5b505050506040513d601f19601f82011682018060405250810190610e1a9190611bed565b610e59576040517f08c379a0000000000000000000000000000000000000000000000000000000008152600401610e5090611e61565b60405180910390fd5b6000600460009054906101000a900473ffffffffffffffffffffffffffffffffffffffff1673ffffffffffffffffffffffffffffffffffffffff16638fd061016040518163ffffffff1660e01b815260040160006040518083038186803b158015610ec357600080fd5b505afa158015610ed7573d6000803e3d6000fd5b505050506040513d6000823e3d601f19601f82011682018060405250810190610f009190611bac565b90506000603c606434610f13919061207d565b610f1d91906120ae565b905060008134610f2d9190612108565b905060006064600460009054906101000a900473ffffffffffffffffffffffffffffffffffffffff1673ffffffffffffffffffffffffffffffffffffffff16636045f20a876040518263ffffffff1660e01b8152600401610f8e9190611ec1565b60206040518083038186803b158015610fa657600080fd5b505afa158015610fba573d6000803e3d6000fd5b505050506040513d601f19601f82011682018060405250810190610fde9190611c3f565b610fe8919061207d565b90506000600460009054906101000a900473ffffffffffffffffffffffffffffffffffffffff1673ffffffffffffffffffffffffffffffffffffffff166373c74e91876040518263ffffffff1660e01b81526004016110479190611ec1565b60206040518083038186803b15801561105f57600080fd5b505afa158015611073573d6000803e3d6000fd5b505050506040513d601f19601f820116820180604052508101906110979190611c3f565b905060005b8181101561187a576000806000600460009054906101000a900473ffffffffffffffffffffffffffffffffffffffff1673ffffffffffffffffffffffffffffffffffffffff166366e8c5ef8b866040518363ffffffff1660e01b8152600401611106929190611edc565b60606040518083038186803b15801561111e57600080fd5b505afa158015611132573d6000803e3d6000fd5b505050506040513d601f19601f820116820180604052508101906111569190611b5d565b9250925092506000868361116a919061207d565b905060008160648b61117c919061207d565b61118691906120ae565b905060008260648b611198919061207d565b6111a291906120ae565b9050600760009054906101000a900473ffffffffffffffffffffffffffffffffffffffff1673ffffffffffffffffffffffffffffffffffffffff166314d6c175858360026000600160ff16815260200190815260200160002060009054906101000a900473ffffffffffffffffffffffffffffffffffffffff166040518463ffffffff1660e01b815260040161123a93929190611f05565b600060405180830381600087803b15801561125457600080fd5b505af1158015611268573d6000803e3d6000fd5b50505050600060019050600080600560009054906101000a900473ffffffffffffffffffffffffffffffffffffffff1673ffffffffffffffffffffffffffffffffffffffff16634260b84c8a6040518263ffffffff1660e01b81526004016112d09190611dc6565b60206040518083038186803b1580156112e857600080fd5b505afa1580156112fc573d6000803e3d6000fd5b505050506040513d601f19601f820116820180604052508101906113209190611af8565b90505b60018f516113319190612108565b831115801561138e5750600160009054906101000a900473ffffffffffffffffffffffffffffffffffffffff1673ffffffffffffffffffffffffffffffffffffffff168173ffffffffffffffffffffffffffffffffffffffff1614155b156116df5760008f84815181106113ce577f4e487b7100000000000000000000000000000000000000000000000000000000600052603260045260246000fd5b60200260200101516064876113e3919061207d565b6113ed91906120ae565b905060008273ffffffffffffffffffffffffffffffffffffffff166108fc839081150290604051600060405180830381858888f1935050505090508061149757600160009054906101000a900473ffffffffffffffffffffffffffffffffffffffff1673ffffffffffffffffffffffffffffffffffffffff166108fc839081150290604051600060405180830381858888f19350505050158015611495573d6000803e3d6000fd5b505b6000600560009054906101000a900473ffffffffffffffffffffffffffffffffffffffff1673ffffffffffffffffffffffffffffffffffffffff166331a73991856040518263ffffffff1660e01b81526004016114f49190611dc6565b60206040518083038186803b15801561150c57600080fd5b505afa158015611520573d6000803e3d6000fd5b505050506040513d601f19601f820116820180604052508101906115449190611c3f565b9050600460009054906101000a900473ffffffffffffffffffffffffffffffffffffffff1673ffffffffffffffffffffffffffffffffffffffff16635bc8713a848360026000600160ff16815260200190815260200160002060009054906101000a900473ffffffffffffffffffffffffffffffffffffffff166040518463ffffffff1660e01b81526004016115dc93929190611f05565b600060405180830381600087803b1580156115f657600080fd5b505af115801561160a573d6000803e3d6000fd5b50505050600560009054906101000a900473ffffffffffffffffffffffffffffffffffffffff1673ffffffffffffffffffffffffffffffffffffffff16634260b84c856040518263ffffffff1660e01b81526004016116699190611dc6565b60206040518083038186803b15801561168157600080fd5b505afa158015611695573d6000803e3d6000fd5b505050506040513d601f19601f820116820180604052508101906116b99190611af8565b935085806116c6906121c2565b96505082856116d59190612027565b9450505050611323565b81856116eb9190612108565b945060008973ffffffffffffffffffffffffffffffffffffffff166108fc879081150290604051600060405180830381858888f1935050505090508061179557600160009054906101000a900473ffffffffffffffffffffffffffffffffffffffff1673ffffffffffffffffffffffffffffffffffffffff166108fc879081150290604051600060405180830381858888f19350505050158015611793573d6000803e3d6000fd5b505b600460009054906101000a900473ffffffffffffffffffffffffffffffffffffffff1673ffffffffffffffffffffffffffffffffffffffff166343b7063c878a60026000600160ff16815260200190815260200160002060009054906101000a900473ffffffffffffffffffffffffffffffffffffffff166040518463ffffffff1660e01b815260040161182b93929190611f05565b600060405180830381600087803b15801561184557600080fd5b505af1158015611859573d6000803e3d6000fd5b50505050505050505050505050508080611872906121c2565b91505061109c565b50505050505050565b3373ffffffffffffffffffffffffffffffffffffffff16600160009054906101000a900473ffffffffffffffffffffffffffffffffffffffff1673ffffffffffffffffffffffffffffffffffffffff1614611913576040517f08c379a000000000000000000000000000000000000000000000000000000000815260040161190a90611e81565b60405180910390fd5b600360008273ffffffffffffffffffffffffffffffffffffffff1673ffffffffffffffffffffffffffffffffffffffff16815260200190815260200160002060009054906101000a900460ff1661199f576040517f08c379a000000000000000000000000000000000000000000000000000000000815260040161199690611de1565b60405180910390fd5b81600660006101000a81548173ffffffffffffffffffffffffffffffffffffffff021916908373ffffffffffffffffffffffffffffffffffffffff1602179055505050565b60006119f76119f284611fea565b611fc5565b90508083825260208201905082856020860282011115611a1657600080fd5b60005b85811015611a465781611a2c8882611ace565b845260208401935060208301925050600181019050611a19565b5050509392505050565b600081359050611a5f816123c8565b92915050565b600081519050611a74816123c8565b92915050565b600082601f830112611a8b57600080fd5b8151611a9b8482602086016119e4565b91505092915050565b600081519050611ab3816123df565b92915050565b600081359050611ac8816123f6565b92915050565b600081519050611add816123f6565b92915050565b600081359050611af28161240d565b92915050565b600060208284031215611b0a57600080fd5b6000611b1884828501611a65565b91505092915050565b60008060408385031215611b3457600080fd5b6000611b4285828601611a50565b9250506020611b5385828601611a50565b9150509250929050565b600080600060608486031215611b7257600080fd5b6000611b8086828701611a65565b9350506020611b9186828701611ace565b9250506040611ba286828701611ace565b9150509250925092565b600060208284031215611bbe57600080fd5b600082015167ffffffffffffffff811115611bd857600080fd5b611be484828501611a7a565b91505092915050565b600060208284031215611bff57600080fd5b6000611c0d84828501611aa4565b91505092915050565b600060208284031215611c2857600080fd5b6000611c3684828501611ab9565b91505092915050565b600060208284031215611c5157600080fd5b6000611c5f84828501611ace565b91505092915050565b60008060408385031215611c7b57600080fd5b6000611c8985828601611ae3565b9250506020611c9a85828601611a50565b9150509250929050565b611cad8161213c565b82525050565b6000611cc0600283612016565b9150611ccb826122a9565b602082019050919050565b6000611ce3601283612016565b9150611cee826122d2565b602082019050919050565b6000611d06601183612016565b9150611d11826122fb565b602082019050919050565b6000611d29600e83612016565b9150611d3482612324565b602082019050919050565b6000611d4c600e83612016565b9150611d578261234d565b602082019050919050565b6000611d6f600a83612016565b9150611d7a82612376565b602082019050919050565b6000611d92601f83612016565b9150611d9d8261239f565b602082019050919050565b611db18161217a565b82525050565b611dc081612184565b82525050565b6000602082019050611ddb6000830184611ca4565b92915050565b60006020820190508181036000830152611dfa81611cb3565b9050919050565b60006020820190508181036000830152611e1a81611cd6565b9050919050565b60006020820190508181036000830152611e3a81611cf9565b9050919050565b60006020820190508181036000830152611e5a81611d1c565b9050919050565b60006020820190508181036000830152611e7a81611d3f565b9050919050565b60006020820190508181036000830152611e9a81611d62565b9050919050565b60006020820190508181036000830152611eba81611d85565b9050919050565b6000602082019050611ed66000830184611da8565b92915050565b6000604082019050611ef16000830185611da8565b611efe6020830184611da8565b9392505050565b6000606082019050611f1a6000830186611da8565b611f276020830185611da8565b611f346040830184611ca4565b949350505050565b6000608082019050611f516000830187611da8565b611f5e6020830186611da8565b611f6b6040830185611db7565b611f786060830184611ca4565b95945050505050565b6000604082019050611f966000830185611da8565b611fa36020830184611db7565b9392505050565b6000602082019050611fbf6000830184611db7565b92915050565b6000611fcf611fe0565b9050611fdb8282612191565b919050565b6000604051905090565b600067ffffffffffffffff82111561200557612004612269565b5b602082029050602081019050919050565b600082825260208201905092915050565b60006120328261217a565b915061203d8361217a565b9250827fffffffffffffffffffffffffffffffffffffffffffffffffffffffffffffffff038211156120725761207161220b565b5b828201905092915050565b60006120888261217a565b91506120938361217a565b9250826120a3576120a261223a565b5b828204905092915050565b60006120b98261217a565b91506120c48361217a565b9250817fffffffffffffffffffffffffffffffffffffffffffffffffffffffffffffffff04831182151516156120fd576120fc61220b565b5b828202905092915050565b60006121138261217a565b915061211e8361217a565b9250828210156121315761213061220b565b5b828203905092915050565b60006121478261215a565b9050919050565b60008115159050919050565b600073ffffffffffffffffffffffffffffffffffffffff82169050919050565b6000819050919050565b600060ff82169050919050565b61219a82612298565b810181811067ffffffffffffffff821117156121b9576121b8612269565b5b80604052505050565b60006121cd8261217a565b91507fffffffffffffffffffffffffffffffffffffffffffffffffffffffffffffffff821415612200576121ff61220b565b5b600182019050919050565b7f4e487b7100000000000000000000000000000000000000000000000000000000600052601160045260246000fd5b7f4e487b7100000000000000000000000000000000000000000000000000000000600052601260045260246000fd5b7f4e487b7100000000000000000000000000000000000000000000000000000000600052604160045260246000fd5b6000601f19601f8301169050919050565b7f4e4f000000000000000000000000000000000000000000000000000000000000600082015250565b7f5461626c65416c72656164794163746976650000000000000000000000000000600082015250565b7f4e6f7420656e6f6967687420746f6b656e000000000000000000000000000000600082015250565b7f4e6f7420666f756e642075736572000000000000000000000000000000000000600082015250565b7f50756c6c206e6f7420666f756e64000000000000000000000000000000000000600082015250565b7f6f6e6c79206f776e657200000000000000000000000000000000000000000000600082015250565b7f5265656e7472616e637947756172643a207265656e7472616e742063616c6c00600082015250565b6123d18161213c565b81146123dc57600080fd5b50565b6123e88161214e565b81146123f357600080fd5b50565b6123ff8161217a565b811461240a57600080fd5b50565b61241681612184565b811461242157600080fd5b5056fea26469706673582212207771cf403b3a41b106cacc2c0e6aad345be45cf448f39517ceab94327382e51764736f6c63430008040033",
  "linkReferences": {},
  "deployedLinkReferences": {}
}