{
  "_format": "hh-sol-artifact-1",
  "contractName": "Reinvest",
  "sourceName": "contracts/Payable/Reinvest.sol",
  "abi": [
    {
      "inputs": [
        {
          "internalType": "address",
          "name": "pullControllerAddress",
          "type": "address"
        },
        {
          "internalType": "address",
          "name": "userControllerAddress",
          "type": "address"
        },
        {
          "internalType": "address",
          "name": "tableControllerAddress",
          "type": "address"
        },
        {
          "internalType": "address payable",
          "name": "gameAddress",
          "type": "address"
        },
        {
          "internalType": "address",
          "name": "depositeControllerAddres",
          "type": "address"
        }
      ],
      "stateMutability": "nonpayable",
      "type": "constructor"
    },
    {
      "inputs": [
        {
          "internalType": "address",
          "name": "newAddress",
          "type": "address"
        }
      ],
      "name": "ChangeDepositeStorage",
      "outputs": [],
      "stateMutability": "payable",
      "type": "function"
    },
    {
      "inputs": [
        {
          "internalType": "address",
          "name": "newAddress",
          "type": "address"
        }
      ],
      "name": "ChangePullStorage",
      "outputs": [],
      "stateMutability": "payable",
      "type": "function"
    },
    {
      "inputs": [
        {
          "internalType": "address",
          "name": "newAddress",
          "type": "address"
        }
      ],
      "name": "ChangeTableStorage",
      "outputs": [],
      "stateMutability": "payable",
      "type": "function"
    },
    {
      "inputs": [
        {
          "internalType": "address",
          "name": "newAddress",
          "type": "address"
        }
      ],
      "name": "ChangeUserStorage",
      "outputs": [],
      "stateMutability": "payable",
      "type": "function"
    },
    {
      "inputs": [
        {
          "internalType": "uint8",
          "name": "table",
          "type": "uint8"
        },
        {
          "internalType": "address",
          "name": "userAddress",
          "type": "address"
        }
      ],
      "name": "ReinvestTable",
      "outputs": [],
      "stateMutability": "payable",
      "type": "function"
    },
    {
      "inputs": [
        {
          "internalType": "uint256",
          "name": "pullId",
          "type": "uint256"
        }
      ],
      "name": "RewardToPull",
      "outputs": [],
      "stateMutability": "payable",
      "type": "function"
    },
    {
      "inputs": [],
      "name": "getContractBalance",
      "outputs": [
        {
          "internalType": "uint256",
          "name": "",
          "type": "uint256"
        }
      ],
      "stateMutability": "view",
      "type": "function"
    },
    {
      "inputs": [],
      "name": "withDraw",
      "outputs": [],
      "stateMutability": "payable",
      "type": "function"
    },
    {
      "stateMutability": "payable",
      "type": "receive"
    }
  ],
  "bytecode": "0x60806040523480156200001157600080fd5b50604051620024db380380620024db833981810160405281019062000037919062000306565b600160008190555033600160006101000a81548173ffffffffffffffffffffffffffffffffffffffff021916908373ffffffffffffffffffffffffffffffffffffffff16021790555084600260006101000a81548173ffffffffffffffffffffffffffffffffffffffff021916908373ffffffffffffffffffffffffffffffffffffffff16021790555083600360006101000a81548173ffffffffffffffffffffffffffffffffffffffff021916908373ffffffffffffffffffffffffffffffffffffffff16021790555082600460006101000a81548173ffffffffffffffffffffffffffffffffffffffff021916908373ffffffffffffffffffffffffffffffffffffffff16021790555080600560006101000a81548173ffffffffffffffffffffffffffffffffffffffff021916908373ffffffffffffffffffffffffffffffffffffffff16021790555081600660006101000a81548173ffffffffffffffffffffffffffffffffffffffff021916908373ffffffffffffffffffffffffffffffffffffffff160217905550600560009054906101000a900473ffffffffffffffffffffffffffffffffffffffff1673ffffffffffffffffffffffffffffffffffffffff166341e6f7246040518163ffffffff1660e01b8152600401600060405180830381600087803b1580156200023057600080fd5b505af115801562000245573d6000803e3d6000fd5b50505050600660009054906101000a900473ffffffffffffffffffffffffffffffffffffffff1673ffffffffffffffffffffffffffffffffffffffff166341e6f7246040518163ffffffff1660e01b8152600401600060405180830381600087803b158015620002b457600080fd5b505af1158015620002c9573d6000803e3d6000fd5b50505050505050505062000404565b600081519050620002e981620003d0565b92915050565b6000815190506200030081620003ea565b92915050565b600080600080600060a086880312156200031f57600080fd5b60006200032f88828901620002d8565b95505060206200034288828901620002d8565b94505060406200035588828901620002d8565b93505060606200036888828901620002ef565b92505060806200037b88828901620002d8565b9150509295509295909350565b60006200039582620003b0565b9050919050565b6000620003a982620003b0565b9050919050565b600073ffffffffffffffffffffffffffffffffffffffff82169050919050565b620003db8162000388565b8114620003e757600080fd5b50565b620003f5816200039c565b81146200040157600080fd5b50565b6120c780620004146000396000f3fe60806040526004361061007f5760003560e01c80636f9fb98a1161004e5780636f9fb98a146100e9578063afc983fc14610114578063bf47376814610130578063c8e6a5311461014c57610086565b80630a0512f41461008b5780630fdb1c10146100a7578063262ac669146100b157806335a2e6cc146100cd57610086565b3661008657005b600080fd5b6100a560048036038101906100a09190611829565b610168565b005b6100af61023c565b005b6100cb60048036038101906100c69190611986565b610394565b005b6100e760048036038101906100e29190611829565b6109a6565b005b3480156100f557600080fd5b506100fe610afc565b60405161010b9190611b9c565b60405180910390f35b61012e60048036038101906101299190611829565b610b04565b005b61014a60048036038101906101459190611829565b610bd8565b005b61016660048036038101906101619190611934565b610cac565b005b3373ffffffffffffffffffffffffffffffffffffffff16600160009054906101000a900473ffffffffffffffffffffffffffffffffffffffff1673ffffffffffffffffffffffffffffffffffffffff16146101f8576040517f08c379a00000000000000000000000000000000000000000000000000000000081526004016101ef90611b5c565b60405180910390fd5b80600460006101000a81548173ffffffffffffffffffffffffffffffffffffffff021916908373ffffffffffffffffffffffffffffffffffffffff16021790555050565b60026000541415610282576040517f08c379a000000000000000000000000000000000000000000000000000000000815260040161027990611b7c565b60405180910390fd5b60026000819055503373ffffffffffffffffffffffffffffffffffffffff16600160009054906101000a900473ffffffffffffffffffffffffffffffffffffffff1673ffffffffffffffffffffffffffffffffffffffff161461031a576040517f08c379a000000000000000000000000000000000000000000000000000000000815260040161031190611b5c565b60405180910390fd5b600160009054906101000a900473ffffffffffffffffffffffffffffffffffffffff1673ffffffffffffffffffffffffffffffffffffffff166108fc61035e610afc565b9081150290604051600060405180830381858888f19350505050158015610389573d6000803e3d6000fd5b506001600081905550565b600360009054906101000a900473ffffffffffffffffffffffffffffffffffffffff1673ffffffffffffffffffffffffffffffffffffffff1663b22abbfb826040518263ffffffff1660e01b81526004016103ef9190611ac1565b60206040518083038186803b15801561040757600080fd5b505afa15801561041b573d6000803e3d6000fd5b505050506040513d601f19601f8201168201806040525081019061043f919061190b565b61047e576040517f08c379a000000000000000000000000000000000000000000000000000000000815260040161047590611b1c565b60405180910390fd5b6000600460009054906101000a900473ffffffffffffffffffffffffffffffffffffffff1673ffffffffffffffffffffffffffffffffffffffff1663e29e0411846040518263ffffffff1660e01b81526004016104db9190611c40565b60206040518083038186803b1580156104f357600080fd5b505afa158015610507573d6000803e3d6000fd5b505050506040513d601f19601f8201168201806040525081019061052b919061195d565b90506000600360009054906101000a900473ffffffffffffffffffffffffffffffffffffffff1673ffffffffffffffffffffffffffffffffffffffff166331a73991846040518263ffffffff1660e01b815260040161058a9190611ac1565b60206040518083038186803b1580156105a257600080fd5b505afa1580156105b6573d6000803e3d6000fd5b505050506040513d601f19601f820116820180604052508101906105da919061195d565b905081600560009054906101000a900473ffffffffffffffffffffffffffffffffffffffff1673ffffffffffffffffffffffffffffffffffffffff1663953fe932836040518263ffffffff1660e01b81526004016106389190611b9c565b60206040518083038186803b15801561065057600080fd5b505afa158015610664573d6000803e3d6000fd5b505050506040513d601f19601f82011682018060405250810190610688919061195d565b106106c8576040517f08c379a00000000000000000000000000000000000000000000000000000000081526004016106bf90611afc565b60405180910390fd5b600460009054906101000a900473ffffffffffffffffffffffffffffffffffffffff1673ffffffffffffffffffffffffffffffffffffffff1663b5a3c8b782866040518363ffffffff1660e01b8152600401610725929190611c17565b60206040518083038186803b15801561073d57600080fd5b505afa158015610751573d6000803e3d6000fd5b505050506040513d601f19601f82011682018060405250810190610775919061190b565b156107b5576040517f08c379a00000000000000000000000000000000000000000000000000000000081526004016107ac90611adc565b60405180910390fd5b6000600660009054906101000a900473ffffffffffffffffffffffffffffffffffffffff1673ffffffffffffffffffffffffffffffffffffffff166108fc849081150290604051600060405180830381858888f1935050505090508061087f57600660009054906101000a900473ffffffffffffffffffffffffffffffffffffffff1673ffffffffffffffffffffffffffffffffffffffff166108fc849081150290604051600060405180830381858888f1935050505015801561087d573d6000803e3d6000fd5b505b600560009054906101000a900473ffffffffffffffffffffffffffffffffffffffff1673ffffffffffffffffffffffffffffffffffffffff16635c72731484846040518363ffffffff1660e01b81526004016108dc929190611bb7565b600060405180830381600087803b1580156108f657600080fd5b505af115801561090a573d6000803e3d6000fd5b50505050600660009054906101000a900473ffffffffffffffffffffffffffffffffffffffff1673ffffffffffffffffffffffffffffffffffffffff16638a73900a8385886040518463ffffffff1660e01b815260040161096d93929190611be0565b600060405180830381600087803b15801561098757600080fd5b505af115801561099b573d6000803e3d6000fd5b505050505050505050565b3373ffffffffffffffffffffffffffffffffffffffff16600160009054906101000a900473ffffffffffffffffffffffffffffffffffffffff1673ffffffffffffffffffffffffffffffffffffffff1614610a36576040517f08c379a0000000000000000000000000000000000000000000000000000000008152600401610a2d90611b5c565b60405180910390fd5b80600560006101000a81548173ffffffffffffffffffffffffffffffffffffffff021916908373ffffffffffffffffffffffffffffffffffffffff160217905550600560009054906101000a900473ffffffffffffffffffffffffffffffffffffffff1673ffffffffffffffffffffffffffffffffffffffff166341e6f7246040518163ffffffff1660e01b8152600401600060405180830381600087803b158015610ae157600080fd5b505af1158015610af5573d6000803e3d6000fd5b5050505050565b600047905090565b3373ffffffffffffffffffffffffffffffffffffffff16600160009054906101000a900473ffffffffffffffffffffffffffffffffffffffff1673ffffffffffffffffffffffffffffffffffffffff1614610b94576040517f08c379a0000000000000000000000000000000000000000000000000000000008152600401610b8b90611b5c565b60405180910390fd5b80600260006101000a81548173ffffffffffffffffffffffffffffffffffffffff021916908373ffffffffffffffffffffffffffffffffffffffff16021790555050565b3373ffffffffffffffffffffffffffffffffffffffff16600160009054906101000a900473ffffffffffffffffffffffffffffffffffffffff1673ffffffffffffffffffffffffffffffffffffffff1614610c68576040517f08c379a0000000000000000000000000000000000000000000000000000000008152600401610c5f90611b5c565b60405180910390fd5b80600360006101000a81548173ffffffffffffffffffffffffffffffffffffffff021916908373ffffffffffffffffffffffffffffffffffffffff16021790555050565b600260009054906101000a900473ffffffffffffffffffffffffffffffffffffffff1673ffffffffffffffffffffffffffffffffffffffff166303b4525f826040518263ffffffff1660e01b8152600401610d079190611b9c565b60206040518083038186803b158015610d1f57600080fd5b505afa158015610d33573d6000803e3d6000fd5b505050506040513d601f19601f82011682018060405250810190610d57919061190b565b610d96576040517f08c379a0000000000000000000000000000000000000000000000000000000008152600401610d8d90611b3c565b60405180910390fd5b6000600260009054906101000a900473ffffffffffffffffffffffffffffffffffffffff1673ffffffffffffffffffffffffffffffffffffffff16638fd061016040518163ffffffff1660e01b815260040160006040518083038186803b158015610e0057600080fd5b505afa158015610e14573d6000803e3d6000fd5b505050506040513d6000823e3d601f19601f82011682018060405250810190610e3d91906118ca565b90506000603c606434610e509190611d13565b610e5a9190611d44565b905060008134610e6a9190611d9e565b905060006064600260009054906101000a900473ffffffffffffffffffffffffffffffffffffffff1673ffffffffffffffffffffffffffffffffffffffff16636045f20a876040518263ffffffff1660e01b8152600401610ecb9190611b9c565b60206040518083038186803b158015610ee357600080fd5b505afa158015610ef7573d6000803e3d6000fd5b505050506040513d601f19601f82011682018060405250810190610f1b919061195d565b610f259190611d13565b90506000600260009054906101000a900473ffffffffffffffffffffffffffffffffffffffff1673ffffffffffffffffffffffffffffffffffffffff166373c74e91876040518263ffffffff1660e01b8152600401610f849190611b9c565b60206040518083038186803b158015610f9c57600080fd5b505afa158015610fb0573d6000803e3d6000fd5b505050506040513d601f19601f82011682018060405250810190610fd4919061195d565b905060005b8181101561170c576000806000600260009054906101000a900473ffffffffffffffffffffffffffffffffffffffff1673ffffffffffffffffffffffffffffffffffffffff166366e8c5ef8b866040518363ffffffff1660e01b8152600401611043929190611bb7565b60606040518083038186803b15801561105b57600080fd5b505afa15801561106f573d6000803e3d6000fd5b505050506040513d601f19601f82011682018060405250810190611093919061187b565b925092509250600086836110a79190611d13565b905060008160648b6110b99190611d13565b6110c39190611d44565b905060008260648b6110d59190611d13565b6110df9190611d44565b9050600560009054906101000a900473ffffffffffffffffffffffffffffffffffffffff1673ffffffffffffffffffffffffffffffffffffffff1663a64b47ce85836040518363ffffffff1660e01b815260040161113e929190611bb7565b600060405180830381600087803b15801561115857600080fd5b505af115801561116c573d6000803e3d6000fd5b50505050600060019050600080600360009054906101000a900473ffffffffffffffffffffffffffffffffffffffff1673ffffffffffffffffffffffffffffffffffffffff16634260b84c8a6040518263ffffffff1660e01b81526004016111d49190611ac1565b60206040518083038186803b1580156111ec57600080fd5b505afa158015611200573d6000803e3d6000fd5b505050506040513d601f19601f820116820180604052508101906112249190611852565b90505b60018f516112359190611d9e565b83111580156112925750600160009054906101000a900473ffffffffffffffffffffffffffffffffffffffff1673ffffffffffffffffffffffffffffffffffffffff168173ffffffffffffffffffffffffffffffffffffffff1614155b156115aa5760008f84815181106112d2577f4e487b7100000000000000000000000000000000000000000000000000000000600052603260045260246000fd5b60200260200101516064876112e79190611d13565b6112f19190611d44565b905060008273ffffffffffffffffffffffffffffffffffffffff166108fc839081150290604051600060405180830381858888f1935050505090508061139b57600160009054906101000a900473ffffffffffffffffffffffffffffffffffffffff1673ffffffffffffffffffffffffffffffffffffffff166108fc839081150290604051600060405180830381858888f19350505050158015611399573d6000803e3d6000fd5b505b6000600360009054906101000a900473ffffffffffffffffffffffffffffffffffffffff1673ffffffffffffffffffffffffffffffffffffffff166331a73991856040518263ffffffff1660e01b81526004016113f89190611ac1565b60206040518083038186803b15801561141057600080fd5b505afa158015611424573d6000803e3d6000fd5b505050506040513d601f19601f82011682018060405250810190611448919061195d565b9050600660009054906101000a900473ffffffffffffffffffffffffffffffffffffffff1673ffffffffffffffffffffffffffffffffffffffff16633f2a65f584836040518363ffffffff1660e01b81526004016114a7929190611bb7565b600060405180830381600087803b1580156114c157600080fd5b505af11580156114d5573d6000803e3d6000fd5b50505050600360009054906101000a900473ffffffffffffffffffffffffffffffffffffffff1673ffffffffffffffffffffffffffffffffffffffff16634260b84c856040518263ffffffff1660e01b81526004016115349190611ac1565b60206040518083038186803b15801561154c57600080fd5b505afa158015611560573d6000803e3d6000fd5b505050506040513d601f19601f820116820180604052508101906115849190611852565b9350858061159190611e58565b96505082856115a09190611cbd565b9450505050611227565b81856115b69190611d9e565b945060008973ffffffffffffffffffffffffffffffffffffffff166108fc879081150290604051600060405180830381858888f1935050505090508061166057600160009054906101000a900473ffffffffffffffffffffffffffffffffffffffff1673ffffffffffffffffffffffffffffffffffffffff166108fc879081150290604051600060405180830381858888f1935050505015801561165e573d6000803e3d6000fd5b505b600660009054906101000a900473ffffffffffffffffffffffffffffffffffffffff1673ffffffffffffffffffffffffffffffffffffffff1663190a853b878a6040518363ffffffff1660e01b81526004016116bd929190611bb7565b600060405180830381600087803b1580156116d757600080fd5b505af11580156116eb573d6000803e3d6000fd5b5050505050505050505050505050808061170490611e58565b915050610fd9565b50505050505050565b600061172861172384611c80565b611c5b565b9050808382526020820190508285602086028201111561174757600080fd5b60005b85811015611777578161175d88826117ff565b84526020840193506020830192505060018101905061174a565b5050509392505050565b60008135905061179081612035565b92915050565b6000815190506117a581612035565b92915050565b600082601f8301126117bc57600080fd5b81516117cc848260208601611715565b91505092915050565b6000815190506117e48161204c565b92915050565b6000813590506117f981612063565b92915050565b60008151905061180e81612063565b92915050565b6000813590506118238161207a565b92915050565b60006020828403121561183b57600080fd5b600061184984828501611781565b91505092915050565b60006020828403121561186457600080fd5b600061187284828501611796565b91505092915050565b60008060006060848603121561189057600080fd5b600061189e86828701611796565b93505060206118af868287016117ff565b92505060406118c0868287016117ff565b9150509250925092565b6000602082840312156118dc57600080fd5b600082015167ffffffffffffffff8111156118f657600080fd5b611902848285016117ab565b91505092915050565b60006020828403121561191d57600080fd5b600061192b848285016117d5565b91505092915050565b60006020828403121561194657600080fd5b6000611954848285016117ea565b91505092915050565b60006020828403121561196f57600080fd5b600061197d848285016117ff565b91505092915050565b6000806040838503121561199957600080fd5b60006119a785828601611814565b92505060206119b885828601611781565b9150509250929050565b6119cb81611dd2565b82525050565b60006119de601283611cac565b91506119e982611f3f565b602082019050919050565b6000611a01601183611cac565b9150611a0c82611f68565b602082019050919050565b6000611a24600e83611cac565b9150611a2f82611f91565b602082019050919050565b6000611a47600e83611cac565b9150611a5282611fba565b602082019050919050565b6000611a6a600a83611cac565b9150611a7582611fe3565b602082019050919050565b6000611a8d601f83611cac565b9150611a988261200c565b602082019050919050565b611aac81611e10565b82525050565b611abb81611e1a565b82525050565b6000602082019050611ad660008301846119c2565b92915050565b60006020820190508181036000830152611af5816119d1565b9050919050565b60006020820190508181036000830152611b15816119f4565b9050919050565b60006020820190508181036000830152611b3581611a17565b9050919050565b60006020820190508181036000830152611b5581611a3a565b9050919050565b60006020820190508181036000830152611b7581611a5d565b9050919050565b60006020820190508181036000830152611b9581611a80565b9050919050565b6000602082019050611bb16000830184611aa3565b92915050565b6000604082019050611bcc6000830185611aa3565b611bd96020830184611aa3565b9392505050565b6000606082019050611bf56000830186611aa3565b611c026020830185611aa3565b611c0f6040830184611ab2565b949350505050565b6000604082019050611c2c6000830185611aa3565b611c396020830184611ab2565b9392505050565b6000602082019050611c556000830184611ab2565b92915050565b6000611c65611c76565b9050611c718282611e27565b919050565b6000604051905090565b600067ffffffffffffffff821115611c9b57611c9a611eff565b5b602082029050602081019050919050565b600082825260208201905092915050565b6000611cc882611e10565b9150611cd383611e10565b9250827fffffffffffffffffffffffffffffffffffffffffffffffffffffffffffffffff03821115611d0857611d07611ea1565b5b828201905092915050565b6000611d1e82611e10565b9150611d2983611e10565b925082611d3957611d38611ed0565b5b828204905092915050565b6000611d4f82611e10565b9150611d5a83611e10565b9250817fffffffffffffffffffffffffffffffffffffffffffffffffffffffffffffffff0483118215151615611d9357611d92611ea1565b5b828202905092915050565b6000611da982611e10565b9150611db483611e10565b925082821015611dc757611dc6611ea1565b5b828203905092915050565b6000611ddd82611df0565b9050919050565b60008115159050919050565b600073ffffffffffffffffffffffffffffffffffffffff82169050919050565b6000819050919050565b600060ff82169050919050565b611e3082611f2e565b810181811067ffffffffffffffff82111715611e4f57611e4e611eff565b5b80604052505050565b6000611e6382611e10565b91507fffffffffffffffffffffffffffffffffffffffffffffffffffffffffffffffff821415611e9657611e95611ea1565b5b600182019050919050565b7f4e487b7100000000000000000000000000000000000000000000000000000000600052601160045260246000fd5b7f4e487b7100000000000000000000000000000000000000000000000000000000600052601260045260246000fd5b7f4e487b7100000000000000000000000000000000000000000000000000000000600052604160045260246000fd5b6000601f19601f8301169050919050565b7f5461626c65416c72656164794163746976650000000000000000000000000000600082015250565b7f4e6f7420656e6f6967687420746f6b656e000000000000000000000000000000600082015250565b7f4e6f7420666f756e642075736572000000000000000000000000000000000000600082015250565b7f50756c6c206e6f7420666f756e64000000000000000000000000000000000000600082015250565b7f6f6e6c79206f776e657200000000000000000000000000000000000000000000600082015250565b7f5265656e7472616e637947756172643a207265656e7472616e742063616c6c00600082015250565b61203e81611dd2565b811461204957600080fd5b50565b61205581611de4565b811461206057600080fd5b50565b61206c81611e10565b811461207757600080fd5b50565b61208381611e1a565b811461208e57600080fd5b5056fea2646970667358221220ee524d88fee7028683e5426e0017c8213c9b18fc6c782d6dca0afeb20a11eba064736f6c63430008040033",
  "linkReferences": {},
  "deployedLinkReferences": {}
}