{
  "_format": "hh-sol-artifact-1",
  "contractName": "TableStorage",
  "sourceName": "contracts/Repository/TableStorage.sol",
  "abi": [
    {
      "inputs": [
        {
          "internalType": "address",
          "name": "key",
          "type": "address"
        }
      ],
      "stateMutability": "payable",
      "type": "constructor"
    },
    {
      "inputs": [
        {
          "internalType": "uint256",
          "name": "userId",
          "type": "uint256"
        },
        {
          "internalType": "uint256",
          "name": "rewardValue",
          "type": "uint256"
        },
        {
          "internalType": "address",
          "name": "key",
          "type": "address"
        }
      ],
      "name": "AddReferalPayout",
      "outputs": [],
      "stateMutability": "payable",
      "type": "function"
    },
    {
      "inputs": [
        {
          "internalType": "uint256",
          "name": "rewarderUserId",
          "type": "uint256"
        },
        {
          "internalType": "uint8",
          "name": "table",
          "type": "uint8"
        },
        {
          "internalType": "uint256",
          "name": "reward",
          "type": "uint256"
        },
        {
          "internalType": "address",
          "name": "key",
          "type": "address"
        }
      ],
      "name": "AddRewardSum",
      "outputs": [],
      "stateMutability": "payable",
      "type": "function"
    },
    {
      "inputs": [
        {
          "internalType": "uint8",
          "name": "table",
          "type": "uint8"
        },
        {
          "internalType": "uint16",
          "name": "payouts",
          "type": "uint16"
        },
        {
          "internalType": "address",
          "name": "UserAddress",
          "type": "address"
        },
        {
          "internalType": "uint256",
          "name": "userId",
          "type": "uint256"
        },
        {
          "internalType": "address",
          "name": "key",
          "type": "address"
        }
      ],
      "name": "AddTable",
      "outputs": [],
      "stateMutability": "payable",
      "type": "function"
    },
    {
      "inputs": [
        {
          "internalType": "uint256",
          "name": "rewarderUserId",
          "type": "uint256"
        },
        {
          "internalType": "uint8",
          "name": "table",
          "type": "uint8"
        },
        {
          "internalType": "address",
          "name": "key",
          "type": "address"
        }
      ],
      "name": "DeactiveTable",
      "outputs": [],
      "stateMutability": "payable",
      "type": "function"
    },
    {
      "inputs": [
        {
          "internalType": "uint8",
          "name": "table",
          "type": "uint8"
        }
      ],
      "name": "GetFirstTableAddress",
      "outputs": [
        {
          "internalType": "address",
          "name": "",
          "type": "address"
        }
      ],
      "stateMutability": "view",
      "type": "function"
    },
    {
      "inputs": [],
      "name": "GetGlobalStatistic",
      "outputs": [
        {
          "internalType": "uint256",
          "name": "",
          "type": "uint256"
        }
      ],
      "stateMutability": "view",
      "type": "function"
    },
    {
      "inputs": [
        {
          "internalType": "uint256",
          "name": "userId",
          "type": "uint256"
        },
        {
          "internalType": "address",
          "name": "userAddress",
          "type": "address"
        },
        {
          "internalType": "uint8",
          "name": "table",
          "type": "uint8"
        },
        {
          "internalType": "uint256",
          "name": "totalTables",
          "type": "uint256"
        }
      ],
      "name": "GetPlaceInQueue",
      "outputs": [
        {
          "internalType": "uint256",
          "name": "",
          "type": "uint256"
        },
        {
          "internalType": "uint256",
          "name": "",
          "type": "uint256"
        }
      ],
      "stateMutability": "view",
      "type": "function"
    },
    {
      "inputs": [
        {
          "internalType": "uint256",
          "name": "totalTables",
          "type": "uint256"
        }
      ],
      "name": "GetTablesCount",
      "outputs": [
        {
          "internalType": "uint256[]",
          "name": "",
          "type": "uint256[]"
        }
      ],
      "stateMutability": "view",
      "type": "function"
    },
    {
      "inputs": [
        {
          "internalType": "uint256",
          "name": "userId",
          "type": "uint256"
        },
        {
          "internalType": "uint256",
          "name": "totalTables",
          "type": "uint256"
        }
      ],
      "name": "GetUserLevels",
      "outputs": [
        {
          "internalType": "bool[]",
          "name": "",
          "type": "bool[]"
        },
        {
          "internalType": "uint16[]",
          "name": "",
          "type": "uint16[]"
        },
        {
          "internalType": "uint16[]",
          "name": "",
          "type": "uint16[]"
        },
        {
          "internalType": "uint256[]",
          "name": "",
          "type": "uint256[]"
        }
      ],
      "stateMutability": "view",
      "type": "function"
    },
    {
      "inputs": [
        {
          "internalType": "uint256",
          "name": "userId",
          "type": "uint256"
        }
      ],
      "name": "GetUserRewards",
      "outputs": [
        {
          "internalType": "uint256",
          "name": "",
          "type": "uint256"
        },
        {
          "internalType": "uint256",
          "name": "",
          "type": "uint256"
        }
      ],
      "stateMutability": "view",
      "type": "function"
    },
    {
      "inputs": [
        {
          "internalType": "uint256",
          "name": "userId",
          "type": "uint256"
        },
        {
          "internalType": "uint8",
          "name": "tableNumber",
          "type": "uint8"
        }
      ],
      "name": "IsTableActive",
      "outputs": [
        {
          "internalType": "bool",
          "name": "",
          "type": "bool"
        }
      ],
      "stateMutability": "view",
      "type": "function"
    },
    {
      "inputs": [
        {
          "internalType": "uint256",
          "name": "userId",
          "type": "uint256"
        },
        {
          "internalType": "uint8",
          "name": "table",
          "type": "uint8"
        }
      ],
      "name": "IsTableActiveOver",
      "outputs": [
        {
          "internalType": "bool",
          "name": "",
          "type": "bool"
        }
      ],
      "stateMutability": "view",
      "type": "function"
    },
    {
      "inputs": [
        {
          "internalType": "address",
          "name": "key",
          "type": "address"
        },
        {
          "internalType": "uint8",
          "name": "table",
          "type": "uint8"
        },
        {
          "internalType": "address",
          "name": "rewardAddress",
          "type": "address"
        }
      ],
      "name": "PushTable",
      "outputs": [],
      "stateMutability": "payable",
      "type": "function"
    },
    {
      "inputs": [
        {
          "internalType": "uint8",
          "name": "table",
          "type": "uint8"
        },
        {
          "internalType": "address",
          "name": "key",
          "type": "address"
        }
      ],
      "name": "SwitchTablesQueue",
      "outputs": [],
      "stateMutability": "payable",
      "type": "function"
    },
    {
      "inputs": [],
      "name": "transactions",
      "outputs": [
        {
          "internalType": "uint256",
          "name": "",
          "type": "uint256"
        }
      ],
      "stateMutability": "view",
      "type": "function"
    }
  ],
  "bytecode": "0x608060405260405162001fe138038062001fe18339818101604052810190620000299190620000de565b60018060008373ffffffffffffffffffffffffffffffffffffffff1673ffffffffffffffffffffffffffffffffffffffff16815260200190815260200160002060006101000a81548160ff021916908315150217905550336000806101000a81548173ffffffffffffffffffffffffffffffffffffffff021916908373ffffffffffffffffffffffffffffffffffffffff1602179055505062000158565b600081519050620000d8816200013e565b92915050565b600060208284031215620000f157600080fd5b60006200010184828501620000c7565b91505092915050565b600062000117826200011e565b9050919050565b600073ffffffffffffffffffffffffffffffffffffffff82169050919050565b62000149816200010a565b81146200015557600080fd5b50565b611e7980620001686000396000f3fe6080604052600436106100e85760003560e01c8063b5a3c8b71161008a578063dd0411d111610059578063dd0411d1146102a5578063ec030b24146102e2578063efde8a171461031f578063fefa519d1461035d576100e8565b8063b5a3c8b714610214578063c981d22f14610251578063cebd63511461026d578063d4e9a8ef14610289576100e8565b80636abf4fc5116100c65780636abf4fc51461017157806376630fa1146101b15780638a2a526a146101cd57806395d7d005146101f8576100e8565b806318015191146100ed57806343938a27146101185780635437af4914610134575b600080fd5b3480156100f957600080fd5b5061010261039b565b60405161010f9190611ab1565b60405180910390f35b610132600480360381019061012d919061173f565b6103a1565b005b34801561014057600080fd5b5061015b600480360381019061015691906116da565b6105c3565b60405161016891906119b8565b60405180910390f35b34801561017d57600080fd5b5061019860048036038101906101939190611561565b610661565b6040516101a894939291906119d3565b60405180910390f35b6101cb60048036038101906101c69190611628565b610ac8565b005b3480156101d957600080fd5b506101e2610ba2565b6040516101ef9190611ab1565b60405180910390f35b610212600480360381019061020d9190611677565b610bac565b005b34801561022057600080fd5b5061023b600480360381019061023691906115ec565b610d1b565b6040516102489190611a56565b60405180910390f35b61026b60048036038101906102669190611486565b610d63565b005b6102876004803603810190610282919061159d565b610e6e565b005b6102a3600480360381019061029e9190611703565b610f2c565b005b3480156102b157600080fd5b506102cc60048036038101906102c791906115ec565b611082565b6040516102d99190611a56565b60405180910390f35b3480156102ee57600080fd5b50610309600480360381019061030491906114d5565b6110d2565b6040516103169190611a34565b60405180910390f35b34801561032b57600080fd5b50610346600480360381019061034191906114d5565b611216565b604051610354929190611acc565b60405180910390f35b34801561036957600080fd5b50610384600480360381019061037f91906114fe565b611250565b604051610392929190611acc565b60405180910390f35b60055481565b600160008273ffffffffffffffffffffffffffffffffffffffff1673ffffffffffffffffffffffffffffffffffffffff16815260200190815260200160002060009054906101000a900460ff1661042d576040517f08c379a000000000000000000000000000000000000000000000000000000000815260040161042490611a91565b60405180910390fd5b6005600081548092919061044090611cf3565b91905055506002600083815260200190815260200160002060000160008660ff1660ff168152602001908152602001600020600001600081819054906101000a900461ffff168092919061049390611cc8565b91906101000a81548161ffff021916908361ffff16021790555050836002600084815260200190815260200160002060000160008760ff1660ff16815260200190815260200160002060000160026101000a81548161ffff021916908361ffff16021790555060016002600084815260200190815260200160002060000160008760ff1660ff16815260200190815260200160002060000160046101000a81548160ff021916908315150217905550600360008660ff1660ff168152602001908152602001600020839080600181540180825580915050600190039060005260206000200160009091909190916101000a81548173ffffffffffffffffffffffffffffffffffffffff021916908373ffffffffffffffffffffffffffffffffffffffff1602179055505050505050565b6000600360008360ff1660ff168152602001908152602001600020600460008460ff1660ff168152602001908152602001600020548154811061062f577f4e487b7100000000000000000000000000000000000000000000000000000000600052603260045260246000fd5b9060005260206000200160009054906101000a900473ffffffffffffffffffffffffffffffffffffffff169050919050565b60608060608060006001866106769190611bb1565b67ffffffffffffffff8111156106b5577f4e487b7100000000000000000000000000000000000000000000000000000000600052604160045260246000fd5b6040519080825280602002602001820160405280156106e35781602001602082028036833780820191505090505b50905060006001876106f59190611bb1565b67ffffffffffffffff811115610734577f4e487b7100000000000000000000000000000000000000000000000000000000600052604160045260246000fd5b6040519080825280602002602001820160405280156107625781602001602082028036833780820191505090505b50905060006001886107749190611bb1565b67ffffffffffffffff8111156107b3577f4e487b7100000000000000000000000000000000000000000000000000000000600052604160045260246000fd5b6040519080825280602002602001820160405280156107e15781602001602082028036833780820191505090505b50905060006001896107f39190611bb1565b67ffffffffffffffff811115610832577f4e487b7100000000000000000000000000000000000000000000000000000000600052604160045260246000fd5b6040519080825280602002602001820160405280156108605781602001602082028036833780820191505090505b5090506000600190505b898160ff1611610aae57600260008c815260200190815260200160002060000160008260ff1660ff16815260200190815260200160002060000160049054906101000a900460ff16858260ff16815181106108ee577f4e487b7100000000000000000000000000000000000000000000000000000000600052603260045260246000fd5b602002602001019015159081151581525050600260008c815260200190815260200160002060000160008260ff1660ff16815260200190815260200160002060000160029054906101000a900461ffff16848260ff168151811061097b577f4e487b7100000000000000000000000000000000000000000000000000000000600052603260045260246000fd5b602002602001019061ffff16908161ffff1681525050600260008c815260200190815260200160002060000160008260ff1660ff16815260200190815260200160002060000160009054906101000a900461ffff16838260ff1681518110610a0c577f4e487b7100000000000000000000000000000000000000000000000000000000600052603260045260246000fd5b602002602001019061ffff16908161ffff1681525050600260008c815260200190815260200160002060000160008260ff1660ff16815260200190815260200160002060010154828260ff1681518110610a8f577f4e487b7100000000000000000000000000000000000000000000000000000000600052603260045260246000fd5b6020026020010181815250508080610aa690611d3c565b91505061086a565b508383838397509750975097505050505092959194509250565b600160008273ffffffffffffffffffffffffffffffffffffffff1673ffffffffffffffffffffffffffffffffffffffff16815260200190815260200160002060009054906101000a900460ff16610b54576040517f08c379a0000000000000000000000000000000000000000000000000000000008152600401610b4b90611a91565b60405180910390fd5b60006002600085815260200190815260200160002060000160008460ff1660ff16815260200190815260200160002060000160046101000a81548160ff021916908315150217905550505050565b6000600554905090565b600160008273ffffffffffffffffffffffffffffffffffffffff1673ffffffffffffffffffffffffffffffffffffffff16815260200190815260200160002060009054906101000a900460ff16610c38576040517f08c379a0000000000000000000000000000000000000000000000000000000008152600401610c2f90611a91565b60405180910390fd5b816002600086815260200190815260200160002060000160008560ff1660ff1681526020019081526020016000206001016000828254610c789190611bb1565b925050819055506002600085815260200190815260200160002060000160008460ff1660ff168152602001908152602001600020600001600281819054906101000a900461ffff1680929190610ccd90611c9e565b91906101000a81548161ffff021916908361ffff1602179055505081600260008681526020019081526020016000206001016000828254610d0e9190611bb1565b9250508190555050505050565b60006002600084815260200190815260200160002060000160008360ff1660ff16815260200190815260200160002060000160049054906101000a900460ff16905092915050565b600160008473ffffffffffffffffffffffffffffffffffffffff1673ffffffffffffffffffffffffffffffffffffffff16815260200190815260200160002060009054906101000a900460ff16610def576040517f08c379a0000000000000000000000000000000000000000000000000000000008152600401610de690611a91565b60405180910390fd5b600360008360ff1660ff168152602001908152602001600020819080600181540180825580915050600190039060005260206000200160009091909190916101000a81548173ffffffffffffffffffffffffffffffffffffffff021916908373ffffffffffffffffffffffffffffffffffffffff160217905550505050565b600160008273ffffffffffffffffffffffffffffffffffffffff1673ffffffffffffffffffffffffffffffffffffffff16815260200190815260200160002060009054906101000a900460ff16610efa576040517f08c379a0000000000000000000000000000000000000000000000000000000008152600401610ef190611a91565b60405180910390fd5b81600260008581526020019081526020016000206002016000828254610f209190611bb1565b92505081905550505050565b600160008273ffffffffffffffffffffffffffffffffffffffff1673ffffffffffffffffffffffffffffffffffffffff16815260200190815260200160002060009054906101000a900460ff16610fb8576040517f08c379a0000000000000000000000000000000000000000000000000000000008152600401610faf90611a91565b60405180910390fd5b600360008360ff1660ff168152602001908152602001600020600460008460ff1660ff1681526020019081526020016000205481548110611022577f4e487b7100000000000000000000000000000000000000000000000000000000600052603260045260246000fd5b9060005260206000200160006101000a81549073ffffffffffffffffffffffffffffffffffffffff0219169055600460008360ff1660ff168152602001908152602001600020600081548092919061107990611cf3565b91905055505050565b6000806002600085815260200190815260200160002060000160008460ff1660ff16815260200190815260200160002060000160029054906101000a900461ffff1661ffff161115905092915050565b606060006001836110e39190611bb1565b67ffffffffffffffff811115611122577f4e487b7100000000000000000000000000000000000000000000000000000000600052604160045260246000fd5b6040519080825280602002602001820160405280156111505781602001602082028036833780820191505090505b5090506000600190505b838160ff161161120c57600460008260ff1660ff168152602001908152602001600020546001600360008460ff1660ff168152602001908152602001600020805490506111a79190611c07565b6111b19190611c07565b828260ff16815181106111ed577f4e487b7100000000000000000000000000000000000000000000000000000000600052603260045260246000fd5b602002602001018181525050808061120490611d3c565b91505061115a565b5080915050919050565b6000806002600084815260200190815260200160002060010154600260008581526020019081526020016000206002015491509150915091565b60008060008460ff161180156112695750828460ff1611155b6112a8576040517f08c379a000000000000000000000000000000000000000000000000000000000815260040161129f90611a71565b60405180910390fd5b6112b28685610d1b565b6112c25760008091509150611429565b600080600460008760ff1660ff1681526020019081526020016000205490505b600360008760ff1660ff1681526020019081526020016000208054905081101561142357818061131190611cf3565b9250508673ffffffffffffffffffffffffffffffffffffffff16600360008860ff1660ff168152602001908152602001600020828154811061137c577f4e487b7100000000000000000000000000000000000000000000000000000000600052603260045260246000fd5b9060005260206000200160009054906101000a900473ffffffffffffffffffffffffffffffffffffffff1673ffffffffffffffffffffffffffffffffffffffff1614156114105781600460008860ff1660ff16815260200190815260200160002054600360008960ff1660ff168152602001908152602001600020805490506114059190611c07565b935093505050611429565b808061141b90611cf3565b9150506112e2565b50600080fd5b94509492505050565b60008135905061144181611de7565b92915050565b60008135905061145681611dfe565b92915050565b60008135905061146b81611e15565b92915050565b60008135905061148081611e2c565b92915050565b60008060006060848603121561149b57600080fd5b60006114a986828701611432565b93505060206114ba86828701611471565b92505060406114cb86828701611432565b9150509250925092565b6000602082840312156114e757600080fd5b60006114f58482850161145c565b91505092915050565b6000806000806080858703121561151457600080fd5b60006115228782880161145c565b945050602061153387828801611432565b935050604061154487828801611471565b92505060606115558782880161145c565b91505092959194509250565b6000806040838503121561157457600080fd5b60006115828582860161145c565b92505060206115938582860161145c565b9150509250929050565b6000806000606084860312156115b257600080fd5b60006115c08682870161145c565b93505060206115d18682870161145c565b92505060406115e286828701611432565b9150509250925092565b600080604083850312156115ff57600080fd5b600061160d8582860161145c565b925050602061161e85828601611471565b9150509250929050565b60008060006060848603121561163d57600080fd5b600061164b8682870161145c565b935050602061165c86828701611471565b925050604061166d86828701611432565b9150509250925092565b6000806000806080858703121561168d57600080fd5b600061169b8782880161145c565b94505060206116ac87828801611471565b93505060406116bd8782880161145c565b92505060606116ce87828801611432565b91505092959194509250565b6000602082840312156116ec57600080fd5b60006116fa84828501611471565b91505092915050565b6000806040838503121561171657600080fd5b600061172485828601611471565b925050602061173585828601611432565b9150509250929050565b600080600080600060a0868803121561175757600080fd5b600061176588828901611471565b955050602061177688828901611447565b945050604061178788828901611432565b93505060606117988882890161145c565b92505060806117a988828901611432565b9150509295509295909350565b60006117c28383611927565b60208301905092915050565b60006117da838361198b565b60208301905092915050565b60006117f2838361199a565b60208301905092915050565b61180781611c3b565b82525050565b600061181882611b25565b6118228185611b6d565b935061182d83611af5565b8060005b8381101561185e57815161184588826117b6565b975061185083611b46565b925050600181019050611831565b5085935050505092915050565b600061187682611b30565b6118808185611b7e565b935061188b83611b05565b8060005b838110156118bc5781516118a388826117ce565b97506118ae83611b53565b92505060018101905061188f565b5085935050505092915050565b60006118d482611b3b565b6118de8185611b8f565b93506118e983611b15565b8060005b8381101561191a57815161190188826117e6565b975061190c83611b60565b9250506001810190506118ed565b5085935050505092915050565b61193081611c4d565b82525050565b61193f81611c4d565b82525050565b6000611952600d83611ba0565b915061195d82611d95565b602082019050919050565b6000611975600183611ba0565b915061198082611dbe565b602082019050919050565b61199481611c59565b82525050565b6119a381611c87565b82525050565b6119b281611c87565b82525050565b60006020820190506119cd60008301846117fe565b92915050565b600060808201905081810360008301526119ed818761180d565b90508181036020830152611a01818661186b565b90508181036040830152611a15818561186b565b90508181036060830152611a2981846118c9565b905095945050505050565b60006020820190508181036000830152611a4e81846118c9565b905092915050565b6000602082019050611a6b6000830184611936565b92915050565b60006020820190508181036000830152611a8a81611945565b9050919050565b60006020820190508181036000830152611aaa81611968565b9050919050565b6000602082019050611ac660008301846119a9565b92915050565b6000604082019050611ae160008301856119a9565b611aee60208301846119a9565b9392505050565b6000819050602082019050919050565b6000819050602082019050919050565b6000819050602082019050919050565b600081519050919050565b600081519050919050565b600081519050919050565b6000602082019050919050565b6000602082019050919050565b6000602082019050919050565b600082825260208201905092915050565b600082825260208201905092915050565b600082825260208201905092915050565b600082825260208201905092915050565b6000611bbc82611c87565b9150611bc783611c87565b9250827fffffffffffffffffffffffffffffffffffffffffffffffffffffffffffffffff03821115611bfc57611bfb611d66565b5b828201905092915050565b6000611c1282611c87565b9150611c1d83611c87565b925082821015611c3057611c2f611d66565b5b828203905092915050565b6000611c4682611c67565b9050919050565b60008115159050919050565b600061ffff82169050919050565b600073ffffffffffffffffffffffffffffffffffffffff82169050919050565b6000819050919050565b600060ff82169050919050565b6000611ca982611c59565b91506000821415611cbd57611cbc611d66565b5b600182039050919050565b6000611cd382611c59565b915061ffff821415611ce857611ce7611d66565b5b600182019050919050565b6000611cfe82611c87565b91507fffffffffffffffffffffffffffffffffffffffffffffffffffffffffffffffff821415611d3157611d30611d66565b5b600182019050919050565b6000611d4782611c91565b915060ff821415611d5b57611d5a611d66565b5b600182019050919050565b7f4e487b7100000000000000000000000000000000000000000000000000000000600052601160045260246000fd5b7f496e76616c6964206c6576656c00000000000000000000000000000000000000600082015250565b7f3100000000000000000000000000000000000000000000000000000000000000600082015250565b611df081611c3b565b8114611dfb57600080fd5b50565b611e0781611c59565b8114611e1257600080fd5b50565b611e1e81611c87565b8114611e2957600080fd5b50565b611e3581611c91565b8114611e4057600080fd5b5056fea26469706673582212205ec34b0163b5779f65e2768ff14e7553701d1703e22fd80be50700babd5ebe3e64736f6c63430008040033",
  "linkReferences": {},
  "deployedLinkReferences": {}
}