{
  "_format": "hh-sol-artifact-1",
  "contractName": "TableStorage",
  "sourceName": "contracts/Repository/TableStorage.sol",
  "abi": [
    {
      "inputs": [],
      "stateMutability": "nonpayable",
      "type": "constructor"
    },
    {
      "inputs": [
        {
          "internalType": "uint256",
          "name": "userId",
          "type": "uint256"
        },
        {
          "internalType": "uint256",
          "name": "rewardValue",
          "type": "uint256"
        }
      ],
      "name": "AddReferalPayout",
      "outputs": [],
      "stateMutability": "payable",
      "type": "function"
    },
    {
      "inputs": [
        {
          "internalType": "uint256",
          "name": "rewarderUserId",
          "type": "uint256"
        },
        {
          "internalType": "uint8",
          "name": "table",
          "type": "uint8"
        },
        {
          "internalType": "uint256",
          "name": "reward",
          "type": "uint256"
        }
      ],
      "name": "AddRewardSum",
      "outputs": [],
      "stateMutability": "payable",
      "type": "function"
    },
    {
      "inputs": [
        {
          "internalType": "uint8",
          "name": "table",
          "type": "uint8"
        },
        {
          "internalType": "uint16",
          "name": "payouts",
          "type": "uint16"
        },
        {
          "internalType": "address",
          "name": "UserAddress",
          "type": "address"
        },
        {
          "internalType": "uint256",
          "name": "userId",
          "type": "uint256"
        }
      ],
      "name": "AddTable",
      "outputs": [],
      "stateMutability": "payable",
      "type": "function"
    },
    {
      "inputs": [
        {
          "internalType": "address",
          "name": "newAddress",
          "type": "address"
        }
      ],
      "name": "Change",
      "outputs": [],
      "stateMutability": "payable",
      "type": "function"
    },
    {
      "inputs": [
        {
          "internalType": "address",
          "name": "newKey",
          "type": "address"
        }
      ],
      "name": "ChangeKey",
      "outputs": [],
      "stateMutability": "payable",
      "type": "function"
    },
    {
      "inputs": [
        {
          "internalType": "uint256",
          "name": "rewarderUserId",
          "type": "uint256"
        },
        {
          "internalType": "uint8",
          "name": "table",
          "type": "uint8"
        }
      ],
      "name": "DeactiveTable",
      "outputs": [],
      "stateMutability": "payable",
      "type": "function"
    },
    {
      "inputs": [
        {
          "internalType": "uint8",
          "name": "table",
          "type": "uint8"
        }
      ],
      "name": "GetFirstTableAddress",
      "outputs": [
        {
          "internalType": "address",
          "name": "",
          "type": "address"
        }
      ],
      "stateMutability": "view",
      "type": "function"
    },
    {
      "inputs": [],
      "name": "GetGlobalStatistic",
      "outputs": [
        {
          "internalType": "uint256",
          "name": "",
          "type": "uint256"
        }
      ],
      "stateMutability": "view",
      "type": "function"
    },
    {
      "inputs": [
        {
          "internalType": "uint8",
          "name": "table",
          "type": "uint8"
        }
      ],
      "name": "GetHeadIndex",
      "outputs": [
        {
          "internalType": "uint256",
          "name": "",
          "type": "uint256"
        }
      ],
      "stateMutability": "view",
      "type": "function"
    },
    {
      "inputs": [
        {
          "internalType": "uint256",
          "name": "userId",
          "type": "uint256"
        },
        {
          "internalType": "address",
          "name": "userAddress",
          "type": "address"
        },
        {
          "internalType": "uint8",
          "name": "table",
          "type": "uint8"
        },
        {
          "internalType": "uint256",
          "name": "totalTables",
          "type": "uint256"
        }
      ],
      "name": "GetPlaceInQueue",
      "outputs": [
        {
          "internalType": "uint256",
          "name": "",
          "type": "uint256"
        },
        {
          "internalType": "uint256",
          "name": "",
          "type": "uint256"
        }
      ],
      "stateMutability": "view",
      "type": "function"
    },
    {
      "inputs": [
        {
          "internalType": "uint256",
          "name": "totalTables",
          "type": "uint256"
        }
      ],
      "name": "GetTablesCount",
      "outputs": [
        {
          "internalType": "uint256[]",
          "name": "",
          "type": "uint256[]"
        }
      ],
      "stateMutability": "view",
      "type": "function"
    },
    {
      "inputs": [
        {
          "internalType": "uint8",
          "name": "table",
          "type": "uint8"
        }
      ],
      "name": "GetTablesQueue",
      "outputs": [
        {
          "internalType": "address[]",
          "name": "",
          "type": "address[]"
        }
      ],
      "stateMutability": "view",
      "type": "function"
    },
    {
      "inputs": [
        {
          "internalType": "uint256",
          "name": "userId",
          "type": "uint256"
        },
        {
          "internalType": "uint256",
          "name": "totalTables",
          "type": "uint256"
        }
      ],
      "name": "GetUserLevels",
      "outputs": [
        {
          "internalType": "bool[]",
          "name": "",
          "type": "bool[]"
        },
        {
          "internalType": "uint16[]",
          "name": "",
          "type": "uint16[]"
        },
        {
          "internalType": "uint16[]",
          "name": "",
          "type": "uint16[]"
        },
        {
          "internalType": "uint256[]",
          "name": "",
          "type": "uint256[]"
        }
      ],
      "stateMutability": "view",
      "type": "function"
    },
    {
      "inputs": [
        {
          "internalType": "uint256",
          "name": "userId",
          "type": "uint256"
        }
      ],
      "name": "GetUserRewards",
      "outputs": [
        {
          "internalType": "uint256",
          "name": "",
          "type": "uint256"
        },
        {
          "internalType": "uint256",
          "name": "",
          "type": "uint256"
        }
      ],
      "stateMutability": "view",
      "type": "function"
    },
    {
      "inputs": [
        {
          "internalType": "uint256",
          "name": "userId",
          "type": "uint256"
        },
        {
          "internalType": "uint8",
          "name": "tableNumber",
          "type": "uint8"
        }
      ],
      "name": "IsTableActive",
      "outputs": [
        {
          "internalType": "bool",
          "name": "",
          "type": "bool"
        }
      ],
      "stateMutability": "view",
      "type": "function"
    },
    {
      "inputs": [
        {
          "internalType": "uint256",
          "name": "userId",
          "type": "uint256"
        },
        {
          "internalType": "uint8",
          "name": "table",
          "type": "uint8"
        }
      ],
      "name": "IsTableActiveOver",
      "outputs": [
        {
          "internalType": "bool",
          "name": "",
          "type": "bool"
        }
      ],
      "stateMutability": "view",
      "type": "function"
    },
    {
      "inputs": [
        {
          "internalType": "uint8",
          "name": "table",
          "type": "uint8"
        },
        {
          "internalType": "address",
          "name": "rewardAddress",
          "type": "address"
        }
      ],
      "name": "PushTable",
      "outputs": [],
      "stateMutability": "payable",
      "type": "function"
    },
    {
      "inputs": [
        {
          "internalType": "uint8",
          "name": "table",
          "type": "uint8"
        },
        {
          "internalType": "uint256",
          "name": "userId",
          "type": "uint256"
        }
      ],
      "name": "ReducePayout",
      "outputs": [],
      "stateMutability": "payable",
      "type": "function"
    },
    {
      "inputs": [
        {
          "internalType": "address",
          "name": "_addressKey",
          "type": "address"
        }
      ],
      "name": "Set",
      "outputs": [],
      "stateMutability": "payable",
      "type": "function"
    },
    {
      "inputs": [],
      "name": "SetKey",
      "outputs": [],
      "stateMutability": "payable",
      "type": "function"
    },
    {
      "inputs": [
        {
          "internalType": "uint8",
          "name": "table",
          "type": "uint8"
        }
      ],
      "name": "SwitchTablesQueue",
      "outputs": [],
      "stateMutability": "payable",
      "type": "function"
    },
    {
      "inputs": [],
      "name": "transactions",
      "outputs": [
        {
          "internalType": "uint256",
          "name": "",
          "type": "uint256"
        }
      ],
      "stateMutability": "view",
      "type": "function"
    }
  ],
  "bytecode": "0x608060405234801561001057600080fd5b50336000806101000a81548173ffffffffffffffffffffffffffffffffffffffff021916908373ffffffffffffffffffffffffffffffffffffffff1602179055506040518060400160405280600015158152602001600073ffffffffffffffffffffffffffffffffffffffff16815250600160008201518160000160006101000a81548160ff02191690831515021790555060208201518160000160016101000a81548173ffffffffffffffffffffffffffffffffffffffff021916908373ffffffffffffffffffffffffffffffffffffffff16021790555090505033600260006101000a81548173ffffffffffffffffffffffffffffffffffffffff021916908373ffffffffffffffffffffffffffffffffffffffff1602179055506124ac8061013c6000396000f3fe6080604052600436106101355760003560e01c80638a2a526a116100ab578063ea58dba31161006f578063ea58dba31461038d578063ec030b24146103a9578063efde8a17146103e6578063f6b399f714610424578063fa1fd3c614610461578063fefa519d1461049e57610135565b80638a2a526a146102b057806390aeecf8146102db578063b5a3c8b7146102f7578063d950e9f814610334578063dd0411d11461035057610135565b806341e6f724116100fd57806341e6f724146101d55780635437af49146101df5780636abf4fc51461021c57806374b16a5a1461025c5780637c6708d9146102785780638a1422fc1461029457610135565b806302dc774d1461013a57806318015191146101565780631f084ba81461018157806330f15ad91461019d5780633c4dbb05146101b9575b600080fd5b610154600480360381019061014f9190611a13565b6104dc565b005b34801561016257600080fd5b5061016b610523565b6040516101789190612078565b60405180910390f35b61019b60048036038101906101969190611bf4565b610529565b005b6101b760048036038101906101b29190611c57565b610751565b005b6101d360048036038101906101ce9190611a13565b61087d565b005b6101dd61096d565b005b3480156101eb57600080fd5b5061020660048036038101906102019190611b8f565b6109da565b6040516102139190611f3d565b60405180910390f35b34801561022857600080fd5b50610243600480360381019061023e9190611ac8565b610a78565b6040516102539493929190611f7a565b60405180910390f35b61027660048036038101906102719190611bb8565b610edf565b005b610292600480360381019061028d9190611b04565b610ff0565b005b6102ae60048036038101906102a99190611a13565b6110d0565b005b3480156102bc57600080fd5b506102c56111ce565b6040516102d29190612078565b60405180910390f35b6102f560048036038101906102f09190611b40565b6111d8565b005b34801561030357600080fd5b5061031e60048036038101906103199190611b04565b6112e4565b60405161032b9190611ffd565b60405180910390f35b61034e60048036038101906103499190611ac8565b61132c565b005b34801561035c57600080fd5b5061037760048036038101906103729190611b04565b6113f0565b6040516103849190611ffd565b60405180910390f35b6103a760048036038101906103a29190611b8f565b61143f565b005b3480156103b557600080fd5b506103d060048036038101906103cb9190611a3c565b61159b565b6040516103dd9190611fdb565b60405180910390f35b3480156103f257600080fd5b5061040d60048036038101906104089190611a3c565b6116d9565b60405161041b929190612093565b60405180910390f35b34801561043057600080fd5b5061044b60048036038101906104469190611b8f565b611713565b6040516104589190612078565b60405180910390f35b34801561046d57600080fd5b5061048860048036038101906104839190611b8f565b611736565b6040516104959190611f58565b60405180910390f35b3480156104aa57600080fd5b506104c560048036038101906104c09190611a65565b6117dd565b6040516104d3929190612093565b60405180910390f35b80600160000160016101000a81548173ffffffffffffffffffffffffffffffffffffffff021916908373ffffffffffffffffffffffffffffffffffffffff16021790555050565b60065481565b3373ffffffffffffffffffffffffffffffffffffffff16600160000160019054906101000a900473ffffffffffffffffffffffffffffffffffffffff1673ffffffffffffffffffffffffffffffffffffffff16146105bc576040517f08c379a00000000000000000000000000000000000000000000000000000000081526004016105b390612058565b60405180910390fd5b600660008154809291906105cf906122fd565b91905055506003600082815260200190815260200160002060000160008560ff1660ff168152602001908152602001600020600001600081819054906101000a900461ffff1680929190610622906122d2565b91906101000a81548161ffff021916908361ffff16021790555050826003600083815260200190815260200160002060000160008660ff1660ff16815260200190815260200160002060000160026101000a81548161ffff021916908361ffff16021790555060016003600083815260200190815260200160002060000160008660ff1660ff16815260200190815260200160002060000160046101000a81548160ff021916908315150217905550600460008560ff1660ff168152602001908152602001600020829080600181540180825580915050600190039060005260206000200160009091909190916101000a81548173ffffffffffffffffffffffffffffffffffffffff021916908373ffffffffffffffffffffffffffffffffffffffff16021790555050505050565b3373ffffffffffffffffffffffffffffffffffffffff16600160000160019054906101000a900473ffffffffffffffffffffffffffffffffffffffff1673ffffffffffffffffffffffffffffffffffffffff16146107e4576040517f08c379a00000000000000000000000000000000000000000000000000000000081526004016107db90612058565b60405180910390fd5b60016003600083815260200190815260200160002060000160008460ff1660ff16815260200190815260200160002060000160029054906101000a900461ffff1661082f9190612207565b6003600083815260200190815260200160002060000160008460ff1660ff16815260200190815260200160002060000160026101000a81548161ffff021916908361ffff1602179055505050565b600160000160009054906101000a900460ff16156108d0576040517f08c379a00000000000000000000000000000000000000000000000000000000081526004016108c790612058565b60405180910390fd5b60405180604001604052806001151581526020018273ffffffffffffffffffffffffffffffffffffffff16815250600160008201518160000160006101000a81548160ff02191690831515021790555060208201518160000160016101000a81548173ffffffffffffffffffffffffffffffffffffffff021916908373ffffffffffffffffffffffffffffffffffffffff16021790555090505050565b3073ffffffffffffffffffffffffffffffffffffffff16633c4dbb05336040518263ffffffff1660e01b81526004016109a69190611f3d565b600060405180830381600087803b1580156109c057600080fd5b505af11580156109d4573d6000803e3d6000fd5b50505050565b6000600460008360ff1660ff168152602001908152602001600020600560008460ff1660ff1681526020019081526020016000205481548110610a46577f4e487b7100000000000000000000000000000000000000000000000000000000600052603260045260246000fd5b9060005260206000200160009054906101000a900473ffffffffffffffffffffffffffffffffffffffff169050919050565b6060806060806000600186610a8d91906121b1565b67ffffffffffffffff811115610acc577f4e487b7100000000000000000000000000000000000000000000000000000000600052604160045260246000fd5b604051908082528060200260200182016040528015610afa5781602001602082028036833780820191505090505b5090506000600187610b0c91906121b1565b67ffffffffffffffff811115610b4b577f4e487b7100000000000000000000000000000000000000000000000000000000600052604160045260246000fd5b604051908082528060200260200182016040528015610b795781602001602082028036833780820191505090505b5090506000600188610b8b91906121b1565b67ffffffffffffffff811115610bca577f4e487b7100000000000000000000000000000000000000000000000000000000600052604160045260246000fd5b604051908082528060200260200182016040528015610bf85781602001602082028036833780820191505090505b5090506000600189610c0a91906121b1565b67ffffffffffffffff811115610c49577f4e487b7100000000000000000000000000000000000000000000000000000000600052604160045260246000fd5b604051908082528060200260200182016040528015610c775781602001602082028036833780820191505090505b5090506000600190505b898160ff1611610ec557600360008c815260200190815260200160002060000160008260ff1660ff16815260200190815260200160002060000160049054906101000a900460ff16858260ff1681518110610d05577f4e487b7100000000000000000000000000000000000000000000000000000000600052603260045260246000fd5b602002602001019015159081151581525050600360008c815260200190815260200160002060000160008260ff1660ff16815260200190815260200160002060000160029054906101000a900461ffff16848260ff1681518110610d92577f4e487b7100000000000000000000000000000000000000000000000000000000600052603260045260246000fd5b602002602001019061ffff16908161ffff1681525050600360008c815260200190815260200160002060000160008260ff1660ff16815260200190815260200160002060000160009054906101000a900461ffff16838260ff1681518110610e23577f4e487b7100000000000000000000000000000000000000000000000000000000600052603260045260246000fd5b602002602001019061ffff16908161ffff1681525050600360008c815260200190815260200160002060000160008260ff1660ff16815260200190815260200160002060010154828260ff1681518110610ea6577f4e487b7100000000000000000000000000000000000000000000000000000000600052603260045260246000fd5b6020026020010181815250508080610ebd90612346565b915050610c81565b508383838397509750975097505050505092959194509250565b3373ffffffffffffffffffffffffffffffffffffffff16600160000160019054906101000a900473ffffffffffffffffffffffffffffffffffffffff1673ffffffffffffffffffffffffffffffffffffffff1614610f72576040517f08c379a0000000000000000000000000000000000000000000000000000000008152600401610f6990612058565b60405180910390fd5b600460008360ff1660ff168152602001908152602001600020819080600181540180825580915050600190039060005260206000200160009091909190916101000a81548173ffffffffffffffffffffffffffffffffffffffff021916908373ffffffffffffffffffffffffffffffffffffffff1602179055505050565b3373ffffffffffffffffffffffffffffffffffffffff16600160000160019054906101000a900473ffffffffffffffffffffffffffffffffffffffff1673ffffffffffffffffffffffffffffffffffffffff1614611083576040517f08c379a000000000000000000000000000000000000000000000000000000000815260040161107a90612058565b60405180910390fd5b60006003600084815260200190815260200160002060000160008360ff1660ff16815260200190815260200160002060000160046101000a81548160ff0219169083151502179055505050565b600260009054906101000a900473ffffffffffffffffffffffffffffffffffffffff1673ffffffffffffffffffffffffffffffffffffffff163373ffffffffffffffffffffffffffffffffffffffff1614611160576040517f08c379a000000000000000000000000000000000000000000000000000000000815260040161115790612038565b60405180910390fd5b3073ffffffffffffffffffffffffffffffffffffffff166302dc774d826040518263ffffffff1660e01b81526004016111999190611f3d565b600060405180830381600087803b1580156111b357600080fd5b505af11580156111c7573d6000803e3d6000fd5b5050505050565b6000600654905090565b3373ffffffffffffffffffffffffffffffffffffffff16600160000160019054906101000a900473ffffffffffffffffffffffffffffffffffffffff1673ffffffffffffffffffffffffffffffffffffffff161461126b576040517f08c379a000000000000000000000000000000000000000000000000000000000815260040161126290612058565b60405180910390fd5b806003600085815260200190815260200160002060000160008460ff1660ff16815260200190815260200160002060010160008282546112ab91906121b1565b92505081905550806003600085815260200190815260200160002060010160008282546112d891906121b1565b92505081905550505050565b60006003600084815260200190815260200160002060000160008360ff1660ff16815260200190815260200160002060000160049054906101000a900460ff16905092915050565b3373ffffffffffffffffffffffffffffffffffffffff16600160000160019054906101000a900473ffffffffffffffffffffffffffffffffffffffff1673ffffffffffffffffffffffffffffffffffffffff16146113bf576040517f08c379a00000000000000000000000000000000000000000000000000000000081526004016113b690612058565b60405180910390fd5b806003600084815260200190815260200160002060020160008282546113e591906121b1565b925050819055505050565b6000806003600085815260200190815260200160002060000160008460ff1660ff16815260200190815260200160002060000160029054906101000a900461ffff1661ffff1614905092915050565b3373ffffffffffffffffffffffffffffffffffffffff16600160000160019054906101000a900473ffffffffffffffffffffffffffffffffffffffff1673ffffffffffffffffffffffffffffffffffffffff16146114d2576040517f08c379a00000000000000000000000000000000000000000000000000000000081526004016114c990612058565b60405180910390fd5b600460008260ff1660ff168152602001908152602001600020600560008360ff1660ff168152602001908152602001600020548154811061153c577f4e487b7100000000000000000000000000000000000000000000000000000000600052603260045260246000fd5b9060005260206000200160006101000a81549073ffffffffffffffffffffffffffffffffffffffff0219169055600560008260ff1660ff1681526020019081526020016000206000815480929190611593906122fd565b919050555050565b6060600082905060006001846115b191906121b1565b67ffffffffffffffff8111156115f0577f4e487b7100000000000000000000000000000000000000000000000000000000600052604160045260246000fd5b60405190808252806020026020018201604052801561161e5781602001602082028036833780820191505090505b5090506000600190505b828160ff16116116ce57600560008260ff1660ff16815260200190815260200160002054600460008360ff1660ff16815260200190815260200160002080549050611673919061223b565b828260ff16815181106116af577f4e487b7100000000000000000000000000000000000000000000000000000000600052603260045260246000fd5b60200260200101818152505080806116c690612346565b915050611628565b508092505050919050565b6000806003600084815260200190815260200160002060010154600360008581526020019081526020016000206002015491509150915091565b6000600560008360ff1660ff168152602001908152602001600020549050919050565b6060600460008360ff1660ff1681526020019081526020016000208054806020026020016040519081016040528092919081815260200182805480156117d157602002820191906000526020600020905b8160009054906101000a900473ffffffffffffffffffffffffffffffffffffffff1673ffffffffffffffffffffffffffffffffffffffff1681526020019060010190808311611787575b50505050509050919050565b60008060008460ff161180156117f65750828460ff1611155b611835576040517f08c379a000000000000000000000000000000000000000000000000000000000815260040161182c90612018565b60405180910390fd5b61183f86856112e4565b61184f57600080915091506119b6565b600080600560008760ff1660ff1681526020019081526020016000205490505b600460008760ff1660ff168152602001908152602001600020805490508110156119b057818061189e906122fd565b9250508673ffffffffffffffffffffffffffffffffffffffff16600460008860ff1660ff1681526020019081526020016000208281548110611909577f4e487b7100000000000000000000000000000000000000000000000000000000600052603260045260246000fd5b9060005260206000200160009054906101000a900473ffffffffffffffffffffffffffffffffffffffff1673ffffffffffffffffffffffffffffffffffffffff16141561199d5781600560008860ff1660ff16815260200190815260200160002054600460008960ff1660ff16815260200190815260200160002080549050611992919061223b565b9350935050506119b6565b80806119a8906122fd565b91505061186f565b50600080fd5b94509492505050565b6000813590506119ce8161241a565b92915050565b6000813590506119e381612431565b92915050565b6000813590506119f881612448565b92915050565b600081359050611a0d8161245f565b92915050565b600060208284031215611a2557600080fd5b6000611a33848285016119bf565b91505092915050565b600060208284031215611a4e57600080fd5b6000611a5c848285016119e9565b91505092915050565b60008060008060808587031215611a7b57600080fd5b6000611a89878288016119e9565b9450506020611a9a878288016119bf565b9350506040611aab878288016119fe565b9250506060611abc878288016119e9565b91505092959194509250565b60008060408385031215611adb57600080fd5b6000611ae9858286016119e9565b9250506020611afa858286016119e9565b9150509250929050565b60008060408385031215611b1757600080fd5b6000611b25858286016119e9565b9250506020611b36858286016119fe565b9150509250929050565b600080600060608486031215611b5557600080fd5b6000611b63868287016119e9565b9350506020611b74868287016119fe565b9250506040611b85868287016119e9565b9150509250925092565b600060208284031215611ba157600080fd5b6000611baf848285016119fe565b91505092915050565b60008060408385031215611bcb57600080fd5b6000611bd9858286016119fe565b9250506020611bea858286016119bf565b9150509250929050565b60008060008060808587031215611c0a57600080fd5b6000611c18878288016119fe565b9450506020611c29878288016119d4565b9350506040611c3a878288016119bf565b9250506060611c4b878288016119e9565b91505092959194509250565b60008060408385031215611c6a57600080fd5b6000611c78858286016119fe565b9250506020611c89858286016119e9565b9150509250929050565b6000611c9f8383611cf3565b60208301905092915050565b6000611cb78383611e89565b60208301905092915050565b6000611ccf8383611f10565b60208301905092915050565b6000611ce78383611f1f565b60208301905092915050565b611cfc8161226f565b82525050565b611d0b8161226f565b82525050565b6000611d1c826120fc565b611d26818561215c565b9350611d31836120bc565b8060005b83811015611d62578151611d498882611c93565b9750611d5483612128565b925050600181019050611d35565b5085935050505092915050565b6000611d7a82612107565b611d84818561216d565b9350611d8f836120cc565b8060005b83811015611dc0578151611da78882611cab565b9750611db283612135565b925050600181019050611d93565b5085935050505092915050565b6000611dd882612112565b611de2818561217e565b9350611ded836120dc565b8060005b83811015611e1e578151611e058882611cc3565b9750611e1083612142565b925050600181019050611df1565b5085935050505092915050565b6000611e368261211d565b611e40818561218f565b9350611e4b836120ec565b8060005b83811015611e7c578151611e638882611cdb565b9750611e6e8361214f565b925050600181019050611e4f565b5085935050505092915050565b611e9281612281565b82525050565b611ea181612281565b82525050565b6000611eb4600d836121a0565b9150611ebf8261239f565b602082019050919050565b6000611ed76001836121a0565b9150611ee2826123c8565b602082019050919050565b6000611efa6001836121a0565b9150611f05826123f1565b602082019050919050565b611f198161228d565b82525050565b611f28816122bb565b82525050565b611f37816122bb565b82525050565b6000602082019050611f526000830184611d02565b92915050565b60006020820190508181036000830152611f728184611d11565b905092915050565b60006080820190508181036000830152611f948187611d6f565b90508181036020830152611fa88186611dcd565b90508181036040830152611fbc8185611dcd565b90508181036060830152611fd08184611e2b565b905095945050505050565b60006020820190508181036000830152611ff58184611e2b565b905092915050565b60006020820190506120126000830184611e98565b92915050565b6000602082019050818103600083015261203181611ea7565b9050919050565b6000602082019050818103600083015261205181611eca565b9050919050565b6000602082019050818103600083015261207181611eed565b9050919050565b600060208201905061208d6000830184611f2e565b92915050565b60006040820190506120a86000830185611f2e565b6120b56020830184611f2e565b9392505050565b6000819050602082019050919050565b6000819050602082019050919050565b6000819050602082019050919050565b6000819050602082019050919050565b600081519050919050565b600081519050919050565b600081519050919050565b600081519050919050565b6000602082019050919050565b6000602082019050919050565b6000602082019050919050565b6000602082019050919050565b600082825260208201905092915050565b600082825260208201905092915050565b600082825260208201905092915050565b600082825260208201905092915050565b600082825260208201905092915050565b60006121bc826122bb565b91506121c7836122bb565b9250827fffffffffffffffffffffffffffffffffffffffffffffffffffffffffffffffff038211156121fc576121fb612370565b5b828201905092915050565b60006122128261228d565b915061221d8361228d565b9250828210156122305761222f612370565b5b828203905092915050565b6000612246826122bb565b9150612251836122bb565b92508282101561226457612263612370565b5b828203905092915050565b600061227a8261229b565b9050919050565b60008115159050919050565b600061ffff82169050919050565b600073ffffffffffffffffffffffffffffffffffffffff82169050919050565b6000819050919050565b600060ff82169050919050565b60006122dd8261228d565b915061ffff8214156122f2576122f1612370565b5b600182019050919050565b6000612308826122bb565b91507fffffffffffffffffffffffffffffffffffffffffffffffffffffffffffffffff82141561233b5761233a612370565b5b600182019050919050565b6000612351826122c5565b915060ff82141561236557612364612370565b5b600182019050919050565b7f4e487b7100000000000000000000000000000000000000000000000000000000600052601160045260246000fd5b7f496e76616c6964206c6576656c00000000000000000000000000000000000000600082015250565b7f3200000000000000000000000000000000000000000000000000000000000000600082015250565b7f3100000000000000000000000000000000000000000000000000000000000000600082015250565b6124238161226f565b811461242e57600080fd5b50565b61243a8161228d565b811461244557600080fd5b50565b612451816122bb565b811461245c57600080fd5b50565b612468816122c5565b811461247357600080fd5b5056fea26469706673582212209520ad53bf03ff3e203858fd291b0bb671962e482710499c8b69818f0b04d40f64736f6c63430008040033",
  "linkReferences": {},
  "deployedLinkReferences": {}
}