{
  "_format": "hh-sol-artifact-1",
  "contractName": "TableStorage",
  "sourceName": "contracts/Repository/TableStorage.sol",
  "abi": [
    {
      "inputs": [
        {
          "internalType": "address",
          "name": "key",
          "type": "address"
        }
      ],
      "stateMutability": "payable",
      "type": "constructor"
    },
    {
      "inputs": [
        {
          "internalType": "uint256",
          "name": "userId",
          "type": "uint256"
        },
        {
          "internalType": "uint256",
          "name": "rewardValue",
          "type": "uint256"
        },
        {
          "internalType": "address",
          "name": "key",
          "type": "address"
        }
      ],
      "name": "AddReferalPayout",
      "outputs": [],
      "stateMutability": "payable",
      "type": "function"
    },
    {
      "inputs": [
        {
          "internalType": "uint256",
          "name": "rewarderUserId",
          "type": "uint256"
        },
        {
          "internalType": "uint8",
          "name": "table",
          "type": "uint8"
        },
        {
          "internalType": "uint256",
          "name": "reward",
          "type": "uint256"
        },
        {
          "internalType": "address",
          "name": "key",
          "type": "address"
        }
      ],
      "name": "AddRewardSum",
      "outputs": [],
      "stateMutability": "payable",
      "type": "function"
    },
    {
      "inputs": [
        {
          "internalType": "uint8",
          "name": "table",
          "type": "uint8"
        },
        {
          "internalType": "uint16",
          "name": "payouts",
          "type": "uint16"
        },
        {
          "internalType": "address",
          "name": "UserAddress",
          "type": "address"
        },
        {
          "internalType": "uint256",
          "name": "userId",
          "type": "uint256"
        },
        {
          "internalType": "address",
          "name": "key",
          "type": "address"
        }
      ],
      "name": "AddTable",
      "outputs": [],
      "stateMutability": "payable",
      "type": "function"
    },
    {
      "inputs": [
        {
          "internalType": "uint256",
          "name": "rewarderUserId",
          "type": "uint256"
        },
        {
          "internalType": "uint8",
          "name": "table",
          "type": "uint8"
        },
        {
          "internalType": "address",
          "name": "key",
          "type": "address"
        }
      ],
      "name": "DeactiveTable",
      "outputs": [],
      "stateMutability": "payable",
      "type": "function"
    },
    {
      "inputs": [
        {
          "internalType": "uint8",
          "name": "table",
          "type": "uint8"
        }
      ],
      "name": "GetFirstTableAddress",
      "outputs": [
        {
          "internalType": "address",
          "name": "",
          "type": "address"
        }
      ],
      "stateMutability": "view",
      "type": "function"
    },
    {
      "inputs": [],
      "name": "GetGlobalStatistic",
      "outputs": [
        {
          "internalType": "uint256",
          "name": "",
          "type": "uint256"
        }
      ],
      "stateMutability": "view",
      "type": "function"
    },
    {
      "inputs": [
        {
          "internalType": "uint8",
          "name": "table",
          "type": "uint8"
        }
      ],
      "name": "GetHeadIndex",
      "outputs": [
        {
          "internalType": "uint256",
          "name": "",
          "type": "uint256"
        }
      ],
      "stateMutability": "view",
      "type": "function"
    },
    {
      "inputs": [
        {
          "internalType": "uint256",
          "name": "userId",
          "type": "uint256"
        },
        {
          "internalType": "address",
          "name": "userAddress",
          "type": "address"
        },
        {
          "internalType": "uint8",
          "name": "table",
          "type": "uint8"
        },
        {
          "internalType": "uint256",
          "name": "totalTables",
          "type": "uint256"
        }
      ],
      "name": "GetPlaceInQueue",
      "outputs": [
        {
          "internalType": "uint256",
          "name": "",
          "type": "uint256"
        },
        {
          "internalType": "uint256",
          "name": "",
          "type": "uint256"
        }
      ],
      "stateMutability": "view",
      "type": "function"
    },
    {
      "inputs": [
        {
          "internalType": "uint256",
          "name": "totalTables",
          "type": "uint256"
        }
      ],
      "name": "GetTablesCount",
      "outputs": [
        {
          "internalType": "uint256[]",
          "name": "",
          "type": "uint256[]"
        }
      ],
      "stateMutability": "view",
      "type": "function"
    },
    {
      "inputs": [
        {
          "internalType": "uint8",
          "name": "table",
          "type": "uint8"
        }
      ],
      "name": "GetTablesQueue",
      "outputs": [
        {
          "internalType": "address[]",
          "name": "",
          "type": "address[]"
        }
      ],
      "stateMutability": "view",
      "type": "function"
    },
    {
      "inputs": [
        {
          "internalType": "uint256",
          "name": "userId",
          "type": "uint256"
        },
        {
          "internalType": "uint256",
          "name": "totalTables",
          "type": "uint256"
        }
      ],
      "name": "GetUserLevels",
      "outputs": [
        {
          "internalType": "bool[]",
          "name": "",
          "type": "bool[]"
        },
        {
          "internalType": "uint16[]",
          "name": "",
          "type": "uint16[]"
        },
        {
          "internalType": "uint16[]",
          "name": "",
          "type": "uint16[]"
        },
        {
          "internalType": "uint256[]",
          "name": "",
          "type": "uint256[]"
        }
      ],
      "stateMutability": "view",
      "type": "function"
    },
    {
      "inputs": [
        {
          "internalType": "uint256",
          "name": "userId",
          "type": "uint256"
        }
      ],
      "name": "GetUserRewards",
      "outputs": [
        {
          "internalType": "uint256",
          "name": "",
          "type": "uint256"
        },
        {
          "internalType": "uint256",
          "name": "",
          "type": "uint256"
        }
      ],
      "stateMutability": "view",
      "type": "function"
    },
    {
      "inputs": [
        {
          "internalType": "uint256",
          "name": "userId",
          "type": "uint256"
        },
        {
          "internalType": "uint8",
          "name": "tableNumber",
          "type": "uint8"
        }
      ],
      "name": "IsTableActive",
      "outputs": [
        {
          "internalType": "bool",
          "name": "",
          "type": "bool"
        }
      ],
      "stateMutability": "view",
      "type": "function"
    },
    {
      "inputs": [
        {
          "internalType": "uint256",
          "name": "userId",
          "type": "uint256"
        },
        {
          "internalType": "uint8",
          "name": "table",
          "type": "uint8"
        }
      ],
      "name": "IsTableActiveOver",
      "outputs": [
        {
          "internalType": "bool",
          "name": "",
          "type": "bool"
        }
      ],
      "stateMutability": "view",
      "type": "function"
    },
    {
      "inputs": [
        {
          "internalType": "address",
          "name": "key",
          "type": "address"
        },
        {
          "internalType": "uint8",
          "name": "table",
          "type": "uint8"
        },
        {
          "internalType": "address",
          "name": "rewardAddress",
          "type": "address"
        }
      ],
      "name": "PushTable",
      "outputs": [],
      "stateMutability": "payable",
      "type": "function"
    },
    {
      "inputs": [
        {
          "internalType": "address",
          "name": "key",
          "type": "address"
        },
        {
          "internalType": "uint8",
          "name": "table",
          "type": "uint8"
        },
        {
          "internalType": "uint256",
          "name": "userId",
          "type": "uint256"
        }
      ],
      "name": "ReducePayout",
      "outputs": [],
      "stateMutability": "payable",
      "type": "function"
    },
    {
      "inputs": [
        {
          "internalType": "uint8",
          "name": "table",
          "type": "uint8"
        },
        {
          "internalType": "address",
          "name": "key",
          "type": "address"
        }
      ],
      "name": "SwitchTablesQueue",
      "outputs": [],
      "stateMutability": "payable",
      "type": "function"
    },
    {
      "inputs": [],
      "name": "transactions",
      "outputs": [
        {
          "internalType": "uint256",
          "name": "",
          "type": "uint256"
        }
      ],
      "stateMutability": "view",
      "type": "function"
    }
  ],
  "bytecode": "0x608060405260405162002351380380620023518339818101604052810190620000299190620000de565b60018060008373ffffffffffffffffffffffffffffffffffffffff1673ffffffffffffffffffffffffffffffffffffffff16815260200190815260200160002060006101000a81548160ff021916908315150217905550336000806101000a81548173ffffffffffffffffffffffffffffffffffffffff021916908373ffffffffffffffffffffffffffffffffffffffff1602179055505062000158565b600081519050620000d8816200013e565b92915050565b600060208284031215620000f157600080fd5b60006200010184828501620000c7565b91505092915050565b600062000117826200011e565b9050919050565b600073ffffffffffffffffffffffffffffffffffffffff82169050919050565b62000149816200010a565b81146200015557600080fd5b50565b6121e980620001686000396000f3fe6080604052600436106101095760003560e01c8063c981d22f11610095578063ec030b2411610064578063ec030b241461031f578063efde8a171461035c578063f6b399f71461039a578063fa1fd3c6146103d7578063fefa519d1461041457610109565b8063c981d22f1461028e578063cebd6351146102aa578063d4e9a8ef146102c6578063dd0411d1146102e257610109565b80636abf4fc5116100dc5780636abf4fc5146101ae57806376630fa1146101ee5780638a2a526a1461020a57806395d7d00514610235578063b5a3c8b71461025157610109565b8063180151911461010e57806343938a2714610139578063487658fb146101555780635437af4914610171575b600080fd5b34801561011a57600080fd5b50610123610452565b6040516101309190611dde565b60405180910390f35b610153600480360381019061014e91906119c5565b610458565b005b61016f600480360381019061016a919061170c565b61067a565b005b34801561017d57600080fd5b5061019860048036038101906101939190611960565b6107a0565b6040516101a59190611cc3565b60405180910390f35b3480156101ba57600080fd5b506101d560048036038101906101d091906117e7565b61083e565b6040516101e59493929190611d00565b60405180910390f35b610208600480360381019061020391906118ae565b610ca5565b005b34801561021657600080fd5b5061021f610d7f565b60405161022c9190611dde565b60405180910390f35b61024f600480360381019061024a91906118fd565b610d89565b005b34801561025d57600080fd5b5061027860048036038101906102739190611872565b610e8f565b6040516102859190611d83565b60405180910390f35b6102a860048036038101906102a391906116bd565b610ed7565b005b6102c460048036038101906102bf9190611823565b610fe2565b005b6102e060048036038101906102db9190611989565b6110a0565b005b3480156102ee57600080fd5b5061030960048036038101906103049190611872565b6111f6565b6040516103169190611d83565b60405180910390f35b34801561032b57600080fd5b506103466004803603810190610341919061175b565b611245565b6040516103539190611d61565b60405180910390f35b34801561036857600080fd5b50610383600480360381019061037e919061175b565b611383565b604051610391929190611df9565b60405180910390f35b3480156103a657600080fd5b506103c160048036038101906103bc9190611960565b6113bd565b6040516103ce9190611dde565b60405180910390f35b3480156103e357600080fd5b506103fe60048036038101906103f99190611960565b6113e0565b60405161040b9190611cde565b60405180910390f35b34801561042057600080fd5b5061043b60048036038101906104369190611784565b611487565b604051610449929190611df9565b60405180910390f35b60055481565b600160008273ffffffffffffffffffffffffffffffffffffffff1673ffffffffffffffffffffffffffffffffffffffff16815260200190815260200160002060009054906101000a900460ff166104e4576040517f08c379a00000000000000000000000000000000000000000000000000000000081526004016104db90611dbe565b60405180910390fd5b600560008154809291906104f790612063565b91905055506002600083815260200190815260200160002060000160008660ff1660ff168152602001908152602001600020600001600081819054906101000a900461ffff168092919061054a90612038565b91906101000a81548161ffff021916908361ffff16021790555050836002600084815260200190815260200160002060000160008760ff1660ff16815260200190815260200160002060000160026101000a81548161ffff021916908361ffff16021790555060016002600084815260200190815260200160002060000160008760ff1660ff16815260200190815260200160002060000160046101000a81548160ff021916908315150217905550600360008660ff1660ff168152602001908152602001600020839080600181540180825580915050600190039060005260206000200160009091909190916101000a81548173ffffffffffffffffffffffffffffffffffffffff021916908373ffffffffffffffffffffffffffffffffffffffff1602179055505050505050565b600160008473ffffffffffffffffffffffffffffffffffffffff1673ffffffffffffffffffffffffffffffffffffffff16815260200190815260200160002060009054906101000a900460ff16610706576040517f08c379a00000000000000000000000000000000000000000000000000000000081526004016106fd90611dbe565b60405180910390fd5b60016002600083815260200190815260200160002060000160008460ff1660ff16815260200190815260200160002060000160029054906101000a900461ffff166107519190611f6d565b6002600083815260200190815260200160002060000160008460ff1660ff16815260200190815260200160002060000160026101000a81548161ffff021916908361ffff160217905550505050565b6000600360008360ff1660ff168152602001908152602001600020600460008460ff1660ff168152602001908152602001600020548154811061080c577f4e487b7100000000000000000000000000000000000000000000000000000000600052603260045260246000fd5b9060005260206000200160009054906101000a900473ffffffffffffffffffffffffffffffffffffffff169050919050565b60608060608060006001866108539190611f17565b67ffffffffffffffff811115610892577f4e487b7100000000000000000000000000000000000000000000000000000000600052604160045260246000fd5b6040519080825280602002602001820160405280156108c05781602001602082028036833780820191505090505b50905060006001876108d29190611f17565b67ffffffffffffffff811115610911577f4e487b7100000000000000000000000000000000000000000000000000000000600052604160045260246000fd5b60405190808252806020026020018201604052801561093f5781602001602082028036833780820191505090505b50905060006001886109519190611f17565b67ffffffffffffffff811115610990577f4e487b7100000000000000000000000000000000000000000000000000000000600052604160045260246000fd5b6040519080825280602002602001820160405280156109be5781602001602082028036833780820191505090505b50905060006001896109d09190611f17565b67ffffffffffffffff811115610a0f577f4e487b7100000000000000000000000000000000000000000000000000000000600052604160045260246000fd5b604051908082528060200260200182016040528015610a3d5781602001602082028036833780820191505090505b5090506000600190505b898160ff1611610c8b57600260008c815260200190815260200160002060000160008260ff1660ff16815260200190815260200160002060000160049054906101000a900460ff16858260ff1681518110610acb577f4e487b7100000000000000000000000000000000000000000000000000000000600052603260045260246000fd5b602002602001019015159081151581525050600260008c815260200190815260200160002060000160008260ff1660ff16815260200190815260200160002060000160029054906101000a900461ffff16848260ff1681518110610b58577f4e487b7100000000000000000000000000000000000000000000000000000000600052603260045260246000fd5b602002602001019061ffff16908161ffff1681525050600260008c815260200190815260200160002060000160008260ff1660ff16815260200190815260200160002060000160009054906101000a900461ffff16838260ff1681518110610be9577f4e487b7100000000000000000000000000000000000000000000000000000000600052603260045260246000fd5b602002602001019061ffff16908161ffff1681525050600260008c815260200190815260200160002060000160008260ff1660ff16815260200190815260200160002060010154828260ff1681518110610c6c577f4e487b7100000000000000000000000000000000000000000000000000000000600052603260045260246000fd5b6020026020010181815250508080610c83906120ac565b915050610a47565b508383838397509750975097505050505092959194509250565b600160008273ffffffffffffffffffffffffffffffffffffffff1673ffffffffffffffffffffffffffffffffffffffff16815260200190815260200160002060009054906101000a900460ff16610d31576040517f08c379a0000000000000000000000000000000000000000000000000000000008152600401610d2890611dbe565b60405180910390fd5b60006002600085815260200190815260200160002060000160008460ff1660ff16815260200190815260200160002060000160046101000a81548160ff021916908315150217905550505050565b6000600554905090565b600160008273ffffffffffffffffffffffffffffffffffffffff1673ffffffffffffffffffffffffffffffffffffffff16815260200190815260200160002060009054906101000a900460ff16610e15576040517f08c379a0000000000000000000000000000000000000000000000000000000008152600401610e0c90611dbe565b60405180910390fd5b816002600086815260200190815260200160002060000160008560ff1660ff1681526020019081526020016000206001016000828254610e559190611f17565b9250508190555081600260008681526020019081526020016000206001016000828254610e829190611f17565b9250508190555050505050565b60006002600084815260200190815260200160002060000160008360ff1660ff16815260200190815260200160002060000160049054906101000a900460ff16905092915050565b600160008473ffffffffffffffffffffffffffffffffffffffff1673ffffffffffffffffffffffffffffffffffffffff16815260200190815260200160002060009054906101000a900460ff16610f63576040517f08c379a0000000000000000000000000000000000000000000000000000000008152600401610f5a90611dbe565b60405180910390fd5b600360008360ff1660ff168152602001908152602001600020819080600181540180825580915050600190039060005260206000200160009091909190916101000a81548173ffffffffffffffffffffffffffffffffffffffff021916908373ffffffffffffffffffffffffffffffffffffffff160217905550505050565b600160008273ffffffffffffffffffffffffffffffffffffffff1673ffffffffffffffffffffffffffffffffffffffff16815260200190815260200160002060009054906101000a900460ff1661106e576040517f08c379a000000000000000000000000000000000000000000000000000000000815260040161106590611dbe565b60405180910390fd5b816002600085815260200190815260200160002060020160008282546110949190611f17565b92505081905550505050565b600160008273ffffffffffffffffffffffffffffffffffffffff1673ffffffffffffffffffffffffffffffffffffffff16815260200190815260200160002060009054906101000a900460ff1661112c576040517f08c379a000000000000000000000000000000000000000000000000000000000815260040161112390611dbe565b60405180910390fd5b600360008360ff1660ff168152602001908152602001600020600460008460ff1660ff1681526020019081526020016000205481548110611196577f4e487b7100000000000000000000000000000000000000000000000000000000600052603260045260246000fd5b9060005260206000200160006101000a81549073ffffffffffffffffffffffffffffffffffffffff0219169055600460008360ff1660ff16815260200190815260200160002060008154809291906111ed90612063565b91905055505050565b6000806002600085815260200190815260200160002060000160008460ff1660ff16815260200190815260200160002060000160029054906101000a900461ffff1661ffff1614905092915050565b60606000829050600060018461125b9190611f17565b67ffffffffffffffff81111561129a577f4e487b7100000000000000000000000000000000000000000000000000000000600052604160045260246000fd5b6040519080825280602002602001820160405280156112c85781602001602082028036833780820191505090505b5090506000600190505b828160ff161161137857600460008260ff1660ff16815260200190815260200160002054600360008360ff1660ff1681526020019081526020016000208054905061131d9190611fa1565b828260ff1681518110611359577f4e487b7100000000000000000000000000000000000000000000000000000000600052603260045260246000fd5b6020026020010181815250508080611370906120ac565b9150506112d2565b508092505050919050565b6000806002600084815260200190815260200160002060010154600260008581526020019081526020016000206002015491509150915091565b6000600460008360ff1660ff168152602001908152602001600020549050919050565b6060600360008360ff1660ff16815260200190815260200160002080548060200260200160405190810160405280929190818152602001828054801561147b57602002820191906000526020600020905b8160009054906101000a900473ffffffffffffffffffffffffffffffffffffffff1673ffffffffffffffffffffffffffffffffffffffff1681526020019060010190808311611431575b50505050509050919050565b60008060008460ff161180156114a05750828460ff1611155b6114df576040517f08c379a00000000000000000000000000000000000000000000000000000000081526004016114d690611d9e565b60405180910390fd5b6114e98685610e8f565b6114f95760008091509150611660565b600080600460008760ff1660ff1681526020019081526020016000205490505b600360008760ff1660ff1681526020019081526020016000208054905081101561165a57818061154890612063565b9250508673ffffffffffffffffffffffffffffffffffffffff16600360008860ff1660ff16815260200190815260200160002082815481106115b3577f4e487b7100000000000000000000000000000000000000000000000000000000600052603260045260246000fd5b9060005260206000200160009054906101000a900473ffffffffffffffffffffffffffffffffffffffff1673ffffffffffffffffffffffffffffffffffffffff1614156116475781600460008860ff1660ff16815260200190815260200160002054600360008960ff1660ff1681526020019081526020016000208054905061163c9190611fa1565b935093505050611660565b808061165290612063565b915050611519565b50600080fd5b94509492505050565b60008135905061167881612157565b92915050565b60008135905061168d8161216e565b92915050565b6000813590506116a281612185565b92915050565b6000813590506116b78161219c565b92915050565b6000806000606084860312156116d257600080fd5b60006116e086828701611669565b93505060206116f1868287016116a8565b925050604061170286828701611669565b9150509250925092565b60008060006060848603121561172157600080fd5b600061172f86828701611669565b9350506020611740868287016116a8565b925050604061175186828701611693565b9150509250925092565b60006020828403121561176d57600080fd5b600061177b84828501611693565b91505092915050565b6000806000806080858703121561179a57600080fd5b60006117a887828801611693565b94505060206117b987828801611669565b93505060406117ca878288016116a8565b92505060606117db87828801611693565b91505092959194509250565b600080604083850312156117fa57600080fd5b600061180885828601611693565b925050602061181985828601611693565b9150509250929050565b60008060006060848603121561183857600080fd5b600061184686828701611693565b935050602061185786828701611693565b925050604061186886828701611669565b9150509250925092565b6000806040838503121561188557600080fd5b600061189385828601611693565b92505060206118a4858286016116a8565b9150509250929050565b6000806000606084860312156118c357600080fd5b60006118d186828701611693565b93505060206118e2868287016116a8565b92505060406118f386828701611669565b9150509250925092565b6000806000806080858703121561191357600080fd5b600061192187828801611693565b9450506020611932878288016116a8565b935050604061194387828801611693565b925050606061195487828801611669565b91505092959194509250565b60006020828403121561197257600080fd5b6000611980848285016116a8565b91505092915050565b6000806040838503121561199c57600080fd5b60006119aa858286016116a8565b92505060206119bb85828601611669565b9150509250929050565b600080600080600060a086880312156119dd57600080fd5b60006119eb888289016116a8565b95505060206119fc8882890161167e565b9450506040611a0d88828901611669565b9350506060611a1e88828901611693565b9250506080611a2f88828901611669565b9150509295509295909350565b6000611a488383611a9c565b60208301905092915050565b6000611a608383611c32565b60208301905092915050565b6000611a788383611c96565b60208301905092915050565b6000611a908383611ca5565b60208301905092915050565b611aa581611fd5565b82525050565b611ab481611fd5565b82525050565b6000611ac582611e62565b611acf8185611ec2565b9350611ada83611e22565b8060005b83811015611b0b578151611af28882611a3c565b9750611afd83611e8e565b925050600181019050611ade565b5085935050505092915050565b6000611b2382611e6d565b611b2d8185611ed3565b9350611b3883611e32565b8060005b83811015611b69578151611b508882611a54565b9750611b5b83611e9b565b925050600181019050611b3c565b5085935050505092915050565b6000611b8182611e78565b611b8b8185611ee4565b9350611b9683611e42565b8060005b83811015611bc7578151611bae8882611a6c565b9750611bb983611ea8565b925050600181019050611b9a565b5085935050505092915050565b6000611bdf82611e83565b611be98185611ef5565b9350611bf483611e52565b8060005b83811015611c25578151611c0c8882611a84565b9750611c1783611eb5565b925050600181019050611bf8565b5085935050505092915050565b611c3b81611fe7565b82525050565b611c4a81611fe7565b82525050565b6000611c5d600d83611f06565b9150611c6882612105565b602082019050919050565b6000611c80600183611f06565b9150611c8b8261212e565b602082019050919050565b611c9f81611ff3565b82525050565b611cae81612021565b82525050565b611cbd81612021565b82525050565b6000602082019050611cd86000830184611aab565b92915050565b60006020820190508181036000830152611cf88184611aba565b905092915050565b60006080820190508181036000830152611d1a8187611b18565b90508181036020830152611d2e8186611b76565b90508181036040830152611d428185611b76565b90508181036060830152611d568184611bd4565b905095945050505050565b60006020820190508181036000830152611d7b8184611bd4565b905092915050565b6000602082019050611d986000830184611c41565b92915050565b60006020820190508181036000830152611db781611c50565b9050919050565b60006020820190508181036000830152611dd781611c73565b9050919050565b6000602082019050611df36000830184611cb4565b92915050565b6000604082019050611e0e6000830185611cb4565b611e1b6020830184611cb4565b9392505050565b6000819050602082019050919050565b6000819050602082019050919050565b6000819050602082019050919050565b6000819050602082019050919050565b600081519050919050565b600081519050919050565b600081519050919050565b600081519050919050565b6000602082019050919050565b6000602082019050919050565b6000602082019050919050565b6000602082019050919050565b600082825260208201905092915050565b600082825260208201905092915050565b600082825260208201905092915050565b600082825260208201905092915050565b600082825260208201905092915050565b6000611f2282612021565b9150611f2d83612021565b9250827fffffffffffffffffffffffffffffffffffffffffffffffffffffffffffffffff03821115611f6257611f616120d6565b5b828201905092915050565b6000611f7882611ff3565b9150611f8383611ff3565b925082821015611f9657611f956120d6565b5b828203905092915050565b6000611fac82612021565b9150611fb783612021565b925082821015611fca57611fc96120d6565b5b828203905092915050565b6000611fe082612001565b9050919050565b60008115159050919050565b600061ffff82169050919050565b600073ffffffffffffffffffffffffffffffffffffffff82169050919050565b6000819050919050565b600060ff82169050919050565b600061204382611ff3565b915061ffff821415612058576120576120d6565b5b600182019050919050565b600061206e82612021565b91507fffffffffffffffffffffffffffffffffffffffffffffffffffffffffffffffff8214156120a1576120a06120d6565b5b600182019050919050565b60006120b78261202b565b915060ff8214156120cb576120ca6120d6565b5b600182019050919050565b7f4e487b7100000000000000000000000000000000000000000000000000000000600052601160045260246000fd5b7f496e76616c6964206c6576656c00000000000000000000000000000000000000600082015250565b7f3100000000000000000000000000000000000000000000000000000000000000600082015250565b61216081611fd5565b811461216b57600080fd5b50565b61217781611ff3565b811461218257600080fd5b50565b61218e81612021565b811461219957600080fd5b50565b6121a58161202b565b81146121b057600080fd5b5056fea2646970667358221220915eccb715ca0e8bc1e51987185bbc0a6f50654d49e46a69a7c552a22705b05064736f6c63430008040033",
  "linkReferences": {},
  "deployedLinkReferences": {}
}