{
  "_format": "hh-sol-artifact-1",
  "contractName": "TableStorage",
  "sourceName": "contracts/Repository/TableStorage.sol",
  "abi": [
    {
      "inputs": [],
      "stateMutability": "nonpayable",
      "type": "constructor"
    },
    {
      "inputs": [
        {
          "internalType": "uint256",
          "name": "userId",
          "type": "uint256"
        },
        {
          "internalType": "uint256",
          "name": "rewardValue",
          "type": "uint256"
        }
      ],
      "name": "AddReferalPayout",
      "outputs": [],
      "stateMutability": "payable",
      "type": "function"
    },
    {
      "inputs": [
        {
          "internalType": "uint256",
          "name": "rewarderUserId",
          "type": "uint256"
        },
        {
          "internalType": "uint8",
          "name": "table",
          "type": "uint8"
        },
        {
          "internalType": "uint256",
          "name": "reward",
          "type": "uint256"
        }
      ],
      "name": "AddRewardSum",
      "outputs": [],
      "stateMutability": "payable",
      "type": "function"
    },
    {
      "inputs": [
        {
          "internalType": "uint8",
          "name": "table",
          "type": "uint8"
        },
        {
          "internalType": "uint16",
          "name": "payouts",
          "type": "uint16"
        },
        {
          "internalType": "address",
          "name": "UserAddress",
          "type": "address"
        },
        {
          "internalType": "uint256",
          "name": "userId",
          "type": "uint256"
        }
      ],
      "name": "AddTable",
      "outputs": [],
      "stateMutability": "payable",
      "type": "function"
    },
    {
      "inputs": [
        {
          "internalType": "uint256",
          "name": "value",
          "type": "uint256"
        }
      ],
      "name": "AddTotalValue",
      "outputs": [],
      "stateMutability": "payable",
      "type": "function"
    },
    {
      "inputs": [
        {
          "internalType": "address",
          "name": "newAddress",
          "type": "address"
        }
      ],
      "name": "Change",
      "outputs": [],
      "stateMutability": "payable",
      "type": "function"
    },
    {
      "inputs": [
        {
          "internalType": "address",
          "name": "newKey",
          "type": "address"
        }
      ],
      "name": "ChangeKey",
      "outputs": [],
      "stateMutability": "payable",
      "type": "function"
    },
    {
      "inputs": [
        {
          "internalType": "uint256",
          "name": "rewarderUserId",
          "type": "uint256"
        },
        {
          "internalType": "uint8",
          "name": "table",
          "type": "uint8"
        }
      ],
      "name": "DeactiveTable",
      "outputs": [],
      "stateMutability": "payable",
      "type": "function"
    },
    {
      "inputs": [
        {
          "internalType": "uint8",
          "name": "table",
          "type": "uint8"
        }
      ],
      "name": "GetFirstTableAddress",
      "outputs": [
        {
          "internalType": "address",
          "name": "",
          "type": "address"
        }
      ],
      "stateMutability": "view",
      "type": "function"
    },
    {
      "inputs": [],
      "name": "GetGlobalStatistic",
      "outputs": [
        {
          "internalType": "uint256",
          "name": "",
          "type": "uint256"
        },
        {
          "internalType": "uint256",
          "name": "",
          "type": "uint256"
        }
      ],
      "stateMutability": "view",
      "type": "function"
    },
    {
      "inputs": [
        {
          "internalType": "uint8",
          "name": "table",
          "type": "uint8"
        }
      ],
      "name": "GetHeadIndex",
      "outputs": [
        {
          "internalType": "uint256",
          "name": "",
          "type": "uint256"
        }
      ],
      "stateMutability": "view",
      "type": "function"
    },
    {
      "inputs": [
        {
          "internalType": "uint256",
          "name": "userId",
          "type": "uint256"
        },
        {
          "internalType": "address",
          "name": "userAddress",
          "type": "address"
        },
        {
          "internalType": "uint8",
          "name": "table",
          "type": "uint8"
        },
        {
          "internalType": "uint256",
          "name": "totalTables",
          "type": "uint256"
        }
      ],
      "name": "GetPlaceInQueue",
      "outputs": [
        {
          "internalType": "uint256",
          "name": "",
          "type": "uint256"
        },
        {
          "internalType": "uint256",
          "name": "",
          "type": "uint256"
        }
      ],
      "stateMutability": "view",
      "type": "function"
    },
    {
      "inputs": [
        {
          "internalType": "uint256",
          "name": "totalTables",
          "type": "uint256"
        }
      ],
      "name": "GetTablesCount",
      "outputs": [
        {
          "internalType": "uint256[]",
          "name": "",
          "type": "uint256[]"
        }
      ],
      "stateMutability": "view",
      "type": "function"
    },
    {
      "inputs": [
        {
          "internalType": "uint8",
          "name": "table",
          "type": "uint8"
        }
      ],
      "name": "GetTablesQueue",
      "outputs": [
        {
          "internalType": "address[]",
          "name": "",
          "type": "address[]"
        }
      ],
      "stateMutability": "view",
      "type": "function"
    },
    {
      "inputs": [
        {
          "internalType": "uint256",
          "name": "userId",
          "type": "uint256"
        },
        {
          "internalType": "uint256",
          "name": "totalTables",
          "type": "uint256"
        }
      ],
      "name": "GetUserLevels",
      "outputs": [
        {
          "internalType": "bool[]",
          "name": "",
          "type": "bool[]"
        },
        {
          "internalType": "uint16[]",
          "name": "",
          "type": "uint16[]"
        },
        {
          "internalType": "uint16[]",
          "name": "",
          "type": "uint16[]"
        },
        {
          "internalType": "uint256[]",
          "name": "",
          "type": "uint256[]"
        }
      ],
      "stateMutability": "view",
      "type": "function"
    },
    {
      "inputs": [
        {
          "internalType": "uint256",
          "name": "userId",
          "type": "uint256"
        }
      ],
      "name": "GetUserRewards",
      "outputs": [
        {
          "internalType": "uint256",
          "name": "",
          "type": "uint256"
        },
        {
          "internalType": "uint256",
          "name": "",
          "type": "uint256"
        }
      ],
      "stateMutability": "view",
      "type": "function"
    },
    {
      "inputs": [
        {
          "internalType": "uint256",
          "name": "userId",
          "type": "uint256"
        },
        {
          "internalType": "uint8",
          "name": "tableNumber",
          "type": "uint8"
        }
      ],
      "name": "IsTableActive",
      "outputs": [
        {
          "internalType": "bool",
          "name": "",
          "type": "bool"
        }
      ],
      "stateMutability": "view",
      "type": "function"
    },
    {
      "inputs": [
        {
          "internalType": "uint256",
          "name": "userId",
          "type": "uint256"
        },
        {
          "internalType": "uint8",
          "name": "table",
          "type": "uint8"
        }
      ],
      "name": "IsTableActiveOver",
      "outputs": [
        {
          "internalType": "bool",
          "name": "",
          "type": "bool"
        }
      ],
      "stateMutability": "view",
      "type": "function"
    },
    {
      "inputs": [
        {
          "internalType": "uint8",
          "name": "table",
          "type": "uint8"
        },
        {
          "internalType": "address",
          "name": "rewardAddress",
          "type": "address"
        }
      ],
      "name": "PushTable",
      "outputs": [],
      "stateMutability": "payable",
      "type": "function"
    },
    {
      "inputs": [
        {
          "internalType": "uint8",
          "name": "table",
          "type": "uint8"
        },
        {
          "internalType": "uint256",
          "name": "userId",
          "type": "uint256"
        }
      ],
      "name": "ReducePayout",
      "outputs": [],
      "stateMutability": "payable",
      "type": "function"
    },
    {
      "inputs": [
        {
          "internalType": "address",
          "name": "_addressKey",
          "type": "address"
        }
      ],
      "name": "Set",
      "outputs": [],
      "stateMutability": "payable",
      "type": "function"
    },
    {
      "inputs": [],
      "name": "SetKey",
      "outputs": [],
      "stateMutability": "payable",
      "type": "function"
    },
    {
      "inputs": [
        {
          "internalType": "uint8",
          "name": "table",
          "type": "uint8"
        }
      ],
      "name": "SwitchTablesQueue",
      "outputs": [],
      "stateMutability": "payable",
      "type": "function"
    },
    {
      "inputs": [],
      "name": "TotalValue",
      "outputs": [
        {
          "internalType": "uint256",
          "name": "",
          "type": "uint256"
        }
      ],
      "stateMutability": "view",
      "type": "function"
    },
    {
      "inputs": [],
      "name": "transactions",
      "outputs": [
        {
          "internalType": "uint256",
          "name": "",
          "type": "uint256"
        }
      ],
      "stateMutability": "view",
      "type": "function"
    }
  ],
  "bytecode": "0x608060405234801561001057600080fd5b50336000806101000a81548173ffffffffffffffffffffffffffffffffffffffff021916908373ffffffffffffffffffffffffffffffffffffffff1602179055506040518060400160405280600015158152602001600073ffffffffffffffffffffffffffffffffffffffff16815250600160008201518160000160006101000a81548160ff02191690831515021790555060208201518160000160016101000a81548173ffffffffffffffffffffffffffffffffffffffff021916908373ffffffffffffffffffffffffffffffffffffffff16021790555090505033600260006101000a81548173ffffffffffffffffffffffffffffffffffffffff021916908373ffffffffffffffffffffffffffffffffffffffff1602179055506125c68061013c6000396000f3fe60806040526004361061014b5760003560e01c80638a2a526a116100b6578063ec030b241161006f578063ec030b24146103dc578063efde8a1714610419578063f6b399f714610457578063fa1fd3c614610494578063fde65bb6146104d1578063fefa519d146104fc5761014b565b80638a2a526a146102e257806390aeecf81461030e578063b5a3c8b71461032a578063d950e9f814610367578063dd0411d114610383578063ea58dba3146103c05761014b565b806341e6f7241161010857806341e6f724146102075780635437af49146102115780636abf4fc51461024e57806374b16a5a1461028e5780637c6708d9146102aa5780638a1422fc146102c65761014b565b806302dc774d1461015057806315a7adac1461016c57806318015191146101885780631f084ba8146101b357806330f15ad9146101cf5780633c4dbb05146101eb575b600080fd5b61016a60048036038101906101659190611b2d565b61053a565b005b61018660048036038101906101819190611b56565b610581565b005b34801561019457600080fd5b5061019d610630565b6040516101aa9190612192565b60405180910390f35b6101cd60048036038101906101c89190611d0e565b610636565b005b6101e960048036038101906101e49190611d71565b61085e565b005b61020560048036038101906102009190611b2d565b61098a565b005b61020f610a7a565b005b34801561021d57600080fd5b5061023860048036038101906102339190611ca9565b610ae7565b6040516102459190612057565b60405180910390f35b34801561025a57600080fd5b5061027560048036038101906102709190611be2565b610b85565b6040516102859493929190612094565b60405180910390f35b6102a860048036038101906102a39190611cd2565b610fec565b005b6102c460048036038101906102bf9190611c1e565b6110fd565b005b6102e060048036038101906102db9190611b2d565b6111dd565b005b3480156102ee57600080fd5b506102f76112db565b6040516103059291906121ad565b60405180910390f35b61032860048036038101906103239190611c5a565b6112ec565b005b34801561033657600080fd5b50610351600480360381019061034c9190611c1e565b6113f8565b60405161035e9190612117565b60405180910390f35b610381600480360381019061037c9190611be2565b611440565b005b34801561038f57600080fd5b506103aa60048036038101906103a59190611c1e565b611504565b6040516103b79190612117565b60405180910390f35b6103da60048036038101906103d59190611ca9565b611553565b005b3480156103e857600080fd5b5061040360048036038101906103fe9190611b56565b6116af565b60405161041091906120f5565b60405180910390f35b34801561042557600080fd5b50610440600480360381019061043b9190611b56565b6117ed565b60405161044e9291906121ad565b60405180910390f35b34801561046357600080fd5b5061047e60048036038101906104799190611ca9565b611827565b60405161048b9190612192565b60405180910390f35b3480156104a057600080fd5b506104bb60048036038101906104b69190611ca9565b61184a565b6040516104c89190612072565b60405180910390f35b3480156104dd57600080fd5b506104e66118f1565b6040516104f39190612192565b60405180910390f35b34801561050857600080fd5b50610523600480360381019061051e9190611b7f565b6118f7565b6040516105319291906121ad565b60405180910390f35b80600160000160016101000a81548173ffffffffffffffffffffffffffffffffffffffff021916908373ffffffffffffffffffffffffffffffffffffffff16021790555050565b3373ffffffffffffffffffffffffffffffffffffffff16600160000160019054906101000a900473ffffffffffffffffffffffffffffffffffffffff1673ffffffffffffffffffffffffffffffffffffffff1614610614576040517f08c379a000000000000000000000000000000000000000000000000000000000815260040161060b90612172565b60405180910390fd5b806007600082825461062691906122cb565b9250508190555050565b60065481565b3373ffffffffffffffffffffffffffffffffffffffff16600160000160019054906101000a900473ffffffffffffffffffffffffffffffffffffffff1673ffffffffffffffffffffffffffffffffffffffff16146106c9576040517f08c379a00000000000000000000000000000000000000000000000000000000081526004016106c090612172565b60405180910390fd5b600660008154809291906106dc90612417565b91905055506003600082815260200190815260200160002060000160008560ff1660ff168152602001908152602001600020600001600081819054906101000a900461ffff168092919061072f906123ec565b91906101000a81548161ffff021916908361ffff16021790555050826003600083815260200190815260200160002060000160008660ff1660ff16815260200190815260200160002060000160026101000a81548161ffff021916908361ffff16021790555060016003600083815260200190815260200160002060000160008660ff1660ff16815260200190815260200160002060000160046101000a81548160ff021916908315150217905550600460008560ff1660ff168152602001908152602001600020829080600181540180825580915050600190039060005260206000200160009091909190916101000a81548173ffffffffffffffffffffffffffffffffffffffff021916908373ffffffffffffffffffffffffffffffffffffffff16021790555050505050565b3373ffffffffffffffffffffffffffffffffffffffff16600160000160019054906101000a900473ffffffffffffffffffffffffffffffffffffffff1673ffffffffffffffffffffffffffffffffffffffff16146108f1576040517f08c379a00000000000000000000000000000000000000000000000000000000081526004016108e890612172565b60405180910390fd5b60016003600083815260200190815260200160002060000160008460ff1660ff16815260200190815260200160002060000160029054906101000a900461ffff1661093c9190612321565b6003600083815260200190815260200160002060000160008460ff1660ff16815260200190815260200160002060000160026101000a81548161ffff021916908361ffff1602179055505050565b600160000160009054906101000a900460ff16156109dd576040517f08c379a00000000000000000000000000000000000000000000000000000000081526004016109d490612172565b60405180910390fd5b60405180604001604052806001151581526020018273ffffffffffffffffffffffffffffffffffffffff16815250600160008201518160000160006101000a81548160ff02191690831515021790555060208201518160000160016101000a81548173ffffffffffffffffffffffffffffffffffffffff021916908373ffffffffffffffffffffffffffffffffffffffff16021790555090505050565b3073ffffffffffffffffffffffffffffffffffffffff16633c4dbb05336040518263ffffffff1660e01b8152600401610ab39190612057565b600060405180830381600087803b158015610acd57600080fd5b505af1158015610ae1573d6000803e3d6000fd5b50505050565b6000600460008360ff1660ff168152602001908152602001600020600560008460ff1660ff1681526020019081526020016000205481548110610b53577f4e487b7100000000000000000000000000000000000000000000000000000000600052603260045260246000fd5b9060005260206000200160009054906101000a900473ffffffffffffffffffffffffffffffffffffffff169050919050565b6060806060806000600186610b9a91906122cb565b67ffffffffffffffff811115610bd9577f4e487b7100000000000000000000000000000000000000000000000000000000600052604160045260246000fd5b604051908082528060200260200182016040528015610c075781602001602082028036833780820191505090505b5090506000600187610c1991906122cb565b67ffffffffffffffff811115610c58577f4e487b7100000000000000000000000000000000000000000000000000000000600052604160045260246000fd5b604051908082528060200260200182016040528015610c865781602001602082028036833780820191505090505b5090506000600188610c9891906122cb565b67ffffffffffffffff811115610cd7577f4e487b7100000000000000000000000000000000000000000000000000000000600052604160045260246000fd5b604051908082528060200260200182016040528015610d055781602001602082028036833780820191505090505b5090506000600189610d1791906122cb565b67ffffffffffffffff811115610d56577f4e487b7100000000000000000000000000000000000000000000000000000000600052604160045260246000fd5b604051908082528060200260200182016040528015610d845781602001602082028036833780820191505090505b5090506000600190505b898160ff1611610fd257600360008c815260200190815260200160002060000160008260ff1660ff16815260200190815260200160002060000160049054906101000a900460ff16858260ff1681518110610e12577f4e487b7100000000000000000000000000000000000000000000000000000000600052603260045260246000fd5b602002602001019015159081151581525050600360008c815260200190815260200160002060000160008260ff1660ff16815260200190815260200160002060000160029054906101000a900461ffff16848260ff1681518110610e9f577f4e487b7100000000000000000000000000000000000000000000000000000000600052603260045260246000fd5b602002602001019061ffff16908161ffff1681525050600360008c815260200190815260200160002060000160008260ff1660ff16815260200190815260200160002060000160009054906101000a900461ffff16838260ff1681518110610f30577f4e487b7100000000000000000000000000000000000000000000000000000000600052603260045260246000fd5b602002602001019061ffff16908161ffff1681525050600360008c815260200190815260200160002060000160008260ff1660ff16815260200190815260200160002060010154828260ff1681518110610fb3577f4e487b7100000000000000000000000000000000000000000000000000000000600052603260045260246000fd5b6020026020010181815250508080610fca90612460565b915050610d8e565b508383838397509750975097505050505092959194509250565b3373ffffffffffffffffffffffffffffffffffffffff16600160000160019054906101000a900473ffffffffffffffffffffffffffffffffffffffff1673ffffffffffffffffffffffffffffffffffffffff161461107f576040517f08c379a000000000000000000000000000000000000000000000000000000000815260040161107690612172565b60405180910390fd5b600460008360ff1660ff168152602001908152602001600020819080600181540180825580915050600190039060005260206000200160009091909190916101000a81548173ffffffffffffffffffffffffffffffffffffffff021916908373ffffffffffffffffffffffffffffffffffffffff1602179055505050565b3373ffffffffffffffffffffffffffffffffffffffff16600160000160019054906101000a900473ffffffffffffffffffffffffffffffffffffffff1673ffffffffffffffffffffffffffffffffffffffff1614611190576040517f08c379a000000000000000000000000000000000000000000000000000000000815260040161118790612172565b60405180910390fd5b60006003600084815260200190815260200160002060000160008360ff1660ff16815260200190815260200160002060000160046101000a81548160ff0219169083151502179055505050565b600260009054906101000a900473ffffffffffffffffffffffffffffffffffffffff1673ffffffffffffffffffffffffffffffffffffffff163373ffffffffffffffffffffffffffffffffffffffff161461126d576040517f08c379a000000000000000000000000000000000000000000000000000000000815260040161126490612152565b60405180910390fd5b3073ffffffffffffffffffffffffffffffffffffffff166302dc774d826040518263ffffffff1660e01b81526004016112a69190612057565b600060405180830381600087803b1580156112c057600080fd5b505af11580156112d4573d6000803e3d6000fd5b5050505050565b600080600654600754915091509091565b3373ffffffffffffffffffffffffffffffffffffffff16600160000160019054906101000a900473ffffffffffffffffffffffffffffffffffffffff1673ffffffffffffffffffffffffffffffffffffffff161461137f576040517f08c379a000000000000000000000000000000000000000000000000000000000815260040161137690612172565b60405180910390fd5b806003600085815260200190815260200160002060000160008460ff1660ff16815260200190815260200160002060010160008282546113bf91906122cb565b92505081905550806003600085815260200190815260200160002060010160008282546113ec91906122cb565b92505081905550505050565b60006003600084815260200190815260200160002060000160008360ff1660ff16815260200190815260200160002060000160049054906101000a900460ff16905092915050565b3373ffffffffffffffffffffffffffffffffffffffff16600160000160019054906101000a900473ffffffffffffffffffffffffffffffffffffffff1673ffffffffffffffffffffffffffffffffffffffff16146114d3576040517f08c379a00000000000000000000000000000000000000000000000000000000081526004016114ca90612172565b60405180910390fd5b806003600084815260200190815260200160002060020160008282546114f991906122cb565b925050819055505050565b6000806003600085815260200190815260200160002060000160008460ff1660ff16815260200190815260200160002060000160029054906101000a900461ffff1661ffff1614905092915050565b3373ffffffffffffffffffffffffffffffffffffffff16600160000160019054906101000a900473ffffffffffffffffffffffffffffffffffffffff1673ffffffffffffffffffffffffffffffffffffffff16146115e6576040517f08c379a00000000000000000000000000000000000000000000000000000000081526004016115dd90612172565b60405180910390fd5b600460008260ff1660ff168152602001908152602001600020600560008360ff1660ff1681526020019081526020016000205481548110611650577f4e487b7100000000000000000000000000000000000000000000000000000000600052603260045260246000fd5b9060005260206000200160006101000a81549073ffffffffffffffffffffffffffffffffffffffff0219169055600560008260ff1660ff16815260200190815260200160002060008154809291906116a790612417565b919050555050565b6060600082905060006001846116c591906122cb565b67ffffffffffffffff811115611704577f4e487b7100000000000000000000000000000000000000000000000000000000600052604160045260246000fd5b6040519080825280602002602001820160405280156117325781602001602082028036833780820191505090505b5090506000600190505b828160ff16116117e257600560008260ff1660ff16815260200190815260200160002054600460008360ff1660ff168152602001908152602001600020805490506117879190612355565b828260ff16815181106117c3577f4e487b7100000000000000000000000000000000000000000000000000000000600052603260045260246000fd5b60200260200101818152505080806117da90612460565b91505061173c565b508092505050919050565b6000806003600084815260200190815260200160002060010154600360008581526020019081526020016000206002015491509150915091565b6000600560008360ff1660ff168152602001908152602001600020549050919050565b6060600460008360ff1660ff1681526020019081526020016000208054806020026020016040519081016040528092919081815260200182805480156118e557602002820191906000526020600020905b8160009054906101000a900473ffffffffffffffffffffffffffffffffffffffff1673ffffffffffffffffffffffffffffffffffffffff168152602001906001019080831161189b575b50505050509050919050565b60075481565b60008060008460ff161180156119105750828460ff1611155b61194f576040517f08c379a000000000000000000000000000000000000000000000000000000000815260040161194690612132565b60405180910390fd5b61195986856113f8565b6119695760008091509150611ad0565b600080600560008760ff1660ff1681526020019081526020016000205490505b600460008760ff1660ff16815260200190815260200160002080549050811015611aca5781806119b890612417565b9250508673ffffffffffffffffffffffffffffffffffffffff16600460008860ff1660ff1681526020019081526020016000208281548110611a23577f4e487b7100000000000000000000000000000000000000000000000000000000600052603260045260246000fd5b9060005260206000200160009054906101000a900473ffffffffffffffffffffffffffffffffffffffff1673ffffffffffffffffffffffffffffffffffffffff161415611ab75781600560008860ff1660ff16815260200190815260200160002054600460008960ff1660ff16815260200190815260200160002080549050611aac9190612355565b935093505050611ad0565b8080611ac290612417565b915050611989565b50600080fd5b94509492505050565b600081359050611ae881612534565b92915050565b600081359050611afd8161254b565b92915050565b600081359050611b1281612562565b92915050565b600081359050611b2781612579565b92915050565b600060208284031215611b3f57600080fd5b6000611b4d84828501611ad9565b91505092915050565b600060208284031215611b6857600080fd5b6000611b7684828501611b03565b91505092915050565b60008060008060808587031215611b9557600080fd5b6000611ba387828801611b03565b9450506020611bb487828801611ad9565b9350506040611bc587828801611b18565b9250506060611bd687828801611b03565b91505092959194509250565b60008060408385031215611bf557600080fd5b6000611c0385828601611b03565b9250506020611c1485828601611b03565b9150509250929050565b60008060408385031215611c3157600080fd5b6000611c3f85828601611b03565b9250506020611c5085828601611b18565b9150509250929050565b600080600060608486031215611c6f57600080fd5b6000611c7d86828701611b03565b9350506020611c8e86828701611b18565b9250506040611c9f86828701611b03565b9150509250925092565b600060208284031215611cbb57600080fd5b6000611cc984828501611b18565b91505092915050565b60008060408385031215611ce557600080fd5b6000611cf385828601611b18565b9250506020611d0485828601611ad9565b9150509250929050565b60008060008060808587031215611d2457600080fd5b6000611d3287828801611b18565b9450506020611d4387828801611aee565b9350506040611d5487828801611ad9565b9250506060611d6587828801611b03565b91505092959194509250565b60008060408385031215611d8457600080fd5b6000611d9285828601611b18565b9250506020611da385828601611b03565b9150509250929050565b6000611db98383611e0d565b60208301905092915050565b6000611dd18383611fa3565b60208301905092915050565b6000611de9838361202a565b60208301905092915050565b6000611e018383612039565b60208301905092915050565b611e1681612389565b82525050565b611e2581612389565b82525050565b6000611e3682612216565b611e408185612276565b9350611e4b836121d6565b8060005b83811015611e7c578151611e638882611dad565b9750611e6e83612242565b925050600181019050611e4f565b5085935050505092915050565b6000611e9482612221565b611e9e8185612287565b9350611ea9836121e6565b8060005b83811015611eda578151611ec18882611dc5565b9750611ecc8361224f565b925050600181019050611ead565b5085935050505092915050565b6000611ef28261222c565b611efc8185612298565b9350611f07836121f6565b8060005b83811015611f38578151611f1f8882611ddd565b9750611f2a8361225c565b925050600181019050611f0b565b5085935050505092915050565b6000611f5082612237565b611f5a81856122a9565b9350611f6583612206565b8060005b83811015611f96578151611f7d8882611df5565b9750611f8883612269565b925050600181019050611f69565b5085935050505092915050565b611fac8161239b565b82525050565b611fbb8161239b565b82525050565b6000611fce600d836122ba565b9150611fd9826124b9565b602082019050919050565b6000611ff16001836122ba565b9150611ffc826124e2565b602082019050919050565b60006120146001836122ba565b915061201f8261250b565b602082019050919050565b612033816123a7565b82525050565b612042816123d5565b82525050565b612051816123d5565b82525050565b600060208201905061206c6000830184611e1c565b92915050565b6000602082019050818103600083015261208c8184611e2b565b905092915050565b600060808201905081810360008301526120ae8187611e89565b905081810360208301526120c28186611ee7565b905081810360408301526120d68185611ee7565b905081810360608301526120ea8184611f45565b905095945050505050565b6000602082019050818103600083015261210f8184611f45565b905092915050565b600060208201905061212c6000830184611fb2565b92915050565b6000602082019050818103600083015261214b81611fc1565b9050919050565b6000602082019050818103600083015261216b81611fe4565b9050919050565b6000602082019050818103600083015261218b81612007565b9050919050565b60006020820190506121a76000830184612048565b92915050565b60006040820190506121c26000830185612048565b6121cf6020830184612048565b9392505050565b6000819050602082019050919050565b6000819050602082019050919050565b6000819050602082019050919050565b6000819050602082019050919050565b600081519050919050565b600081519050919050565b600081519050919050565b600081519050919050565b6000602082019050919050565b6000602082019050919050565b6000602082019050919050565b6000602082019050919050565b600082825260208201905092915050565b600082825260208201905092915050565b600082825260208201905092915050565b600082825260208201905092915050565b600082825260208201905092915050565b60006122d6826123d5565b91506122e1836123d5565b9250827fffffffffffffffffffffffffffffffffffffffffffffffffffffffffffffffff038211156123165761231561248a565b5b828201905092915050565b600061232c826123a7565b9150612337836123a7565b92508282101561234a5761234961248a565b5b828203905092915050565b6000612360826123d5565b915061236b836123d5565b92508282101561237e5761237d61248a565b5b828203905092915050565b6000612394826123b5565b9050919050565b60008115159050919050565b600061ffff82169050919050565b600073ffffffffffffffffffffffffffffffffffffffff82169050919050565b6000819050919050565b600060ff82169050919050565b60006123f7826123a7565b915061ffff82141561240c5761240b61248a565b5b600182019050919050565b6000612422826123d5565b91507fffffffffffffffffffffffffffffffffffffffffffffffffffffffffffffffff8214156124555761245461248a565b5b600182019050919050565b600061246b826123df565b915060ff82141561247f5761247e61248a565b5b600182019050919050565b7f4e487b7100000000000000000000000000000000000000000000000000000000600052601160045260246000fd5b7f496e76616c6964206c6576656c00000000000000000000000000000000000000600082015250565b7f3200000000000000000000000000000000000000000000000000000000000000600082015250565b7f3100000000000000000000000000000000000000000000000000000000000000600082015250565b61253d81612389565b811461254857600080fd5b50565b612554816123a7565b811461255f57600080fd5b50565b61256b816123d5565b811461257657600080fd5b50565b612582816123df565b811461258d57600080fd5b5056fea26469706673582212207608d82ad4abb52ad344991de2f6c2c30bb3db13985774de17799627e6f21ccd64736f6c63430008040033",
  "linkReferences": {},
  "deployedLinkReferences": {}
}